:1000000000800020BD0100000DAD0000C5AC000067
:10001000C5AC0000C5AC0000C5AC0000C5AC00001C
:10002000C5AC0000C5AC0000C5AC00000DAD0000C3
:100030000DAD0000C5AC0000B5C40000B9C400009F
:100040000DAD00000DAD00000DAD00000DAD0000C8
:100050000DAD00000DAD00000DAD00000DAD0000B8
:100060000DAD00000DAD00000DAD00000DAD0000A8
:100070000DAD00000DAD00000DAD00000DAD000098
:100080000DAD00000DAD00000DAD00000DAD000088
:100090000DAD00000DAD00000DAD00000DAD000078
:1000A000355100000DAD00000DAD00000DAD00009C
:1000B0000DAD00000DAD00000DAD00000DAD000058
:1000C0000DAD00000DAD00000DAD00000DAD000048
:1000D0000DAD00000DAD00000DAD00000DAD000038
:1000E0000DAD00000DAD00000DAD00000DAD000028
:1000F0000DAD00000DAD00000DAD00000DAD000018
:100100000DAD00000DAD00000DAD00000DAD000007
:100110000DAD00000DAD00000DAD00000DAD0000F7
:100120000DAD00000DAD00000DAD00000DAD0000E7
:100130000DAD00000DAD00000DAD00000DAD0000D7
:100140000DAD00000DAD00000DAD00000DAD0000C7
:100150000DAD00000DAD00000DAD00000DAD0000B7
:100160000DAD00002DB300000DAD00000DAD000081
:100170000DAD00000DAD00000DAD00000DAD000097
:100180000DAD00000DAD00000DAD00000DAD000087
:100190000DAD00000DAD00000DAD00000DAD000077
:1001A0000DAD00000DAD00000DAD00000DAD000067
:1001B0000DAD00000DAD000071C20000564B4CF2B9
:1001C000205210B51A804DF628121A8000BF00BFC9
:1001D00000F0F2FB514B4FF010621A60504A9A60E7
:1001E000504ADA60504A136813F4807304D14F49BF
:1001F0000B604FF4A85313604D4B1A78110703D5C9
:100200001A7842F008021A704A4B4B492A221A7097
:100210004A4A4B4B8B4204D252F8040F43F8040B6A
:10022000F8E7484B484900228B4202D243F8042B9E
:10023000FAE74649464A002352F8230041F82300D2
:1002400001336F2BF8D1434B434A802103F8011B44
:100250009342FBD1414B3D4A1A60414B8A221A70AE
:10026000A3F5805324225A70A0221A709A7992071B
:10027000FCD59A79D406FCD43A4A937903F00C035E
:10028000082B384BF9D103221A7140225A719A79FE
:100290009006FCD5334A9179324B4906FBD5324A58
:1002A000324911600221516020221A709A7902F0BD
:1002B0000C020C2AFAD12E4B2E4A1A602E4B2F4AD2
:1002C0001A6000225A60072243F8042C2C4AC3F813
:1002D0000C2D62B60AF000FF144B1B68DA0705D537
:1002E00028480AF07DFE284B284A1A60284B1B78C4
:1002F0005B0609D5244C254B22689A4204D121483B
:100300000AF06EFE002323600AF004FD0DF03AFEB1
:100310000CF03AFAFEE700BF0E20054030800440A2
:10032000823F04000100002B10D0034014D0034092
:1003300002D0074000E00740980A00202465010031
:1003400020F9FF1F980A0020A458002000F4FF1F86
:100350000000000000E400E05FE400E008ED00E0E1
:100360000050064000400640448004400000030165
:1003700004800440C010050014E000E0FF76010096
:1003800000002020B7E966671CE00340A5C3945A2B
:1003900000F00740FFFFFFFFFFFFFFFFFFFFFFFF32
:1003A000FFFFFFFFFFFFFFFFFFFFFFFFFFFFFFFF5D
:1003B000FFFFFFFFFFFFFFFFFFFFFFFFFFFFFFFF4D
:1003C000FFFFFFFFFFFFFFFFFFFFFFFFFFFFFFFF3D
:1003D000FFFFFFFFFFFFFFFFFFFFFFFFFFFFFFFF2D
:1003E000FFFFFFFFFFFFFFFFFFFFFFFFFFFFFFFF1D
:1003F000FFFFFFFFFFFFFFFFFFFFFFFFFFFFFFFF0D
:10040000FFFFFFFFFFFFFFFFFFFFFFFFDEF9FFFF23
:1004100010B5054C237833B9044B13B10448AFF33E
:1004200000800123237010BD980A00200000000006
:1004300020650100084B10B51BB108490848AFF30F
:1004400000800848036803B910BD074B002BFBD0A0
:10045000BDE81040184700BF000000009C0A0020C3
:1004600020650100980A002000000000002070476D
:10047000704700BFF8B55548554D564C297803785C
:100480002278DFF868E1544F544E120442EA032305
:10049000FF222A700270802022708EF800003870CF
:1004A000B2794F480B4312F00C0FC36002D1B379FD
:1004B000DC063DD4494A9379C3F38103032B40D032
:1004C000464B9A79C2F38102022A42D0434A937979
:1004D000C3F38103022B53D0404A9379C3F38103C2
:1004E000022B61D03D4A9379C3F38103012B51D094
:1004F0003A4A9379C3F38103012B5CD0374B9A7945
:1005000012F00C0F03D19A79D20600D49B79354DA5
:10051000354B2A7853F82240D4B1236820469B6893
:1005200098472B7804EB83046468002CF5D1F8BD60
:10053000B3799806EBD5294A9379C3F38103032B4A
:10054000BED19379D906BBD493799B06DFD4B7E7A4
:10055000F8BD9A79D706B9D49A799606B6D559785E
:1005600001F0020101F0FF020029AFD120211A7031
:100570001A461970937903F00C030C2BFAD1C6E7D5
:100580009379DD06A8D493799C06A5D4537898076F
:10059000BDD5A1E79379DF06AAD593799E06A7D4A6
:1005A00053789D07B3D4A3E79379D9069AD45378A7
:1005B0009B07ACD496E79379DC069FD59379980690
:1005C0009CD453789907A2D598E700BF06C007408E
:1005D00005C0074007C0074009C00740004006406B
:1005E0007C580020DC5600209C56002008C00740A4
:1005F00090F92410104B03604B1C06D0F0B40F4E42
:1006000056F82130984201D0F0BC70470C4F57F893
:10061000213033B18D0000245A1953685460002BE7
:10062000FAD1084C23780022013B237047F821209F
:1006300046F82120E8E700BF00520100BC56002028
:100640009C560020DD56002038B590F924506B1CD4
:100650001BD00E4B0E4953F825400E4BEDB24FF018
:10066000FF320D701A6084B1AD0002E02C44646862
:100670005CB194F82530002BF8D0236820462C4438
:100680001B6898476468002CF3D138BD9C56002045
:10069000DC560020B8F3FF1F704700BF90F924100C
:1006A000104B03604B1C06D0F0B40F4E56F82130AF
:1006B000984201D0F0BC70470C4F57F8213033B14D
:1006C0008D0000245A1953685460002BFAD1084C4D
:1006D00023780022013B237047F8212046F821208F
:1006E000E8E700BF00520100BC5600209C560020E5
:1006F000DD56002090F92410104B03604B1C06D0EF
:10070000F0B40F4E56F82130984201D0F0BC70473B
:100710000C4F57F8213033B18D0000245A1953681B
:100720005460002BFAD1084C23780022013B23703F
:1007300047F8212046F82120E8E700BF00520100D9
:10074000BC5600209C560020DD560020704700BF9C
:1007500010B5002104460BF0F5FCB0B1B4F8B4318B
:100760009BB2C3B1B4F8B031B4F8B2219BB201333B
:10077000632BC8BF002392B2934207D09A1D04EBAB
:1007800082029BB25060A4F8B03110BDD4F8B831E9
:100790000133C4F8B831BDE810400BF08FBC00BF86
:1007A00010B5044B044640F8103B07F0AFFF20465D
:1007B00010BD00BFB851010010B504460BF002FD9A
:1007C000204610BDB0F8B231B0F8B0119BB289B27A
:1007D0008B4202460FD00133632B86BF00210B46AC
:1007E00099B2063300EB83035868C2F8AC01A2F853
:1007F000B211043070470020704700BF826C62B1B4
:10080000137803F0080303F0FF0003B3D3695069C2
:10081000181A48BF6FF000407047C16CC1B191F821
:10082000313003F0080303F0FF0083B1D1E9042362
:10083000D1E90001101A30B463EB010100256FF01B
:1008400000448D4208BF844200D2204630BC70472D
:1008500008467047836C13B1184607F0D1B8C06CD6
:1008600008B105F0E3BE704700B5836C83B063B197
:10087000184601220DF1070106F00CFF01280CD1EA
:100880009DF8070003B05DF804FBC06C28B101229D
:100890000DF1070105F00AFAF0E74FF0FF30F1E73C
:1008A000836C13B1184606F0BFBFC06C08B105F0E9
:1008B000CDBA4FF0FF307047836C13B1184607F084
:1008C000A5B8C06C08B106F04FB8704700B5836C8E
:1008D00083B08DF8071043B1184601220DF10701CE
:1008E00007F094F803B05DF804FBC06C0028F9D061
:1008F00001220DF1070106F037F803B05DF804FBA3
:1009000070B5044608460D460EF0FAF92368024613
:10091000294620465B68BDE870401847002310B4A4
:10092000104C4172026104600372C36041B1194608
:1009300000E0026942F82310427A01339A42F8DC5F
:10094000094B1A680AB90BE01A465369002BFBD110
:100950005061002343618380C380837210BC704761
:100960001860F6E7AC510100F057002038B5054695
:10097000D0F8AC0120B10BF0A1FB0023C5F8AC31DD
:10098000B5F8B241B5F8B031A4B29BB29C420ED0DA
:100990000134642C28BF0024A31D05EB8303586891
:1009A0000BF08CFBB5F8B0319BB29C42F0D19BB2FE
:1009B000A5F8B23138BD00BF464A474B1020108021
:1009C0001B781B0734D5F0B5444E454D454C317866
:1009D0002B782278DFF82CE1434F824042EA032350
:1009E0000B43FF22802132702A7022708EF8001093
:1009F0003970D9073D4A14D51A2393603C4F3D4EB8
:100A00003D4D3E4C3E49107900233B70537093702E
:100A1000D370D360337013712B7023701370087010
:100A2000F0BD1F0705D4DE0606D504239360E5E775
:100A3000704721239360E1E79D0604D45C0604D54A
:100A400016239360DAE79060D8E7180602D50923E9
:100A50009360D3E7D90502D50A239360CEE79F05BB
:100A600002D50D239360C9E75E0502D50B23936081
:100A7000C4E71D0502D51E239360BFE7DC0402D541
:100A800002239360BAE7980402D507239360B5E781
:100A9000590402D506239360B0E71F0402D515233D
:100AA0009360ABE7DE0302D524239360A6E79D03A2
:100AB00002D522239360A1E7DC0202D525239360AF
:100AC0009CE71803F5D45903F3D49B0244BF2323B6
:100AD000936093E70020054002D0074005C007401F
:100AE00006C0074007C0074009C007407C580020E7
:100AF00000C0074001C0074002C0074003C00740D4
:100B000004C0074008C00740002976D02DE9F04F07
:100B10000C469100631883B05D68002D57D06B18A8
:100B20005E68002E50D073185F68002F49D07B1884
:100B3000D3F80480B8F1000F3CD008EB0103D3F8E0
:100B40000490B9F1000F32D009EB0103D3F804A0EF
:100B5000BAF1000F27D00AEB0103D3F804B0BBF1C0
:100B6000000F18D00BEB01035B6863B119440193CC
:100B70004968FFF7C9FF019B93F825201AB11A684D
:100B80001846536898479BF8253023B1DBF80030AE
:100B900058465B6898479AF8253023B1DAF8003058
:100BA00050465B68984799F82530002B35D198F866
:100BB000253063BB97F825301BB13B6838465B682E
:100BC000984796F82530CBB995F8253063B994F855
:100BD000253013B903B0BDE8F08F23685B68204669
:100BE00003B0BDE8F04F18472B6828465B6898476C
:100BF00094F82530002BEDD0EFE77047336830468E
:100C00005B68984795F82530002BE0D0ECE7D8F8E2
:100C1000003040465B689847CCE7D9F8003048463A
:100C20005B689847C3E700BF90F92420531C26D087
:100C30001B4B2DE9F04153F82240D2B2ECB19300A6
:100C4000E1184D68B5B1E9184E6866B1F1184F6802
:100C500037B13B445968FFF757FF97F82530A3B9E0
:100C600096F8253063B995F825301BB12B682846D6
:100C70005B68984794F8253063B9BDE8F081704708
:100C8000336830465B689847EDE73B6838465B68F9
:100C90009847E5E7236820465B68BDE8F0411847C0
:100CA0009C56002008B50C4B0C491A680C48022AC7
:100CB00008BF0C4A4FF00003A1F8B43108BFA2F8F6
:100CC000B431094A094B12881A8007F01FFD6420CD
:100CD000BDE808400AF0B2B90CFAFF1F804F0020AF
:100CE000F05400203C5100201C580020F4570020F4
:100CF000264B1B680F2B0CD8DFE803F00C101418E0
:100D00001C2024282C3034383C404408204B214AF5
:100D10001A6070471E4B204A1A6070471C4B1F4ACE
:100D20001A6070471A4B1E4A1A607047184B1D4ACA
:100D30001A607047164B1C4A1A607047144B1B4AC6
:100D40001A607047124B1A4A1A607047104B194AC2
:100D50001A6070470E4B184A1A6070470C4B174ABE
:100D60001A6070470A4B164A1A607047084B154ABA
:100D70001A607047064B144A1A607047044B134AB6
:100D80001A607047024B124A1A60704700FAFF1F40
:100D9000C8540020BD549341103377C0993918C00E
:100DA000BE0D68BFCE71153F8D090340CCC96240AE
:100DB00009A7A3407DDBD140C416014154FC174173
:100DC000D0E83041195546419FAB5F41A041764183
:100DD0005E2E864138B50121142009F04BFF234BCC
:100DE0001B68012B3DD0002107200AF00DF90021DE
:100DF0000C200AF009F900210E200AF005F905215E
:100E000007200AF015F91A4C1A4D05210C200AF09A
:100E10000FF905210E200AF00BF9207800210AF0C5
:100E2000F3F8287800210AF0EFF8052128780AF075
:100E3000FFF84FF4FA600AF001F9012120780AF076
:100E4000E3F84FF4FA600AF0F9F8207800210AF08C
:100E5000DBF84FF4FA600AF0F1F8074B074A1A6022
:100E600038BD074807F052FCBDE700BFB80A0020B4
:100E70009C530020F05300200CED00E00400FA0524
:100E8000F05400202DE9F84FDFF8E891D9F8003050
:100E9000012B61D0022B01D0BDE8F88F6F4DB5F862
:100EA000B031B5F8B22199B293B2994238BF6431EA
:100EB000CB1A1F2BF0DD01211120DFF8BCA1DFF8D8
:100EC000B0B1DFF898910AF09FF80AF58047D8464C
:100ED0000026D5F8AC310024002B00F08C80DBF824
:100EE000AC310020002B00F0828000F58071534669
:100EF00034F9022B23F8042C30F9022B23F8022CAE
:100F0000884203F10403F3D1D5F8AC0118B10BF01A
:100F1000D5F8C9F8AC61DBF8AC0118B10BF0CEF82C
:100F2000C8F8AC610AF5007A5745D2D111200021EA
:100F30000AF06AF84A4B986C002876D04FF4804249
:100F4000484906F063FD013000F08180464A13688D
:100F500020331360BDE8F88F404DB5F8B031B5F8D7
:100F6000B22199B293B2994238BF6431CB1A3F2B68
:100F700092DD3E4CDFF8E4A0012111200AF044F894
:100F800004F5804800271AE009F08AFB30460BF090
:100F900095F8C5F8AC713148FFF714FC4FF4807236
:100FA0000146204609F07CFBD5F8AC0118B10BF0E6
:100FB00085F8CAF8AC7104F50074444520D0D5F822
:100FC000AC61A4F5807B4FF4807200215846002E5E
:100FD000DAD12248FFF7F6FBDAF8AC6101464FF4AC
:100FE0008072584609F05CFB002ED4D0CEE7204832
:100FF000FFF7E8FB79E71948FFF7E4FB04466EE7E3
:10100000112000210AF000F8154B986CB0B14FF494
:101010008042144906F0FAFC01301BD01249D9F87D
:1010200000300A6820320A6034E7D86C00288DD07E
:101030004FF480420B4905F097FC84E7D86C0028F8
:10104000ECD04FF48042074905F08EFCE4E7FFF74F
:10105000C1FE7BE7FFF7BEFEE0E700BF804F002048
:10106000E0540020C40A00207C4F0020C40B002064
:101070003C5100200CFAFF1FC80A0020064A074B0B
:10108000116853F8211031B1116853F82120013A49
:1010900043F821207047FEE7985500204055002076
:1010A00010B582B004460DF02BFE00B2012816DD0B
:1010B000B4F9003044F25242934233D012DD44F28C
:1010C000537293421DD044F65212934207D101AAA3
:1010D000E01C1C490DF0DCFD1B4B019A1A6001203D
:1010E00002B010BD44F24E429342F8D101AAE01C76
:1010F00014490DF0CDFD154B019A1A60012002B084
:1011000010BDE01C01AA0F490DF0C2FD019B0F2B81
:1011100013D90F4B042119600F2009F0ABFD0120FA
:1011200002B010BD01AAE01C06490DF0B1FD094B4B
:10113000019A1A60012002B010BD054AD9B21360AD
:10114000EAE700BF18520100A0FAFF1FC00A002002
:1011500000FAFF1F98FAFF1F2DE9F04FDFF8988281
:10116000A04BD8F878549FB04FF47A720A930023BA
:101170008DF82C308DF834301C931D930C92002D7B
:1011800000F0CF8005F23C46304606F019F92946BA
:10119000304606F079FADFF87492D9F800100EAFF5
:1011A00021B138460023904A07F0C4FA1C98002861
:1011B00000F0D48000252E468DF808604FF0000B1B
:1011C0004FF0FF0A98B101220DF1070106F062FA13
:1011D000012817D00BF101031EAA93441BB21D2B4B
:1011E0000BF870AC17DC1C989B460028EBD11D9BBC
:1011F000002B55D0184601220DF1070104F056FDD1
:101200000128E7D19DF807200D2A08BF5B4640F072
:10121000C9801D2BE7DD013B9BB21EAA1A4402F8D0
:10122000706C9DF808202F2A04D0012B02D902A847
:10123000FFF736FF1C98C0B1037819070ED4384663
:1012400007F064FA002D36D10124684B0A93384622
:1012500007F05CFA20461FB0BDE8F08FC369426911
:101260009A1AA9D4002AA7D1E9E71D9B002BE6D042
:1012700093F831201207E2D5D3E904ABD3E9002378
:10128000BAEB02026BEB03034FF0000B6FF0004A66
:101290009B4508BF924538BF5246002A8CD1CEE705
:1012A0000BF101031EAA93441BB21D2B0BF870AC6B
:1012B000B1DC9B4699E70B214D480AF077FD0023EE
:1012C0000A2221464B480BF03FF94A480BF012F92D
:1012D000D8F87854484B9DB305F23C46304606F0AA
:1012E0006FF82946304606F0CFF9D9F8001029B139
:1012F00044F202233C4A384607F01CFA1C9B002BA0
:1013000049D02146184606F0C5FA1C9800283AD064
:1013100002223A4906F07AFB384607F0F7F9012431
:1013200093E7D8F87C54002D3FF435AF05F5886677
:10133000304604F03BFC2946304604F041FC2AE7E5
:10134000D3F87C54002DD0D005F58866304604F0E3
:101350002DFC2946304604F033FCC6E71D9D002DC8
:101360007FF428AF142126480AF020FD21480BF015
:10137000C1F80D22234924480BF0A6F822482C4638
:101380000BF0B8F861E71D980028C5D002221B4970
:1013900005F0EAFAC0E71D980028BDD0224604F007
:1013A0006DFDB2E71EAB03EB0B01542A0BF10103F9
:1013B00001F8702C1BB20DD11C9818B14469013C86
:1013C000012526E71D9A12B11468013CF8E74FF099
:1013D000FF34F5E71D2B3FF71EAF0A2A3FF41BAF82
:1013E00001E700BFDC5101001C520100B8510100AF
:1013F0002852010038000020C84A00203452010061
:101400003852010050520100245300209056002011
:101410002DE9F041044604200D46164609F0FAFD78
:101420008046032009F0F6FD0746B8F1000F2AD1E7
:10143000DFF89C80244AD8F800300121132B11706A
:1014400039DD0133642BC8F800303ADDC82BD4BF36
:1014500005343C3467B91D4F1B4A3B680121132BEF
:10146000117022DD3C2C16DC01233B60013C02E0C4
:10147000164B00221A60AC4209DBB442C8BF2C46AE
:101480002046BDE8F081124B00221A60E2E73446A4
:101490002046BDE8F0813B680133642B3B60E5DD0D
:1014A000C82BD4BF053C3C3CE5E7C82009F0C6FD8D
:1014B0003C2CD9DDEFE7C82009F0C0FDD8F800309A
:1014C000BFE70134C6E700BF704F00205055002031
:1014D000D854002010B5094C204608F09DFE204647
:1014E000012108F0EFFB2046022108F0E5FB002275
:1014F00020461146BDE8104008F0DABB2453002016
:1015000038B5054608F05AF91E4C014620460BF046
:101510005BF82D200AF0CEFC284608F041F9014680
:1015200020460BF051F82D200AF0C4FC284608F0A4
:1015300029F9014620460BF047F8012112480AF02C
:1015400035FC284608F0F4F8014620460BF03CF83C
:101550003A200AF0AFFC284608F0F8F80146204689
:101560000BF032F83A200AF0A5FC284608F0FCF807
:10157000014620460BF028F82046BDE838400AF026
:10158000B9BF00BF380000203C54010038B5054603
:1015900009F056FB074C2070681C09F051FB607085
:1015A000A81C09F04DFBA070E81C09F049FBE07095
:1015B000206838BD8453002008B50020FFF7E6FFFF
:1015C0001D4B18600420FFF7E1FF1C4B186008203A
:1015D00009F036FB1A4B1870092009F031FB194B42
:1015E00018700A2009F02CFB174B18700B2009F01B
:1015F00027FB164B18700C2009F022FB144B1860C7
:101600000D2009F01DFB134B18600E2009F018FB8C
:10161000114B18700F2009F013FB104B18601020AD
:1016200009F00EFB0E4B18601220FFF7AFFF0D4BB9
:1016300080B2188008BD00BF98FAFF1FA0FAFF1FF4
:10164000BC0A00209455002038540020784F002018
:10165000CC5400208CFAFF1F94FAFF1F00FAFF1FE2
:101660000CFAFF1FBE0A002038B50A4C0B4605468F
:10167000C9B2236009F0FEFA6178681C09F0FAFA31
:10168000A178A81C09F0F6FAE178E81CBDE838401A
:1016900009F0F0BA8453002008B51F4B00201968E8
:1016A000FFF7E2FF1D4B04201968FFF7DDFF1C4B1D
:1016B0000820197809F0DEFA1A4B0920197809F088
:1016C000D9FA194B0A20197809F0D4FA174B0B20D4
:1016D000197809F0CFFA164B0C20197809F0CAFADC
:1016E000144B0D20197809F0C5FA134B0E20197808
:1016F00009F0C0FA114B0F20197809F0BBFA104B12
:101700001020197809F0B6FA0E4B1988122089B208
:10171000BDE80840FFF7A8BF98FAFF1FA0FAFF1F17
:10172000BC0A00209455002038540020784F002037
:10173000CC5400208CFAFF1F94FAFF1F00FAFF1F01
:101740000CFAFF1FBE0A002070B5154C154D20463F
:10175000022108F0B1FA144B2A6853F8226030468F
:101760000DF0CEFA3146024620460AF0ADFE204684
:101770000AF0C0FE2046012108F09EFA2A680B4BB1
:1017800053F8225028460DF0BBFA2946024620465F
:101790000AF09AFE2046BDE870400AF0ABBE00BFDA
:1017A000245300209853002060FAFF1FCCFAFF1F3B
:1017B00030B5012183B0154808F07EFA002264217B
:1017C000124808F075FA00254FF47A74152009F0D4
:1017D00073F90BF0A5FF014628460BF0EDFE013C26
:1017E0000546F3D10A490CF0A3F80BF043FB0124A2
:1017F00002460B46009405480AF0EEFE05490348F0
:10180000224603B0BDE830400AF05EBE24530020FB
:1018100000CB29486052010008B501210F4808F0AB
:101820004BFA082264210D4808F042FA0C4B1B6861
:10183000012B0BD008225A21084808F039FA062259
:1018400008490648BDE808400AF03EBE04220649A1
:101850000248BDE808400AF037BE00BF245300200C
:101860000CFAFF1F6C520100645201002DE9F04F89
:1018700083B00F46019080680021013016460BF0BE
:1018800065FF014629480CF053F8044630460BF03A
:1018900043FF01460BF090FE064638460BF03CFF36
:1018A000014630460BF090FF014620460CF040F810
:1018B0004FF001084FF07E550746C1464FF0010A30
:1018C0004FF0000B50460BF02BFF39460BF07CFF1E
:1018D00004460CF03FF90BF023FF014620460BF0C5
:1018E00069FE294606460CF00DF94FF0874148B1D4
:1018F00020460CF007F928B120460CF089F935464E
:101900008046D1461AF1010A4BF1000BBBF1000FE2
:1019100008BFBAF1400FD5D1019809F1FF3208F1A3
:10192000FF3380E80C0003B0BDE8F08F001B374C9C
:101930002DE9F04110298AB00C46074663D02029D2
:1019400004BF012309932246394607A8FFF78EFFFB
:101950000798089E099D0294431C013601350393A4
:10196000049605950BF0D8FE4FF07E510BF024FE47
:1019700026490BF029FF804630460BF0CDFE01468C
:1019800040460BF0D5FF4FF07C510BF01DFF064693
:1019900028460BF0C1FE014630460BF0C9FF054654
:1019A00060000BF0BDFE014628460BF0C1FF0CF0B5
:1019B000D1F8174B01901A46009716491648174D53
:1019C000174C0AF0B3FD174917480B6823F0104372
:1019D0000B60079A089B120302F47F22C3F30B03E8
:1019E00013432B609DF8243043F0E06323609DF89F
:1019F000243043F08E4303600B6843F010430B60C8
:101A00000AB0BDE8F081032309939CE7001BB74CA3
:101A100000D8B805745201003800002004F10240DB
:101A200008F0024080F0024088F002402DE9F04FBB
:101A300005469D4E9D4FDFF88C8296F800E02F60A2
:101A4000FF2085F82400DFF8809298F80000BEF1AE
:101A5000060F59F820E04FF000038DB00C4685F8D2
:101A6000253085F8263098BF3370BEF1000F00F0A6
:101A7000AD808E455ED07346810001E09C4259D016
:101A80000B445B68002BF9D1734600E053460B44CE
:101A9000D3F804A0BAF1000FF8D15C603478029753
:101AA00005EB010B4FFA80FCFF23062CCBF804A0BA
:101AB0008DF82DA08DF82EA085F824C08DF82C303F
:101AC000744604D800233370002C00F0B480A24286
:101AD00029D0234601E0934225D00B445B68002BBC
:101AE000F9D104EB010EDEF80440002CF9D1CEF858
:101AF00004200CAB1944BCF1FF3F00F101034FF08F
:101B0000000041F8240C88F800308DF82CC00297B2
:101B100005D0674951F82C2002AB9A4276D028466E
:101B20000DB0BDE8F08F013088F8000028460DB0F8
:101B3000BDE8F08F31780297FF24002306298DF845
:101B40002C408DF82D308DF82E30574C00D8237056
:101B50009645E8D07346810001E09A42E3D00B44F9
:101B60005B68002BF9D18E44DEF804402CB1A64608
:101B70008E44DEF80440002CF9D10CAB46B2194477
:101B80000130731CCEF8042088F8000041F8244C82
:101B900002978DF82C60C2D0454951F8262002AB3F
:101BA0009A42BCD159F82630B00023B11A185368B4
:101BB0005460002BFAD198F800300022013B88F8DD
:101BC000003049F8262041F82620A8E700283AD01E
:101BD000374B96F800E043F82050810005EB010CEC
:101BE000002349F820408DF82D30CCF804308DF8D2
:101BF0002E304FFA80FCFF23BEF1060F029785F8C6
:101C000024C08DF82C307FF65DAF5DE759F82C309D
:101C10004FEA8C0423B11A1953685060002BFAD193
:101C200098F800300022013B88F8003049F82C2059
:101C300041F82C2073E7E8B11D4B49F8202002AA97
:101C400043F8202055E71B491B480B68019243F0DD
:101C500080630B600368194923F0804303601520FB
:101C600009F0F0F8164B019A4FF40011196098F83A
:101C70000000ADE70F4C10482368019243F08063E9
:101C8000236003680D4923F080430360152009F0A9
:101C9000D9F80B4B019A4FF40011196098F8000025
:101CA0004FFA80FC8100C7E7BCF3FF1F0052010020
:101CB000BC5600200470044000700440750400000D
:101CC00000E100E0DD5600209C5600202DE9F047A1
:101CD00008F070FF4FF0FF316748684D08F088FA50
:101CE0006749684B0A682B6000236B722B612B726B
:101CF000EB600AB9BDE01A465369002BFBD1556170
:101D00000024614E614F624B6C61AC80EC80AC7220
:101D10005A482B60DFF8C891DFF8C8A1DFF8C88106
:101D200002F0F6FF06F1180230460121FEF7F6FD3B
:101D300007F1180201213846A6F8B041C6F8AC41B7
:101D4000A6F8B241C6F8B841A6F8B441C6F800A05A
:101D5000FEF7E4FD4846A7F8B04189E86000A7F81F
:101D6000B241C7F800A0C7F8AC41C7F8B841A7F81E
:101D7000B44189F8084089F80940C9F80C4089F84D
:101D800010400AF0EBF9434A4349444EDFF85CA1A6
:101D900048460AF005FF4FF00109404688E8A000D8
:101DA00088F80940C8F80C4088F8104088F8089076
:101DB0000AF0D4F93849374A394D40460AF0F0FE66
:101DC000384A394B106A394A1A600BF0A9FCFF27D0
:101DD000CAF80000364B86F8254086F824702D4A54
:101DE000344974633046B46386F83C4086F82690E4
:101DF00033600AF0D5FE304B85F8247085F8254015
:101E0000244A2E492B60284685F8269085F82740DD
:101E100085F828400AF0C4FE324629462848294D54
:101E2000FFF704FE1B4A284925480AF0B9FE274B54
:101E3000184AC3F878442826C3F87C4483F89844A9
:101E400083F89564C3F8A0542149224D18460AF03E
:101E5000A7FE214B0F4A1C714FF47A761C739C64C9
:101E6000DC649E601D601D491846BDE8F0470AF01D
:101E700097BE0D6044E700BF2453002008540020A3
:101E8000F0570020AC510100804F00203C51002051
:101E900014580100FCF9FF1FB9070000AC530020E3
:101EA000605500203CFAFF1F78530020F8570100CE
:101EB000505901009D06000064590100F50600001C
:101EC000A054002001100138F1050000C84A00208C
:101ED0004D070000DC510100E0540020A107000084
:101EE000F8520020145201000C53002030550020FD
:101EF0002DE9F84F424C434FDFF80C810A9E0B9DB1
:101F000081468A462046396893461F4603F048FBBF
:101F10002046002103F042F888FB0B314FEAEB73B7
:101F2000C3EBA10101EB8102ABEB420B0BF00F0BFA
:101F30004BEA0111C9B2204603F030F888FB0A31A0
:101F40004FEAEA73C3EBA10101EB8103AAEB430A59
:101F50000AF00F0A4AEA0111C9B2204603F01EF83E
:101F600088FB09314FEAE973C3EBA10303EB83015B
:101F7000A9EB41011B0103F0300301F00F011943EC
:101F8000204603F00BF82046012103F007F888FBF8
:101F90000731FB17C3EBA10101EB8103A7EB43075B
:101FA00007F00F0747EA0111C9B2204602F0F6FF19
:101FB00088FB0631F317C3EBA10101EB8103A6EB0C
:101FC000430606F00F0646EA0111C9B2204602F0A8
:101FD000E5FF88FB0538E917C1EBA80808EB880185
:101FE000A5EB410505F00F0545EA08112046C9B2E9
:101FF00002F0D4FF2046BDE8F84F03F0E3BA00BF7B
:1020000078560020F8FAFF1F6766666670B5104CB8
:1020100006460D4620460A2103F0C2FAC6F3072100
:10202000204602F0BBFFF1B2204602F0B7FFC5F335
:102030000721204602F0B2FFE9B2204602F0AEFFCF
:10204000204603F0BFFAB0FA80F0400970BD00BF2F
:102050007856002008B500213020FFF7D7FF002177
:102060000220BDE80840FFF7D1BF00BF08B5E2215C
:102070003020FFF7CBFF43210220BDE80840FFF7E7
:10208000C5BF00BF0238032810B503DC00285FDAA3
:10209000002400E00C2444F260013020FFF7B6FF7A
:1020A0006C212620FFF7B2FF4FF4F8712820FFF7CC
:1020B000ADFF40F622712C20FFF7A8FF00213C2045
:1020C000FFF7A4FFFFF7D2FF21460420FFF79EFF92
:1020D0004FF498710620FFF799FF00210A20FFF7BF
:1020E00095FF08210E20FFF791FF4FF6FF7110209A
:1020F000FFF78CFF47F67F712220FFF787FF002153
:102100004FF49270FFF782FF4FF48A712420FFF79B
:102110007DFF104C00212A20FFF778FF09210E488F
:1021200009F044FE21680D480AF04EFA0B480AF007
:10213000E1F92168202041EA0111FFF767FF01461C
:1021400006480AF041FA05480AF0D4F9012010BD0A
:102150008400A0E700FAFF1F905201003800002021
:1021600010B5074B0446102153F82000FFF7E0FBA1
:10217000044802F0B9FF2046BDE81040FFF782BFD7
:102180003CFAFF1F78560020F0B54B4C4B482168B5
:1021900085B003F005FA0021484802F0FFFE002157
:1021A000464803F05FF8216844480023072203F003
:1021B000F1F9424802F012FF0DF1FF36002504E06C
:1021C00002F016FF06F8010F01353C4802F006FF49
:1021D00004463A48002CF3D103F0F4F9072D02D05D
:1021E000204605B0F0BD9DF800509DF801409DF8D7
:1021F00004009DF805109DF802209DF80630304F30
:10220000DFF8D4C02E1106EB860605F00F0505EBAE
:102210004606251105EB850504F00F0404EB450582
:10222000041104EB840400F00F0000EB44040811D7
:1022300000EB800001F00F0101EB400EF6B2C2F39B
:1022400001113E70181101EB81011E4E02F00F02C8
:1022500002EB410200EB8000EDB203F00F038CF8BB
:10226000005003EB40033270174D184A18485FFACC
:102270008EF1E4B2DBB22C700170137097F800E0BD
:102280009CF8007036782C78017813788DF80C4023
:102290001E3302A88DF80E308DF808E08DF8097015
:1022A0008DF80A608DF80D1007F098FA094B01249B
:1022B0001860204605B0F0BDF8FAFF1F78560020E0
:1022C000205300203C550020CC55002021530020F5
:1022D000714F00206C4F0020885300202DE9F043FF
:1022E00083B00446FFF750FF50B324B9174C206861
:1022F00003B0BDE8F083154C206807F019FA0546D5
:10230000206807F023FA0646206807F02DFA0746F2
:10231000206807F037FA8046206807F041FA8146C6
:10232000206807F04BFACDF800900190434628460C
:102330003A46314600F0C4FA206803B0BDE8F083A5
:1023400003B0BDE8F04308F045BE00BF6C4F00206D
:102350002DE9F04F01209DB0FFF7C0FFA84FA94C19
:10236000386007F01DFA236883422CD0A64B1B6807
:102370004BB33868A54D07F013FA2060386807F0B2
:102380001DFA2368A2490246A2480CF05BFCD5F86E
:102390007844002C00F00B8104F23C41012300241E
:1023A0009C4A8DF838400EA88DF839408DF83A4097
:1023B00005F0A0F8D5F87804944B002800F00F81C0
:1023C000944906F07DF90021152008F031FE002522
:1023D0004FF47A74152008F06FFB0BF0A1F9014659
:1023E00028460BF0E9F8013C0546F3D18A488B4CAE
:1023F0008B4E06F053FE386807F0E0F980463868E7
:1024000007F0CEF98146386807F0BCF90D903868BE
:1024100007F08EF98246386807F098F983463868E5
:1024200007F0A2F97F4A80490A92074628460BF036
:102430007FFA0AF01FFDCDE908017C4A10680AF016
:1024400019FDCDE906010D9B009360682168049198
:102450004B464246059076490397CDF808B0CDF833
:1024600004A074480CF0EEFB72480CF049FC0146E5
:10247000704809F09BFC70480AF03CF81AE0654986
:1024800006F01EF9316829B140F60123694A6B480C
:1024900006F050F967480CF033FC0146654809F036
:1024A00085FC65480AF026F80A2008F0C7FD236875
:1024B000142B75D8316841B1614C5E4A04F11000AB
:1024C00040F6012306F036F9A8B95E4C5E49236850
:1024D000584801331A4623600CF0B4FB4B4BD3F839
:1024E00078040028CBD1D3F87C040028CAD049490D
:1024F00004F022FEC6E755485549D0F800A0554DD6
:10250000554A564B564EDFF86481D6F8009003C901
:10251000286092E80300A86093E8030010270123D5
:102520001FFA89F6AB82E860EE8250462F610BF00D
:1025300037FB5146A86150460BF03EF882464846AC
:102540000BF0EEF8014650460BF03EF90BF028FB7D
:10255000444AD8F80030E86192E803005B02A26CBC
:102560006F84760003F124012E846862AB62696097
:10257000002A3DD0104629462C2205F047FA0921B1
:10258000394809F013FCD8F800102B4800230A2220
:1025900009F0DAFF284809F0ADFF1DB0BDE8F08F63
:1025A000FEF718FC4FF47A7008F048FD82E7D5F882
:1025B0007C1400293FF407AF012301F58861154A17
:1025C0008DF869400EA88DF86A408DF86B4004F0D4
:1025D000FFF8D5F878040D4B00287FF4F1AED3F85E
:1025E0007C0400283FF4EFAE0A4904F0A5FDEAE6BA
:1025F000E06C0028C3D029462C2204F0B5F9BEE7D0
:102600006C4F002058550020A0FAFF1FC84A002038
:102610009C52010020540020B52600008C5300205D
:102620009056002034FAFF1F00CB2948C8540020E0
:10263000A85201003C54002038000020F054002033
:10264000E05400209C550020F0520100305500203D
:10265000FC520100A0550020045301000C5301005E
:102660000CFAFF1F14530100E452010064530020D0
:1026700038B50C4CFFF76CFE0B4B002220461A605D
:10268000FEF774F9094B1B680125022BA4F8B4511D
:1026900000D038BD064C2046FEF768F9A4F8B451C6
:1026A00038BD00BF804F00207C4F00200CFAFF1F78
:1026B0003C5100202DE9F041804601200E46FFF7F5
:1026C0000DFE244C206007F079F80546206807F0DD
:1026D00067F80746206807F055F8A5F2BC739BB26F
:1026E0007F2B02D8FAB20C2A28D90023A8F8003090
:1026F000206807F01DF80746206807F027F8054610
:10270000206807F031F8FBB2172B13D8EBB23B2B44
:1027100010D8C3B23B2B0DD8FB026D0103F4FF238D
:1027200005F4FF552B43C0F3460003439BB23380AF
:10273000BDE8F08100233380BDE8F081C0B21F28DE
:10274000D3D87F0107F4FF57384340EA43239BB2B5
:10275000CCE700BF6C4F00202DE9F0434F4A504BAF
:10276000DFF85491DFF854814E4F117898F800400B
:102770001A7899F80060386883B03C2313FB06464A
:1027800013FB012406F0D4FF0546386806F0DEFF8F
:10279000C5EB051500EB8505386807F00FF800F16B
:1027A0004E0338688DF8063006F0FAFF8DF8050004
:1027B000386806F0E7FFA6428DF804000AD2AE4260
:1027C00049D8AC4247D3A41BC4EB0414364D374858
:1027D000A40010E0AE4201D9AC421AD3C4EB0414F9
:1027E000A300A6EB061403EB840404F5A8342E4DD5
:1027F0002E4804F5C07410212C6009F0D7FA29681E
:102800002B4809F0E1FE2A4809F074FE03B0BDE848
:10281000F08302A8002598F8003099F8002000F80D
:10282000085D8DF801308DF8022006F0D7FF386082
:102830002846FFF753FD3B68984204DD03F5A833B3
:1028400003F5C0733B600F211A4809F0AFFA3868EE
:10285000FEF756FEC2E702A8002599F8002098F876
:10286000003000F8085D8DF802208DF8013006F088
:10287000B5FF38602846FFF731FD3B68094A9842AA
:1028800004DD03F5A83303F5C07313600F21094875
:1028900009F08CFA3868FEF733FE94E738540020CC
:1028A000784F0020744F0020605300202C5301000B
:1028B000380000201C530100BC0A00209455002061
:1028C00030B583B002AD079C05F8082D8DF80200E5
:1028D000069A8DF804304E3428468DF801108DF894
:1028E00005208DF8064006F079FF08F079FB0020FE
:1028F000FFF7F4FC014B186003B030BDC44A002060
:102900002DE9F04F002083B0FFF7E8FCB84BB94E3B
:1029100018600121B848DFF85083B84FB84D07F070
:10292000CBF90121B44807F0CDF926220021B248A5
:1029300007F0BEF90322B349AF4809F0C5FD2622CE
:102940001921AD4807F0B4F90322AF49AA4809F0AC
:10295000BBFD26223221A84807F0AAF90322AB4981
:10296000A54809F0B1FD26224B21A34807F0A0F9A4
:102970000222A749A04809F0A7FD2E2200219E4867
:1029800007F096F9002331689B480A2209F0DCFD24
:102990002E221921984807F08BF90023D8F800104F
:1029A00095480A2209F0D0FD2E223221924807F0E4
:1029B0007FF93B6855F823000AF0B2FE95490AF00A
:1029C000B7FF0AF057FA0B46024693498A4809F0C6
:1029D000ADFD2E224B21884807F06AF98F4B18680D
:1029E0000AF048FA0B4602468B49834809F09EFDDF
:1029F0008B4B1C68012C00F05E81022C00F0D38010
:102A0000884B3F68D3F80090D6F800A050460AF0F3
:102A100083FE834620460AF083FE01460AF0CCFD81
:102A200059460AF0D1FE044655F827000AF078FE10
:102A3000014620460AF0C8FE7B490AF0BDFD4FF072
:102A40008E410AF0B9FD73490AF072FF71490AF02C
:102A50006FFF764B764A1B681060012B054600F02D
:102A600005814FF07E5059460AF0AEFE8346D8F8F5
:102A70000000704C704F50440AF04EFE014658461C
:102A80000AF056FF6D4B0090834618780AF048FE16
:102A90006B4B19680AF098FE594680464FF07E50FD
:102AA0000AF088FD674B19680AF08EFE49460190CE
:102AB00058460AF089FE019B014618460AF07CFD43
:102AC000014640460AF034FF5F490AF07DFE0BF0F4
:102AD00067F80026019004F110094FF0000857F83C
:102AE000040B44F8048B0AF017FE0146834628467F
:102AF0000BF01CF8294600285DD158460AF018FF53
:102B00000AF0B8F909F0C4FF0AF0E0FC034644F803
:102B1000043C00FB0AF00AF0FFFD014630460AF0D3
:102B20004BFDA1450646DAD100990AF001FF019D4F
:102B3000044628460AF0F0FD014620460BF000F856
:102B400026225C21002838D02B4807F0B1F8052256
:102B50003E49294809F0B8FC2E225C21264807F09E
:102B6000A7F83B4B24482A4683FB02232B44E91752
:102B7000C1EB234109F028FD012236491E4809F026
:102B8000A3FC76212E221C4807F092F8274B1A4806
:102B90001A68012A0EBF30493049012203B0BDE84E
:102BA000F04F09F091BC3F682D4A1E4B52F8279018
:102BB000C3F8009028E70021B0E70F4807F078F845
:102BC000052228490C4809F07FFC2E225C210A4886
:102BD00007F06EF820460AF0BDFF1D49034681FB51
:102BE00003211944DB170448C3EB2141C2E700BFAE
:102BF0006C4F002098FAFF1F245300208CFAFF1F0F
:102C00003CFAFF1F405301004453010048530100A8
:102C10004C53010000007A4450530100C854002076
:102C20000CFAFF1FFCFAFF1F00003042CC540020BA
:102C300038550020405500206853002094FAFF1FAB
:102C40009CFAFF1F08FAFF1F00006145585301005E
:102C500007452EC2605301006C5301007053010000
:102C6000A4FAFF1F64530100A0FAFF1F164A174B76
:102C700010781B78834286BFC3F11803C018C01AAE
:102C80000AF04EFD124A134B06461B781078834219
:102C900086BFC3F13C03C018C01A0AF041FD0E49BB
:102CA000044630460AF090FD21460AF085FC0B49A7
:102CB0000AF03EFED7E63F68094A0A4B52F82790D1
:102CC000C3F80090A0E600BF38540020BC0A0020E2
:102CD000784F002094550020000070420000B4445A
:102CE00010FAFF1FFCFAFF1F10B501220446084925
:102CF000084809F0E9FB092C03DC3021054806F0FF
:102D00009DFF21460348BDE8104009F05DBC00BFAF
:102D1000885301002453002038B504460D4623484B
:102D2000012106F0C9FF2AB20021204806F0C0FFA9
:102D3000204606F043FD01461C4809F045FC2D21C4
:102D40001A4806F07BFF204606F02AFD0146174888
:102D500009F03AFC2D21154806F070FF204606F0D8
:102D600011FD0146114809F02FFC022210490F48BD
:102D700009F0AAFB204606F0DBFC092803DC302121
:102D80000A4806F05BFF204606F0D2FC01460748E1
:102D900009F01AFC204606F0D9FCFFF7A5FF2046F3
:102DA00006F0E2FCBDE83840FFF79EBF2453002048
:102DB000745301002DE9F047AB4D2C682CB1012C68
:102DC00000F0828030BFBDE8F0872046FFF786FA2A
:102DD000A64FDFF810833860FEF77CFB0A22A44977
:102DE000A448A54E09F070FBA24809F083FB01211D
:102DF000A04806F061FF122221469E4806F058FFC7
:102E000005229E499B4809F05FFBD8F800109948BD
:102E1000013109F0D9FB01229949964809F054FB88
:102E2000D8F80020974B934853F8221023460A22E3
:102E300009F08AFB30682821FFF76EFF38683721D8
:102E4000FFF76AFF8B4807F061FB3A6833689A42E4
:102E500036DB8D4C2368002B00F0E880022B00F05D
:102E600099810D21894808F0A1FF894809F042FBAA
:102E7000884B1B68002B00F0CE80012B00F0DC801B
:102E8000854C86480E2108F091FF0020FFF726FAB6
:102E9000FEF736FB0B21824808F088FF2068FEF71A
:102EA0002FFB0B217F4808F081FF3068FEF728FBDD
:102EB0000123AE216F482B6007F0B6F9FFF7D8FB6E
:102EC0002C68012C7FF47EAFFDF7DCFF042008F0B6
:102ED000A1F80446032008F09DF814B9002800F07A
:102EE0000781714F714B3A681B689A42FFF46AAFD1
:102EF0006F4B684A1B681468B3FA83F35B090020C0
:102F0000844214BF002603F00106012C14BF0024E4
:102F100003F00104FFF7E2F95F4B1B689842ACBF76
:102F2000002004F00100002840F03981002E40F01C
:102F30003681FDF7B7FEFEF7A1F84F4B5D4F1C68D9
:102F4000DFF8A481DFF8A4A13046FFF7C7F95A4A99
:102F50005A4B1268201A841A24EAE47483FB04236F
:102F60002344E017C0EBE32009F072FF09F090FD65
:102F70000AF084FA524A534B386002FB004483FB48
:102F8000042323448146E017C0EB631009F060FF7F
:102F900009F07EFD0AF072FA03011A1AC31A04EB53
:102FA000830492004FF4616303FB0929C8F80040D1
:102FB0004C44092CCAF8000024DD3146022008F0F8
:102FC00023F8FFF747F8404A136823F010431360D3
:102FD000642008F033F898F800309AF80020397827
:102FE0003A4806F091FA3A4806F064F801210220C6
:102FF00008F00AF84FF4967008F020F8354B18687E
:10300000FFF7AEF801233C2202211A4807F074F9B9
:1030100000232B60D6E6304B254A31681B681268C6
:103020001D4C0B441A44326023602AE70A210E200B
:10303000FEF7ECFF236811E71D4B1A68002A40F0E9
:10304000B880264A33681768134C2549104803F5A1
:10305000A83202F5C0723B4432602360FDF750FC99
:103060002068FEF74DFA0CE7B80A00206C4F0020EC
:103070007853010024530020744F00208453010032
:103080003C54010040550020C00A00208C53010030
:1030900038000020CC54002094530020AC53010091
:1030A000BC530100C85301007C4F00206453002032
:1030B000A0FAFF1FD054002004FAFF1FC5B3A2914D
:1030C000F0F1FFFF8988888880F00240AC5300202F
:1030D000A05400208CFAFF1F98FAFF1F60530020B5
:1030E0009C53010098550020345500203454002092
:1030F000354B364C1B68364A364E374DA06C5B025A
:10310000002103F12407A6F8B41157609362A5F8D3
:10311000B411002836D004F0BDFBA06C2B4B48B393
:103120002C222B4904F072FC2C4805F0EFFA012305
:103130003C2202212A4807F0DFF8642007F07EFFD6
:10314000FEF7C8F907222749254809F0BDF92448A8
:1031500009F0D0F90121224806F0AEFD10222249E3
:103160001F4809F0B1F91E4809F0C4F91C4807F0DE
:10317000CDF9FEE7D86C0028D6D02C22144903F0F4
:10318000F3FBD1E7E06C0028CED00022002302F050
:1031900075FEC2E70B210E20FEF738FF61E60F48EF
:1031A00005F0B4FAFDF76AFFFFF7D2F800233B60A1
:1031B00008E60E4B31681B680D4C0B441A44326014
:1031C0002360FFF7C9FA5CE67C4F0020E054002042
:1031D000A0550020804F00203C510020F0540020DA
:1031E00024530020D4530100DC53010098FAFF1F40
:1031F000945300202DE9F04F91B0FEF7DDF9FDF773
:1032000077FD0020FFF76AF8DFF850B1454ECBF8A4
:103210000000FEF75FF9072243494448444C09F097
:1032200053F90121414806F047FD102200213F4893
:1032300006F03EFD12223F493C4809F045F93B4863
:1032400009F058F93C4B0121187807F0DDFE4FF4E6
:103250007A7007F0F3FE0721384802F0CFFB0E2109
:10326000364802F057FC0C21344802F00FFC344B76
:10327000344800251D6009F03DF9324809F03AF95B
:103280000521314808F092FD01212E4809F09CF9F2
:103290002C4809F02FF90121244809F095F904225E
:1032A0002A49224809F010F9204807F02FF9642034
:1032B00007F0C4FE264B8DF81D501F7809958DF838
:1032C0001C70089607AB93E807000AAB83E8070079
:1032D0008DF829500C958DF828700B9693E807000F
:1032E0000DAB83E807000F9A009204F591650CCBB3
:1032F000284604F29C4105F07BFB94F89534C4F811
:1033000084546BB31C21134808F050FD0D4809F09C
:10331000F1F809221049054809F0D6F8034807F0EA
:10332000F5F8FEE780F0FA02F05301002453002084
:10333000C84A0020F85301009C53002004FBFF1FE3
:103340006853002038000020845301000C54010011
:10335000F05300204454010064540100C44A00208A
:103360002946204605F028FA0028CBD0D4F8780466
:10337000002800F0408705F0C1F8054608219D4867
:1033800008F014FD29469C4809F01EF99A4809F0F6
:10339000B1F828460AF0C4F998490AF015FAD4F8A9
:1033A0007834974A0546002B00F0958718790AF083
:1033B000B3F9014628460AF007FA0AF0F1FB054680
:1033C000D4F8840405F0EEFC0AF0A6F98B490AF063
:1033D000FBF90AF0E5FB0A2104468A4808F0E6FCFE
:1033E000214600230A22844809F0AEF8824809F0F9
:1033F00081F8C72D00F2FA86834A00231360112159
:10340000824808F0D3FC80497B48096800230A22DF
:1034100009F09AF8784809F06DF87B497C4809680A
:1034200000230A2209F090F801227A49784809F02D
:103430004BF800230A222146754809F085F87448A4
:1034400009F058F8724807F061F84FF47A7007F005
:10345000F5FDFDF781FEFDF74BFCFEF71DF96E4B08
:103460001A686E4B9A4200F208876D4A6B4B1268DD
:103470009A4200F2C9866B4B1B78172B00F2D0865C
:10348000694B1B783B2B00F2D786684B1B78172BB8
:1034900000F2DE86664B1B783B2B00F2E586654D1D
:1034A0002B68012B05D9002319460C202B6007F04F
:1034B000E1FB614B1B68082B00F204875F4B1B7814
:1034C000082B00F2F6865E4B1B680F2B00F2E88695
:1034D0005C4B1B68013B012B06D90123594A194655
:1034E0001020136007F0C6FB574B1B889BB2B3F547
:1034F000B77F80F0CB86554E0020FEF7EFFEDBF85D
:1035000000303060C31AB3F5167FD4BF0023012307
:103510000420029307F07EFD2B68012B00F06186EA
:103520004B4B0A221A6040B3032007F073FD0028BA
:1035300050D0082007F06EFD002831D0FDF7CAFFFB
:10354000FEF702F9FFF7DCF9FEF732F9FEF764F94E
:103550000020FEF7C3FE3721FFF7DEFB2C4806F004
:10356000D5FF0A2007F06AFD029B002BC4D011B0E2
:10357000BDE8F08F0A2007F061FD042007F04AFD46
:103580000028F7D0334A324B1968136801338B4255
:103590001360A4BF00231360C6E70A2007F04EFDA6
:1035A000082007F037FD0028F7D02A4B1B680A2BAC
:1035B00000F20686DFE813F0A5057900690126010F
:1035C0005C05D002EE0195011D02D100AD000A207C
:1035D00007F034FD032007F01DFD0028F7D01D4A39
:1035E0001368013B002B1360A3DA194B1B68013BE6
:1035F00013609EE71454010038000020BD37063ADE
:10360000C84A002020540100685300202C540100B7
:10361000245300204054010098FAFF1FA0860100A7
:10362000A0FAFF1FBC0A0020945500203854002047
:10363000784F0020CC5400208CFAFF1F94FAFF1F13
:1036400000FAFF1F0CFAFF1FBE0A00206C4F00207B
:10365000C8FAFF1F98530020AC4B1868FDF7D8FE3E
:10366000AA4B1860FDF736FF0722A949A94808F0C0
:103670002BFFA84808F03EFFA449A648096800238C
:103680000A2208F061FF2246A349A24808F01CFF65
:10369000A04808F02FFFFFF733F9FEF789F89D489F
:1036A00006F034FF022007F0C9FC082007F0B2FC46
:1036B0000128044601464FF46162CDD0082007F08E
:1036C000A9FC0028FAD0954B00221A6000F078BDC2
:1036D000934B1878FDF79CFE914B1870FDF7FAFE9E
:1036E000072290498B4808F0EFFE8A4808F002FF55
:1036F0008B498848097800230A2208F025FFFFF744
:10370000FFF8FEF755F8834806F000FF022007F0A7
:1037100095FC082007F07EFC01284FF017024FF0BF
:103720000001D5D0082007F075FC002840F09781F3
:10373000082007F06FFC0028F4D090E104227A49B9
:10374000744808F0C1FE794B1B68012B1DD07148ED
:1037500006F0DCFE022007F071FC082007F05AFC9E
:10376000012802464FF0000115D12868FDF750FEF0
:103770002860FDF7AFFE05226D49664808F0A4FEFB
:103780002B68002BDAD0012BE1D105226949614871
:1037900008F09AFEDBE7082007F03CFC002892D1F5
:1037A000082007F037FC0028F5D08CE7624B18683A
:1037B000FDF72EFE604B1860FDF78CFE5F49554803
:1037C000042208F081FE534808F094FE5A4A5C4BEC
:1037D000126853F8220009F0A3FF5A490AF0A8F82A
:1037E00009F048FB02460B464A48574908F09EFE3E
:1037F000FFF786F8FDF7DCFF464806F087FE02205B
:1038000007F01CFC082007F005FC01284FF0080217
:103810004FF00001CAD0082007F0FCFB00287FF41D
:1038200052AF082007F0F6FB0028F4D04BE7474BD7
:103830001868FDF7EDFD454B186018B9334A4FF491
:1038400016731360FDF746FE06224149314808F021
:103850003BFE304808F04EFE3C492E4809680023E4
:103860000A2208F071FE01222B492A4808F02CFE9A
:10387000284808F03FFEFFF743F8FDF799FF254879
:1038800006F044FE022007F0D9FB082007F0C2FB37
:103890000128304A4FF00001C9D0082007F0BAFBD8
:1038A00000287FF410AF082007F0B4FB0028F4D004
:1038B00009E7294B1868FDF7ABFD274B1860FDF7AA
:1038C00009FE09222549134808F0FEFD224B114844
:1038D000196808F079FE0F4806F018FE022007F07C
:1038E000ADFB082007F096FB012801464FF00202CD
:1038F000DFD0082007F08EFB00287FF4E4AE08201C
:1039000007F088FB0028F4D0DDE600BF98FAFF1F1F
:10391000CC54010024530020D454010098530020BB
:10392000BC0A00206855010058550100CC54002005
:1039300050550100605501008CFAFF1FE054010052
:103940003CFAFF1F00007A44E8540100A0FAFF1F70
:10395000D8540100805101000CFAFF1F44550100AA
:10396000B14B1878FDF754FDAF4B1870FDF7B2FD61
:103970000922AE49AE4808F0A7FDAB49AC4809782A
:1039800000230A2208F0E0FDA94806F0BFFD02204E
:1039900007F054FB082007F03DFB012801464FF0DB
:1039A0000802DDD0082007F035FB00287FF48BAE3D
:1039B000082007F02FFB0028F4D084E69D4B1888E0
:1039C00080B2FDF725FD9B4B80B21880FDF782FD8C
:1039D0000A229949964808F077FD964B9448198831
:1039E00089B208F0F1FD924806F090FD022007F040
:1039F00025FB082007F00EFB012840F26D124FF066
:103A00000001DBD0082007F005FB00287FF45BAE47
:103A1000082007F0FFFA0028F4D054E6874B187806
:103A2000FDF7F6FC854B1870FDF754FD082284491C
:103A30007F4808F049FD7E4808F05CFD7F497C48DE
:103A4000097800230A2208F07FFDFEF759FFFDF7F1
:103A5000AFFE774806F05AFD022007F0EFFA082083
:103A600007F0D8FA01284FF03B024FF00001D5D003
:103A7000082007F0CFFA30BB082007F0CBFA002867
:103A8000F6D020E06F4B1878FDF7C2FC6D4B187034
:103A9000FDF720FD06226C49654808F015FD6448D5
:103AA00008F028FD67496248097800230A2208F0D7
:103AB0004BFDFEF725FFFDF77BFE5D4806F026FD7A
:103AC000022007F0BBFA082007F0A4FA01284FF003
:103AD00017024FF00001D5D0082007F09BFA30BB49
:103AE000082007F097FA0028F6D020E0574B187806
:103AF000FDF78EFC554B1870FDF7ECFC072254497E
:103B00004B4808F0E1FC4A4808F0F4FC4F494848AB
:103B1000097800230A2208F017FDFEF7F1FEFDF7F1
:103B200047FE434806F0F2FC022007F087FA08201F
:103B300007F070FA01284FF03B024FF00001D5D09A
:103B4000082007F067FA00287FF4BDAD082007F0D1
:103B500061FA0028F4D0B6E53E4C3F4FDFF804810F
:103B600050E0306805F02AFE40F634024FF4FA6166
:103B70003860FDF74DFC3B68C8F80000984224D03F
:103B8000206805F0D5FD8146206805F0DFFD8246FE
:103B9000206805F0E9FD0490206805F0F3FD03902E
:103BA000206805F0FDFD0090D8F80030049AA3F5D8
:103BB000FA6E5146039BCDF804E04846FEF798F9AB
:103BC0000020FEF78BFBCBF80000FDF783FC0522FD
:103BD0002249174808F078FC154808F08BFC0020B3
:103BE000FEF77CFB05F0EAFD0146114808F0ECFC0D
:103BF000FEF786FEFDF7DCFD0D4806F087FC02208F
:103C000007F01CFA082007F005FA0128A9D00820BF
:103C100007F000FA0028FAD0022007F00FFA0D4C46
:103C20000F4FDFF8448071E094FAFF1F3855010010
:103C300024530020BE0A00202C550100945500207A
:103C400070550100385400207C550100784F002049
:103C5000845501006C4F002054550020FC54010095
:103C60008C5500200054002090550020306805F04D
:103C700097FD49460C223860FDF7CAFB3B68C8F83F
:103C80000000984225D0206805F052FD814620684A
:103C900005F05CFD8246206805F066FD0590206811
:103CA00005F070FDD8F8001004902068039105F02D
:103CB00085FD03990091A0F5FA600190049B059A97
:103CC00051464846FEF714F90020FEF707FBCBF8F3
:103CD0000000FDF7FFFB0622A749A84808F0F4FB07
:103CE000A64808F007FC0020FEF7F8FA05F058FD9A
:103CF0000146A24808F068FCFEF702FEFDF758FDF9
:103D00009E4806F003FC022007F098F9082007F00F
:103D100081F901288146A9D0082007F07BF9002805
:103D2000FAD0022007F08AF9954C964FDFF86C82A2
:103D30004FE0306805F026FD49461F223860FDF748
:103D400067FB3B68C8F80000984225D0206805F062
:103D5000EFFC8146206805F0F9FC8246206805F0FA
:103D600003FDD8F8003005902068049305F018FD95
:103D70000390206805F022FD03990091A0F5FA60F8
:103D80000190049B059A51464846FEF7B1F8002081
:103D9000FEF7A4FACBF80000FDF79CFB04227A4959
:103DA000764808F091FB754808F0A4FB0020FEF768
:103DB00095FA05F0E7FC0146704808F005FCFEF7AF
:103DC0009FFDFDF7F5FC6D4806F0A0FB022007F013
:103DD00035F9082007F01EF901288146A9D00820EE
:103DE00007F018F90028FAD0022007F027F9644FED
:103DF000DFF8AC814DE0306805F09AFC1722002115
:103E0000C8F80000FDF704FBD8F8003098420446DB
:103E100022D0386805F09AFC8146386805F0A4FC89
:103E20008246386805F0AEFC0490386805F0B8FCAE
:103E30000390386805F0C2FC039A0092A0F5FA607E
:103E40000190049B524649462046FEF751F8002057
:103E5000FEF744FACBF80000FDF73CFB05224B4986
:103E6000464808F031FB454808F044FB0020FEF7C7
:103E700035FA05F05DFC0146404808F0A5FBFEF769
:103E80003FFDFDF795FC3D4806F040FB022007F0A2
:103E9000D5F8082007F0BEF80128ACD0082007F0BC
:103EA000B9F80028FAD0022007F0C8F8344C384F8F
:103EB000DFF8F0804EE0306805F048FC3B2200213E
:103EC0003860FDF7A5FA3B68C8F80000984224D096
:103ED000206805F02DFC81462068D8F800A005F088
:103EE00043FC0590206805F04DFC0490206805F027
:103EF00057FC0390206805F061FC03990091A0F540
:103F0000FA600190049B059A51464846FDF7F0FF80
:103F10000020FEF7E3F9CBF80000FDF7DBFA0722FB
:103F20001C49164808F0D0FA144808F0E3FA0020BB
:103F3000FEF7D4F905F00AFC0146104808F044FBEE
:103F4000FEF7DEFCFDF734FC0C4806F0DFFA022039
:103F500007F074F8082007F05DF80128ABD00820BE
:103F600007F058F80028FAD0022007F067F8044C50
:103F7000094FDFF8348069E0045501002453002024
:103F80006C4F0020D45400200C5501001455010042
:103F9000045400201C5501005C550020EC53002007
:103FA000B40A0020DC5400205C530020306805F087
:103FB000DBFB3B2200213860FDF72AFA3B68C8F89A
:103FC0000000984225D0206805F0B2FB81462068A9
:103FD00005F0BCFBD8F8002005928246206805F069
:103FE000D1FB0490206805F0DBFB0390206805F00E
:103FF000E5FB03990091A0F5FA600190049B059AF6
:1040000051464846FDF774FF0020FEF767F9CBF8EC
:104010000000FDF75FFA0722B849B94808F054FAE2
:10402000B74808F067FA0020FEF758F905F09CFB46
:104030000146B34808F0C8FAFEF762FCFDF7B8FB8A
:10404000AF4806F063FA022006F0F8FF082006F0F9
:10405000E1FF0128AAD0082006F0DCFF00287FF449
:1040600032AB082006F0D6FF0028F4D0FFF72BBBB8
:10407000A44F2EE0A44B1868FDF7CAF9A24B1860B4
:10408000FCF736FEFDF726FA0522A0499C4808F009
:104090001BFA9D4B9A48196808F096FA984808F060
:1040A00029FA386808F0E6FE00940B460246944868
:1040B00008F092FA22469649914808F005FAFEF770
:1040C0001FFCFDF775FB8E4806F020FA204606F02F
:1040D000B5FF082006F09EFF01284FF002044FF0C4
:1040E0000F024FF00001C5D0082006F093FF002812
:1040F0007FF4E9AA082006F08DFF0028F4D0FFF72E
:10410000E2BA844CFDF7E6F9FDF7C6FA0D218248C4
:1041100007F04CFE2168814808F056FA7F4808F005
:10412000E9F908217E4807F041FE7E4B186808F047
:10413000A1FE022702460B460097784808F04CFA89
:10414000764808F0D7F90821774807F02FFE236852
:10415000764A724852F8231000230A2208F0F4F934
:104160006E4808F0C7F91321714807F01FFE226856
:10417000704B6A4853F8221000230A2208F0E4F931
:10418000664808F0B7F90A226B495D4808F09CF9C7
:104190005B4808F0AFF90121594805F08DFD132265
:1041A0006649574808F090F9554806F0AFF90120E4
:1041B000FEF794F84FF4FA6006F040FF01230293F3
:1041C0005F4C2378002B3FF4B9A9FDF765FA4FF057
:1041D000000300202370FEF781F8CBF80000FFF702
:1041E000ADB9584A0B231360FFF79DB94F4BC83D3B
:1041F0001D60FFF704B9D4F87C04002877D002F0E2
:1042000055FF0546FFF7BAB83C234F4A194604202C
:104210001360FDF729FA4D4B1B78172B7FF630A959
:1042200000234A4A19460820137006F023FD484B24
:104230001B783B2B7FF629A90023454A1946092004
:10424000137006F017FD434B1B78172B7FF622A93E
:104250000023404A19460A20137006F00BFD3E4B1E
:104260001B783B2B7FF61BA900233B4A19460B20EA
:10427000137006F0FFFCFFF712B93C23374A1946CA
:1042800000201360FDF7F0F9FFF7EFB8344A002380
:1042900013801188122089B2FDF7E6F9FFF72BB9D8
:1042A0000423194A19460F20136006F0E3FCFFF7B8
:1042B0000FB908232B4A19460E20137006F0DAFCBA
:1042C000FFF701B90423284A19460D20136006F0B0
:1042D000D1FCFFF7F3B8D2F87C345BB193F83D34EE
:1042E0000120984009F018FA0146FFF763B8054627
:1042F000FFF744B80021FFF75DB800BF2455010067
:1043000024530020C854002000FAFF1FF454010079
:104310004C530100985500207054010038000020D3
:1043200080540100385500208C540100685300204F
:104330009854010040550020AC540100B8540100CD
:10434000704F0020C8FAFF1FA0FAFF1FBC0A002010
:104350009455002038540020784F002098FAFF1F11
:10436000BE0A002094FAFF1F8CFAFF1FCE4ACF4BE3
:104370001168CF482DE9F04F19605768CD4ECE49EE
:104380005F600468CD4ACE4DDFF8A0E30A2714230E
:1043900037608FB00B6040F2EE27137843B12B7873
:1043A000DB0705D50368DEF800105B1A0E2B08D872
:1043B000036811781B1B002900F0F081B3F5FA6F38
:1043C000EBD9DFF86C83BF4CBF4FDFF86893002553
:1043D0004FF4FA7006F032FEC8F80050642006F080
:1043E0002DFE4FF43053C8F80030642006F026FE4E
:1043F0004FF43453C8F80030642006F01FFE01214A
:10440000112006F015FE0121112006F0FDFD2168A6
:10441000AE48DFF824832B460A2208F095F8AB4813
:1044200008F068F84FF47A7006F008FE2168A74893
:104430002B460A2208F088F8A44808F05BF84FF4ED
:104440007A7006F0FBFD2B460A2221689F48A04C9B
:1044500008F07AF89D4808F04DF89E4800F044FEB8
:104460002946152006F0E4FD022006F0FFFA01219E
:10447000022006F0DDFD0121022006F0C5FD01212C
:10448000142006F0D5FD0121062006F0D1FD2946B5
:10449000142006F0B9FD0121062006F0B5FD022129
:1044A000042006F0C5FD0221032006F0C1FD022113
:1044B000082006F0BDFD01233C220221864805F0BC
:1044C0001BFF8C2006F0BAFDFDF704F80A22834991
:1044D000814807F0F9FF804808F00CF87E4806F0A4
:1044E00015F86E217E4807F065FD3B6859F82300FA
:1044F00009F016F9C8F800000120FDF7EFFE794B2E
:104500002060984240F34E810120FDF7E7FE2060D5
:104510003868DFF828A2FDF723FEFEF76BFE3D6842
:1045200059F8250009F0FCF8C8F800002846FDF706
:1045300017FEFCF7CFFFDAF800306B4D3B2B06D9A6
:10454000B3F5967F34BF3C234FF496732B60012064
:10455000FDF7C4FE654B29681A88DFF8E491644DC5
:10456000B3F800E0206090FBF1F392B201FB03117D
:10457000D9F80000DFF858B105FB02135D495E4D24
:1045800018441FFA8EF208602B60002A40F0158153
:104590005A4B1B68012B00F0D581D9F80000584E0A
:1045A000584FDFF8A0B109F0B7F8D8F8001009F0BB
:1045B0000BF94FF06E5109F007F94FF0745109F003
:1045C00003F908F057FC08F0DBF900224E4B08F025
:1045D000A5FC08F053FF4D4ADAF8003011684C4A48
:1045E000C1EB03084B4B126828EAE87883FB0813F9
:1045F00002FB00F243444FEAE8703260C0EBE32074
:1046000008F026FC08F044FA08F038FF424E434B0D
:10461000386006FB008683FB06233344F017C0EBAB
:10462000631008F015FC08F033FA08F027FFDFF8F4
:104630001881A0EB0012034606EB820610213848D1
:10464000CBF80030C8F8006007F0B0FB39681F48AD
:1046500007F0BAFFDBF800101C4807F0B5FFD8F8E8
:1046600000101A4807F0B0FF184807F043FF082170
:104670002C4807F09BFBD9F80010144800230A22AD
:1046800007F062FF114807F035FF0821264807F0C0
:104690008DFB0A220023DAF800100C4807F054FFC3
:1046A0000A4807F027FF51E0588004408C5300204F
:1046B000F0560020F05300209C530020D4570020D7
:1046C000EC57002000D003408CFAFF1F3800002078
:1046D0006C4F002078560020245300208C55010098
:1046E0000082FF1FCB7E0F6490FAFF1FBE0A0020DE
:1046F0008051010094530020744F0020CC540020BE
:1047000064530020D05400200000404004FAFF1FF2
:104710000CFAFF1FC5B3A291F0F1FFFF89888888CA
:10472000C0550100D4550100E05501009C580020FF
:1047300010D003403CFAFF1F30550020A0FAFF1FA5
:1047400098FAFF1F34540020345500200E2183486E
:1047500007F02CFB2068FCF7D3FE0C21804807F003
:1047600025FB2868FCF7CCFE2B6824687D481C1BC1
:10477000152107F01BFB21467B4807F025FF7A48EF
:1047800007F0B8FE79497A4B00204FF0FF320860FD
:104790001A600FB0BDE8F04FFCF770BCBB427FF66B
:1047A000FCAD0EE60C2218238DE80C0029460123EF
:1047B0002A461020FDF79CFBA6E60021022006F009
:1047C00023FC0021142006F01FFC2A68DBF80030CF
:1047D0006448D31A1521039307F0E8FA0399624855
:1047E00007F0F2FE604807F085FE4FF01E0BFCF765
:1047F00071FE05225F49604807F066FE5E4807F0DB
:1048000079FE0120FDF76AFD012120605A4805F07C
:1048100053FA05225949584807F056FE564807F002
:1048200069FE1A212868FEF777FA37212068FEF71B
:1048300073FA514805F06AFE4FF47A7006F0FEFBF9
:10484000BBF1010BD3D1039B3C2B28DDAE214A48A1
:1048500005F0EAFC0121112006F0D6FB00221146EA
:104860001423474804F050FE0A2006F0E7FB00211D
:10487000112006F0C9FB434804F01CFC012106206E
:1048800006F0C2FB0120FDF729FD00212060062073
:1048900006F0BAFB2B6822689B1A3C2BD6DC012160
:1048A000022006F0B1FB0121142006F0ADFB01212E
:1048B000062006F0A9FB4FF47A7006F0BFFB072133
:1048C0003148DFF8CCB001F099F80E212E4801F004
:1048D00021F90C212C4801F0D9F896F800C0DFF836
:1048E000B4E08DF814C000268DF815600796CDF859
:1048F00018E005AB93E8070008AB83E807008DF8E4
:1049000021600A968DF820C0CDF824E093E80700D6
:104910000BAB83E807000D9A00920BF591660CCB68
:1049200030460BF29C4104F063F89BF89534CBF8C9
:10493000846453B13868FDF713FC144B1B68012BDA
:104940007FF42BAEFDF708FF27E63146584603F00B
:1049500033FF3868FDF704FCEFE700BFAC530100FC
:10496000EC5501009855010038000020B80A0020DD
:1049700058550020B055010024530020B8550100BF
:10498000AC530020A054002004FBFF1FCC54002097
:10499000C84A002080F0FA020020704700207047CB
:1049A00038B5242908BFC2800C46017A0E48154646
:1049B00000F046FCC4F307210B4800F0EFFAE1B227
:1049C000094800F0EBFAC5F30721074800F0E6FAC2
:1049D000E9B2054800F0E2FA034800F0F3FDB0FA4E
:1049E00080F0400938BD00BF7856002038B5012559
:1049F00004460571334800F077FB052006F01EFBE6
:104A0000204644F260023021FFF7CAFF20466C22A4
:104A10002621FFF7C5FF20464FF4F9722821FFF742
:104A2000BFFF204640F622722C21FFF7B9FF204637
:104A300044F246423C21FFF7B3FF204640F23712D2
:104A40002421FFF7ADFF204644F2FF023021FFF79B
:104A5000A7FF732202212046FFF7A2FF4FF4C87080
:104A600006F0ECFA204641F61D522E21FFF798FF82
:104A7000042211462046FFF793FF20464FF4987218
:104A80000621FFF78DFF204610220A21FFF788FF3D
:104A9000204600220E21FFF783FF204643F63C42CA
:104AA0001021FFF77DFF204647F67F722221FFF796
:104AB00077FF204636222421FFF772FF65722846D1
:104AC00038BD00BF7856002038B50546F1B18029C1
:104AD00003799ABFC1F1800444EA0424002433B965
:104AE000224628462221BDE83840FFF759BFC28838
:104AF000002322F0100203712421FFF751FF224608
:104B000028462221BDE83840FFF74ABF0123037140
:104B100047F67F722221FFF743FFEA8842F0100236
:104B2000284692B22421BDE83840FFF739BF00BFC4
:104B30000B4610B507490446184608F045FE0649DD
:104B400008F03AFD09F02CF801462046BDE8104077
:104B5000FFF7BABF00000143EE7CFF3E10B50446EC
:104B600019B1012911D0002010BD55222021FFF7D5
:104B700017FF0028F7D0E28842F00402204692B2E4
:104B80002421BDE81040FFF70BBF40F273122A2129
:104B9000FFF706FF0028E6D0882220212046FFF7F5
:104BA000FFFE0028DFD0E288204622F00402242104
:104BB000BDE81040FFF7F4BE10B5044607F0FEFB59
:104BC000204610BD024A0349034807F0E9BF00BF71
:104BD000FCF9FF1FB94B0000D05500201B4A1C4BAD
:104BE00011681C48096970B499421279027009D29F
:104BF000194A127832B3194A4FF08041116003F517
:104C0000807402E01C46A3F58073154A15491268AA
:104C10000D68AAB1A5B1144E3088402810D84100C3
:104C20000A444030294402320231308033F9040B07
:104C300022F8020F9C4233F9020C21F8020FF5D83A
:104C400070BC704703F58074DFE700BFE0550020BB
:104C5000B8F2FF1F1F800040DA55002008E200E094
:104C6000E8550020DC550020D8550020F8B5064650
:104C700007F0D0F90446E8B107F0CCF90546002862
:104C80003AD072B61F4B1A887F2A19D8002C31D01F
:104C90001D490A6842B162B6204607F00FFA28465D
:104CA000BDE8F84007F00ABA18480C601A800560A1
:104CB00062B6F8BD054672B6124B1A887F2AE5D94E
:104CC000114A12491768146000220C681A800D609E
:104CD00062B63946304607F01BFA384607F0EEF95F
:104CE00030462146012207F013FA2046BDE8F8407D
:104CF00007F0E4B962B6F8BD204607F0DFF92C46AC
:104D0000BFE700BFD8550020E8550020DC55002043
:104D1000F8B5284C284E2046012107F0EBFA00F0A8
:104D200083F8264B264A27484FF480611960236890
:104D300000211A6099802279186102F1804202F5FF
:104D4000043240F20110D8809E614FF48075022039
:104D500006278E26DD82D960DD8398609F83988246
:104D60001170167007F06CFA1749184B2279184F1A
:104D700008701A7039682279164C174D174E41F099
:104D8000124141F00101531139609B00206803F189
:104D9000604302F1100703F5614302F01F02012195
:104DA00040F0104001FA02F2206045F827601A60D6
:104DB000F8BD00BFE055002000FEFFFF14B0044026
:104DC000A0F00240B8F1FF1FDA5500201B80004020
:104DD00080F0024000F0024000F4FF1FDD4B0000B5
:104DE000024A0349034807F0DBBE00BFFCF9FF1F7E
:104DF000B94B0000E0550020024A0349034807F080
:104E0000CFBE00BFFCF9FF1FB94B0000EC550020DE
:104E1000024A0349034807F0C3BE00BFFCF9FF1F65
:104E2000B94B0000F4550020284B29491A6829483D
:104E300042F400421A600A6842F002020A601A68EC
:104E400042F002021A600368002B3DDB224B1B6814
:104E5000002B39DB214A4FF0864313601368002B87
:104E6000FCDBF0B51E4C1F48DFF8ACE01E491F4BC1
:104E70001F4A204F204E214D41F2100CC4F800C0B3
:104E8000002404600120CEF80000DFF890E0C1F8B3
:104E900000E04FF480311960194B1360DFF880E0B7
:104EA000184A3A60346028601748CEF80000174C62
:104EB000B9671748174946F8503C4FF4C0632A6158
:104EC000236003600B60F0BD704700BF3C8004406E
:104ED0004080044000F0024080F0024000F10240B7
:104EE00004F1024060F0024008F002400CF0024081
:104EF00010F0024014F00240E0F0024084F0024062
:104F00001B0F0100000F0F0F0300004708B0044003
:104F10000CB0044018B0044004F002400300000745
:104F200088F00240024A0349034807F039BE00BF37
:104F3000FCF9FF1FB94B0000FC550020024A034951
:104F4000034807F02DBE00BFFCF9FF1FB94B00005E
:104F500004560020024A0349034807F021BE00BF5F
:104F6000FCF9FF1FB94B00000C560020024A034910
:104F7000034807F015BE00BFFCF9FF1FB94B000046
:104F800014560020024A0349034807F009BE00BF37
:104F9000FCF9FF1FB94B00001C5600200A4B1B7880
:104FA00013B90A4B1B786BB1094A1378202B07D829
:104FB00010B4581C074C1070E154012010BC70470D
:104FC00001230371002070478A5600204D560020AF
:104FD0008B5600202C560020704700BF024A034B1E
:104FE00010781B78C01A7047895600208856002018
:104FF000064A074913780978994204D90548591C8B
:10500000C05C117070474FF0FF3070478856002029
:105010008956002050560020054B064A1B7812780E
:105020009A4286BF044AD05C4FF0FF30704700BF01
:1050300088560020895600205056002070B50D4B30
:105040001B78144613B90C4B1B788BB10B4E35787B
:10505000C5F12103A34202D201221C460271084875
:1050600022462844254405F01BFB3570204670BDC0
:10507000184670BD8A5600204D5600208B560020E1
:105080002C560020124BDB7803F020034BB1114A61
:1050900013780133DBB2012B137012D9122005F003
:1050A00055BF10B5122003F0FF0405F04FFF0A4B67
:1050B0001B685BB109490A4A0C701078BDE81040C2
:1050C0001847084B1B78002BE8D0704710BD00BF75
:1050D00000600640745600202856002088560020A4
:1050E000895600204D5600200D4A0E4BF0B5002089
:1050F0000D4C10702268DFF838E00C4F42F040028F
:1051000022604FF4197127260425202480229870EC
:10511000CEF8001039605E709D715C719A70F0BDC0
:105120004D560020006006403480044008A0044032
:105130000CA0044010B5384CE378DBB2D80623D578
:1051400010225906E2701ED503F0040303F0FF029B
:10515000002B33D0314B32491A68324C00230B708C
:105160002370002A3BD090472378002B37D02E4B5A
:105170001B78294A2D49D02494701371264B0120A5
:1051800002220870DA7010BD5A06DDD4A27802F04F
:10519000100202F0FF0042B313F001031BD12349B8
:1051A00020480A780078904281BF1F4B501C9B5CBE
:1051B00008702371184BD0229A7008E01C48164BD7
:1051C000174902700120C02208709A701B79124B97
:1051D0000222DA7010BDC023A3702379F7E71249C9
:1051E000002301220B702270C3E7124B1249187082
:1051F0000322122005F02EFE0D4923790A781F2A7A
:10520000DBB2E4D8064800780028E0D00B4C501CF4
:10521000A3540870DBE700BF006006407056002012
:10522000245600208B5600202C5600208C5600203F
:1052300089560020745600208550000050560020EA
:105240000548064A10B40123054C03704900137049
:10525000217010BC704700BF8A5600208B5600207A
:105260002C5600202DE9F047584C1223E370A37808
:1052700003F0200382B0002B54D0B423DFF860A1E8
:10528000A370DAF80020514C0020E378DBB293429F
:1052900018BF01209F061A46F7D5002840F08D80E0
:1052A0004B4B1B78002B34D003F1FF3C5FFA8CFC96
:1052B0000027DAF80020DFF82CE1444D0CF1010C56
:1052C0003C464FF002081EF8013F2B715FFA87F948
:1052D000104601E09E0608D5EB78DBB293421CBF76
:1052E000184601249E071A46F4D585F80380EE7807
:1052F000F6B2B3420EBF024632460124F30633D45F
:10530000B30631D5F30744D401376745DBD1002C10
:105310004AD1002000292ED12E4B00221A7002B053
:10532000BDE8F0872C4DDFF8B8A003F0FF022B6832
:105330000093009EDAF8000005E02B680193019BC2
:105340009B1B0F2B1BD8E378DBB2834218BF0122D3
:1053500013F0200F1846F0D192BB20481B4B0024BD
:10536000B02204709A708CE70CBB184B80229A70A4
:1053700004200029D0D0154B80229A70CCE7CAB9FE
:10538000124B00218022042099709A7002B0BDE86F
:10539000F087C4B90D4BB9F1000F4FF080020CBF7C
:1053A000022003209A70B7E7CAF80020B1E7CAF8D4
:1053B0000020DAE7CAF80000E2E7CAF800306FE739
:1053C000CAF80030C9E7CAF80020E3E700600640E9
:1053D0008B5600208A560020F05600204D560020A3
:1053E00000FBFF1F2B5600202DE9F04F624E634D4E
:1053F000DFF8989100201224287089F80000F470DA
:10540000B07800F02000002855D0B420DFF880A14B
:10541000B070490041F00101574EC9B23171DAF85C
:10542000000000240546F178C9B281421CBF0D4638
:1054300001248F070846F6D5002C40F091804E4895
:105440000224C470C078C0B2884218BFCAF80000F5
:1054500010F0110076D1002A44D0012A78D0464DB0
:10546000474FA021A97002F1FF3BA2F1020E29795A
:10547000DAF8004006465FFA8BFC5FFA8EFE4FF0CA
:105480000208E978C9B2A14218BF01200C46A10761
:10549000F7D5711CB64585F80380CEB22AD029799C
:1054A00007F8011F6645ECD108B1CAF80040354E37
:1054B000E34610462AE0DFF8D8A0DAF8004000F012
:1054C000FF05F078C0B2A04218BF01250446A0062F
:1054D000F7D4002D47D12C4C274800252570B02447
:1054E000847096E7002B244B0CBFA02280229A7078
:1054F000BDE8F08F002839D11F49224EA8208870BE
:10550000097906F80E105FFA8BFB1046DAF80040B6
:10551000194F0025F978C9B28C4218BF01250C46F5
:10552000A107F7D52DBB1449B0240225CD708C708E
:105530000C7906F80B400BB180238B7089F80020A2
:10554000BDE8F08F0C4B80229A700020BDE8F08FF0
:1055500009490C4EA8248C70834609791046D5E77A
:10556000CAF800506BE7CAF80040B4E7CAF8004038
:10557000C2E7CAF80040D6E700600640885600201F
:105580004F560020505600204D56002089560020CE
:1055900000FBFF1FDBB2D2B2C9B2FFF725BF00BFCD
:1055A0000548064A10B40123054C037049001370E6
:1055B000217010BC704700BF8A5600208B56002017
:1055C0002C5600200121FFF74DBE00BF044B054AB9
:1055D0001A604FF47A71002299601A711A73704739
:1055E000785600202058010010B4047F4160022C3E
:1055F000C26002D010BC06F0FBBE836810BC184726
:105600002DE9F0410468E56815F0807F794D25604B
:1056100052D1DF0740F1B380002900F0E3800D781C
:10562000012B18BF45F000456563013190F82480D7
:1056300003F1FF3C48EA0828BCF1000F00F0A88005
:1056400021B14D7811F8028B45EA082845682E7A79
:10565000BCF1020F06F1FF364FEA06360CBF48F0E8
:10566000805548F01045B6B26563ACF1020C08E015
:105670000AB114700132013B05F47045B54216D9E8
:105680000468E56A15F0F00FF6D0A46B13F0010F73
:1056900017464FEA242EEBD11AB107F802EB5470EB
:1056A0003A4605F47045B542A3F10203E8D8BCF1CF
:1056B000000F6DD00468C3E7DD074CD5002900F06A
:1056C00089800D78012B18BF45F0004565630131D5
:1056D00003F1FF3E90F824C0BEF1000F41D029B184
:1056E00091F801C00D78023145EA0C2C45682E7AFC
:1056F000BEF1020F06F1FF364FEA06360CBF4CF042
:1057000080554CF01045B6B26563AEF1020E08E06C
:105710000AB114700132013B05F47045B54215D948
:105720000468E56A15F0F00FF6D013F0010F174684
:10573000A46BEDD122B107F8024B241254703A4603
:1057400005F47045B542A3F10203E9D8BEF1000F9C
:1057500007D00468C3E79E4690F824C0BEF1000F4E
:10576000BDD11BB30468E16A11F0F00FFBD0A16B4F
:10577000DC071DD50AB111700132013BF1E790F849
:1057800024809C4648EA0828BCF1000F7FF458AFFB
:1057900063B10468E16A11F0F00FFBD0DE07A16B82
:1057A0000FD50AB111700132013BF1E7BDE8F0817C
:1057B0002AB114460D1204F8021B55702246023B12
:1057C000CFE72AB114460D1204F8025B517022464D
:1057D000023BDDE790F82450012B18BF45F000454F
:1057E000656375E790F82450012B18BF45F000451C
:1057F00065631BE700041F80F0B4464B464A186BF4
:10580000DC6A01791170454922790A709A6A007937
:105810000870002A46D05968C9688A423ED8216873
:10582000CC8B240402F1FF3065D4C0F30E00C88392
:10583000C88B80B2C882196B0968C88B000452D427
:10584000C2F30E00C883C88B002480B212F1FF326D
:10585000C88218BF01229C62D96A2E4809680D6867
:1058600000F12404A54236D00068C46814F0804FCB
:105870000C680D6815BF248824780235013544F082
:1058800000440D604463196B254B09791970214957
:1058900012B1CA6A12791A70F0BC7047521A9A6231
:1058A0000122D9E7586B196805681E4C0A63CC625F
:1058B000CC682D681C4E24F080440327B542CC6090
:1058C00083F825701FD1037F4260022BC2601ED077
:1058D000F0BC06F08DBD016890F82400CC6840F063
:1058E00000404863CFE7CC8BC2F3080004F47E4449
:1058F0002043C883A7E7CC8BC0F3080004F47E44A0
:105900002043C88394E72B461146F0BC18478368B0
:10591000F0BC184704FBFF1F1F8000401C800040A4
:105920001B80004000000FFFE955000090E80C00CC
:10593000F0B41C6859682568164F174E294321603A
:10594000164D17491760D66015611160417A154AE6
:105950005C180A3194F8244053F8215002EBC4013A
:1059600049680D60017A5C1803EB8101247ECD69E2
:1059700002EBC40149680D60817A581803EB81037A
:1059800090F83000596B02EBC002F0BC536819600C
:10599000704700BF01401F0001100038011000785F
:1059A00000001F80285F01004268036805CA10B428
:1059B000046822430260D868840100F0E06205D5E3
:1059C000080900F4706021F470410143D868114364
:1059D000814209D01A68500408D40748186041F081
:1059E0008040D96018611A6010BC704741F0804255
:1059F000D96010BC1A61704701401F00204A4368FB
:105A00009A42F0B40FD0427A1A4492F8242091427C
:105A100007D093F824408C4215D093F825408C424F
:105A20002AD0F0BC70470B2907D00729EBD1154CC1
:105A3000227842F001022270E5E7124C227822F02F
:105A400001022270DFE7002421461E685D68366887
:105A50002E420FD00C4D05EBC202002756685A1893
:105A6000376092F8242005EBC2050A316A6853F8C2
:105A7000213013604472D4E701242146E5E700BFDA
:105A8000C858010035580020285F01001E4A4368AD
:105A90009A42F0B40CD0027A1A44127E914205D098
:105AA0001C7E8C4214D05C7E8C422AD0F0BC7047A5
:105AB0000C2907D00829EED1144C227842F00202BA
:105AC0002270E8E7114C227822F002022270E2E70D
:105AD000002421461E685D6836682E420FD00C4DAA
