:1000000000800020BD0100008DDD000045DD000006
:1000100045DD000045DD000045DD000045DD000058
:1000200045DD000045DD000045DD00008DDD000000
:100030008DDD000045DD0000C9F900000DFA00006B
:100040008DDD00008DDD00008DDD00008DDD000008
:100050008DDD00008DDD00008DDD00008DDD0000F8
:100060008DDD00008DDD00008DDD00008DDD0000E8
:100070008DDD00008DDD00008DDD00008DDD0000D8
:100080008DDD00008DDD00008DDD00008DDD0000C8
:100090008DDD00008DDD00008DDD00008DDD0000B8
:1000A000616100008DDD00008DDD00008DDD000050
:1000B0008DDD00008DDD00008DDD00008DDD000098
:1000C0008DDD00008DDD00008DDD00008DDD000088
:1000D0008DDD00008DDD00008DDD00008DDD000078
:1000E0008DDD00008DDD00008DDD00008DDD000068
:1000F0008DDD00008DDD00008DDD00008DDD000058
:100100008DDD00008DDD00008DDD00008DDD000047
:100110008DDD00008DDD00008DDD00008DDD000037
:100120008DDD00008DDD00008DDD00008DDD000027
:100130008DDD00008DDD00008DDD00008DDD000017
:100140008DDD00008DDD00008DDD00008DDD000007
:100150008DDD00008DDD00008DDD00008DDD0000F7
:100160008DDD0000E5E400008DDD00008DDD000088
:100170008DDD00008DDD00008DDD00008DDD0000D7
:100180008DDD00008DDD00008DDD00008DDD0000C7
:100190008DDD00008DDD00008DDD00008DDD0000B7
:1001A0008DDD00008DDD00008DDD00008DDD0000A7
:1001B0008DDD00008DDD000055F70000564B4CF240
:1001C000205210B51A804DF628121A8000BF00BFC9
:1001D00000F004FC514B4FF010621A60504A9A60D4
:1001E000504ADA60504A136813F4807304D14F49BF
:1001F0000B604FF4A85313604D4B1A78110703D5C9
:100200001A7842F008021A704A4B4B492A221A7097
:100210004A4A4B4B8B4204D252F8040F43F8040B6A
:10022000F8E7484B484900228B4202D243F8042B9E
:10023000FAE74649464A002352F8230041F82300D2
:1002400001336F2BF8D1434B434A802103F8011B44
:100250009342FBD1414B3D4A1A60414B8A221A70AE
:10026000A3F5805324225A70A0221A709A7992071B
:10027000FCD59A79D406FCD43A4A937903F00C035E
:10028000082B384BF9D103221A7140225A719A79FE
:100290009006FCD5334A9179324B4906FBD5324A58
:1002A000324911600221516020221A709A7902F0BD
:1002B0000C020C2AFAD12E4B2E4A1A602E4B2F4AD2
:1002C0001A6000225A60072243F8042C2C4AC3F813
:1002D0000C2D62B60DF07CFE144B1B68DA0705D5B9
:1002E00028480DF063FE284B284A1A60284B1B78DB
:1002F0005B0609D5244C254B22689A4204D121483B
:100300000DF054FE0023236011F08CF90DF042FD36
:100310000FF05CFDFEE700BF0E200540308004407A
:10032000823F04000100002B10D0034014D0034092
:1003300002D0074000E00740900A0020B89B01006F
:1003400020F9FF1F900A0020A458002000F4FF1F8E
:100350000000000000E400E05FE400E008ED00E0E1
:100360000050064000400640448004400000030165
:1003700004800440C010050014E000E0FF76010096
:1003800000002020138C50601CE00340A5C3945A49
:1003900000F00740FFFFFFFFFFFFFFFFFFFFFFFF32
:1003A000FFFFFFFFFFFFFFFFFFFFFFFFFFFFFFFF5D
:1003B000FFFFFFFFFFFFFFFFFFFFFFFFFFFFFFFF4D
:1003C000FFFFFFFFFFFFFFFFFFFFFFFFFFFFFFFF3D
:1003D000FFFFFFFFFFFFFFFFFFFFFFFFFFFFFFFF2D
:1003E000FFFFFFFFFFFFFFFFFFFFFFFFFFFFFFFF1D
:1003F000FFFFFFFFFFFFFFFFFFFFFFFFFFFFFFFF0D
:10040000FFFFFFFFFFFFFFFFFFFFFFFFDEF9FFFF23
:1004100010B5054C237833B9044B13B10448AFF33E
:1004200000800123237010BD900A0020000000000E
:10043000B49B0100084B10B51BB108490848AFF345
:1004400000800848036803B910BD074B002BFBD0A0
:10045000BDE81040184700BF00000000940A0020CB
:10046000B49B0100900A00200000000000207047AB
:10047000704700BFF8B55548554D564C297803785C
:100480002278DFF868E1544F544E120442EA032305
:10049000FF222A700270802022708EF800003870CF
:1004A000B2794F480B4312F00C0FC36002D1B379FD
:1004B000DC063DD4494A9379C3F38103032B40D032
:1004C000464B9A79C2F38102022A42D0434A937979
:1004D000C3F38103022B53D0404A9379C3F38103C2
:1004E000022B61D03D4A9379C3F38103012B51D094
:1004F0003A4A9379C3F38103012B5CD0374B9A7945
:1005000012F00C0F03D19A79D20600D49B79354DA5
:10051000354B2A7853F82240D4B1236820469B6893
:1005200098472B7804EB83046468002CF5D1F8BD60
:10053000B3799806EBD5294A9379C3F38103032B4A
:10054000BED19379D906BBD493799B06DFD4B7E7A4
:10055000F8BD9A79D706B9D49A799606B6D559785E
:1005600001F0020101F0FF020029AFD120211A7031
:100570001A461970937903F00C030C2BFAD1C6E7D5
:100580009379DD06A8D493799C06A5D4537898076F
:10059000BDD5A1E79379DF06AAD593799E06A7D4A6
:1005A00053789D07B3D4A3E79379D9069AD45378A7
:1005B0009B07ACD496E79379DC069FD59379980690
:1005C0009CD453789907A2D598E700BF06C007408E
:1005D00005C0074007C0074009C00740004006406B
:1005E0007C580020DC5600209C56002008C00740A4
:1005F00090F92410104B03604B1C06D0F0B40F4E42
:1006000056F82130984201D0F0BC70470C4F57F893
:10061000213033B18D0000245A1953685460002BE7
:10062000FAD1084C23780022013B237047F821209F
:1006300046F82120E8E700BFC0880100BC56002032
:100640009C560020DD56002038B590F924506B1CD4
:100650001BD00E4B0E4953F825400E4BEDB24FF018
:10066000FF320D701A6084B1AD0002E02C44646862
:100670005CB194F82530002BF8D0236820462C4438
:100680001B6898476468002CF3D138BD9C56002045
:10069000DC560020B8F3FF1F704700BF90F924100C
:1006A000104B03604B1C06D0F0B40F4E56F82130AF
:1006B000984201D0F0BC70470C4F57F8213033B14D
:1006C0008D0000245A1953685460002BFAD1084C4D
:1006D00023780022013B237047F8212046F821208F
:1006E000E8E700BFC0880100BC5600209C560020EF
:1006F000DD56002090F92410104B03604B1C06D0EF
:10070000F0B40F4E56F82130984201D0F0BC70473B
:100710000C4F57F8213033B18D0000245A1953681B
:100720005460002BFAD1084C23780022013B23703F
:1007300047F8212046F82120E8E700BFC0880100E3
:10074000BC5600209C560020DD560020704700BF9C
:1007500010B5002104460EF043FFB0B1B4F8B43137
:100760009BB2C3B1B4F8B031B4F8B2219BB201333B
:10077000632BC8BF002392B2934207D09A1D04EBAB
:1007800082029BB25060A4F8B03110BDD4F8B831E9
:100790000133C4F8B831BDE810400EF0DDBE00BF33
:1007A00010B5044B044640F8103B09F077FB204697
:1007B00010BD00BF7888010010B504460EF050FF50
:1007C000204610BD826C62B1137803F0080303F079
:1007D000FF0003B3D3695069181A48BF6FF0004097
:1007E0007047C16CC1B191F8313003F0080303F0D8
:1007F000FF0083B1D1E90423D1E90001101A30B41C
:1008000063EB010100256FF000448D4208BF844274
:1008100000D2204630BC704708467047F8B5044601
:1008200004200D460DF0ECFC074603200DF0E8FC1B
:1008300006462FBB224F234A3B680121132B117020
:1008400036DD0133642B3B6037DDC82BD4BF053464
:100850003C3466B91C4E1B4A33680121132B1170BE
:1008600020DD3C2C10DC01233360013C02E0164B00
:1008700000221A60002CB8BF2C460EDA2046F8BDC4
:100880000F4B00221A60E4E733680133642B3360B6
:10089000EBDDC82BD4BF053C3C3CA542B8BF0024CF
:1008A0002046F8BDC8200DF0F5FC3C2CDBDDEBE765
:1008B000C8200DF0EFFC3B68C3E70134C9E700BF77
:1008C000D0540020904F00204855002000B5836C84
:1008D00083B063B1184601220DF1070108F04AF90F
:1008E00001280CD19DF8070003B05DF804FBC06C33
:1008F00028B101220DF1070106F0F8F9F0E74FF0F9
:10090000FF30F1E7836C13B1184608F0FFB9C06CF3
:1009100008B106F0BFBA4FF0FF307047836C13B1D7
:10092000184608F0E9BAC06C08B106F0C1BE7047BD
:1009300010B5044611F044FD01462046BDE81040C4
:100940000EF032BC836C13B1184608F031BBC06C9A
:1009500008B107F0D9B8704700B5836C83B08DF843
:10096000071043B1184601220DF1070108F020FBE2
:1009700003B05DF804FBC06C0028F9D001220DF132
:10098000070107F0C1F803B05DF804FB002310B4C1
:10099000104C4172026104600372C36041B1194698
:1009A00000E0026942F82310427A01339A42F8DCEF
:1009B000094B1A680AB90BE01A465369002BFBD1A0
:1009C0005061002343618380C380837210BC7047F1
:1009D0001860F6E76C880100F0570020464A474B44
:1009E000102010801B781B0734D5F0B5444E454DC0
:1009F000454C31782B782278DFF82CE1434F824048
:100A000042EA03230B43FF22802132702A702270B6
:100A10008EF800103970D9073D4A14D51A23936017
:100A20003C4F3D4E3D4D3E4C3E49107900233B70BE
:100A300053709370D370D360337013712B70237025
:100A400013700870F0BD1F0705D4DE0606D5042319
:100A50009360E5E7704721239360E1E79D0604D4A6
:100A60005C0604D516239360DAE79060D8E7180691
:100A700002D509239360D3E7D90502D50A239360F1
:100A8000CEE79F0502D50D239360C9E75E0502D529
:100A90000B239360C4E71D0502D51E239360BFE7B7
:100AA000DC0402D502239360BAE7980402D5072339
:100AB0009360B5E7590402D506239360B0E71F049D
:100AC00002D515239360ABE7DE0302D524239360A0
:100AD000A6E79D0302D522239360A1E7DC0202D59D
:100AE000252393609CE71803F5D45903F3D49B02A4
:100AF00044BF2323936093E70020054002D00740C2
:100B000005C0074006C0074007C0074009C00740AE
:100B10007C58002000C0074001C0074002C00740C9
:100B200003C0074004C0074008C00740002976D032
:100B30002DE9F04F0C469100631883B05D68002DDD
:100B400057D06B185E68002E50D073185F68002F66
:100B500049D07B18D3F80480B8F1000F3CD008EBE3
:100B60000103D3F80490B9F1000F32D009EB01036F
:100B7000D3F804A0BAF1000F27D00AEB0103D3F891
:100B800004B0BBF1000F18D00BEB01035B6863B13D
:100B9000194401934968FFF7C9FF019B93F8252089
:100BA0001AB11A681846536898479BF8253023B144
:100BB000DBF8003058465B6898479AF8253023B137
:100BC000DAF8003050465B68984799F82530002BDA
:100BD00035D198F8253063BB97F825301BB13B68B9
:100BE00038465B68984796F82530CBB995F825309C
:100BF00063B994F8253013B903B0BDE8F08F2368CA
:100C00005B68204603B0BDE8F04F18472B682846C4
:100C10005B68984794F82530002BEDD0EFE77047DC
:100C2000336830465B68984795F82530002BE0D054
:100C3000ECE7D8F8003040465B689847CCE7D9F835
:100C4000003048465B689847C3E700BF90F924200E
:100C5000531C26D01B4B2DE9F04153F82240D2B251
:100C6000ECB19300E1184D68B5B1E9184E6866B172
:100C7000F1184F6837B13B445968FFF757FF97F8B1
:100C80002530A3B996F8253063B995F825301BB106
:100C90002B6828465B68984794F8253063B9BDE80F
:100CA000F0817047336830465B689847EDE73B68F2
:100CB00038465B689847E5E7236820465B68BDE8EF
:100CC000F04118479C56002008B50C4B0C491A6897
:100CD0000C48022A08BF0C4A4FF00003A1F8B431B7
:100CE00008BFA2F8B431094A094B12881A8009F0EA
:100CF000D5F86420BDE808400DF0CCBA0CFAFF1F0F
:100D0000A04F0020E85400205C5100201C58002017
:100D1000F4570020264B1B680F2B0CD8DFE803F09C
:100D20000C1014181C2024282C3034383C40440863
:100D3000204B214A1A6070471E4B204A1A607047A8
:100D40001C4B1F4A1A6070471A4B1E4A1A607047A4
:100D5000184B1D4A1A607047164B1C4A1A607047A0
:100D6000144B1B4A1A607047124B1A4A1A6070479C
:100D7000104B194A1A6070470E4B184A1A60704798
:100D80000C4B174A1A6070470A4B164A1A60704794
:100D9000084B154A1A607047064B144A1A60704790
:100DA000044B134A1A607047024B124A1A6070478C
:100DB00000FAFF1FC0540020BD549341103377C088
:100DC000993918C0BE0D68BFCE71153F8D0903401B
:100DD000CCC9624009A7A3407DDBD140C4160141C4
:100DE00054FC1741D0E83041195546419FAB5F4153
:100DF000A04176415E2E86412DE9F041012114206B
:100E00000CF03AFF2D4B1B68012B53D0002107201B
:100E10000DF0D2F900210C200DF0CEF900210E20AA
:100E20000DF0CAF9052107200DF0F8F905210C2075
:100E30000DF0F4F905210E20214D224C0DF0EEF9B4
:100E40002E4604F1100856F8040B0021C0B20DF034
:100E5000B3F9274654F8040B0021C0B20DF0ACF9E9
:100E6000387805210DF0DAF94445ECD14FF4FA60F9
:100E7000154E0DF00FFAA6F1100454F8040B0121E1
:100E8000C0B20DF099F9B442F7D14FF4FA600DF009
:100E900001FA55F8040B0021C0B20DF08DF9B542EE
:100EA000F7D14FF4FA600DF0F5F9084B084A1A60D3
:100EB000BDE8F081074808F0F1FFA7E7B00A00207D
:100EC000C4530020D8530020D45300200CED00E080
:100ED0000400FA05E85400202DE9F047DFF8A89255
:100EE000D9F80030012B00F08E80022B01D0BDE834
:100EF000F0879F4CB4F8B031B4F8B22199B293B2F4
:100F0000994238BF6431CB1A1F2BF0DD994DDFF8C1
:100F10007C92D5F8AC01DFF8588209F580470026AD
:100F2000D4F8ACA10021BAF1000F51D00022B0B327
:100F300002F5807C4B4631F902EB23F804EC32F9E0
:100F400002EB23F802EC624503F10403F3D1BAF19A
:100F5000000F06D050460EF0FFFAD5F8AC01C4F8E9
:100F6000AC6118B10EF0F8FAC5F8AC6109F500797A
:100F70004F454FF00000D3D17F4B986C002800F014
:100F8000DD804FF480427D4908F012F8013000F016
:100F9000DF807B4A136820331360BDE8F087B5F823
:100FA000B231B5F8B0219BB292B2934200F0DE802C
:100FB0000133632B86BF024613469AB2063305EB14
:100FC00083035868C5F8AC01A5F8B221021DAFE74C
:100FD000B8F8B231B8F8B0219BB292B2934200F0A7
:100FE000C3800133632B86BF524613469AB2063341
:100FF00004EB8303D3F804A0C4F8ACA1A4F8B22195
:101000000AF1040192E75A4CB4F8B031B4F8B221B5
:1010100099B293B2994238BF6431CB1A3F2B7FF714
:1010200066AF584DD4F8ACA1DFF8448105F5804790
:10103000002637E04FF4807200210CF0C9FA5046C8
:101040000EF08AFAC4F8AC61B4F8B231B4F8B02149
:101050009BB292B293424CD00133632B86BF4FF0C8
:10106000000E73461FFA83FE063304EB83034FF42E
:101070008072D3F804A0C4F8ACA10AF10401284698
:10108000A4F8B2E10CF0A4FABAF1000F04D0504673
:101090000EF062FAC8F8AC6105F50075BD424FF07C
:1010A000000A32D0A5F58070BAF1000FC2D1B4F8B1
:1010B000B231B4F8B0219BB292B293424ED0013318
:1010C000632B86BFD64673461FFA83FE063304EBB6
:1010D00083034FF48072D3F804A0C4F8ACA10AF1E2
:1010E0000401A4F8B2E10CF073FABAF1000FABD02E
:1010F000A5E728464FF48072002105F500750CF035
:1011000067FABD424FF0000ACCD11B4B986C28B156
:101110004FF48042194907F04BFF06E0D86C30B11C
:101120004FF48042154906F0EFFC013013D014490A
:10113000D9F800300A6820320A60D6E6D86C002858
:101140003FF427AF4FF480420C4906F0DDFC1DE769
:10115000FFF752FE1DE7FFF74FFEE8E751464FF459
:1011600080720CF035FA6FE75146DFE60246DFE6A3
:10117000A04F00205C510020D8540020E40A002039
:101180009C4F0020E40B00200CFAFF1FE80A00200F
:10119000064A074B116853F8211031B1116853F812
:1011A0002120013A43F821207047FEE790550020A6
:1011B0003855002010B582B0044611F001F900B294
:1011C000012816DDB4F9003044F25242934233D084
:1011D00012DD44F2537293421DD044F652129342F0
:1011E00007D101AAE01C1C4911F0A2F81B4B019A7F
:1011F0001A60012002B010BD44F24E429342F8D171
:1012000001AAE01C144911F093F8154B019A1A60D9
:10121000012002B010BDE01C01AA0F4911F088F8AE
:10122000019B0F2B13D90F4B042119600F200CF0D9
:1012300023FD012002B010BD01AAE01C064911F0F7
:1012400077F8094B019A1A60012002B010BD054AD7
:10125000D9B21360EAE700BFEC8801009CFAFF1FD7
:10126000E00A002000FAFF1F94FAFF1F2DE9F04F5B
:10127000DFF89882A04BD8F880549FB04FF47A7270
:101280000A9300238DF82C308DF834301C931D9375
:101290000C92002D00F0D08005F24446304607F055
:1012A000BFF92946304607F045FCDFF87492D9F8BB
:1012B00000100EAF21B138460023904A08F002FE1C
:1012C0001C99002900F0D580002508462E468DF88F
:1012D00008604FF0000B4FF0FF0AA0B101220DF1A2
:1012E000070107F047FC012817D00BF101031EAAE4
:1012F00093441BB21D2B0BF870AC17DC1C990846ED
:101300009B460028EAD11D98002855D001220DF1F6
:10131000070105F0EBFC0128E7D19DF807200D2A15
:1013200008BF5B4640F0C9801D2BE7DD013B9BB247
:101330001EAA1A4402F8706C9DF808202F2A04D0C7
:10134000012B02D902A8FFF735FF1C99C9B10B7810
:1013500018070ED4384608F0A1FD002D36D101241F
:10136000674B0A93384608F099FD20461FB0BDE848
:10137000F08FCB694A699A1A01D4002AEAD008464C
:10138000A5E71D9B002BE5D093F831201207E1D58E
:10139000D3E904ABD3E90023BAEB02026BEB0303FE
:1013A0004FF0000B6FF0004A9B4508BF924538BFD5
:1013B0005246002AE3D1CDE70BF101031EAA934464
:1013C0001BB21D2B0BF870AC99DDAFE70B214D481C
:1013D0000DF0EAFE00230A2221464B480EF0B2FB34
:1013E00049480EF089FBD8F88054484B9DB305F26C
:1013F0004446304607F014F92946304607F09AFB78
:10140000D9F8001029B144F202233C4A384608F0CA
:1014100059FD1C9B002B49D02146184607F0ACFC17
:101420001C9800283AD00222394907F0C1FD3846FD
:1014300008F034FD012493E7D8F88454002D3FF4DC
:1014400034AF05F58966304605F0D4FB29463046B1
:1014500005F0DAFB29E7D3F88454002DD0D005F548
:101460008966304605F0C6FB2946304605F0CCFBC0
:10147000C6E71D9D002D7FF427AF142125480DF0F0
:1014800093FE21480EF038FB0D22234923480EF02D
:10149000C5FA22482C460EF02FFB61E71D98002864
:1014A000C5D002221A4906F02FFBC0E71D9800287C
:1014B000BDD0224605F006FDB2E71EAB03EB0B01E3
:1014C000542A0BF1010301F8702C1BB20DD11C99A9
:1014D00019B14C69013C012526E71D9A12B1146827
:1014E000013CF8E74FF0FF34F5E71D2B3FF71EAF47
:1014F0000A2A3FF41BAF01E79C880100F088010035
:1015000078880100FC88010030000020E84A0020B3
:10151000088901000C8901002489010088540020F9
:10152000905600202DE9F041044604200D46164651
:101530000CF066FE804603200CF062FE0746B8F110
:10154000000F2AD1DFF89C80244AD8F8003001210E
:10155000132B117039DD0133642BC8F800303ADDEC
:10156000C82BD4BF05343C3467B91D4F1B4A3B68B8
:101570000121132B117022DD3C2C16DC01233B6072
:10158000013C02E0164B00221A60AC4209DBB44277
:10159000C8BF2C462046BDE8F081124B00221A60DD
:1015A000E2E734462046BDE8F0813B680133642B16
:1015B0003B60E5DDC82BD4BF053C3C3CE5E7C820DB
:1015C0000CF068FE3C2CD9DDEFE7C8200CF062FE81
:1015D000D8F80030BFE70134C6E700BF904F0020C5
:1015E00048550020D054002038B5054609F0A4FE27
:1015F0001E4C014620460EF027FA2D200DF0A8FEC5
:10160000284609F075FE014620460EF01DFA2D20F1
:101610000DF09EFE284609F059FE014620460EF0C8
:1016200013FA012112480DF0BFFD284609F072FEA1
:10163000014620460EF008FA3A200DF089FE2846B1
:1016400009F020FE014620460EF0FEF93A200DF08A
:101650007FFE284609F028FE014620460EF0F4F9E8
:101660002046BDE838400EF047BA00BF30000020E9
:10167000108B010010B500200CF0A8FA284C207047
:1016800001200CF0A3FA607002200CF09FFAA07009
:1016900003200CF09BFA234BE07022681A600420B0
:1016A0000CF094FA207005200CF090FA607006207F
:1016B0000CF08CFAA07007200CF088FA1A4BE0703E
:1016C00022681A6008200CF081FA184B1870092063
:1016D0000CF07CFA164B18700A200CF077FA154BB8
:1016E00018700B200CF072FA134B18700C200CF0D1
:1016F0006DFA124B18600D200CF068FA104B186050
:101700000E200CF063FA0F4B18700F200CF05EFAED
:101710000D4B186010200CF059FA0C4B186010BDDE
:10172000AC53002094FAFF1F9CFAFF1FDC0A002034
:101730008C55002020540020984F0020C4540020D5
:1017400088FAFF1F90FAFF1F00FAFF1F0CFAFF1F15
:101750002B4B10B519682B4C00202160C9B20CF03E
:101760008BFA617801200CF087FAA17802200CF046
:1017700083FAE17803200CF07FFA234B196821608B
:101780000420C9B20CF078FA617805200CF074FAE4
:10179000A17806200CF070FAE17807200CF06CFAC2
:1017A0001A4B082019780CF067FA194B09201978A0
:1017B0000CF062FA174B0A2019780CF05DFA164B00
:1017C0000B2019780CF058FA144B0C2019780CF0F7
:1017D00053FA134B0D2019780CF04EFA114B0E20D2
:1017E00019780CF049FA104B0F2019780CF044FAD4
:1017F0000E4B10201978BDE810400CF03DBA00BF28
:1018000094FAFF1FAC5300209CFAFF1FDC0A002053
:101810008C55002020540020984F0020C4540020F4
:1018200088FAFF1F90FAFF1F00FAFF1F0CFAFF1F34
:101830002DE9F04F8DB010290791069000F0BF8080
:10184000202900F0B0800024631C18461D46089330
:101850000FF0B2FAE4B244F0E063099000212846A8
:101860000A9344F08E430B930FF0C0FA01465A4896
:101870000FF0AEFB054607980FF09EFA01460FF0F9
:10188000EBF9044606980FF097FA014620460FF050
:10189000EBFA014628460FF09BFB4FF001084FF092
:1018A0007E550746C1464FF0010A4FF0000B5046E7
:1018B0000FF086FA39460FF0D7FA04460FF09AFC7B
:1018C0000FF07EFA014620460FF0C4F9294606467D
:1018D0000FF068FC4FF0874148B120460FF062FCE2
:1018E00028B120460FF0E4FC35468046D1461AF177
:1018F000010A4BF1000BBBF1000F08BFBAF1400F1A
:10190000D5D109F1FF34089B079E05932046029626
:10191000CDF81080CDF80C900FF04EFA4FF07E51BC
:101920000FF09AF92D490FF09FFA054640460FF047
:1019300043FA014628460FF04BFB4FF07C510FF065
:1019400093FA09990FF044FB054670000FF038FA3E
:10195000014628460FF03CFB0FF04CFC204B069A4A
:10196000019000921F492048204E214D1A460EF04A
:10197000DBF8204920480F68220308F1FF3302F406
:101980007F22C3F30B03134327F010420A60336036
:101990000A9B2B600B9B03600B6843F010430B60AA
:1019A0000DB0BDE8F08F154B0B9303F140430A9344
:1019B0004FF0804309930223114D08935BE7114BCD
:1019C0000B9303F140430A934FF08143099304239F
:1019D0000D4D08934FE700BF001B374C001BB74C61
:1019E00000D8B805488901003000002004F1024009
:1019F00008F0024080F0024088F0024001000047F9
:101A0000001BB74B03000047001B374B2DE9F04F7D
:101A10000546DFF87C82974E974F98F800E02E60DD
:101A2000FF2085F82400DFF86C92387859F820C040
:101A30000023BEF1060F8DB00C4685F8253085F8E1
:101A400026309CBF88F800309E46BCF1000F00F0A5
:101A5000A8808C455BD06346810001E09C4256D053
:101A60000B445B68002BF9D1634603EB010ADAF8FB
:101A70000430002BF9D105EB010BCAF80440BEF18C
:101A8000060F4FF0FF044FFA80FACBF804308DF8C0
:101A90002C4002968DF82D308DF82E3085F824A03C
:101AA000644605D8002388F80030002C00F0A98097
:101AB000A24226D0234601E0934222D00B445B6829
:101AC000002BF9D104EB010CDCF80440002CF9D117
:101AD000CCF804200CAB19440024431CBAF1FF3F9E
:101AE00041F8244C3B708DF82CA0029605D0634938
:101AF00051F82A3002AA934272D028460DB0BDE8B0
:101B0000F08F0130387028460DB0BDE8F08F00230B
:101B1000FF21BEF1060F02968DF82C108DF82D30A6
:101B20008DF82E3001D888F800309445E9D063460E
:101B3000810001E09A42E4D00B445B68002BF9D1AC
:101B40008C44DCF804402CB1A4468C44DCF80440FE
:101B5000002CF9D10CAB19444FFA80FE431CBEF1A6
:101B6000FF3FCCF804203B7041F8244C02968DF8DE
:101B70002CE0C2D0414951F82E3002AA9342BCD188
:101B800059F82E304FEA8E0623B19A1953685460E3
:101B9000002BFAD10023387049F82E3041F82E304E
:101BA000ABE7B0B38100DFF8D4A049F8204005EBE3
:101BB000010C00234AF82050BEF1060FCCF8043087
:101BC0004FFA80FA4FF0FF0C02968DF82D308DF809
:101BD0002E3085F824A08DF82CC07FF663AF64E723
:101BE00059F82A304FEA8A0623B19A19536854608B
:101BF000002BFAD10023387049F82A3041F82A30F6
:101C00007BE7F0B11D4B49F8202002AA43F82020C1
:101C100060E71B491B480B68019243F080630B602F
:101C20000368194923F08043036015200CF0ECF899
:101C3000164B98F800E0019A4FF4001119603878BB
:101C4000B0E70F4C0F482368019243F08063236094
:101C500003680D4923F08043036015200CF0D4F88D
:101C60000A4B019A4FF40011196038784FFA80FA44
:101C70008100C7E7C0880100DD560020BC56002067
:101C800004700440007004407504000000E100E0AE
:101C9000BCF3FF1F9C5600202DE9F0470BF04EFFD0
:101CA0004FF0FF316848694D0BF09CF86849694B6B
:101CB0000A682B6000236B722B612B72EB600AB9F0
:101CC000BFE01A465369002BFBD155610024624ED8
:101CD000624F634B6C61AC80EC80AC725B482B60F4
:101CE000DFF8CC91DFF8CCA1DFF8CC8104F026F846
:101CF00006F1180230460121FEF748FE07F11802EE
:101D000001213846A6F8B041C6F8AC41A6F8B24168
:101D1000C6F8B841A6F8B441C6F800A0FEF736FEF2
:101D20004846A7F8B04189E86000A7F8B241C7F873
:101D300000A0C7F8AC41C7F8B841A7F8B44189F88A
:101D4000084089F80940C9F80C4089F810400DF0A6
:101D500053FC444A4449454EDFF860A148460EF022
:101D60006FFA4FF00109404688E8A00088F8094062
:101D7000C8F80C4088F8104088F808900DF03CFC3A
:101D80003949384A3A4D40460EF05AFA394A3A4BE8
:101D9000106A3A4A1A600FF013F8FF27CAF80000D9
:101DA000374B86F8254086F824702E4A35497463EF
:101DB0003046B46386F83C4086F8269033600EF0D7
:101DC0003FFA314B85F8247085F82540254A2F4984
:101DD0002B60284685F8274085F8284085F826900E
:101DE0000EF02EFA3246294629482A4EFFF70EFEFB
:101DF0001C4A294926480EF023FA284B194A83F831
:101E00009D942925C3F88044C3F8844483F8A244F0
:101E1000C3F8946483F89F542149224D18460EF06C
:101E20000FFA214B0F4A1C714FF47A761C739C6495
:101E3000DC649E601D601D491846BDE8F0470EF049
:101E4000FFB90D6042E700BF88540020F053002026
:101E5000F05700206C880100A04F00205C5100204A
:101E6000AC8E0100FCF9FF1FB907000044530020AD
:101E7000585500203CFAFF1FA0530020908E01000F
:101E8000E88F01009D060000FC8F0100F5060000B0
:101E9000B40A002001100138F1050000E84A0020D2
:101EA0004D0700009C880100D8540020A1070000C5
:101EB00018530020D48801002C53002028550020FE
:101EC0002DE9F84F424C434FDFF80C810A9E0B9DE1
:101ED00081468A462046396893461F4604F084FBB3
:101EE0002046002104F070F888FB0B314FEAEB73B9
:101EF000C3EBA10101EB8102ABEB420B0BF00F0B2B
:101F00004BEA0111C9B2204604F05EF888FB0A31A1
:101F10004FEAEA73C3EBA10101EB8103AAEB430A89
:101F20000AF00F0A4AEA0111C9B2204604F04CF83F
:101F300088FB09314FEAE973C3EBA10303EB83018B
:101F4000A9EB41011B0103F0300301F00F0119431C
:101F5000204604F039F82046012104F035F888FBCA
:101F60000731FB17C3EBA10101EB8103A7EB43078B
:101F700007F00F0747EA0111C9B2204604F024F820
:101F800088FB0631F317C3EBA10101EB8103A6EB3C
:101F9000430606F00F0646EA0111C9B2204604F0D6
:101FA00013F888FB0538E917C1EBA80808EB88018E
:101FB000A5EB410505F00F0545EA08112046C9B219
:101FC00004F002F82046BDE8F84F04F01FBB00BF44
:101FD00070560020F0FAFF1F6766666670B5104CF9
:101FE00006460D4620460A2104F0FEFAC6F30721F4
:101FF000204603F0E9FFF1B2204603F0E5FFC5F308
:102000000721204603F0E0FFE9B2204603F0DCFFA1
:10201000204604F0FBFAB0FA80F0400970BD00BF22
:1020200070560020F0B54B4C4B48216885B004F049
:10203000DBFA0021484803F0C7FF0021464804F0BE
:1020400027F9216844480023072204F0C7FA4248D0
:1020500003F0DAFF0DF1FF36002504E003F0DEFFA8
:1020600006F8010F01353C4803F0CEFF04463A481C
:10207000002CF3D104F0CAFA072D02D0204605B097
:10208000F0BD9DF800509DF801409DF804009DF8BA
:1020900005109DF802209DF80630304FDFF8D4C0BF
:1020A0002E1106EB860605F00F0505EB46062511F9
:1020B00005EB850504F00F0404EB4505041104EB62
:1020C000840400F00F0000EB4404081100EB8000D2
:1020D00001F00F0101EB400EF6B2C2F301113E70A8
:1020E000181101EB81011E4E02F00F0202EB4102BA
:1020F00000EB8000EDB203F00F038CF8005003EB0F
:1021000040033270174D184A18485FFA8EF1E4B256
:10211000DBB22C700170137097F800E09CF800702F
:1021200036782C78017813788DF80C401E3302A88D
:102130008DF80E308DF808E08DF809708DF80A6082
:102140008DF80D1009F00CF9094B01241860204698
:1021500005B0F0BDF0FAFF1F70560020405300207C
:1021600034550020C455002041530020914F0020D9
:102170008C4F0020B05300202DE9F04383B004467B
:10218000FFF750FF00283BD024B9224B186803B05A
:10219000BDE8F0831F4C206809F0BCF88046206839
:1021A00009F070F80546206809F07EF8814620683D
:1021B00009F08CF80646206809F09AF8074620686E
:1021C00009F0BAF802AB00F14E0203F8089D184678
:1021D0008DF806208DF802808DF805708DF804606A
:1021E0008DF8015009F0BCF80BF0E0FEFFF71AFF84
:1021F00058B120680246084B1A6003B0BDE8F0836E
:102200000BF0CEFE03B0BDE8F0830BF0C9FE024632
:102210002068F0E78C4F0020E44A00202DE9F04FC1
:1022200001209DB0FFF7A8FFAC4FAD4C386009F01E
:102230005FF8236883422CD0AA4B1B684BB33868E5
:10224000A94D09F055F82060386809F075F8236841
:10225000A6490246A64810F045F8D5F88044002C5F
:1022600000F0128104F2444101230024A04A8DF8B9
:1022700038400EA88DF839408DF83A4006F02AFB18
:10228000D5F88004984B002800F01681984907F093
:10229000DFFD002128200BF0C1FF002608242820A4
:1022A0000BF0CEFB0EF08CFD4FF06A510EF0DCFD12
:1022B000014630460EF0D0FC013C0646EFD18D4879
:1022C0008D4C8E4D08F030FC386809F035F88046AA
:1022D000386809F00DF88146386808F0F7FF0D906E
:1022E000386809F017F88246386808F0CBFF834653
:1022F000386808F0D9FF824A82490A920746304678
:102300000EF0B2FD4FF078510EF0AEFD0EF002F976
:10231000CDE908017C4A10680EF0FCF8CDE9060111
:102320000D9B00936068216804914B4642460590DE
:1023300076490397CDF808B0CDF804A074480FF0A3
:10234000D1FF734810F03CF8014671480CF02CFFA7
:1023500070480DF0D1FB1AE0654907F079FD296856
:1023600029B140F601236A4A6B4807F0ABFD684883
:1023700010F026F8014666480CF016FF65480DF08F
:10238000BBFB0A200BF086FF2368142B75D8296845
:1023900041B1624C5E4A04F1100040F6012307F09F
:1023A00091FDA8B95E4C5F492368594801331A462C
:1023B00023600FF097FF4C4BD3F880040028CBD15B
:1023C000D3F884040028CAD0494905F0F9FFC6E7CC
:1023D00055485649D0F800A0554D564A564B574ED1
:1023E000DFF86481D6F8009003C9286092E8030002
:1023F000A86093E80300102701231FFA89F6AB8237
:10240000E860EE8250462F610EF01AFF5146A86137
:1024100050460EF021FC824648460EF0D1FC0146A3
:1024200050460EF021FD0EF00BFF454AD8F8003063
:10243000E86192E803005B02A26C6F84760003F10E
:1024400024012E846862AB626960002A3DD0104688
:1024500029462C2206F0ACFD09213A480CF0A4FED6
:10246000D8F800102B4800230A220DF06BFB2948F6
:102470000DF042FB1DB0BDE8F08FFEF7BDFC4FF440
:102480007A700BF007FF82E7D5F8841400293FF437
:1024900000AF012301F58961154A8DF869400EA846
:1024A0008DF86A408DF86B4005F00CFAD5F8800481
:1024B0000D4B00287FF4EAAED3F8840400283FF4E3
:1024C000E8AE0B4905F07CFFE3E6E06C0028C3D0E2
:1024D00029462C2205F018FBBEE700BF8C4F0020D8
:1024E000505500209CFAFF1FE84A00206489010033
:1024F000085400200D260000B45300209056002000
:1025000034FAFF1FD7A3E840C054002070890100AF
:102510002454002030000020E8540020D85400202B
:1025200094550020B889010028550020C489010075
:1025300098550020CC890100D48901000CFAFF1FB6
:10254000DC890100AC8901008C53002038B52B4D8B
:10255000FFF764FE2A4BD5F8AC0100241C6018B1CB
:102560000CF0FAFFC5F8AC41B5F8B241B5F8B0319E
:10257000A4B29BB29C420ED00134642C28BF00242C
:10258000A31D05EB830358680CF0E6FFB5F8B031E6
:102590009BB2A342F0D11B4B1B68A4B20122022BB9
:1025A000A5F8B241A5F8B42100D038BD164DD5F834
:1025B000AC0120B10CF0D0FF0023C5F8AC31B5F868
:1025C000B241B5F8B031A4B29BB2A3420ED00134EF
:1025D000642C28BF0024A31D05EB830358680CF06E
:1025E000BBFFB5F8B0319BB2A342F0D1A4B2012336
:1025F000A5F8B241A5F8B43138BD00BFA04F002006
:102600009C4F00200CFAFF1F5C5100202DE9F04187
:10261000804601200E46FFF7AFFD244C206008F0F5
:102620008BFE0546206808F063FE0746206808F028
:102630004DFEA5F2BC739BB27F2B02D8FAB20C2AD6
:1026400028D90023A8F80030206808F063FE074668
:10265000206808F017FE0546206808F025FEFBB24A
:10266000172B13D8EBB23B2B10D8C3B23B2B0DD892
:10267000FB026D0103F4FF2305F4FF552B43C0F368
:10268000460003439BB23380BDE8F08100233380D2
:10269000BDE8F081C0B21F28D3D87F0107F4FF57EF
:1026A000384340EA43239BB2CCE700BF8C4F002065
:1026B0002DE9F04F83B0FFF7B5FC002800F0018250
:1026C000BD4B1A68BD481A60012109F0BFFD012108
:1026D000BA48BB4EDFF83883BA4FBB4D09F0BCFD9A
:1026E00026220021B54809F0ADFD0322B749B348C1
:1026F0000DF094F926221921B04809F0A3FD032218
:10270000B349AE480DF08AF926223221AB4809F0D0
:1027100099FD0322AF49A9480DF080F926224B21EB
:10272000A64809F08FFD0222AB49A4480DF076F9C6
:102730002E220021A14809F085FD002331689F4821
:102740000A220DF0FFF92E2219219C4809F07AFD8A
:102750000023D8F8001099480A220DF0F3F92E2230
:102760003221964809F06EFD3B6855F823000EF0C3
:1027700027FB9A490EF02CFC0DF0CCFE0B460246CE
:1027800097498E480DF0D0F92E224B218B4809F045
:1027900059FD944B18680DF0BDFE0B46024690495A
:1027A00086480DF0C1F9904B1C68012C00F0B381F4
:1027B000022C00F05C818D4B3F68D3F800B0366886
:1027C000DFF8509230460EF0F7FA824620460EF0BF
:1027D000F7FA01460EF040FA51460EF045FB04466A
:1027E00055F827000EF0ECFA014620460EF03CFBAF
:1027F0007F490EF031FA4FF08E410EF02DFA7749F5
:102800000EF0E6FB75490EF0E3FBD9F80030794A8B
:10281000012B0446106000F059814FF07E50514664
:102820000EF022FB8246D8F80000734D734F3044FF
:102830000EF0C2FA014650460EF0CAFB704B8246BB
:1028400018780EF0BDFA6F4B19680EF00DFB51466B
:1028500080464FF07E500EF0FDF96B4B19680EF07C
:1028600003FB5946019050460EF0FEFA019B0146CB
:1028700018460EF0F1F9014640460EF0A9FB6349F7
:102880000EF0F2FA0EF0DCFC002380462B60386874
:102890006B60AB60EB600EF08FFA8346014620461A
:1028A0000EF094FC002840F00A81214658460EF0B4
:1028B0008FFB0DF02FFE0DF03BFC0EF057F9034699
:1028C0002B6000FB06F00EF077FA00210EF0C4F941
:1028D000834678680EF070FA0146019020460EF0AB
:1028E00075FC002840F0E980019B214618460EF057
:1028F0006FFB0DF00FFE0DF01BFC0EF037F90346D9
:102900006B6000FB06F00EF057FA59460EF0A4F982
:102910008346B8680EF050FA0146019020460EF04A
:1029200055FC002840F0C780019B214618460EF058
:102930004FFB0DF0EFFD0DF0FBFB0EF017F903461A
:10294000AB6000FB06F00EF037FA59460EF084F942
:102950008346F8680EF030FA0746014620460EF02E
:1029600035FC002840F0A580214638460EF030FBAB
:102970000DF0D0FD0DF0DCFB0EF0F8F80346EB6037
:1029800000FB06F00EF018FA014658460EF064F906
:1029900051460EF01DFB044640460EF00DFA01466E
:1029A00020460EF01DFC26225C21002867D003483B
:1029B00009F048FC05222FE08C4F002088540020AD
:1029C00094FAFF1F88FAFF1F3CFAFF1FE4890100F9
:1029D000E8890100EC890100F089010000007A44D7
:1029E000F4890100C05400200CFAFF1FF4FAFF1F05
:1029F0000000304230550020385500209053002010
:102A000090FAFF1F98FAFF1F08FAFF1F00006145A8
:102A10009CFAFF1FC4540020434944480CF0FEFFB9
:102A20005C2142482E2209F00DFC41493F4881FBC0
:102A3000083141444FEAE878C8EB21410DF004F831
:102A400001223C4939480CF0E9FF7321372237480D
:102A500009F0F8FBD9F800203448012A0EBF3649A6
:102A60003649012203B0BDE8F04F0CF0D7BF3F68F4
:102A7000334A344B52F827B0C3F800B09FE62B48D6
:102A800009F0E0FB0522304928480CF0C7FF2E2250
:102A90005C21264809F0D6FB20460EF0ABFB24490A
:102AA000034681FB03211944DB172048C3EB214176
:102AB000C4E7002169E7002047E7002025E7002060
:102AC00003E70BF06DFA214B0246FBE5204A214B50
:102AD00010781B78834286BFC3F11803C018C01A50
:102AE0000EF06EF91C4A1D4B07461B781078834286
:102AF00086BFC3F13C03C018C01A0EF061F9184933
:102B0000054638460EF0B0F929460EF0A5F81549ED
:102B10000EF05EFA83E63F68134A0A4B52F827B07C
:102B2000C3F800B04BE600BFFC89010088540020C8
:102B300007452EC2048A0100108A0100148A010090
:102B4000A0FAFF1FF4FAFF1F088A01008C4F002033
:102B500020540020DC0A0020984F00208C550020D3
:102B6000000070420000B44410FAFF1F2DE9F0434A
:102B7000554A564BDFF87091DFF87081544F117849
:102B800098F800401A7899F80060386883B03C23C0
:102B900013FB064613FB012408F0BCFB054638680E
:102BA00008F070FBC5EB051500EB8505386808F0EB
:102BB000C3FB00F14E0338688DF8063008F098FB2F
:102BC0008DF80500386808F081FBA6428DF80400F6
:102BD0000AD2AE424DD8AC424BD3A41BC4EB041472
:102BE0003C4D3D48A40010E0AE4201D9AC421AD39E
:102BF000C4EB0414A300A6EB061403EB840404F551
:102C0000A834344D344804F5C07410212C600CF005
:102C1000CBFA296831480CF017FF30480CF06CFFF4
:102C200003B0BDE8F08302A8002300F8083D99F83E
:102C3000002098F800308DF802208DF8013008F05F
:102C40008FFB3860FFF7EEF900283AD0244B186864
:102C50003B681F4A834204DA03F5A83303F5C073C7
:102C600013600F211F480CF09FFA3868FEF7BCFC78
:102C7000BEE702A8002300F8083D99F8002098F864
:102C800000308DF802208DF8013008F069FB3860C3
:102C9000FFF7C8F990B1124B18683B680C4A8342A1
:102CA00004DA03F5A83303F5C07313600F210D4850
:102CB0000CF07AFA3868FEF797FC8EE70BF070F9A3
:102CC000EBE70BF06DF9C3E720540020984F00208C
:102CD000944F002088530020288A010030000020F3
:102CE0008C4F0020188A0100DC0A00208C5500203F
:102CF00010B5184C0A21204603F076FC204600212E
:102D000003F062F92046302103F05EF920460021ED
:102D100003F05AF90021204603F056F9204603F04B
:102D200075FC20460A2103F05FFC2046002103F0D9
:102D30004BF92046022103F047F92046002103F019
:102D400043F92046002103F03FF92046BDE810403A
:102D500003F05CBC705600200238032838B504DC50
:102D6000002880F2AE81002400E00C240A21C8482B
:102D7000C84D03F039FC0021C54803F025F9302186
:102D8000C34803F021F94021C14803F01DF9602137
:102D9000BF4803F019F9BE4803F038FC0A21BC48CB
:102DA00003F022FC0021BA4803F00EF92621B848AE
:102DB00003F00AF90021B64803F006F96C21B44883
:102DC00003F002F9B24803F021FC0A21B04803F0F5
:102DD0000BFC0021AE4803F0F7F82821AC4803F0C3
:102DE000F3F80121AA4803F0EFF8F021A84803F016
:102DF000EBF8A74803F00AFC0A21A54803F0F4FB0E
:102E00000021A34803F0E0F82C21A14803F0DCF8EE
:102E10000F219F4803F0D8F822219D4803F0D4F8F1
:102E20009B4803F0F3FB0A21994803F0DDFB0021E6
:102E3000974803F0C9F83C21954803F0C5F80021F4
:102E4000934803F0C1F80021914803F0BDF8904881
:102E500003F0DCFB0A218E4803F0C6FB00218C48FE
:102E600003F0B2F830218A4803F0AEF80021884818
:102E700003F0AAF8E221864803F0A6F8844803F09C
:102E8000C5FB0A21824803F0AFFB0021804803F014
:102E90009BF802217E4803F097F800217C4803F05C
:102EA00093F843217A4803F08FF8794803F0AEFB9A
:102EB0000A21774803F098FB0021754803F084F855
:102EC0000421734803F080F80021714803F07CF876
:102ED00021466F4803F078F86D4803F097FB0A210C
:102EE0006B4803F081FB0021694803F06DF806216F
:102EF000674803F069F80121654803F065F830215F
:102F0000634803F061F8624803F080FB0A216048DF
:102F100003F06AFB00215E4803F056F80A215C4882
:102F200003F052F800215A4803F04EF800215848A7
:102F300003F04AF8564803F069FB0A21544803F0AD
:102F400053FB0021524803F03FF80E21504803F094
:102F50003BF800214E4803F037F808214C4803F0B5
:102F600033F84B4803F052FB0A21494803F03CFB7D
:102F70000021474803F028F81021454803F024F8C1
:102F8000FF21434803F020F8FF21414803F01CF8DB
:102F90003F4803F03BFB0A213D4803F025FB00219D
:102FA0003B4803F011F82221394803F00DF87F2146
:102FB000374803F009F87F21354803F005F8344815
:102FC00003F024FB0A21324803F00EFB01213048B4
:102FD00002F0FAFF24212E4802F0F6FF00212C48CF
:102FE00002F0F2FF00212A4802F0EEFF284803F029
:102FF0000DFB0A21264803F0F7FA0021244802F0CD
:10300000E3FF2421224802F0DFFF0121204802F0E3
:10301000DBFF14211E4802F0D7FF1D4803F0F6FA2B
:103020000A211B4803F0E0FA0021194802F0CCFF06
:103030002A21174802F0C8FF0021154802F0C4FFFA
:103040000021134802F0C0FF114803F0DFFA092104
:1030500011480CF0A9F8296810480CF0F5FC0F484D
:103060000CF04AFD2C680A480A2103F0BDFA002141
:10307000074802F0A9FF44EA04142021044802F0A2
:10308000A3FFC4F30721024802F09EFFE1B207E06C
:103090007056002000FAFF1F3C8A0100300000201B
:1030A000094802F091FF084803F0B0FAB0FA80F145
:1030B000490906480CF0C8FC04480CF01DFD01202D
:1030C00038BD8000C4B251E67056002030000020A8
:1030D00010B5074B0446102153F82000FEF7A8FB5B
:1030E000044803F017F82046BDE81040FFF734BE4F
:1030F0003CFAFF1F7056002038B504460D46314893
:10310000012109F0A3F82AB200212E4809F09AF80B
:10311000204608F011F901462A480CF095FC2D21B3
:10312000284809F055F8204608F0E2F801462548FD
:103130000CF08AFC2D21234809F04AF8204608F0BB
:10314000C5F801461F480CF07FFC02221E491D48AD
:103150000CF064FC204608F0DDF8092803DC30217F
:10316000184809F035F8204608F0D4F8014615480B
:103170000CF06AFC204608F085F801220546134948
:1031800010480CF04BFC092D03DC30210D4809F0F0
:103190001FF829460B480CF057FC204608F084F82D
:1031A00001220446094907480CF038FC092C03DCCD
:1031B0003021044809F00CF821460248BDE83840A7
:1031C0000CF042BC88540020488A01005C8A01004F
:1031D0002DE9F041B94D2B682BB1012B00F0958002
:1031E00030BFBDE8F081FEF71DFFB54F002800F0AD
:1031F0005D813B68B3483B6009F008FE0121B1489E
:10320000B14EB24C09F028F80221AE4809F01EF880
:1032100000221146AB4809F015F80A22AC49A9482A
:103220000CF0FCFBA7480CF067FC0121A54809F055
:103230000DF812220021A34809F004F80522A5493F
:10324000A0480CF0EBFB31689E4801310CF0FCFB10
:103250000122A1499B480CF0E1FB32689F4B994841
:1032600053F8221000230A220CF06CFC206828215D
:10327000FFF742FF37213868FFF73EFF91480AF019
:1032800001F823683A689A423BDBDFF8AC82D8F851
:103290000060002E00F0F080022E00F0C9810D21A8
:1032A0008F480BF081FF8F480CF026FC8E4B1B687B
:1032B000002B00F0D680012B00F042818B4E8C4811
:1032C0000E210BF071FFFEF7ADFE002800F0F2803A
:1032D0003868FEF789F90B2186480BF065FF3068E6
:1032E000FEF782F90B2184480BF05EFF2068FEF7A1
:1032F0007BF90123AE2173482B6009F08FFDFFF7A6
:1033000025F92B68012B7FF46BAFFDF7E5FD042059
:103310000AF076FF044603200AF072FF14B9002871
:1033200000F02581754E764B32681B689A42FFF497
:1033300057AF744B6C4A1B681468B3FA83F35B098C
:10334000002C14BF002703F00107012C14BF002438
:1033500003F00104FEF766FE002800F07881584B68
:103360001868624B1B688342D4BF002304F001033A
:10337000002B40F06281002F40F05F81FDF7A4FC3C
:10338000FDF706FF514B1C68FEF74CFE002800F0CD
:1033900061814B4B18685C4A5C4B12685C4E5D4F18
:1033A000241AA41A24EAE47483FB04232344E017B8
:1033B000C0EBE3200DF09CF80CF0BAFE0DF0AEFB74
:1033C000554B564A306003FB004482FB04322244D2
:1033D0008046E017C0EB62100DF08AF80CF0A8FEF2
:1033E0000DF09CFB0201131A821A04EB82049B006D
:1033F0004FF4616202FB08333C60DFF840811C44FB
:10340000092CC8F8000023DD002102200AF0D4FEB8
:10341000FFF76EFC424A136823F0104313606420E8
:103420000AF038FF3B7898F8002031783D4807F0E3
:10343000C1FD3D4807F084FB012102200AF0BCFEDB
:103440004FF496700AF026FF384B1868FFF740FEDD
:1034500001233C2202211B4809F00AFE00232B60B5
:10346000BEE6334B274A21681B6812681F4E0B4487
:103470001A442260336022E70A212E4803F0B4F890
:1034800031462C4802F0A0FD0E212A4802F09CFD96
:103490003146284802F098FD0A21264802F094FDA2
:1034A000244803F0B3F8D8F80060F5E60AF078FD98
:1034B00003469FE60AF074FD0BE700BFB00A002048
:1034C0008C4F00208854002090550020944F0020FD
:1034D0004C8A0100588A0100108B010038550020E9
:1034E000608A010030000020C4540020BC5300203A
:1034F000808A0100908A01009C8A01009C4F002074
:103500008C5300209CFAFF1F04FAFF1FC5B3A29141
:10351000C85400202C550020F0F1FFFF89888888CE
:1035200080F0024044530020B40A002088FAFF1FB4
:1035300094FAFF1F70560020E00A00201C5400205F
:103540004B4B1A68002A40F088804A4A2368116869
:10355000494E4A4803F5A83202F5C0720B44226076
:103560003360FDF7E5F93068FEF73EF8A7E6444B17
:10357000444C1B68444A454E454DA06C5B020021FB
:1035800003F12407A6F8B41157609362A5F8B411AB
:10359000002845D005F0F0FBA06C3A4B002837D04E
:1035A0002C22394905F004FD3A4806F077FC012346
:1035B0003C220221384809F05BFD64200AF06AFED3
:1035C000354809F023FC0121334808F045FE02216B
:1035D000314808F03BFE002211462F4808F032FE29
:1035E00007222E492C480CF019FA2B480CF084FACB
:1035F0000121294808F02AFE1022294926480CF00A
:103600000DFA25480CF078FA234809F03BFEFEE756
:10361000D86C0028C8D02C221B4904F075FAC3E7E7
:10362000E06C0028C0D00022002303F04BFCB3E77D
:103630000B210E20FEF7D2FC31E6164806F02EFCD8
:10364000FDF7A6FDFEF7EAFD00233360C8E50AF0AA
:10365000A7FC86E60AF0A4FC9DE6124B21681B68D5
:10366000054E0B441A4422603360FFF77FFA26E6CA
:103670009CFAFF1F88530020BC530020708A010071
:103680009C4F0020D854002098550020A04F0020C7
:103690005C510020E854002088540020A88A0100D2
:1036A000B08A010094FAFF1F2DE9F04F91B0FDF7A9
:1036B000E1FFFDF72FFBFEF7B5FC4E4D002801F0B2
:1036C00001852B684C4A4D48136009F09FFB01218E
:1036D0004A484B4F4B4C08F0BFFD0221474808F0C9
:1036E000B5FD00221146454808F0ACFD07224649C9
:1036F00042480CF093F90121404808F0A7FD102240
:1037000000213E4808F09EFD122240493B480CF043
:1037100085F93A480CF0F0F93D4B012118780AF090
:103720004BFD4FF47A700AF0B5FD0721394803F0DC
:1037300089F90E21374803F011FA0C21354803F0BE
:10374000C9F9354B354800261E600CF0D5F93348D1
:103750000CF0D2F9052132480BF026FD01212F484B
:103760000CF072F92D480CF0C7F9012123480CF038
:103770006BF904222B4921480CF050F91F4809F03D
:1037800081FD64200AF086FD274B8DF81D6093F8BB
:1037900000E009968DF81CE0089707AB93E8070056
:1037A0000AAB83E807008DF829600C968DF828E0B5
:1037B0000B9793E807000DAB83E8070004F59266CA
:1037C0000ECB304606F022FE94F89F34C4F88C6489
:1037D00083B31C2115480BF0E7FC10480CF08CF962
:1037E0000922134905480CF019F9044809F04AFD6B
:1037F000FEE700BF8C4F0020E44A002088540020E0
:1038000080F0FA02E84A0020C48A0100CC8A010054
:10381000C4530020FCFAFF1F90530020300000200A
:10382000588A0100E08A0100D8530020188B01005B
:10383000388B01003146204606F096FB0028C8D0A0
:10384000D4F88004002801F0338406F007FA064615
:103850000821BC480BF0A8FC3146BB480CF0F4F83A
:10386000B9480CF049F930460DF0AAFAB7490DF005
:10387000FBFAD4F88034B64A0646002B01F0A08447
:1038800018790DF099FA014630460DF0EDFA0DF079
:10389000D7FC0646D4F88C0406F0A6FC0DF08CFA92
:1038A000AA490DF0E1FA0DF0CBFC0A210446A94823
:1038B0000BF07AFC0A2221460023A3480CF042F9BF
:1038C000A1480CF019F9C72EA34BA4488CBFC83EE1
:1038D000002611211E600BF067FC9F499A48096879
:1038E00000230A220CF02EF997480CF005F99A49AA
:1038F0009B48096800230A220CF024F90122994907
:1039000097480CF08BF800230A22214694480CF0CB
:1039100019F993480CF0F0F8914809F0B3FC4FF412
:103920007A700AF0B7FCFDF7A1FCFDF7F3F9FDF79B
:103930000FFF8D4B1A688D4B9A4201F22A848C4AF4
:103940008A4B12689A4201F2DD838A4B1B78172B4F
:1039500001F2F283884B1B783B2B01F2F983874BF2
:103960001B78172B01F20084854B1B783B2B01F24F
:103970000784844F3B68012B05D9002319460C208E
:103980003B600AF079F9804B1B68082B01F2B18388
:103990007E4B1B78082B01F2A3837D4B1B680F2BFA
:1039A00001F295837B4B1B68013B012B06D9012358
:1039B000784A1946102013600AF05EF9764EFEF739
:1039C00031FB002801F014832868744B28601B68C1
:1039D000C3EB0009B9F5167F4FF00400D4BF4FF0D8
:1039E00000094FF001090AF00BFC3B686C4A012BFF
:1039F0000CBF0A2309231360002800F0E080032095
:103A00000AF0FEFB002800F0058108200AF0F8FB10
:103A1000002800F0E780524809F0F8F901215048E9
:103A200008F01AFC02214E4808F010FC0022114652
:103A30004B4808F007FC0221494808F007FC3368AE
:103A4000584A52F8234020460EF0BAFC214602465E
:103A500043480BF0E3FF42480CF04EF80121404888
:103A600008F0F4FB3368504A52F8234020460EF029
:103A7000A7FC214602463A480BF0D0FF38480CF02C
:103A80003BF8FEF715FE0121354808F0DFFB002268
:103A90006421334808F0D6FB4FF0000808242820A2
:103AA00009F0CEFF0DF08CF94FF06A510DF0DCF902
:103AB000014640460DF0D0F8013C8046EFD13B492D
:103AC0000DF0D2F94FF078510DF0CEF90CF022FD47
:103AD00001240B460246009421480CF075F822465A
:103AE00033491F480BF09AFF21461D4808F0AEFBF2
:103AF000082264211A4808F0A5FB264B1B68A34244
:103B000001F07A8208225A21154808F09BFB062210
:103B1000284913480BF082FFFEF784FA002801F0D1
:103B2000638228683721FFF7E7FA0D4809F0AAFBFE
:103B30000A200AF0AFFBB9F1000F3FF440AF11B01B
:103B4000BDE8F08FE88A010030000020BD37063A5A
:103B5000E84A0020F48A010090530020008B010005
:103B600088540020148B010094FAFF1FA0860100E6
:103B70009CFAFF1FDC0A00208C55002020540020F6
:103B8000984F0020C454002088FAFF1F90FAFF1FAE
:103B900000FAFF1F0CFAFF1FC0530020E44A002068
:103BA000C4FAFF1F60FAFF1FC8FAFF1FD7A3E8403F
:103BB00034890100408901000A200AF06BFB0420CF
:103BC0000AF01EFB0028F7D0874A3368126887493D
:103BD000013393423360A4BF00230B600FE70A2038
:103BE0000AF058FB08200AF00BFB0028F7D03368D6
:103BF000092B01F2E781DFE813F076093900A6020C
:103C000013022601FF04E401AA019904AA000A2074
:103C10000AF040FB03200AF0F3FA0028F7D03368DB
:103C2000724A013B002B3360BFF6EFAE6E4B1B6850
:103C3000013B1360E9E66E490DF016F94FF078513B
:103C40000DF012F90CF066FC01240B4602460094BC
:103C500068480BF0B9FF2246674966480BF0DEFE64
:103C6000644809F00FFB02200AF014FB08200AF058
:103C7000C7FA0128044640F04184604B4FF461626A
:103C800001461868FDF74EFC5C4B1860594809F076
:103C9000BDF82146574808F0DFFA0221554808F0E0
:103CA000D5FA00221146534808F0CCFA07225449AD
:103CB00050480BF0B3FE4F480BF01EFF4F494D48E4
:103CC000096800230A220BF03DFF22464D4949486E
:103CD0000BF0A4FE47480BF00FFFFEF7E9FC21466E
:103CE000444808F0B3FA00226421424808F0AAFAD6
:103CF0004FF000080824282009F0A2FE0DF060F81B
:103D00004FF06A510DF0B0F8014640460CF0A4FFA8
:103D1000013C8046EFD18EE735490DF0A5F84FF014
:103D200078510DF0A1F80CF0F5FB01240B4602468A
:103D3000009430480BF048FF22462F492D480BF0E5
:103D40006DFE2C4809F09EFA02200AF0A3FA082022
:103D50000AF056FA0128044640F074822A4B1721D3
:103D60001878FCF75BFD284B1870224809F04EF8D4
:103D70002146204808F070FA02211E4808F066FA31
:103D8000002211461B4808F05DFA07221F49194816
:103D90000BF044FE17480BF0AFFE1B49154809789D
:103DA00000230A220BF0CEFEFEF782FC21461148CA
:103DB00008F04CFA002264210E4808F043FA4FF054
:103DC00000080824282009F03BFE0CF0F9FF4FF012
:103DD0006A510DF049F8014640460CF03DFF013CA8
:103DE0008046EFD198E700BFC4FAFF1FC053002000
:103DF000D7A3E840885400203489010094FAFF1FBB
:103E0000A08B0100A88B0100DC0A0020308C01008F
:103E1000AF490DF029F84FF078510DF025F80CF06E
:103E200079FB01240B4602460094AA480BF0CCFE15
:103E30002246A949A7480BF0F1FDA64809F022FA4D
:103E400002200AF027FA08200AF0DAF901280446CD
:103E500040F06083A14B0F211868FCF7DFFC9F4BFB
:103E60001860FCF757FF9B4808F0D0FF214699489F
:103E700008F0F2F90221974808F0E8F9002211460B
:103E8000944808F0DFF90522954992480BF0C6FDE9
:103E9000924B904819680BF0D7FD8E480BF02CFE22
:103EA000904B18680CF036FB4FF0020A0B460246A6
:103EB000CDF800A087480BF087FE52468A49854816
:103EC0000BF0ACFDFEF7F4FB2146824808F0BEF98A
:103ED000002264217F4808F0B5F94FF0000808245B
:103EE000282009F0ADFD0CF06BFF4FF06A510CF08B
:103EF000BBFF014640460CF0AFFE013C8046EFD1CF
:103F000086E77A4B1868FDF70DFB784B186071480F
:103F100008F07CFF21466F4808F09EF902216D48A9
:103F200008F094F9002211466A4808F08BF909223A
:103F30006F4968480BF072FD6C4B664819680BF0CE
:103F400083FD644809F09EF902200AF0A3F90820D5
:103F50000AF056F9012804464FF002020146D0D07B
:103F600008200AF04DF90028FAD00023336001F050
:103F700029B8604B1878FDF7D5FA5E4B1870554894
:103F800008F044FF2146534808F066F902215148E1
:103F900008F05CF9002211464E4808F053F9092256
:103FA00055494C480BF03AFD52494A4809780023DC
:103FB0000A220BF0C7FD474809F064F902200AF015
:103FC00069F908200AF01CF9012804464FF008029C
:103FD0000146CED008200AF013F90028C5D10820E8
:103FE0000AF00EF90028F5D0BFE739490CF03CFF84
:103FF0004FF078510CF038FF0CF08CFA01240B468E
:104000000246009433480BF0DFFD22463249314826
:104010000BF004FD2F4809F035F902200AF03AF9B7
:1040200008200AF0EDF80128044640F0EF80334BF9
:1040300008211868FCF7F2FB304B1860254808F09F
:10404000E5FE2146234808F007F90221214808F03F
:10405000FDF8002211461F4808F0F4F828491D48D1
:1040600004220BF0DBFC1B480BF046FD234A254BDA
:10407000126853F822000CF0A3FE23490CF0A8FFAD
:104080000CF048FA02460B46124820490BF04CFD52
:10409000FEF70EFB21460F4808F0D8F800226421F5
:1040A0000C4808F0CFF84FF000080824282009F049
:1040B000C7FC0CF085FE4FF06A510CF0D5FE0146AE
:1040C00040460CF0C9FD013C8046EFD18DE700BFB2
:1040D000D7A3E840885400203489010000FAFF1F6C
:1040E000C88B0100C0540020F08901000CFAFF1FAA
:1040F0000C8C010090FAFF1F008C010088FAFF1F52
:10410000B48B01003CFAFF1F00007A44BC8B010015
:1041100044490CF0A9FE4FF078510CF0A5FE0CF0CC
:10412000F9F901240B46024600943F480BF04CFD80
:1041300022463E493C480BF071FC3B4809F0A2F88E
:1041400002200AF0A7F808200AF05AF8012851D1F5
:10415000374B38491868FCF761FB354B186018B9C4
:10416000354A4FF4167313602F4808F04FFE0121B3
:104170002D4808F071F802212B4808F067F800225A
:104180001146294808F05EF806222C4926480BF013
:1041900045FC25480BF0B0FC25492348096800235D
:1041A0000A220BF0CFFC012225491F480BF036FCF8
:1041B0001D480BF0A1FCFEF77BFA01211A4808F01C
:1041C00045F800226421184808F03CF84FF0000838
:1041D0000824282009F034FC0CF0F2FD4FF06A515D
:1041E0000CF042FE014640460CF036FD013C804694
:1041F000EFD18DE708200AF003F800287FF4B5AE70
:10420000082009F0FDFF0028F4D0AEE6082009F0F0
:10421000F7FF00287FF4A9AE082009F0F1FF00287D
:10422000F4D0A2E6D7A3E8408854002034890100E6
:104230009CFAFF1F8051010094FAFF1FAC8B010014
:10424000A88B0100082009F0DBFF0028FAD0082025
:1042500009F0D6FF0128044664D1B64B3B211878FB
:10426000FCF7DCFAB34B1870B34808F0CFFD2146D9
:10427000B14807F0F1FF0221AF4807F0E7FF002245
:104280001146AD4807F0DEFF0822AC49AA480BF002
:10429000C5FBA9480BF030FCA649A74809780023C4
:1042A0000A220BF04FFCFEF703FA2146A24807F062
:1042B000CDFF00226421A04807F0C4FF4FF00008A2
:1042C0000824282009F0BCFB0CF07AFD4FF06A515D
:1042D0000CF0CAFD014640460CF0BEFC013C804695
:1042E000EFD197490CF0C0FD4FF078510CF0BCFDB8
:1042F0000CF010F901240B46024600948E480BF096
:1043000063FC22468F498C480BF088FB8A4808F0F2
:10431000B9FF022009F0BEFF082009F071FF012853
:1043200004469AD0082009F06BFF0028FAD0082034
:1043300009F066FF0128044664D1834B17211878E1
:10434000FCF76CFA804B18707B4808F05FFD214643
:10435000794807F081FF0221774807F077FF0022B4
:104360001146754807F06EFF0622784972480BF037
:1043700055FB71480BF0C0FB73496F480978002367
:104380000A220BF0DFFBFEF793F921466A4807F09B
:104390005DFF00226421684807F054FF4FF00008D9
:1043A0000824282009F04CFB0CF00AFD4FF06A515C
:1043B0000CF05AFD014640460CF04EFC013C804694
:1043C000EFD15F490CF050FD4FF078510CF04CFDEF
:1043D0000CF0A0F801240B460246009456480BF05E
:1043E000F3FB2246574954480BF018FB524808F09B
:1043F00049FF022009F04EFF082009F001FF0128C3
:1044000004469AD0082009F0FBFE0028FAD00820C4
:1044100009F0F6FE0128044664D14D4B3B21187883
:10442000FCF7FCF94A4B1870434808F0EFFC2146B2
:10443000414807F011FF02213F4807F007FF002223
:1044400011463D4807F0FEFE072242493A480BF06C
:10445000E5FA39480BF050FB3D493748097800230D
:104460000A220BF06FFBFEF723F92146324807F0D2
:10447000EDFE00226421304807F0E4FE4FF0000812
:104480000824282009F0DCFA0CF09AFC4FF06A515D
:104490000CF0EAFC014640460CF0DEFB013C804695
:1044A000EFD127490CF0E0FC4FF078510CF0DCFC28
:1044B0000CF030F801240B46024600941E480BF025
:1044C00083FB22461F491C480BF0A8FA1A4808F043
:1044D000D9FE022009F0DEFE082009F091FE012835
:1044E00004469AD0082009F08BFE00287FF43DADE9
:1044F000082009F085FE0028F4D036E5082009F0F0
:104500007FFE00287FF431AD082009F079FE0028F5
:10451000F4D02AE5082009F073FE00287FF425ADC9
:10452000082009F06DFE0028F4D01EE5DFF8288091
:104530001CE000BF8C55002088540020388C0100FE
:10454000D7A3E8403489010020540020448C0100A6
:10455000984F00204C8C0100C4540020012B31D016
:10456000214808F08FFE022009F094FE082009F08F
:1045700047FE0128044601462AD13868FCF74EF967
:104580003860194808F042FC2146174807F064FEDD
:104590000221154807F05AFE00221146124807F082
:1045A00051FE0522114910480BF038FA3B68002BE8
:1045B000D4D104220E490C480BF030FAD8F8003060
:1045C000012BCDD105220B4907480BF027FAC7E78D
:1045D000082009F015FE00287FF4C7AC082009F078
:1045E0000FFE0028F4D0C0E488540020188C01008D
:1045F000208C0100288C01000820CDF8149009F0CF
:10460000FFFD0128DFF880A3DFF880B340F0A08031
:104610002868D64C06F090FE40F634024FF4FA615A
:10462000CBF80000FCF77EFFDBF8003020609842FA
:104630002BD0DAF8000006F06DFE8046DAF80000B4
:1046400006F020FE8146DAF8000006F02DFE049008
:10465000DAF8000006F03AFE0390DAF8000006F0FF
:1046600047FE2468039B0090A4F5FA64049A019421
:1046700049464046FDF724FCFDF7D4FC002800F035
:10468000C684DAF80000BA4B1860BA4808F0BEFBDE
:104690000121B84807F0E0FD0221B64807F0D6FD39
:1046A00000221146B34807F0CDFD0522B249B148BA
:1046B0000BF0B4F9AF480BF01FFAFDF7B3FC00287C
:1046C00000F0A184286806F037FE0146A9480BF0E7
:1046D000BBF9FDF7EDFF0121A64807F0B7FD002269
:1046E0006421A44807F0AEFD4FF0000808242820FC
:1046F00009F0A6F90CF064FB4FF06A510CF0B4FB22
:10470000014640460CF0A8FA013C8046EFD19B4997
:104710000CF0AAFB4FF078510CF0A6FB0BF0FAFE60
:1047200001240B460246009492480BF04DFA2246B3
:10473000934990480BF072F98E4808F0A3FD0220CF
:1047400009F0A8FD082009F05BFD01283FF460AFE7
:10475000DDF81490082009F053FD0028FAD002205B
:1047600009F098FD0820CDF8149009F049FD0128C2
:10477000DFF814A2DFF818B2044640F0A3802868DE
:10478000DFF8108206F0B4FD21460C22CBF80000C1
:10479000FCF7C8FEDBF80030C8F8000098422DD0C6
:1047A000DAF8000006F0B6FD0446DAF8000006F07C
:1047B00069FD8146DAF8000006F076FD0490DAF82B
:1047C000000006F083FD0390DAF80000D8F80080BE
:1047D00006F0B2FDA0F5FA600190039B049ACDF8B3
:1047E000008049462046FDF76BFBFDF71BFC0028C7
:1047F00000F01484DAF800005D4B18605D4808F0A2
:1048000005FB01215B4807F027FD0221594807F00D
:104810001DFD00221146574807F014FD0622594994
:1048200054480BF0FBF853480BF066F9FDF7FAFB20
:10483000002800F0F083286806F05AFD01464D4834
:104840000BF002F9FDF734FF01214A4807F0FEFCA6
:1048500000226421474807F0F5FC4FF000080824C7
:10486000282009F0EDF80CF0ABFA4FF06A510CF08B
:10487000FBFA014640460CF0EFF9013C8046EFD1CF
:104880003E490CF0F1FA4FF078510CF0EDFA0BF0D4
:1048900041FE01240B460246009436480BF094F981
:1048A0002246374933480BF0B9F8324808F0EAFCA1
:1048B000022009F0EFFC082009F0A2FC01280446C0
:1048C0003FF45DAFDDF81490082009F099FC002852
:1048D000FAD0022009F0DEFC0820CDF8149009F08F
:1048E0008FFC0128DFF8A0A0DFF8ACB0044640F050
:1048F000BF802868DFF8A48006F0E8FC21461F226C
:10490000CBF80000FCF70EFEDBF80030C8F8000022
:10491000984249D0DAF8000006F0FCFC0446DAF8C8
:10492000000006F0AFFC8146DAF8000006F0BCFC9F
:104930000490DAF80000D8F8008006F0D9FC039063
:10494000DAF8000006F0F8FC039B0093A0F5FA608B
:1049500001904346049A49462046FDF7B1FAFDF717
:1049600061FB002800F061831AE000BFE8530020DB
:10497000E44A002088540020D08B0100D7A3E840EF
:1049800034890100D88B01008C4F00204C55002049
:104990008455002088550020CC540020D45300209A
:1049A000DAF80000CD4B1860CD4808F02FFA01214D
:1049B000CB4807F051FC0221C94807F047FC002210
:1049C0001146C74807F03EFC0422C649C4480BF014
:1049D00025F8C3480BF090F8FDF724FB002800F001
:1049E0002183286806F072FC0146BD480BF02CF8C4
:1049F000FDF75EFE0121BA4807F028FC0022642181
:104A0000B74807F01FFC4FF000080824282009F0E1
:104A100017F80CF0D5F94FF06A510CF025FA014661
:104A200040460CF019F9013C8046EFD1AE490CF03C
:104A30001BFA4FF078510CF017FA0BF06BFD0124C4
:104A40000B4602460094A6480BF0BEF82246A74942
:104A5000A3480AF0E3FFA24808F014FC022009F082
:104A600019FC082009F0CCFB012804463FF441AFB3
:104A7000DDF81490082009F0C3FB0028FAD00220CA
:104A800009F008FC0820CDF8149009F0B9FB0128C2
:104A9000DFF868A2DFF868B240F09C80286806F072
:104AA00039FC1721CBF80000FBF7B8FEDBF800302B
:104AB000984204462BD0DAF8000006F0E3FB80466B
:104AC000DAF8000006F0F0FB8146DAF8000006F0A4
:104AD000FDFB0490DAF8000006F00AFC0390DAF817
:104AE000000006F029FC03990091A0F5FA600190FE
:104AF000049B4A4641462046FDF7E2F9FDF792FA4B
:104B0000002800F09882DAF80000744B18607448AE
:104B100008F07CF90121724807F09EFB02217048E1
:104B200007F094FB002211466D4807F08BFB05222D
:104B30006F496B480AF072FF69480AF0DDFFFDF724
:104B400071FA002800F07482286806F0E3FB014641
:104B500063480AF079FFFDF7ABFD0121604807F0DB
:104B600075FB002264215E4807F06CFB4FF00008E3
:104B70000824282008F064FF0CF022F94FF06A5155
:104B80000CF072F9014640460CF066F8013C804694
:104B9000EFD155490CF068F94FF078510CF064F9F9
:104BA0000BF0B8FC01240B46024600944C480BF075
:104BB0000BF822464D494A480AF030FF484808F0B1
:104BC00061FB022009F066FB082009F019FB0128AF
:104BD0003FF464AFDDF81490082009F011FB0028C1
:104BE000FAD0022009F056FB0820CDF8149009F005
:104BF00007FB0128DFF804A1DFF808B140F0B58019
:104C000028683C4C06F03EFB3B21CBF80000FBF74C
:104C100005FEDBF80030206098422CD0DAF8000066
:104C200006F078FB8046DAF80000246806F03CFBCA
:104C30008146DAF8000006F049FB0490DAF800003B
:104C400006F056FB0390DAF8000006F075FB0399B6
:104C50000091A0F5FA600190049B4A462146404627
:104C6000FDF72EF9FDF7DEF9002800F0EA81DAF809
:104C700000001A4B18601A4808F0C8F801211848BB
:104C800007F0EAFA0221164807F0E0FA002211467E
:104C9000134807F0D7FA0722174911480AF0BEFE59
:104CA0000F480AF029FFFDF7BDF9002800F0C68182
:104CB000286806F0E7FA014609480AF0C5FEFDF744
:104CC000F7FC0121064807F0C1FA002264210448DC
:104CD00007F0B8FA4FF00008082415E0E44A002075
:104CE00088540020E08B0100D7A3E84034890100FC
:104CF000E88B0100D4540020F08B01008C4F002081
:104D0000AC0A0020EC530020282008F099FE0CF09B
:104D100057F84FF06A510CF0A7F8014640460BF0E7
:104D20009BFF013C8046EFD1CC490CF09DF84FF041
:104D300078510CF099F80BF0EDFB01240B4602467C
:104D40000094C7480AF040FF2246C649C4480AF00A
:104D500065FEC34808F096FA022009F09BFA082085
:104D600009F04EFA01283FF44BAFDDF8149008200B
:104D700009F046FA0028FAD0022009F08BFA082040
:104D8000CDF8149009F03CFA0128DFF81CA3DFF8F5
:104D90001CB340F09E802868B34C06F085FA3B2196
:104DA000CBF80000FBF73AFDDBF8003020609842BA
:104DB0002CD0DAF8000006F0ADFA8046DAF80000F0
:104DC00006F060FA8146DAF80000246806F07EFA00
:104DD0000490DAF8000006F08BFA0390DAF800008D
:104DE00006F0AAFA039A0092A0F5FA600190049BDB
:104DF000224649464046FDF763F8FDF713F90028BF
:104E000000F02581DAF80000984B1860944807F00C
:104E1000FDFF0121924807F01FFA0221904807F098
:104E200015FA002211468E4807F00CFA0722904925
:104E30008B480AF0F3FD8A480AF05EFEFDF7F2F8AF
:104E4000002800F00181286806F02EFA0146844807
:104E50000AF0FAFDFDF72CFC0121814807F0F6F974
:104E6000002264217E4807F0EDF94FF00008082485
:104E7000282008F0E5FD0BF0A3FF4FF06A510BF07E
:104E8000F3FF014640460BF0E7FE013C8046EFD1C0
:104E900072490BF0E9FF4FF078510BF0E5FF0BF092
:104EA00039FB01240B46024600946D480AF08CFE43
:104EB00022466C496A480AF0B1FD694808F0E2F9F7
:104EC000022009F0E7F9082009F09AF901283FF4D7
:104ED00062AFDDF81490082009F092F90028FAD0AA
:104EE000002333606EE05E48624C07F08FFF0121C3
:104EF0005B4807F0B1F90221594807F0A7F90022F1
:104F00001146574807F09EF9FCF722FC0D215A483C
:104F10000AF04AF9216859480AF096FD57480AF004
:104F2000EBFD082156480AF03FF9564B18680BF084
:104F3000F1FA4FF0020ECDF800E002460B464F4862
:104F40000AF042FE4D480AF0D7FD08214E480AF00B
:104F50002BF923684D4A494852F8231000230A22AE
:104F60000AF0F0FD45480AF0C7FD132148480AF051
:104F70001BF92268474B414853F8221000230A22AC
:104F80000AF0E0FD3D480AF0B7FD0A2242493448E4
:104F90000AF044FD32480AF0AFFD0121304807F025
:104FA00055F913223D492E480AF038FD2C4808F0E7
:104FB00069F90120FDF7E0F84FF4FA6009F06AF9A9
:104FC0004FF00109364C2378002B3EF424ADFCF75A
:104FD000BFFB00232370FDF725F800283AD028688E
:104FE000224B1860FEF717BD08F0DAFFFEF79ABDF6
:104FF00008F0D6FFFEF7E9BC04222A4918480AF057
:105000000DFDFEF789BD08F0CBFFFFF75CBB08F094
:10501000C7FFFFF738BB08F0C3FF0DE408F0C0FF7F
:10502000FFF7EABB08F0BCFFDCE408F0B9FFB9E425
:1050300008F0B6FF89E508F0B3FF66E508F0B0FFB9
:1050400037E608F0ADFF14E608F0AAFFFCE608F02A
:10505000A7FFD9E608F0A4FFC2E700BFD7A3E84046
:10506000885400203489010084530020E44A002041
:10507000F88B010090550020448B01003000002087
:10508000548B010030550020608B010090530020AC
:105090006C8B010038550020808B01008C8B010047
:1050A000904F0020388901008C4F0020545500207B
:1050B000D4F88404002800F08F8003F027F8064617
:1050C000FEF7C6BB08F06CFF0346FEF7FBBA0423ED
:1050D000444A19460F20136008F0CEFDFEF762BC6B
:1050E0000823414A19460E20137008F0C5FDFEF74B
:1050F00054BC04233D4A19460D20136008F0BCFD42
:10510000FEF746BC3C233A4A3A4C13601946042049
:10511000236008F0B1FD6178052008F0ADFDA178AD
:10512000062008F0A9FDE178072008F0A5FD324B24
:105130001B78172B7EF60EAC00232F4A1946082049
:10514000137008F099FD2D4B1B783B2B7EF607ACB6
:1051500000232A4A19460920137008F08DFD284BB8
:105160001B78172B7EF600AC0023254A19460A202F
:10517000137008F081FD234B1B783B2B7EF6F9ABB7
:105180000023204A19460B20137008F075FDFEF726
:10519000F0BB3C23174C1C4A2360194600201360C7
:1051A00008F06AFD6178012008F066FDA178022010
:1051B00008F062FDE178032008F05EFDFEF7BFBB5A
:1051C000D2F884345BB193F84534012098400BF059
:1051D000F3FD0146FEF758BB0646FEF739BB00213A
:1051E000FEF752BB00FAFF1F90FAFF1F88FAFF1F5D
:1051F0009CFAFF1FAC530020DC0A00208C550020D5
:1052000020540020984F002094FAFF1F2DE9F84FFA
:10521000D34BD4491B68D448D44A0B600068D44BA4
:10522000DFF8B08348600F2415210A26546010254A
:1052300000244FF006094FF0110B4FF0050A142718
:105240004FF4FA709760D1601660C3F80C90C3F801
:1052500000B05D60C3F808A009F01CF8C8F8004071
:10526000642009F017F84FF43053C8F80030642078
:1052700009F010F8BF4F4FF43453C8F800306420E1
:1052800009F008F83968BC48DFF84C8323463246F9
:105290000AF058FCB8480AF02FFC4FF47A7008F076
:1052A000F9FF3968B448234632460AF04BFCB2484D
:1052B0000AF022FC4FF47A7008F0ECFF23463246E5
:1052C0003968AD48AD4F0AF03DFCAB480AF014FC1C
:1052D000AB4800F01FFF2146282008F09FFF204622
:1052E00008F022FB0121022008F098FF0121022092
:1052F00008F062FF5846012108F090FF284601217E
:1053000008F08CFF5046012108F088FF4846012133
:1053100008F084FF2146584608F04EFF21462846F3
:1053200008F04AFF2146504608F046FF214648460D
:1053300008F042FF0221042008F070FF0221032040
:1053400008F06CFF0221082008F068FF01233C22CE
:1053500002218C4807F08CFE8C2008F09BFF8948C6
:1053600007F054FD0121874806F076FF02218548A9
:1053700006F06CFF22462146824806F063FF324663
:10538000814980480AF04AFB7E480AF0B5FB7D4817
:1053900007F078FF6E217D480AF05AF87C4B1E68B2
:1053A0007C4B53F8269048460BF00AFD2946C8F876
:1053B00000004846FCF73CFA714800F0ABFE30466E
:1053C000FDF7CAFCFEF770F9714B1E68714B53F87C
:1053D000269048460BF0F4FC2946C8F800004846E1
:1053E000FCF726FA664800F095FE3046FDF7B4FC5F
:1053F000644807F00BFD0121624806F02DFF0221F1
:10540000604806F023FF224621465E48624C06F0C3
:1054100019FF3B683B2B06D9B3F5967F34BF3C237D
:105420004FF4967323600120FCF7A6FEDFF8AC91E1
:105430005A4923685A4D5B4ED9F80020096890FB01
:10544000F3F4286003FB0433574833600129134405
:10545000036000F0008110460BF0AEFCD8F800109D
:10546000524CDFF87CA1DFF87CB10BF0FDFC4FF073
:105470006E510BF0F9FC4FF074510BF0F5FC0BF092
:1054800049F80AF0CDFD0022494B0BF097F80BF0DC
:1054900045FB484A39681368474AC3EB0108474B44
:1054A000126828EAE87883FB081302FB00F2434401
:1054B0004FEAE8702260C0EBE3200BF019F80AF025
:1054C00037FE0BF02BFB3E4C3E4BCAF8000004FBB2
:1054D000008483FB04232344E017C0EB63100BF02C
:1054E00007F80AF025FE0BF019FBDFF8FC80A0EBB3
:1054F0000012034604EB820410213348CBF800303D
:10550000C8F8004009F050FEDAF800101A480AF016
:105510009BFADBF8001018480AF096FAD8F8001049
:1055200015480AF091FA14480AF0E6FA08212748CB
:1055300009F03AFE00230A22D9F800100E480AF0BA
:1055400001FB0D480AF0D8FA0821214809F02CFE89
:105550000A220023396808480AF0F4FA46E000BF3E
:1055600058800440B45300205C800440D85300208D
:10557000C453002000D00340300000209CFAFF1FDD
:105580007056002088540020548C01000082FF1FB8
:1055900088FAFF1F3CFAFF1F8CFAFF1FC45400203B
:1055A0008C4F0020944F0020BC5300208C530020CF
:1055B0000000404004FAFF1F0CFAFF1FC5B3A29180
:1055C000F0F1FFFF89888888608C0100748C0100ED
:1055D000808C010010D003402855002094FAFF1F52
:1055E000C85400201C5400202C5500201C480AF0F0
:1055F00083FA0E211B4809F0D7FD2868FBF7F4FF5A
:105600000C21194809F0D0FD3068FBF7EDFF336835
:105610002C681648164D1C1B152109F0C5FD2146A6
:105620000F480AF011FA0E480AF066FA114A124BB6
:105630001168124853F8211000264FF0FF342E60F5
:10564000046039B1116853F82120224443F8212025
:10565000BDE8F88FFEE7FDF789FAD9F80020FAE6F1
:1056600030000020808A01008C8C01009C8C01009D
:10567000B00A0020905500203855002050550020D9
:105680000020704700207047F8B5C34C012605463E
:105690000671204600F03EFD052008F0FBFD297A4A
:1056A000204600F0E3FD2046002100F08DFC20465E
:1056B000302100F089FC2046402100F085FC60216B
:1056C000204600F081FC204600F0A0FF297A204609
:1056D00000F0CCFD2046002100F076FC204626217B
:1056E00000F072FC2046002100F06EFC6C21204688
:1056F00000F06AFC204600F089FF297A204600F07D
:10570000B5FD2046002100F05FFC2046282100F076
:105710005BFC3146204600F057FCF221204600F0A9
:1057200053FC204600F072FF297A204600F09EFDCF
:105730002046002100F048FC20462C2100F044FCCB
:1057400020460F2100F040FC2221204600F03CFCC6
:10575000204600F05BFF297A204600F087FD2046B6
:10576000002100F031FC20463C2100F02DFC2046B9
:10577000442100F029FC4621204600F025FC20466B
:1057800000F044FF40F23713EB80297A204600F006
:105790006DFD2046002100F017FC2046242100F07A
:1057A00013FC3146204600F00FFC3721204600F064
:1057B0000BFC204600F02AFF297A204600F056FD17
:1057C0002046002100F000FC2046302100F0FCFBC8
:1057D0002046402100F0F8FBFF21204600F0F4FBBA
:1057E000204600F013FF297A204600F03FFD2046B6
:1057F000002100F0E9FB2046022100F0E5FB2046F5
:10580000002100F0E1FB7321204600F0DDFB204683
:1058100000F0FCFE4FF4C87008F03CFD297A2046E9
:1058200000F024FD2046002100F0CEFB20462E2172
:1058300000F0CAFB20461D2100F0C6FB1D212046BA
:1058400000F0C2FB204600F0E1FE297A204600F07D
:105850000DFD2046002100F0B7FB2046042100F09A
:10586000B3FB2046002100F0AFFB0421204600F0EE
:10587000ABFB204600F0CAFE297A204600F0F6FC79
:105880002046002100F0A0FB2046062100F09CFBF2
:105890003146204600F098FB3021204600F094FB72
:1058A000204600F0B3FE297A204600F0DFFC2046B7
:1058B000002100F089FB20460A2100F085FB2046EC
:1058C000002100F081FB1021204600F07DFB2046E6
:1058D00000F09CFE297A204600F0C8FC20460021FA
:1058E00000F072FB20460E2100F06EFB20460021E6
:1058F00000F06AFB0021204600F066FB204600F025
:1059000085FE297A204600F0B1FC2046002100F0F7
:105910005BFB2046102100F057FB20463C2100F0A5
:1059200053FB3C21204600F04FFB204600F06EFE6A
:10593000297A204600F09AFC2046002100F044FB22
:105940002046222100F040FB20467F2100F03CFB56
:105950007F21204600F038FB3627204600F056FE17
:10596000297AEF80204600F081FC2046002100F0DB
:105970002BFB2046242100F027FB2046002100F0CD
:1059800023FB3946204600F01FFB204600F03EFE78
:105990006E723046F8BD00BF705600200B462DE9F0
:1059A000F0414549054618460BF05EFA43490BF0B5
:1059B00053F90BF045FC044600284CD080281FD931
:1059C0002B79002426462BBB297A3D4800F04EFC5B
:1059D00000213B4800F0F8FA2221394800F0F4FA9F
:1059E0003146374800F0F0FA2146354800F0ECFA2D
:1059F000334800F00BFEB0FA80F04009BDE8F081BA
:105A0000C0F180042B7944EA0424C4F30726E4B2ED
:105A1000002BD9D0EF88297A294827F010074FF0BA
:105A20000008EF8085F8048000F020FC41462448FF
:105A300000F0CAFA2421224800F0C6FA390A2048A8
:105A400000F0C2FA07F0EF011D4800F0BDFA1C4853
:105A500000F0DCFDB8E701232B71297A184800F02B
:105A600005FC2146164800F0AFFA2221144800F048
:105A7000ABFA7F21124800F0A7FA7F21104800F00E
:105A8000A3FA0F4800F0C2FDEE88297A0C4846F0D0
:105A90001006B6B2EE8000F0E9FB2146084800F09F
:105AA00093FA2421064800F08FFA310A044800F0E6
:105AB0008BFAF1B299E700BF00000143EE7CFF3E94
:105AC0007056002070B505460C4619B101293BD02F
:105AD000002070BD017A424800F0C8FB21464048D2
