:1000000000800020BD0100001DDD0000D5DC0000E7
:10001000D5DC0000D5DC0000D5DC0000D5DC00001C
:10002000D5DC0000D5DC0000D5DC00001DDD0000C3
:100030001DDD0000D5DC000059F900009DF900002D
:100040001DDD00001DDD00001DDD00001DDD0000C8
:100050001DDD00001DDD00001DDD00001DDD0000B8
:100060001DDD00001DDD00001DDD00001DDD0000A8
:100070001DDD00001DDD00001DDD00001DDD000098
:100080001DDD00001DDD00001DDD00001DDD000088
:100090001DDD00001DDD00001DDD00001DDD000078
:1000A000F16000001DDD00001DDD00001DDD000011
:1000B0001DDD00001DDD00001DDD00001DDD000058
:1000C0001DDD00001DDD00001DDD00001DDD000048
:1000D0001DDD00001DDD00001DDD00001DDD000038
:1000E0001DDD00001DDD00001DDD00001DDD000028
:1000F0001DDD00001DDD00001DDD00001DDD000018
:100100001DDD00001DDD00001DDD00001DDD000007
:100110001DDD00001DDD00001DDD00001DDD0000F7
:100120001DDD00001DDD00001DDD00001DDD0000E7
:100130001DDD00001DDD00001DDD00001DDD0000D7
:100140001DDD00001DDD00001DDD00001DDD0000C7
:100150001DDD00001DDD00001DDD00001DDD0000B7
:100160001DDD000075E400001DDD00001DDD000048
:100170001DDD00001DDD00001DDD00001DDD000097
:100180001DDD00001DDD00001DDD00001DDD000087
:100190001DDD00001DDD00001DDD00001DDD000077
:1001A0001DDD00001DDD00001DDD00001DDD000067
:1001B0001DDD00001DDD0000E5F60000564B4CF291
:1001C000205210B51A804DF628121A8000BF00BFC9
:1001D00000F004FC514B4FF010621A60504A9A60D4
:1001E000504ADA60504A136813F4807304D14F49BF
:1001F0000B604FF4A85313604D4B1A78110703D5C9
:100200001A7842F008021A704A4B4B492A221A7097
:100210004A4A4B4B8B4204D252F8040F43F8040B6A
:10022000F8E7484B484900228B4202D243F8042B9E
:10023000FAE74649464A002352F8230041F82300D2
:1002400001336F2BF8D1434B434A802103F8011B44
:100250009342FBD1414B3D4A1A60414B8A221A70AE
:10026000A3F5805324225A70A0221A709A7992071B
:10027000FCD59A79D406FCD43A4A937903F00C035E
:10028000082B384BF9D103221A7140225A719A79FE
:100290009006FCD5334A9179324B4906FBD5324A58
:1002A000324911600221516020221A709A7902F0BD
:1002B0000C020C2AFAD12E4B2E4A1A602E4B2F4AD2
:1002C0001A6000225A60072243F8042C2C4AC3F813
:1002D0000C2D62B60DF044FE144B1B68DA0705D5F1
:1002E00028480DF02BFE284B284A1A60284B1B7813
:1002F0005B0609D5244C254B22689A4204D121483B
:100300000DF01CFE0023236011F054F90DF00AFDDE
:100310000FF024FDFEE700BF0E20054030800440B2
:10032000823F04000100002B10D0034014D0034092
:1003300002D0074000E00740900A0020389B0100EF
:1003400020F9FF1F900A0020A458002000F4FF1F8E
:100350000000000000E400E05FE400E008ED00E0E1
:100360000050064000400640448004400000030165
:1003700004800440C010050014E000E0FF76010096
:100380000000202006F80C611CE00340A5C3945A2D
:1003900000F00740FFFFFFFFFFFFFFFFFFFFFFFF32
:1003A000FFFFFFFFFFFFFFFFFFFFFFFFFFFFFFFF5D
:1003B000FFFFFFFFFFFFFFFFFFFFFFFFFFFFFFFF4D
:1003C000FFFFFFFFFFFFFFFFFFFFFFFFFFFFFFFF3D
:1003D000FFFFFFFFFFFFFFFFFFFFFFFFFFFFFFFF2D
:1003E000FFFFFFFFFFFFFFFFFFFFFFFFFFFFFFFF1D
:1003F000FFFFFFFFFFFFFFFFFFFFFFFFFFFFFFFF0D
:10040000FFFFFFFFFFFFFFFFFFFFFFFFDEF9FFFF23
:1004100010B5054C237833B9044B13B10448AFF33E
:1004200000800123237010BD900A0020000000000E
:10043000349B0100084B10B51BB108490848AFF3C5
:1004400000800848036803B910BD074B002BFBD0A0
:10045000BDE81040184700BF00000000940A0020CB
:10046000349B0100900A002000000000002070472B
:10047000704700BFF8B55548554D564C297803785C
:100480002278DFF868E1544F544E120442EA032305
:10049000FF222A700270802022708EF800003870CF
:1004A000B2794F480B4312F00C0FC36002D1B379FD
:1004B000DC063DD4494A9379C3F38103032B40D032
:1004C000464B9A79C2F38102022A42D0434A937979
:1004D000C3F38103022B53D0404A9379C3F38103C2
:1004E000022B61D03D4A9379C3F38103012B51D094
:1004F0003A4A9379C3F38103012B5CD0374B9A7945
:1005000012F00C0F03D19A79D20600D49B79354DA5
:10051000354B2A7853F82240D4B1236820469B6893
:1005200098472B7804EB83046468002CF5D1F8BD60
:10053000B3799806EBD5294A9379C3F38103032B4A
:10054000BED19379D906BBD493799B06DFD4B7E7A4
:10055000F8BD9A79D706B9D49A799606B6D559785E
:1005600001F0020101F0FF020029AFD120211A7031
:100570001A461970937903F00C030C2BFAD1C6E7D5
:100580009379DD06A8D493799C06A5D4537898076F
:10059000BDD5A1E79379DF06AAD593799E06A7D4A6
:1005A00053789D07B3D4A3E79379D9069AD45378A7
:1005B0009B07ACD496E79379DC069FD59379980690
:1005C0009CD453789907A2D598E700BF06C007408E
:1005D00005C0074007C0074009C00740004006406B
:1005E0007C580020DC5600209C56002008C00740A4
:1005F00090F92410104B03604B1C06D0F0B40F4E42
:1006000056F82130984201D0F0BC70470C4F57F893
:10061000213033B18D0000245A1953685460002BE7
:10062000FAD1084C23780022013B237047F821209F
:1006300046F82120E8E700BF40880100BC560020B2
:100640009C560020DD56002038B590F924506B1CD4
:100650001BD00E4B0E4953F825400E4BEDB24FF018
:10066000FF320D701A6084B1AD0002E02C44646862
:100670005CB194F82530002BF8D0236820462C4438
:100680001B6898476468002CF3D138BD9C56002045
:10069000DC560020B8F3FF1F704700BF90F924100C
:1006A000104B03604B1C06D0F0B40F4E56F82130AF
:1006B000984201D0F0BC70470C4F57F8213033B14D
:1006C0008D0000245A1953685460002BFAD1084C4D
:1006D00023780022013B237047F8212046F821208F
:1006E000E8E700BF40880100BC5600209C5600206F
:1006F000DD56002090F92410104B03604B1C06D0EF
:10070000F0B40F4E56F82130984201D0F0BC70473B
:100710000C4F57F8213033B18D0000245A1953681B
:100720005460002BFAD1084C23780022013B23703F
:1007300047F8212046F82120E8E700BF4088010063
:10074000BC5600209C560020DD560020704700BF9C
:1007500010B5002104460EF00BFFB0B1B4F8B4316F
:100760009BB2C3B1B4F8B031B4F8B2219BB201333B
:10077000632BC8BF002392B2934207D09A1D04EBAB
:1007800082029BB25060A4F8B03110BDD4F8B831E9
:100790000133C4F8B831BDE810400EF0A5BE00BF6B
:1007A00010B5044B044640F8103B09F03FFB2046CF
:1007B00010BD00BFF887010010B504460EF018FF09
:1007C000204610BD826C62B1137803F0080303F079
:1007D000FF0003B3D3695069181A48BF6FF0004097
:1007E0007047C16CC1B191F8313003F0080303F0D8
:1007F000FF0083B1D1E90423D1E90001101A30B41C
:1008000063EB010100256FF000448D4208BF844274
:1008100000D2204630BC704708467047F8B5044601
:1008200004200D460DF0B4FC074603200DF0B0FC8B
:1008300006462FBB224F234A3B680121132B117020
:1008400036DD0133642B3B6037DDC82BD4BF053464
:100850003C3466B91C4E1B4A33680121132B1170BE
:1008600020DD3C2C10DC01233360013C02E0164B00
:1008700000221A60002CB8BF2C460EDA2046F8BDC4
:100880000F4B00221A60E4E733680133642B3360B6
:10089000EBDDC82BD4BF053C3C3CA542B8BF0024CF
:1008A0002046F8BDC8200DF0BDFC3C2CDBDDEBE79D
:1008B000C8200DF0B7FC3B68C3E70134C9E700BFAF
:1008C000D0540020904F00204855002000B5836C84
:1008D00083B063B1184601220DF1070108F012F947
:1008E00001280CD19DF8070003B05DF804FBC06C33
:1008F00028B101220DF1070106F0C0F9F0E74FF031
:10090000FF30F1E7836C13B1184608F0C7B9C06C2B
:1009100008B106F087BA4FF0FF307047836C13B10F
:10092000184608F0B1BAC06C08B106F089BE70472D
:1009300010B5044611F004FD01462046BDE8104004
:100940000EF0FABB836C13B1184608F0F9BAC06C0C
:1009500008B107F0A1B8704700B5836C83B08DF87B
:10096000071043B1184601220DF1070108F0E8FA1B
:1009700003B05DF804FBC06C0028F9D001220DF132
:10098000070107F089F803B05DF804FB002310B4F9
:10099000104C4172026104600372C36041B1194698
:1009A00000E0026942F82310427A01339A42F8DCEF
:1009B000094B1A680AB90BE01A465369002BFBD1A0
:1009C0005061002343618380C380837210BC7047F1
:1009D0001860F6E7EC870100F0570020464A474BC5
:1009E000102010801B781B0734D5F0B5444E454DC0
:1009F000454C31782B782278DFF82CE1434F824048
:100A000042EA03230B43FF22802132702A702270B6
:100A10008EF800103970D9073D4A14D51A23936017
:100A20003C4F3D4E3D4D3E4C3E49107900233B70BE
:100A300053709370D370D360337013712B70237025
:100A400013700870F0BD1F0705D4DE0606D5042319
:100A50009360E5E7704721239360E1E79D0604D4A6
:100A60005C0604D516239360DAE79060D8E7180691
:100A700002D509239360D3E7D90502D50A239360F1
:100A8000CEE79F0502D50D239360C9E75E0502D529
:100A90000B239360C4E71D0502D51E239360BFE7B7
:100AA000DC0402D502239360BAE7980402D5072339
:100AB0009360B5E7590402D506239360B0E71F049D
:100AC00002D515239360ABE7DE0302D524239360A0
:100AD000A6E79D0302D522239360A1E7DC0202D59D
:100AE000252393609CE71803F5D45903F3D49B02A4
:100AF00044BF2323936093E70020054002D00740C2
:100B000005C0074006C0074007C0074009C00740AE
:100B10007C58002000C0074001C0074002C00740C9
:100B200003C0074004C0074008C00740002976D032
:100B30002DE9F04F0C469100631883B05D68002DDD
:100B400057D06B185E68002E50D073185F68002F66
:100B500049D07B18D3F80480B8F1000F3CD008EBE3
:100B60000103D3F80490B9F1000F32D009EB01036F
:100B7000D3F804A0BAF1000F27D00AEB0103D3F891
:100B800004B0BBF1000F18D00BEB01035B6863B13D
:100B9000194401934968FFF7C9FF019B93F8252089
:100BA0001AB11A681846536898479BF8253023B144
:100BB000DBF8003058465B6898479AF8253023B137
:100BC000DAF8003050465B68984799F82530002BDA
:100BD00035D198F8253063BB97F825301BB13B68B9
:100BE00038465B68984796F82530CBB995F825309C
:100BF00063B994F8253013B903B0BDE8F08F2368CA
:100C00005B68204603B0BDE8F04F18472B682846C4
:100C10005B68984794F82530002BEDD0EFE77047DC
:100C2000336830465B68984795F82530002BE0D054
:100C3000ECE7D8F8003040465B689847CCE7D9F835
:100C4000003048465B689847C3E700BF90F924200E
:100C5000531C26D01B4B2DE9F04153F82240D2B251
:100C6000ECB19300E1184D68B5B1E9184E6866B172
:100C7000F1184F6837B13B445968FFF757FF97F8B1
:100C80002530A3B996F8253063B995F825301BB106
:100C90002B6828465B68984794F8253063B9BDE80F
:100CA000F0817047336830465B689847EDE73B68F2
:100CB00038465B689847E5E7236820465B68BDE8EF
:100CC000F04118479C56002008B50C4B0C491A6897
:100CD0000C48022A08BF0C4A4FF00003A1F8B431B7
:100CE00008BFA2F8B431094A094B12881A8009F0EA
:100CF0009DF86420BDE808400DF094BA0CFAFF1F7F
:100D0000A04F0020E85400205C5100201C58002017
:100D1000F4570020264B1B680F2B0CD8DFE803F09C
:100D20000C1014181C2024282C3034383C40440863
:100D3000204B214A1A6070471E4B204A1A607047A8
:100D40001C4B1F4A1A6070471A4B1E4A1A607047A4
:100D5000184B1D4A1A607047164B1C4A1A607047A0
:100D6000144B1B4A1A607047124B1A4A1A6070479C
:100D7000104B194A1A6070470E4B184A1A60704798
:100D80000C4B174A1A6070470A4B164A1A60704794
:100D9000084B154A1A607047064B144A1A60704790
:100DA000044B134A1A607047024B124A1A6070478C
:100DB00000FAFF1FC0540020BD549341103377C088
:100DC000993918C0BE0D68BFCE71153F8D0903401B
:100DD000CCC9624009A7A3407DDBD140C4160141C4
:100DE00054FC1741D0E83041195546419FAB5F4153
:100DF000A04176415E2E864138B5012114200CF0C9
:100E000003FF234B1B68012B3DD0002107200DF071
:100E10009BF900210C200DF097F900210E200DF018
:100E200093F9052107200DF0C1F91A4C1A4D05213F
:100E30000C200DF0BBF905210E200DF0B7F920783C
:100E400000210DF081F9287800210DF07DF90521B0
:100E500028780DF0ABF94FF4FA600DF0E3F90121B9
:100E600020780DF071F94FF4FA600DF0DBF920787D
:100E700000210DF069F94FF4FA600DF0D3F9074B3A
:100E8000074A1A6038BD074808F0D0FFBDE700BF29
:100E9000B00A0020C4530020D85300200CED00E01D
:100EA0000400FA05E85400202DE9F047DFF8A89285
:100EB000D9F80030012B00F08E80022B01D0BDE864
:100EC000F0879F4CB4F8B031B4F8B22199B293B224
:100ED000994238BF6431CB1A1F2BF0DD994DDFF8F2
:100EE0007C92D5F8AC01DFF8588209F580470026DE
:100EF000D4F8ACA10021BAF1000F51D00022B0B358
:100F000002F5807C4B4631F902EB23F804EC32F910
:100F100002EB23F802EC624503F10403F3D1BAF1CA
:100F2000000F06D050460EF0DFFAD5F8AC01C4F839
:100F3000AC6118B10EF0D8FAC5F8AC6109F50079CA
:100F40004F454FF00000D3D17F4B986C002800F044
:100F5000DD804FF480427D4907F0F2FF013000F060
:100F6000DF807B4A136820331360BDE8F087B5F853
:100F7000B231B5F8B0219BB292B2934200F0DE805C
:100F80000133632B86BF024613469AB2063305EB44
:100F900083035868C5F8AC01A5F8B221021DAFE77C
:100FA000B8F8B231B8F8B0219BB292B2934200F0D7
:100FB000C3800133632B86BF524613469AB2063371
:100FC00004EB8303D3F804A0C4F8ACA1A4F8B221C5
:100FD0000AF1040192E75A4CB4F8B031B4F8B221E6
:100FE00099B293B2994238BF6431CB1A3F2B7FF745
:100FF00066AF584DD4F8ACA1DFF8448105F58047C1
:10100000002637E04FF4807200210CF0A9FA504618
:101010000EF06AFAC4F8AC61B4F8B231B4F8B02199
:101020009BB292B293424CD00133632B86BF4FF0F8
:10103000000E73461FFA83FE063304EB83034FF45E
:101040008072D3F804A0C4F8ACA10AF104012846C8
:10105000A4F8B2E10CF084FABAF1000F04D05046C3
:101060000EF042FAC8F8AC6105F50075BD424FF0CC
:10107000000A32D0A5F58070BAF1000FC2D1B4F8E1
:10108000B231B4F8B0219BB292B293424ED0013348
:10109000632B86BFD64673461FFA83FE063304EBE6
:1010A00083034FF48072D3F804A0C4F8ACA10AF112
:1010B0000401A4F8B2E10CF053FABAF1000FABD07E
:1010C000A5E728464FF48072002105F500750CF065
:1010D00047FABD424FF0000ACCD11B4B986C28B1A7
:1010E0004FF48042194907F02BFF06E0D86C30B16D
:1010F0004FF48042154906F0CFFC013013D014495B
:10110000D9F800300A6820320A60D6E6D86C002888
:101110003FF427AF4FF480420C4906F0BDFC1DE7B9
:10112000FFF76AFE1DE7FFF767FEE8E751464FF459
:1011300080720CF015FA6FE75146DFE60246DFE6F3
:10114000A04F00205C510020D8540020E40A002069
:101150009C4F0020E40B00200CFAFF1FE80A00203F
:10116000064A074B116853F8211031B1116853F842
:101170002120013A43F821207047FEE790550020D6
:101180003855002010B582B0044611F0D9F800B2ED
:10119000012816DDB4F9003044F25242934233D0B4
:1011A00012DD44F2537293421DD044F65212934220
:1011B00007D101AAE01C1C4911F082F81B4B019ACF
:1011C0001A60012002B010BD44F24E429342F8D1A1
:1011D00001AAE01C144911F073F8154B019A1A602A
:1011E000012002B010BDE01C01AA0F4911F068F8FF
:1011F000019B0F2B13D90F4B042119600F200CF00A
:1012000003FD012002B010BD01AAE01C064911F047
:1012100057F8094B019A1A60012002B010BD054A27
:10122000D9B21360EAE700BF6C8801009CFAFF1F87
:10123000E00A002000FAFF1F94FAFF1F2DE9F04F8B
:10124000DFF89882A04BD8F880549FB04FF47A72A0
:101250000A9300238DF82C308DF834301C931D93A5
:101260000C92002D00F0D08005F24446304607F085
:101270009FF92946304607F025FCDFF87492D9F82B
:1012800000100EAF21B138460023904A08F0E2FD6D
:101290001C99002900F0D580002508462E468DF8BF
:1012A00008604FF0000B4FF0FF0AA0B101220DF1D2
:1012B000070107F027FC012817D00BF101031EAA34
:1012C00093441BB21D2B0BF870AC17DC1C9908461D
:1012D0009B460028EAD11D98002855D001220DF127
:1012E000070105F0CBFC0128E7D19DF807200D2A66
:1012F00008BF5B4640F0C9801D2BE7DD013B9BB278
:101300001EAA1A4402F8706C9DF808202F2A04D0F7
:10131000012B02D902A8FFF735FF1C99C9B10B7840
:1013200018070ED4384608F081FD002D36D101246F
:10133000674B0A93384608F079FD20461FB0BDE898
:10134000F08FCB694A699A1A01D4002AEAD008467C
:10135000A5E71D9B002BE5D093F831201207E1D5BE
:10136000D3E904ABD3E90023BAEB02026BEB03032E
:101370004FF0000B6FF0004A9B4508BF924538BF05
:101380005246002AE3D1CDE70BF101031EAA934494
:101390001BB21D2B0BF870AC99DDAFE70B214D484C
:1013A0000DF0CAFE00230A2221464B480EF092FBA4
:1013B00049480EF069FBD8F88054484B9DB305F2BC
:1013C0004446304607F0F4F82946304607F07AFBE9
:1013D000D9F8001029B144F202233C4A384608F0FB
:1013E00039FD1C9B002B49D02146184607F08CFC88
:1013F0001C9800283AD00222394907F0A1FD38464E
:1014000008F014FD012493E7D8F88454002D3FF42C
:1014100034AF05F58966304605F0B4FB2946304601
:1014200005F0BAFB29E7D3F88454002DD0D005F598
:101430008966304605F0A6FB2946304605F0ACFB30
:10144000C6E71D9D002D7FF427AF142125480DF020
:1014500073FE21480EF018FB0D22234923480EF09D
:10146000A5FA22482C460EF00FFB61E71D980028D4
:10147000C5D002221A4906F00FFBC0E71D980028CC
:10148000BDD0224605F0E6FCB2E71EAB03EB0B0134
:10149000542A0BF1010301F8702C1BB20DD11C99D9
:1014A00019B14C69013C012526E71D9A12B1146857
:1014B000013CF8E74FF0FF34F5E71D2B3FF71EAF77
:1014C0000A2A3FF41BAF01E71C8801007088010065
:1014D000F88701007C88010030000020E84A0020E5
:1014E000888801008C880100A488010088540020AD
:1014F000905600202DE9F041044604200D46164682
:101500000CF046FE804603200CF042FE0746B8F180
:10151000000F2AD1DFF89C80244AD8F8003001213E
:10152000132B117039DD0133642BC8F800303ADD1C
:10153000C82BD4BF05343C3467B91D4F1B4A3B68E8
:101540000121132B117022DD3C2C16DC01233B60A2
:10155000013C02E0164B00221A60AC4209DBB442A7
:10156000C8BF2C462046BDE8F081124B00221A600D
:10157000E2E734462046BDE8F0813B680133642B46
:101580003B60E5DDC82BD4BF053C3C3CE5E7C8200B
:101590000CF048FE3C2CD9DDEFE7C8200CF042FEF1
:1015A000D8F80030BFE70134C6E700BF904F0020F5
:1015B00048550020D054002038B5054609F084FE77
:1015C0001E4C014620460EF007FA2D200DF088FE35
:1015D000284609F055FE014620460EF0FDF92D2063
:1015E0000DF07EFE284609F039FE014620460EF039
:1015F000F3F9012112480DF09FFD284609F052FE33
:10160000014620460EF0E8F93A200DF069FE284622
:1016100009F000FE014620460EF0DEF93A200DF0FA
:101620005FFE284609F008FE014620460EF0D4F978
:101630002046BDE838400EF027BA00BF3000002039
:10164000908A010010B500200CF088FA284C207018
:1016500001200CF083FA607002200CF07FFAA07079
:1016600003200CF07BFA234BE07022681A60042000
:101670000CF074FA207005200CF070FA60700620EF
:101680000CF06CFAA07007200CF068FA1A4BE070AE
:1016900022681A6008200CF061FA184B18700920B3
:1016A0000CF05CFA164B18700A200CF057FA154B28
:1016B00018700B200CF052FA134B18700C200CF021
:1016C0004DFA124B18600D200CF048FA104B1860C0
:1016D0000E200CF043FA0F4B18700F200CF03EFA5E
:1016E0000D4B186010200CF039FA0C4B186010BD2F
:1016F000AC53002094FAFF1F9CFAFF1FDC0A002065
:101700008C55002020540020984F0020C454002005
:1017100088FAFF1F90FAFF1F00FAFF1F0CFAFF1F45
:101720002B4B10B519682B4C00202160C9B20CF06E
:101730006BFA617801200CF067FAA17802200CF0B6
:1017400063FAE17803200CF05FFA234B19682160FB
:101750000420C9B20CF058FA617805200CF054FA54
:10176000A17806200CF050FAE17807200CF04CFA32
:101770001A4B082019780CF047FA194B09201978F0
:101780000CF042FA174B0A2019780CF03DFA164B70
:101790000B2019780CF038FA144B0C2019780CF047
:1017A00033FA134B0D2019780CF02EFA114B0E2042
:1017B00019780CF029FA104B0F2019780CF024FA44
:1017C0000E4B10201978BDE810400CF01DBA00BF78
:1017D00094FAFF1FAC5300209CFAFF1FDC0A002084
:1017E0008C55002020540020984F0020C454002025
:1017F00088FAFF1F90FAFF1F00FAFF1F0CFAFF1F65
:101800002DE9F04F8DB010290791069000F0BF80B0
:10181000202900F0B0800024631C18461D46089360
:101820000FF092FAE4B244F0E063099000212846F8
:101830000A9344F08E430B930FF0A0FA01465A48E6
:101840000FF08EFB054607980FF07EFA01460FF069
:10185000CBF9044606980FF077FA014620460FF0C0
:10186000CBFA014628460FF07BFB4FF001084FF002
:101870007E550746C1464FF0010A4FF0000B504617
:101880000FF066FA39460FF0B7FA04460FF07AFC0B
:101890000FF05EFA014620460FF0A4F929460646ED
:1018A0000FF048FC4FF0874148B120460FF042FC52
:1018B00028B120460FF0C4FC35468046D1461AF1C7
:1018C000010A4BF1000BBBF1000F08BFBAF1400F4A
:1018D000D5D109F1FF34089B079E05932046029657
:1018E000CDF81080CDF80C900FF02EFA4FF07E510D
:1018F0000FF07AF92D490FF07FFA054640460FF0B8
:1019000023FA014628460FF02BFB4FF07C510FF0D5
:1019100073FA09990FF024FB054670000FF018FACE
:10192000014628460FF01CFB0FF02CFC204B069ABA
:10193000019000921F492048204E214D1A460EF07A
:10194000BBF8204920480F68220308F1FF3302F456
:101950007F22C3F30B03134327F010420A60336066
:101960000A9B2B600B9B03600B6843F010430B60DA
:101970000DB0BDE8F08F154B0B9303F140430A9374
:101980004FF0804309930223114D08935BE7114BFD
:101990000B9303F140430A934FF0814309930423CF
:1019A0000D4D08934FE700BF001B374C001BB74C91
:1019B00000D8B805C88801003000002004F10240BA
:1019C00008F0024080F0024088F002400100004729
:1019D000001BB74B03000047001B374B2DE9F04FAE
:1019E0000546DFF87C82974E974F98F800E02E600E
:1019F000FF2085F82400DFF86C92387859F820C071
:101A00000023BEF1060F8DB00C4685F8253085F811
:101A100026309CBF88F800309E46BCF1000F00F0D5
:101A2000A8808C455BD06346810001E09C4256D083
:101A30000B445B68002BF9D1634603EB010ADAF82B
:101A40000430002BF9D105EB010BCAF80440BEF1BC
:101A5000060F4FF0FF044FFA80FACBF804308DF8F0
:101A60002C4002968DF82D308DF82E3085F824A06C
:101A7000644605D8002388F80030002C00F0A980C7
:101A8000A24226D0234601E0934222D00B445B6859
:101A9000002BF9D104EB010CDCF80440002CF9D147
:101AA000CCF804200CAB19440024431CBAF1FF3FCE
:101AB00041F8244C3B708DF82CA0029605D0634968
:101AC00051F82A3002AA934272D028460DB0BDE8E0
:101AD000F08F0130387028460DB0BDE8F08F00233C
:101AE000FF21BEF1060F02968DF82C108DF82D30D7
:101AF0008DF82E3001D888F800309445E9D063463F
:101B0000810001E09A42E4D00B445B68002BF9D1DC
:101B10008C44DCF804402CB1A4468C44DCF804402E
:101B2000002CF9D10CAB19444FFA80FE431CBEF1D6
:101B3000FF3FCCF804203B7041F8244C02968DF80E
:101B40002CE0C2D0414951F82E3002AA9342BCD1B8
:101B500059F82E304FEA8E0623B19A195368546013
:101B6000002BFAD10023387049F82E3041F82E307E
:101B7000ABE7B0B38100DFF8D4A049F8204005EB13
:101B8000010C00234AF82050BEF1060FCCF80430B7
:101B90004FFA80FA4FF0FF0C02968DF82D308DF839
:101BA0002E3085F824A08DF82CC07FF663AF64E753
:101BB00059F82A304FEA8A0623B19A1953685460BB
:101BC000002BFAD10023387049F82A3041F82A3026
:101BD0007BE7F0B11D4B49F8202002AA43F82020F2
:101BE00060E71B491B480B68019243F080630B6060
:101BF0000368194923F08043036015200CF0CCF8EA
:101C0000164B98F800E0019A4FF4001119603878EB
:101C1000B0E70F4C0F482368019243F080632360C4
:101C200003680D4923F08043036015200CF0B4F8DD
:101C30000A4B019A4FF40011196038784FFA80FA74
:101C40008100C7E740880100DD560020BC56002017
:101C500004700440007004407504000000E100E0DE
:101C6000BCF3FF1F9C5600202DE9F0470BF02EFF20
:101C70004FF0FF316848694D0BF07CF86849694BBB
:101C80000A682B6000236B722B612B72EB600AB920
:101C9000BFE01A465369002BFBD155610024624E08
:101CA000624F634B6C61AC80EC80AC725B482B6024
:101CB000DFF8CC91DFF8CCA1DFF8CC8104F006F896
:101CC00006F1180230460121FEF760FE07F1180206
:101CD00001213846A6F8B041C6F8AC41A6F8B24199
:101CE000C6F8B841A6F8B441C6F800A0FEF74EFE0B
:101CF0004846A7F8B04189E86000A7F8B241C7F8A4
:101D000000A0C7F8AC41C7F8B841A7F8B44189F8BA
:101D1000084089F80940C9F80C4089F810400DF0D6
:101D200033FC444A4449454EDFF860A148460EF072
:101D30004FFA4FF00109404688E8A00088F80940B2
:101D4000C8F80C4088F8104088F808900DF01CFC8A
:101D50003949384A3A4D40460EF03AFA394A3A4B38
:101D6000106A3A4A1A600EF0F3FFFF27CAF8000023
:101D7000374B86F8254086F824702E4A354974631F
:101D80003046B46386F83C4086F8269033600EF007
:101D90001FFA314B85F8247085F82540254A2F49D4
:101DA0002B60284685F8274085F8284085F826903E
:101DB0000EF00EFA3246294629482A4EFFF70EFE4B
:101DC0001C4A294926480EF003FA284B194A83F881
:101DD0009D942925C3F88044C3F8844483F8A24421
:101DE000C3F8946483F89F542149224D18460EF09D
:101DF000EFF9214B0F4A1C714FF47A761C739C64E7
:101E0000DC649E601D601D491846BDE8F0470EF079
:101E1000DFB90D6042E700BF88540020F053002076
:101E2000F0570020EC870100A04F00205C510020FB
:101E30002C8E0100FCF9FF1FB9070000445300205D
:101E4000585500203CFAFF1FA0530020108E0100BF
:101E5000688F01009D0600007C8F0100F5060000E0
:101E6000B40A002001100138F1050000E84A002002
:101E70004D0700001C880100D8540020A107000075
:101E800018530020548801002C53002028550020AE
:101E90002DE9F84F424C434FDFF80C810A9E0B9D11
:101EA00081468A462046396893461F4604F064FB03
:101EB0002046002104F050F888FB0B314FEAEB7309
:101EC000C3EBA10101EB8102ABEB420B0BF00F0B5B
:101ED0004BEA0111C9B2204604F03EF888FB0A31F2
:101EE0004FEAEA73C3EBA10101EB8103AAEB430ABA
:101EF0000AF00F0A4AEA0111C9B2204604F02CF890
:101F000088FB09314FEAE973C3EBA10303EB8301BB
:101F1000A9EB41011B0103F0300301F00F0119434C
:101F2000204604F019F82046012104F015F888FB3A
:101F30000731FB17C3EBA10101EB8103A7EB4307BB
:101F400007F00F0747EA0111C9B2204604F004F870
:101F500088FB0631F317C3EBA10101EB8103A6EB6C
:101F6000430606F00F0646EA0111C9B2204603F007
:101F7000F3FF88FB0538E917C1EBA80808EB8801D7
:101F8000A5EB410505F00F0545EA08112046C9B249
:101F900003F0E2FF2046BDE8F84F04F0FFBA00BFAF
:101FA00070560020F0FAFF1F6766666670B5104C29
:101FB00006460D4620460A2104F0DEFAC6F3072144
:101FC000204603F0C9FFF1B2204603F0C5FFC5F378
:101FD0000721204603F0C0FFE9B2204603F0BCFF12
:101FE000204604F0DBFAB0FA80F0400970BD00BF73
:101FF00070560020F0B54B4C4B48216885B004F07A
:10200000BBFA0021484803F0A7FF0021464804F02E
:1020100007F9216844480023072204F0A7FA424840
:1020200003F0BAFF0DF1FF36002504E003F0BEFF18
:1020300006F8010F01353C4803F0AEFF04463A486C
:10204000002CF3D104F0AAFA072D02D0204605B0E7
:10205000F0BD9DF800509DF801409DF804009DF8EA
:1020600005109DF802209DF80630304FDFF8D4C0EF
:102070002E1106EB860605F00F0505EB4606251129
:1020800005EB850504F00F0404EB4505041104EB92
:10209000840400F00F0000EB4404081100EB800002
:1020A00001F00F0101EB400EF6B2C2F301113E70D8
:1020B000181101EB81011E4E02F00F0202EB4102EA
:1020C00000EB8000EDB203F00F038CF8005003EB3F
:1020D00040033270174D184A18485FFA8EF1E4B287
:1020E000DBB22C700170137097F800E09CF8007060
:1020F00036782C78017813788DF80C401E3302A8BE
:102100008DF80E308DF808E08DF809708DF80A60B2
:102110008DF80D1009F0ECF8094B012418602046E9
:1021200005B0F0BDF0FAFF1F7056002040530020AC
:1021300034550020C455002041530020914F002009
:102140008C4F0020B05300202DE9F04383B00446AB
:10215000FFF750FF00283BD024B9224B186803B08A
:10216000BDE8F0831F4C206809F09CF88046206889
:1021700009F050F80546206809F05EF881462068AD
:1021800009F06CF80646206809F07AF807462068DE
:1021900009F09AF802AB00F14E0203F8089D1846C8
:1021A0008DF806208DF802808DF805708DF804609A
:1021B0008DF8015009F09CF80BF0C0FEFFF71AFFF4
:1021C00058B120680246084B1A6003B0BDE8F0839E
:1021D0000BF0AEFE03B0BDE8F0830BF0A9FE0246A3
:1021E0002068F0E78C4F0020E44A00202DE9F04FF2
:1021F00001209DB0FFF7A8FFAC4FAD4C386009F04F
:102200003FF8236883422CD0AA4B1B684BB3386835
:10221000A94D09F035F82060386809F055F82368B1
:10222000A6490246A64810F025F8D5F88044002CAF
:1022300000F0128104F2444101230024A04A8DF8E9
:1022400038400EA88DF839408DF83A4006F00AFB68
:10225000D5F88004984B002800F01681984907F0C3
:10226000BFFD002128200BF0A1FF00260824282014
:102270000BF0AEFB0EF06CFD4FF06A510EF0BCFDA2
:10228000014630460EF0B0FC013C0646EFD18D48C9
:102290008D4C8E4D08F010FC386809F015F880461A
:1022A000386808F0EDFF8146386808F0D7FF0D90D8
:1022B000386808F0F7FF8246386808F0ABFF8346BD
:1022C000386808F0B9FF824A82490A9207463046C8
:1022D0000EF092FD4FF078510EF08EFD0EF0E2F808
:1022E000CDE908017C4A10680EF0DCF8CDE9060162
:1022F0000D9B00936068216804914B46424605900F
:1023000076490397CDF808B0CDF804A074480FF0D3
:10231000B1FF734810F014F8014671480CF00CFF3F
:1023200070480DF0B1FB1AE0654907F059FD2968C6
:1023300029B140F601236A4A6B4807F08BFD6848D3
:102340000FF0FEFF014666480CF0F6FE65480DF002
:102350009BFB0A200BF066FF2368142B75D82968B5
:1023600041B1624C5E4A04F1100040F6012307F0CF
:1023700071FDA8B95E4C5F492368594801331A467C
:1023800023600FF077FF4C4BD3F880040028CBD1AB
:10239000D3F884040028CAD0494905F0D9FFC6E71C
:1023A00055485649D0F800A0554D564A564B574E01
:1023B000DFF86481D6F8009003C9286092E8030032
:1023C000A86093E80300102701231FFA89F6AB8267
:1023D000E860EE8250462F610EF0FAFE5146A86189
:1023E00050460EF001FC824648460EF0B1FC014614
:1023F00050460EF001FD0EF0EBFE454AD8F80030D5
:10240000E86192E803005B02A26C6F84760003F13E
:1024100024012E846862AB626960002A3DD01046B8
:1024200029462C2206F08CFD09213A480CF084FE46
:10243000D8F800102B4800230A220DF04BFB294846
:102440000DF022FB1DB0BDE8F08FFEF7D5FC4FF478
:102450007A700BF0E7FE82E7D5F8841400293FF488
:1024600000AF012301F58961154A8DF869400EA876
:102470008DF86A408DF86B4005F0ECF9D5F88004D2
:102480000D4B00287FF4EAAED3F8840400283FF413
:10249000E8AE0B4905F05CFFE3E6E06C0028C3D032
:1024A00029462C2205F0F8FABEE700BF8C4F002029
:1024B000505500209CFAFF1FE84A0020E4880100E4
:1024C00008540020DD250000B45300209056002061
:1024D00034FAFF1FD7A3E840C0540020F088010061
:1024E0002454002030000020E8540020D85400205C
:1024F00094550020388901002855002044890100A6
:10250000985500204C890100548901000CFAFF1FE6
:102510005C8901002C8901008C53002038B52B4DBB
:10252000FFF764FE2A4BD5F8AC0100241C6018B1FB
:102530000CF0DAFFC5F8AC41B5F8B241B5F8B031EE
:10254000A4B29BB29C420ED00134642C28BF00245C
:10255000A31D05EB830358680CF0C6FFB5F8B03136
:102560009BB2A342F0D11B4B1B68A4B20122022BE9
:10257000A5F8B241A5F8B42100D038BD164DD5F864
:10258000AC0120B10CF0B0FF0023C5F8AC31B5F8B8
:10259000B241B5F8B031A4B29BB2A3420ED001341F
:1025A000642C28BF0024A31D05EB830358680CF09E
:1025B0009BFFB5F8B0319BB2A342F0D1A4B2012386
:1025C000A5F8B241A5F8B43138BD00BFA04F002036
:1025D0009C4F00200CFAFF1F5C5100202DE9F041B8
:1025E000804601200E46FFF7AFFD244C206008F026
:1025F0006BFE0546206808F043FE0746206808F099
:102600002DFEA5F2BC739BB27F2B02D8FAB20C2A26
:1026100028D90023A8F80030206808F043FE0746B8
:10262000206808F0F7FD0546206808F005FEFBB2BB
:10263000172B13D8EBB23B2B10D8C3B23B2B0DD8C2
:10264000FB026D0103F4FF2305F4FF552B43C0F398
:10265000460003439BB23380BDE8F0810023338002
:10266000BDE8F081C0B21F28D3D87F0107F4FF571F
:10267000384340EA43239BB2CCE700BF8C4F002095
:102680002DE9F04F83B0FFF7B5FC002800F0018280
:10269000BD4B1A68BD481A60012109F09FFD012158
:1026A000BA48BB4EDFF83883BA4FBB4D09F09CFDEA
:1026B00026220021B54809F08DFD0322B749B34811
:1026C0000DF074F926221921B04809F083FD032288
:1026D000B349AE480DF06AF926223221AB4809F021
:1026E00079FD0322AF49A9480DF060F926224B215C
:1026F000A64809F06FFD0222AB49A4480DF056F937
:102700002E220021A14809F065FD002331689F4871
:102710000A220DF0DFF92E2219219C4809F05AFDFA
:102720000023D8F8001099480A220DF0D3F92E2280
:102730003221964809F04EFD3B6855F823000EF013
:1027400007FB9A490EF00CFC0DF0ACFE0B4602465E
:1027500097498E480DF0B0F92E224B218B4809F095
:1027600039FD944B18680DF09DFE0B4602469049CA
:1027700086480DF0A1F9904B1C68012C00F0B38144
:10278000022C00F05C818D4B3F68D3F800B03668B6
:10279000DFF8509230460EF0D7FA824620460EF00F
:1027A000D7FA01460EF020FA51460EF025FB0446FA
:1027B00055F827000EF0CCFA014620460EF01CFB1F
:1027C0007F490EF011FA4FF08E410EF00DFA774965
:1027D0000EF0C6FB75490EF0C3FBD9F80030794AFC
:1027E000012B0446106000F059814FF07E50514695
:1027F0000EF002FB8246D8F80000734D734F304450
:102800000EF0A2FA014650460EF0AAFB704B82462B
:1028100018780EF09DFA6F4B19680EF0EDFA5146DC
:1028200080464FF07E500EF0DDF96B4B19680EF0CC
:10283000E3FA5946019050460EF0DEFA019B01463C
:1028400018460EF0D1F9014640460EF089FB634967
:102850000EF0D2FA0EF0BCFC002380462B603868E4
:102860006B60AB60EB600EF06FFA8346014620466A
:102870000EF074FC002840F00A81214658460EF004
:102880006FFB0DF00FFE0DF01BFC0EF037F9034649
:102890002B6000FB06F00EF057FA00210EF0A4F9B1
:1028A000834678680EF050FA0146019020460EF0FB
:1028B00055FC002840F0E980019B214618460EF0A7
:1028C0004FFB0DF0EFFD0DF0FBFB0EF017F903468B
:1028D0006B6000FB06F00EF037FA59460EF084F9F3
:1028E0008346B8680EF030FA0146019020460EF09B
:1028F00035FC002840F0C780019B214618460EF0A9
:102900002FFB0DF0CFFD0DF0DBFB0EF0F7F80346CB
:10291000AB6000FB06F00EF017FA59460EF064F9B2
:102920008346F8680EF010FA0746014620460EF07E
:1029300015FC002840F0A580214638460EF010FB1B
:102940000DF0B0FD0DF0BCFB0EF0D8F80346EB60C7
:1029500000FB06F00EF0F8F9014658460EF044F977
:1029600051460EF0FDFA044640460EF0EDF90146E0
:1029700020460EF0FDFB26225C21002867D003488C
:1029800009F028FC05222FE08C4F002088540020FD
:1029900094FAFF1F88FAFF1F3CFAFF1F64890100A9
:1029A000688901006C8901007089010000007A4487
:1029B00074890100C05400200CFAFF1FF4FAFF1FB5
:1029C0000000304230550020385500209053002040
:1029D00090FAFF1F98FAFF1F08FAFF1F00006145D9
:1029E0009CFAFF1FC4540020434944480CF0DEFF0A
:1029F0005C2142482E2209F0EDFB41493F4881FB12
:102A0000083141444FEAE878C8EB21410CF0E4FF7B
:102A100001223C4939480CF0C9FF7321372237485D
:102A200009F0D8FBD9F800203448012A0EBF3649F6
:102A30003649012203B0BDE8F04F0CF0B7BF3F6844
:102A4000334A344B52F827B0C3F800B09FE62B4806
:102A500009F0C0FB0522304928480CF0A7FF2E22C0
:102A60005C21264809F0B6FB20460EF08BFB24497A
:102A7000034681FB03211944DB172048C3EB2141A6
:102A8000C4E7002169E7002047E7002025E7002090
:102A900003E70BF04DFA214B0246FBE5204A214BA0
:102AA00010781B78834286BFC3F11803C018C01A80
:102AB0000EF04EF91C4A1D4B07461B7810788342D6
:102AC00086BFC3F13C03C018C01A0EF041F9184983
:102AD000054638460EF090F929460EF085F815495E
:102AE0000EF03EFA83E63F68134A0A4B52F827B0CD
:102AF000C3F800B04BE600BF7C8901008854002079
:102B000007452EC284890100908901009489010043
:102B1000A0FAFF1FF4FAFF1F888901008C4F0020E4
:102B200020540020DC0A0020984F00208C55002003
:102B3000000070420000B44410FAFF1F2DE9F0437A
:102B4000554A564BDFF87091DFF87081544F117879
:102B500098F800401A7899F80060386883B03C23F0
:102B600013FB064613FB012408F09CFB054638685E
:102B700008F050FBC5EB051500EB8505386808F03B
:102B8000A3FB00F14E0338688DF8063008F078FB9F
:102B90008DF80500386808F061FBA6428DF8040046
:102BA0000AD2AE424DD8AC424BD3A41BC4EB0414A2
:102BB0003C4D3D48A40010E0AE4201D9AC421AD3CE
:102BC000C4EB0414A300A6EB061403EB840404F581
:102BD000A834344D344804F5C07410212C600CF036
:102BE000ABFA296831480CF0F7FE30480CF04CFF86
:102BF00003B0BDE8F08302A8002300F8083D99F86F
:102C0000002098F800308DF802208DF8013008F08F
:102C10006FFB3860FFF7EEF900283AD0244B1868B4
:102C20003B681F4A834204DA03F5A83303F5C073F7
:102C300013600F211F480CF07FFA3868FEF7BCFCC8
:102C4000BEE702A8002300F8083D99F8002098F894
:102C500000308DF802208DF8013008F049FB386013
:102C6000FFF7C8F990B1124B18683B680C4A8342D1
:102C700004DA03F5A83303F5C07313600F210D4880
:102C80000CF05AFA3868FEF797FC8EE70BF050F913
:102C9000EBE70BF04DF9C3E720540020984F0020DC
:102CA000944F002088530020A889010030000020A4
:102CB0008C4F002098890100DC0A00208C550020F0
:102CC00010B5184C0A21204603F056FC204600217E
:102CD00003F042F92046302103F03EF9204600215E
:102CE00003F03AF90021204603F036F9204603F0BC
:102CF00055FC20460A2103F03FFC2046002103F04A
:102D00002BF92046022103F027F92046002103F089
:102D100023F92046002103F01FF92046BDE81040AA
:102D200003F03CBC705600200238032838B504DCA0
:102D3000002880F2AE81002400E00C240A21C8485B
:102D4000C84D03F019FC0021C54803F005F93021F6
:102D5000C34803F001F94021C14803F0FDF86021A8
:102D6000BF4803F0F9F8BE4803F018FC0A21BC483C
:102D700003F002FC0021BA4803F0EEF82621B8481F
:102D800003F0EAF80021B64803F0E6F86C21B448F5
:102D900003F0E2F8B24803F001FC0A21B04803F066
:102DA000EBFB0021AE4803F0D7F82821AC4803F034
:102DB000D3F80121AA4803F0CFF8F021A84803F086
:102DC000CBF8A74803F0EAFB0A21A54803F0D4FB9F
:102DD0000021A34803F0C0F82C21A14803F0BCF85F
:102DE0000F219F4803F0B8F822219D4803F0B4F862
:102DF0009B4803F0D3FB0A21994803F0BDFB002157
:102E0000974803F0A9F83C21954803F0A5F8002164
:102E1000934803F0A1F80021914803F09DF89048F1
:102E200003F0BCFB0A218E4803F0A6FB00218C486E
:102E300003F092F830218A4803F08EF80021884888
:102E400003F08AF8E221864803F086F8844803F00C
:102E5000A5FB0A21824803F08FFB0021804803F084
:102E60007BF802217E4803F077F800217C4803F0CC
:102E700073F843217A4803F06FF8794803F08EFB2A
:102E80000A21774803F078FB0021754803F064F8C5
:102E90000421734803F060F80021714803F05CF8E6
:102EA00021466F4803F058F86D4803F077FB0A217C
:102EB0006B4803F061FB0021694803F04DF80621DF
:102EC000674803F049F80121654803F045F83021CF
:102ED000634803F041F8624803F060FB0A21604850
:102EE00003F04AFB00215E4803F036F80A215C48F3
:102EF00003F032F800215A4803F02EF80021584818
:102F000003F02AF8564803F049FB0A21544803F01D
:102F100033FB0021524803F01FF80E21504803F004
:102F20001BF800214E4803F017F808214C4803F025
:102F300013F84B4803F032FB0A21494803F01CFB0D
:102F40000021474803F008F81021454803F004F831
:102F5000FF21434803F000F8FF21414802F0FCFF45
:102F60003F4803F01BFB0A213D4803F005FB00210D
:102F70003B4802F0F1FF2221394802F0EDFF7F21AA
:102F8000374802F0E9FF7F21354802F0E5FF344879
:102F900003F004FB0A21324803F0EEFA0121304825
:102FA00002F0DAFF24212E4802F0D6FF00212C483F
:102FB00002F0D2FF00212A4802F0CEFF284803F099
:102FC000EDFA0A21264803F0D7FA0021244802F03E
:102FD000C3FF2421224802F0BFFF0121204802F054
:102FE000BBFF14211E4802F0B7FF1D4803F0D6FABC
:102FF0000A211B4803F0C0FA0021194802F0ACFF77
:103000002A21174802F0A8FF0021154802F0A4FF6A
:103010000021134802F0A0FF114803F0BFFA092174
:1030200011480CF089F8296810480CF0D5FC0F48BD
:103030000CF02AFD2C680A480A2103F09DFA0021B1
:10304000074802F089FF44EA04142021044802F0F2
:1030500083FFC4F30721024802F07EFFE1B207E0DC
:103060007056002000FAFF1FBC89010030000020CC
:10307000094802F071FF084803F090FAB0FA80F1B5
:10308000490906480CF0A8FC04480CF0FDFC01209E
:1030900038BD8000C4B251E67056002030000020D8
:1030A00010B5074B0446102153F82000FEF7A8FB8B
:1030B000044802F0F7FF2046BDE81040FFF734BE99
:1030C0003CFAFF1F7056002038B504460D463148C3
:1030D000012109F083F82AB200212E4809F07AF87C
:1030E000204608F0F1F801462A480CF075FC2D2125
:1030F000284809F035F8204608F0C2F8014625486E
:103100000CF06AFC2D21234809F02AF8204608F02B
:10311000A5F801461F480CF05FFC02221E491D481D
:103120000CF044FC204608F0BDF8092803DC3021EF
:10313000184809F015F8204608F0B4F8014615487B
:103140000CF04AFC204608F065F8012205461349B8
:1031500010480CF02BFC092D03DC30210D4808F041
:10316000FFFF29460B480CF037FC204608F064F8B6
:1031700001220446094907480CF018FC092C03DC1D
:103180003021044808F0ECFF21460248BDE83840F1
:103190000CF022BC88540020C8890100DC890100A1
:1031A0002DE9F041B94D2B682BB1012B00F0958032
:1031B00030BFBDE8F081FEF71DFFB54F002800F0DD
:1031C0005D813B68B3483B6009F0E8FD0121B148EF
:1031D000B14EB24C09F008F80221AE4808F0FEFFEB
:1031E00000221146AB4808F0F5FF0A22AC49A94875
:1031F0000CF0DCFBA7480CF047FC0121A54808F0C7
:10320000EDFF12220021A34808F0E4FF0522A549A2
:10321000A0480CF0CBFB31689E4801310CF0DCFB80
:103220000122A1499B480CF0C1FB32689F4B994891
:1032300053F8221000230A220CF04CFC20682821AD
:10324000FFF742FF37213868FFF73EFF914809F04A
:10325000E1FF23683A689A423BDBDFF8AC82D8F89A
:103260000060002E00F0F080022E00F0C9810D21D8
:103270008F480BF061FF8F480CF006FC8E4B1B68EB
:10328000002B00F0D680012B00F042818B4E8C4841
:103290000E210BF051FFFEF7ADFE002800F0F2808A
:1032A0003868FEF789F90B2186480BF045FF306836
:1032B000FEF782F90B2184480BF03EFF2068FEF7F1
:1032C0007BF90123AE2173482B6009F06FFDFFF7F6
:1032D00025F92B68012B7FF46BAFFDF7E5FD04208A
:1032E0000AF056FF044603200AF052FF14B90028E2
:1032F00000F02581754E764B32681B689A42FFF4C8
:1033000057AF744B6C4A1B681468B3FA83F35B09BC
:10331000002C14BF002703F00107012C14BF002468
:1033200003F00104FEF766FE002800F07881584B98
:103330001868624B1B688342D4BF002304F001036A
:10334000002B40F06281002F40F05F81FDF7BCFC54
:10335000FDF706FF514B1C68FEF74CFE002800F0FD
:1033600061814B4B18685C4A5C4B12685C4E5D4F48
:10337000241AA41A24EAE47483FB04232344E017E8
:10338000C0EBE3200DF07CF80CF09AFE0DF08EFB04
:10339000554B564A306003FB004482FB0432224402
:1033A0008046E017C0EB62100DF06AF80CF088FE62
:1033B0000DF07CFB0201131A821A04EB82049B00BD
:1033C0004FF4616202FB08333C60DFF840811C442B
:1033D000092CC8F8000023DD002102200AF0B4FE09
:1033E000FFF76EFC424A136823F010431360642019
:1033F0000AF018FF3B7898F8002031783D4807F034
:10340000A1FD3D4807F064FB012102200AF09CFE6B
:103410004FF496700AF006FF384B1868FFF740FE2D
:1034200001233C2202211B4809F0EAFD00232B6006
:10343000BEE6334B274A21681B6812681F4E0B44B7
:103440001A442260336022E70A212E4803F094F8E0
:1034500031462C4802F080FD0E212A4802F07CFD06
:103460003146284802F078FD0A21264802F074FD12
:10347000244803F093F8D8F80060F5E60AF058FD08
:1034800003469FE60AF054FD0BE700BFB00A002098
:103490008C4F00208854002090550020944F00202D
:1034A000CC890100D8890100908A0100385500209C
:1034B000E089010030000020C4540020BC530020EB
:1034C000008A0100108A01001C8A01009C4F002024
:1034D0008C5300209CFAFF1F04FAFF1FC5B3A29172
:1034E000C85400202C550020F0F1FFFF89888888FF
:1034F00080F0024044530020B40A002088FAFF1FE5
:1035000094FAFF1F70560020E00A00201C5400208F
:103510004B4B1A68002A40F088804A4A2368116899
:10352000494E4A4803F5A83202F5C0720B442260A6
:103530003360FDF7FDF93068FEF73EF8A7E6444B2F
:10354000444C1B68444A454E454DA06C5B0200212B
:1035500003F12407A6F8B41157609362A5F8B411DB
:10356000002845D005F0D0FBA06C3A4B002837D09E
:103570002C22394905F0E4FC3A4806F057FC0123B7
:103580003C220221384809F03BFD64200AF04AFE43
:10359000354809F003FC0121334808F025FE0221DB
:1035A000314808F01BFE002211462F4808F012FE99
:1035B00007222E492C480CF0F9F92B480CF064FA3C
:1035C0000121294808F00AFE1022294926480CF05A
:1035D000EDF925480CF058FA234809F01BFEFEE7E8
:1035E000D86C0028C8D02C221B4904F055FAC3E738
:1035F000E06C0028C0D00022002303F02BFCB3E7CE
:103600000B210E20FEF7D2FC31E6164806F00EFC28
:10361000FDF7A6FDFEF7EAFD00233360C8E50AF0DA
:1036200087FC86E60AF084FC9DE6124B21681B6845
:10363000054E0B441A4422603360FFF77FFA26E6FA
:103640009CFAFF1F88530020BC530020F089010022
:103650009C4F0020D854002098550020A04F0020F7
:103660005C510020E854002088540020288A010082
:10367000308A010094FAFF1F2DE9F04F91B0FDF759
:10368000E1FFFDF747FBFEF7B5FC4E4D002801F0CA
:1036900001852B684C4A4D48136009F07FFB0121DE
:1036A0004A484B4F4B4C08F09FFD0221474808F019
:1036B00095FD00221146454808F08CFD0722464939
:1036C00042480CF073F90121404808F087FD1022B0
:1036D00000213E4808F07EFD122240493B480CF094
:1036E00065F93A480CF0D0F93D4B012118780AF001
:1036F0002BFD4FF47A700AF095FD0721394803F04D
:1037000069F90E21374803F0F1F90C21354803F02F
:10371000A9F9354B354800261E600CF0B5F9334841
:103720000CF0B2F9052132480BF006FD01212F48BB
:103730000CF052F92D480CF0A7F9012123480CF0A8
:103740004BF904222B4921480CF030F91F4809F0AD
:1037500061FD64200AF066FD274B8DF81D6093F82B
:1037600000E009968DF81CE0089707AB93E8070086
:103770000AAB83E807008DF829600C968DF828E0E5
:103780000B9793E807000DAB83E8070004F59266FA
:103790000ECB304606F002FE94F89F34C4F88C64D9
:1037A00083B31C2115480BF0C7FC10480CF06CF9D2
:1037B0000922134905480CF0F9F8044809F02AFDDC
:1037C000FEE700BF8C4F0020E44A00208854002010
:1037D00080F0FA02E84A0020448A01004C8A010085
:1037E000C4530020FCFAFF1F90530020300000203B
:1037F000D8890100608A0100D8530020988A01000E
:10380000B88A01003146204606F076FB0028C8D071
:10381000D4F88004002801F0338406F0E7F9064666
:103820000821BC480BF088FC3146BB480CF0D4F8AA
:10383000B9480CF029F930460DF08AFAB7490DF075
:10384000DBFAD4F88034B64A0646002B01F0A08497
:1038500018790DF079FA014630460DF0CDFA0DF0E9
:10386000B7FC0646D4F88C0406F086FC0DF06CFA22
:10387000AA490DF0C1FA0DF0ABFC0A210446A94893
:103880000BF05AFC0A2221460023A3480CF022F92F
:10389000A1480CF0F9F8C72EA34BA4488CBFC83E32
:1038A000002611211E600BF047FC9F499A480968C9
:1038B00000230A220CF00EF997480CF0E5F89A491B
:1038C0009B48096800230A220CF004F90122994957
:1038D00097480CF06BF800230A22214694480CF01C
:1038E000F9F893480CF0D0F8914809F093FC4FF4A4
:1038F0007A700AF097FCFDF7A1FCFDF70BFAFDF7D3
:103900000FFF8D4B1A688D4B9A4201F22A848C4A24
:103910008A4B12689A4201F2DD838A4B1B78172B7F
:1039200001F2F283884B1B783B2B01F2F983874B22
:103930001B78172B01F20084854B1B783B2B01F27F
:103940000784844F3B68012B05D9002319460C20BE
:103950003B600AF059F9804B1B68082B01F2B183D8
:103960007E4B1B78082B01F2A3837D4B1B680F2B2A
:1039700001F295837B4B1B68013B012B06D9012388
:10398000784A1946102013600AF03EF9764EFEF789
:1039900031FB002801F014832868744B28601B68F1
:1039A000C3EB0009B9F5167F4FF00400D4BF4FF008
:1039B00000094FF001090AF0EBFB3B686C4A012B50
:1039C0000CBF0A2309231360002800F0E0800320C5
:1039D0000AF0DEFB002800F0058108200AF0D8FB81
:1039E000002800F0E780524809F0D8F9012150483A
:1039F00008F0FAFB02214E4808F0F0FB00221146C5
:103A00004B4808F0E7FB0221494808F0E7FB336820
:103A1000584A52F8234020460EF092FC21460246B6
:103A200043480BF0C3FF42480CF02EF801214048F8
:103A300008F0D4FB3368504A52F8234020460EF079
:103A40007FFC214602463A480BF0B0FF38480CF0A4
:103A50001BF8FEF715FE0121354808F0BFFB0022D8
:103A60006421334808F0B6FB4FF0000808242820F2
:103A700009F0AEFF0DF06CF94FF06A510DF0BCF992
:103A8000014640460DF0B0F8013C8046EFD13B497D
:103A90000DF0B2F94FF078510DF0AEF90CF002FDD7
:103AA00001240B460246009421480CF055F82246AA
:103AB00033491F480BF07AFF21461D4808F08EFB62
:103AC000082264211A4808F085FB264B1B68A34294
:103AD00001F07A8208225A21154808F07BFB062261
:103AE000284913480BF062FFFEF784FA002801F022
:103AF000638228683721FFF7E7FA0D4809F08AFB4F
:103B00000A200AF08FFBB9F1000F3FF440AF11B06B
:103B1000BDE8F08F688A010030000020BD37063A0A
:103B2000E84A0020748A010090530020808A010036
:103B300088540020948A010094FAFF1FA086010097
:103B40009CFAFF1FDC0A00208C5500202054002026
:103B5000984F0020C454002088FAFF1F90FAFF1FDE
:103B600000FAFF1F0CFAFF1FC0530020E44A002098
:103B7000C4FAFF1F60FAFF1FC8FAFF1FD7A3E8406F
:103B8000B4880100C08801000A200AF04BFB042021
:103B90000AF0FEFA0028F7D0874A3368126887498E
:103BA000013393423360A4BF00230B600FE70A2068
:103BB0000AF038FB08200AF0EBFA0028F7D0336847
:103BC000092B01F2E781DFE813F076093900A6023C
:103BD00013022601FF04E401AA019904AA000A20A5
:103BE0000AF020FB03200AF0D3FA0028F7D033684C
:103BF000724A013B002B3360BFF6EFAE6E4B1B6881
:103C0000013B1360E9E66E490DF0F6F84FF078518C
:103C10000DF0F2F80CF046FC01240B46024600942D
:103C200068480BF099FF2246674966480BF0BEFED4
:103C3000644809F0EFFA02200AF0F4FA08200AF0CA
:103C4000A7FA0128044640F04184604B4FF46162BA
:103C500001461868FDF74EFC5C4B1860594809F0A6
:103C60009DF82146574808F0BFFA0221554808F050
:103C7000B5FA00221146534808F0ACFA072254491D
:103C800050480BF093FE4F480BF0FEFE4F494D4855
:103C9000096800230A220BF01DFF22464D494948BE
:103CA0000BF084FE47480BF0EFFEFEF7E9FC2146DF
:103CB000444808F093FA00226421424808F08AFA46
:103CC0004FF000080824282009F082FE0DF040F88B
:103CD0004FF06A510DF090F8014640460CF084FF19
:103CE000013C8046EFD18EE735490DF085F84FF065
:103CF00078510DF081F80CF0D5FB01240B460246FB
:103D0000009430480BF028FF22462F492D480BF035
:103D10004DFE2C4809F07EFA02200AF083FA0820B2
:103D20000AF036FA0128044640F074822A4B172123
:103D30001878FCF773FD284B1870224809F02EF80C
:103D40002146204808F050FA02211E4808F046FAA1
:103D5000002211461B4808F03DFA07221F49194866
:103D60000BF024FE17480BF08FFE1B49154809780D
:103D700000230A220BF0AEFEFEF782FC214611481A
:103D800008F02CFA002264210E4808F023FA4FF0C4
:103D900000080824282009F01BFE0CF0D9FF4FF082
:103DA0006A510DF029F8014640460CF01DFF013C18
:103DB0008046EFD198E700BFC4FAFF1FC053002030
:103DC000D7A3E84088540020B488010094FAFF1F6C
:103DD000208B0100288B0100DC0A0020B08B010041
:103DE000AF490DF009F84FF078510DF005F80CF0DF
:103DF00059FB01240B4602460094AA480BF0ACFE86
:103E00002246A949A7480BF0D1FDA64809F002FABD
:103E100002200AF007FA08200AF0BAF9012804463D
:103E200040F06083A14B0F211868FCF7F7FC9F4B13
:103E30001860FCF76FFF9B4808F0B0FF21469948D7
:103E400008F0D2F90221974808F0C8F9002211467B
:103E5000944808F0BFF90522954992480BF0A6FD59
:103E6000924B904819680BF0B7FD8E480BF00CFE92
:103E7000904B18680CF016FB4FF0020A0B460246F6
:103E8000CDF800A087480BF067FE52468A49854866
:103E90000BF08CFDFEF7F4FB2146824808F09EF9FA
:103EA000002264217F4808F095F94FF000080824AB
:103EB000282009F08DFD0CF04BFF4FF06A510CF0FB
:103EC0009BFF014640460CF08FFE013C8046EFD13F
:103ED00086E77A4B1868FDF70DFB784B1860714840
:103EE00008F05CFF21466F4808F07EF902216D481A
:103EF00008F074F9002211466A4808F06BF90922AB
:103F00006F4968480BF052FD6C4B664819680BF01E
:103F100063FD644809F07EF902200AF083F9082065
:103F20000AF036F9012804464FF002020146D0D0CB
:103F300008200AF02DF90028FAD00023336001F0A0
:103F400029B8604B1878FDF7D5FA5E4B18705548C4
:103F500008F024FF2146534808F046F90221514851
:103F600008F03CF9002211464E4808F033F90922C6
:103F700055494C480BF01AFD52494A48097800232C
:103F80000A220BF0A7FD474809F044F902200AF085
:103F900049F908200AF0FCF8012804464FF008020D
:103FA0000146CED008200AF0F3F80028C5D1082039
:103FB0000AF0EEF80028F5D0BFE739490CF01CFFF5
:103FC0004FF078510CF018FF0CF06CFA01240B46FE
:103FD0000246009433480BF0BFFD22463249314877
:103FE0000BF0E4FC2F4809F015F902200AF01AF949
:103FF00008200AF0CDF80128044640F0EF80334B4A
:1040000008211868FCF70AFC304B1860254808F0B6
:10401000C5FE2146234808F0E7F80221214808F0B0
:10402000DDF8002211461F4808F0D4F828491D4841
:1040300004220BF0BBFC1B480BF026FD234A254B4A
:10404000126853F822000CF083FE23490CF088FF1D
:104050000CF028FA02460B46124820490BF02CFDC2
:10406000FEF70EFB21460F4808F0B8F80022642145
:104070000C4808F0AFF84FF000080824282009F099
:10408000A7FC0CF065FE4FF06A510CF0B5FE01463E
:1040900040460CF0A9FD013C8046EFD18DE700BF02
:1040A000D7A3E84088540020B488010000FAFF1F1D
:1040B000488B0100C0540020708901000CFAFF1FDA
:1040C0008C8B010090FAFF1F808B010088FAFF1F84
:1040D000348B01003CFAFF1F00007A443C8B010046
:1040E00044490CF089FE4FF078510CF085FE0CF03D
:1040F000D9F901240B46024600943F480BF02CFDF1
:1041000022463E493C480BF051FC3B4809F082F8FE
:1041100002200AF087F808200AF03AF8012851D165
:10412000374B38491868FCF779FB354B186018B9DC
:10413000354A4FF4167313602F4808F02FFE012103
:104140002D4808F051F802212B4808F047F80022CA
:104150001146294808F03EF806222C4926480BF063
:1041600025FC25480BF090FC2549234809680023CD
:104170000A220BF0AFFC012225491F480BF016FC68
:104180001D480BF081FCFEF77BFA01211A4808F06C
:1041900025F800226421184808F01CF84FF00008A8
:1041A0000824282009F014FC0CF0D2FD4FF06A51CD
:1041B0000CF022FE014640460CF016FD013C804604
:1041C000EFD18DE7082009F0E3FF00287FF4B5AEBA
:1041D000082009F0DDFF0028F4D0AEE6082009F041
:1041E000D7FF00287FF4A9AE082009F0D1FF0028EE
:1041F000F4D0A2E6D7A3E84088540020B488010098
:104200009CFAFF1F8051010094FAFF1F2C8B0100C4
:10421000288B0100082009F0BBFF0028FAD00820F5
:1042200009F0B6FF0128044664D1B64B3B2118784B
:10423000FCF7F4FAB34B1870B34808F0AFFD214611
:10424000B14807F0D1FF0221AF4807F0C7FF0022B5
:104250001146AD4807F0BEFF0822AC49AA480BF052
:10426000A5FBA9480BF010FCA649A7480978002334
:104270000A220BF02FFCFEF703FA2146A24807F0B2
:10428000ADFF00226421A04807F0A4FF4FF0000812
:104290000824282009F09CFB0CF05AFD4FF06A51CD
:1042A0000CF0AAFD014640460CF09EFC013C804605
:1042B000EFD197490CF0A0FD4FF078510CF09CFD28
:1042C0000CF0F0F801240B46024600948E480BF0E7
:1042D00043FC22468F498C480BF068FB8A4808F063
:1042E00099FF022009F09EFF082009F051FF0128E4
:1042F00004469AD0082009F04BFF0028FAD0082085
:1043000009F046FF0128044664D1834B1721187831
:10431000FCF784FA804B18707B4808F03FFD21467B
:10432000794807F061FF0221774807F057FF002224
:104330001146754807F04EFF0622784972480BF087
:1043400035FB71480BF0A0FB73496F4809780023D7
:104350000A220BF0BFFBFEF793F921466A4807F0EB
:104360003DFF00226421684807F034FF4FF0000849
:104370000824282009F02CFB0CF0EAFC4FF06A51CD
:104380000CF03AFD014640460CF02EFC013C804604
:10439000EFD15F490CF030FD4FF078510CF02CFD5F
:1043A0000CF080F801240B460246009456480BF0AE
:1043B000D3FB2246574954480BF0F8FA524808F00C
:1043C00029FF022009F02EFF082009F0E1FE012854
:1043D00004469AD0082009F0DBFE0028FAD0082015
:1043E00009F0D6FE0128044664D14D4B3B211878D4
:1043F000FCF714FA4A4B1870434808F0CFFC2146EA
:10440000414807F0F1FE02213F4807F0E7FE002295
:1044100011463D4807F0DEFE072242493A480BF0BC
:10442000C5FA39480BF030FB3D493748097800237D
:104430000A220BF04FFBFEF723F92146324807F022
:10444000CDFE00226421304807F0C4FE4FF0000882
:104450000824282009F0BCFA0CF07AFC4FF06A51CD
:104460000CF0CAFC014640460CF0BEFB013C804605
:10447000EFD127490CF0C0FC4FF078510CF0BCFC98
:104480000CF010F801240B46024600941E480BF075
:1044900063FB22461F491C480BF088FA1A4808F0B3
:1044A000B9FE022009F0BEFE082009F071FE0128C5
:1044B00004469AD0082009F06BFE00287FF43DAD39
:1044C000082009F065FE0028F4D036E5082009F040
:1044D0005FFE00287FF431AD082009F059FE002866
:1044E000F4D02AE5082009F053FE00287FF425AD1A
:1044F000082009F04DFE0028F4D01EE5DFF82880E2
:104500001CE000BF8C55002088540020B88B0100AF
:10451000D7A3E840B488010020540020C48B0100D8
:10452000984F0020CC8B0100C4540020012B31D0C7
:10453000214808F06FFE022009F074FE082009F0FF
:1045400027FE0128044601462AD13868FCF766F99F
:104550003860194808F022FC2146174807F044FE4D
:104560000221154807F03AFE00221146124807F0D2
:1045700031FE0522114910480BF018FA3B68002B58
:10458000D4D104220E490C480BF010FAD8F80030B0
:10459000012BCDD105220B4907480BF007FAC7E7DD
:1045A000082009F0F5FD00287FF4C7AC082009F0C9
:1045B000EFFD0028F4D0C0E488540020988B01005F
:1045C000A08B0100A88B01000820CDF8149009F001
:1045D000DFFD0128DFF880A3DFF880B340F0A08082
:1045E0002868D64C06F070FE40F634024FF4FA61AB
:1045F000CBF80000FCF77EFFDBF80030206098422B
:104600002BD0DAF8000006F04DFE8046DAF8000004
:1046100006F000FE8146DAF8000006F00DFE049078
:10462000DAF8000006F01AFE0390DAF8000006F04F
:1046300027FE2468039B0090A4F5FA64049A019471
:1046400049464046FDF724FCFDF7D4FC002800F065
:10465000C684DAF80000BA4B1860BA4808F09EFB2E
:104660000121B84807F0C0FD0221B64807F0B6FDA9
:1046700000221146B34807F0ADFD0522B249B1480A
:104680000BF094F9AF480BF0FFF9FDF7B3FC0028ED
:1046900000F0A184286806F017FE0146A9480BF037
:1046A0009BF9FDF7EDFF0121A64807F097FD0022D9
:1046B0006421A44807F08EFD4FF00008082428204C
:1046C00009F086F90CF044FB4FF06A510CF094FBB2
:1046D000014640460CF088FA013C8046EFD19B49E8
:1046E0000CF08AFB4FF078510CF086FB0BF0DAFEF1
:1046F00001240B460246009492480BF02DFA224604
:10470000934990480BF052F98E4808F083FD02203F
:1047100009F088FD082009F03BFD01283FF460AF57
:10472000DDF81490082009F033FD0028FAD00220AB
:1047300009F078FD0820CDF8149009F029FD012832
:10474000DFF814A2DFF818B2044640F0A38028680E
:10475000DFF8108206F094FD21460C22CBF8000011
:10476000FCF7C8FEDBF80030C8F8000098422DD0F6
:10477000DAF8000006F096FD0446DAF8000006F0CC
:1047800049FD8146DAF8000006F056FD0490DAF89B
:10479000000006F063FD0390DAF80000D8F800800E
:1047A00006F092FDA0F5FA600190039B049ACDF803
:1047B000008049462046FDF76BFBFDF71BFC0028F7
:1047C00000F01484DAF800005D4B18605D4808F0D2
:1047D000E5FA01215B4807F007FD0221594807F07F
:1047E000FDFC00221146574807F0F4FC0622594907
:1047F00054480BF0DBF853480BF046F9FDF7FAFB91
:10480000002800F0F083286806F03AFD01464D4884
:104810000BF0E2F8FDF734FF01214A4807F0DEFC17
:1048200000226421474807F0D5FC4FF00008082417
:10483000282009F0CDF80CF08BFA4FF06A510CF0FB
:10484000DBFA014640460CF0CFF9013C8046EFD13F
:104850003E490CF0D1FA4FF078510CF0CDFA0BF044
:1048600021FE01240B460246009436480BF074F9F1
:104870002246374933480BF099F8324808F0CAFC11
:10488000022009F0CFFC082009F082FC0128044630
:104890003FF45DAFDDF81490082009F079FC0028A2
:1048A000FAD0022009F0BEFC0820CDF8149009F0DF
:1048B0006FFC0128DFF8A0A0DFF8ACB0044640F0A0
:1048C000BF802868DFF8A48006F0C8FC21461F22BC
:1048D000CBF80000FCF70EFEDBF80030C8F8000053
:1048E000984249D0DAF8000006F0DCFC0446DAF819
:1048F000000006F08FFC8146DAF8000006F09CFC10
:104900000490DAF80000D8F8008006F0B9FC0390B3
:10491000DAF8000006F0D8FC039B0093A0F5FA60DB
:1049200001904346049A49462046FDF7B1FAFDF747
:1049300061FB002800F061831AE000BFE85300200B
:10494000E44A002088540020508B0100D7A3E8409F
:10495000B4880100588B01008C4F00204C5500207A
:104960008455002088550020CC540020D4530020CA
:10497000DAF80000CD4B1860CD4808F00FFA01219D
:10498000CB4807F031FC0221C94807F027FC002280
:104990001146C74807F01EFC0422C649C4480BF064
:1049A00005F8C3480BF070F8FDF724FB002800F071
:1049B0002183286806F052FC0146BD480BF00CF834
:1049C000FDF75EFE0121BA4807F008FC00226421D1
:1049D000B74807F0FFFB4FF000080824282008F034
:1049E000F7FF0CF0B5F94FF06A510CF005FA0146EB
:1049F00040460CF0F9F8013C8046EFD1AE490CF08E
:104A0000FBF94FF078510CF0F7F90BF04BFD012456
:104A10000B4602460094A6480BF09EF82246A74992
:104A2000A3480AF0C3FFA24808F0F4FB022009F0F3
:104A3000F9FB082009F0ACFB012804463FF441AF24
:104A4000DDF81490082009F0A3FB0028FAD002201A
:104A500009F0E8FB0820CDF8149009F099FB012833
:104A6000DFF868A2DFF868B240F09C80286806F0A2
:104A700019FC1721CBF80000FBF7D0FEDBF8003063
:104A8000984204462BD0DAF8000006F0C3FB8046BB
:104A9000DAF8000006F0D0FB8146DAF8000006F0F4
:104AA000DDFB0490DAF8000006F0EAFB0390DAF888
:104AB000000006F009FC03990091A0F5FA6001904E
:104AC000049B4A4641462046FDF7E2F9FDF792FA7B
:104AD000002800F09882DAF80000744B18607448DF
:104AE00008F05CF90121724807F07EFB0221704852
:104AF00007F074FB002211466D4807F06BFB05229E
:104B00006F496B480AF052FF69480AF0BDFFFDF794
:104B100071FA002800F07482286806F0C3FB014691
:104B200063480AF059FFFDF7ABFD0121604807F02B
:104B300055FB002264215E4807F04CFB4FF0000853
:104B40000824282008F044FF0CF002F94FF06A51C5
:104B50000CF052F9014640460CF046F8013C804604
:104B6000EFD155490CF048F94FF078510CF044F969
:104B70000BF098FC01240B46024600944C480AF0C6
:104B8000EBFF22464D494A480AF010FF484808F01A
:104B900041FB022009F046FB082009F0F9FA012840
:104BA0003FF464AFDDF81490082009F0F1FA002812
:104BB000FAD0022009F036FB0820CDF8149009F055
:104BC000E7FA0128DFF804A1DFF808B140F0B5806A
:104BD00028683C4C06F01EFB3B21CBF80000FBF79D
:104BE0001DFEDBF80030206098422CD0DAF800007F
:104BF00006F058FB8046DAF80000246806F01CFB3B
:104C00008146DAF8000006F029FB0490DAF800008B
:104C100006F036FB0390DAF8000006F055FB039926
:104C20000091A0F5FA600190049B4A462146404657
:104C3000FDF72EF9FDF7DEF9002800F0EA81DAF839
:104C400000001A4B18601A4808F0A8F8012118480B
:104C500007F0CAFA0221164807F0C0FA00221146EE
:104C6000134807F0B7FA0722174911480AF09EFEC9
:104C70000F480AF009FFFDF7BDF9002800F0C681D2
:104C8000286806F0C7FA014609480AF0A5FEFDF7B4
:104C9000F7FC0121064807F0A1FA0022642104482C
:104CA00007F098FA4FF00008082415E0E44A0020C5
:104CB00088540020608B0100D7A3E840B48801002D
:104CC000688B0100D4540020708B01008C4F0020B1
:104CD000AC0A0020EC530020282008F079FE0CF0EC
:104CE00037F84FF06A510CF087F8014640460BF058
:104CF0007BFF013C8046EFD1CC490CF07DF84FF0B2
:104D000078510CF079F80BF0CDFB01240B460246EC
:104D10000094C7480AF020FF2246C649C4480AF05A
:104D200045FEC34808F076FA022009F07BFA082015
:104D300009F02EFA01283FF44BAFDDF8149008205B
:104D400009F026FA0028FAD0022009F06BFA0820B0
:104D5000CDF8149009F01CFA0128DFF81CA3DFF845
:104D60001CB340F09E802868B34C06F065FA3B21E6
:104D7000CBF80000FBF752FDDBF8003020609842D2
:104D80002CD0DAF8000006F08DFA8046DAF8000040
:104D900006F040FA8146DAF80000246806F05EFA70
:104DA0000490DAF8000006F06BFA0390DAF80000DD
:104DB00006F08AFA039A0092A0F5FA600190049B2B
:104DC000224649464046FDF763F8FDF713F90028EF
:104DD00000F02581DAF80000984B1860944807F03D
:104DE000DDFF0121924807F0FFF90221904807F00A
:104DF000F5F9002211468E4807F0ECF90722904998
:104E00008B480AF0D3FD8A480AF03EFEFDF7F2F81F
:104E1000002800F00181286806F00EFA0146844857
:104E20000AF0DAFDFDF72CFC0121814807F0D6F9E4
:104E3000002264217E4807F0CDF94FF000080824D5
:104E4000282008F0C5FD0BF083FF4FF06A510BF0EE
:104E5000D3FF014640460BF0C7FE013C8046EFD130
:104E600072490BF0C9FF4FF078510BF0C5FF0BF002
:104E700019FB01240B46024600946D480AF06CFEB3
:104E800022466C496A480AF091FD694808F0C2F967
:104E9000022009F0C7F9082009F07AF901283FF447
:104EA00062AFDDF81490082009F072F90028FAD0FA
:104EB000002333606EE05E48624C07F06FFF012113
:104EC0005B4807F091F90221594807F087F9002261
:104ED0001146574807F07EF9FCF722FC0D215A488D
:104EE0000AF02AF9216859480AF076FD57480AF075
:104EF000CBFD082156480AF01FF9564B18680BF0F5
:104F0000D1FA4FF0020ECDF800E002460B464F48B2
:104F10000AF022FE4D480AF0B7FD08214E480AF07B
:104F20000BF923684D4A494852F8231000230A22FE
:104F30000AF0D0FD45480AF0A7FD132148480AF0C1
:104F4000FBF82268474B414853F8221000230A22FD
:104F50000AF0C0FD3D480AF097FD0A224249344854
:104F60000AF024FD32480AF08FFD0121304807F095
:104F700035F913223D492E480AF018FD2C4808F057
:104F800049F90120FDF7E0F84FF4FA6009F04AF919
:104F90004FF00109364C2378002B3EF424ADFCF78A
:104FA000BFFB00232370FDF725F800283AD02868BE
:104FB000224B1860FEF717BD08F0BAFFFEF79ABD46
:104FC00008F0B6FFFEF7E9BC04222A4918480AF0A7
:104FD000EDFCFEF789BD08F0ABFFFFF75CBB08F006
:104FE000A7FFFFF738BB08F0A3FF0DE408F0A0FF10
:104FF000FFF7EABB08F09CFFDCE408F099FFB9E496
:1050000008F096FF89E508F093FF66E508F090FF49
:1050100037E608F08DFF14E608F08AFFFCE608F09A
:1050200087FFD9E608F084FFC2E700BFD7A3E840B6
:1050300088540020B488010084530020E44A0020F2
:10504000788B010090550020C48A010030000020B8
:10505000D48A010030550020E08A010090530020DE
:10506000EC8A010038550020008B01000C8B0100F8
:10507000904F0020B88801008C4F0020545500202C
:10508000D4F88404002800F08F8003F007F8064667
:10509000FEF7C6BB08F04CFF0346FEF7FBBA04233D
:1050A000444A19460F20136008F0AEFDFEF762BCBB
:1050B0000823414A19460E20137008F0A5FDFEF79B
:1050C00054BC04233D4A19460D20136008F09CFD92
:1050D000FEF746BC3C233A4A3A4C1360194604207A
:1050E000236008F091FD6178052008F08DFDA1781E
:1050F000062008F089FDE178072008F085FD324B95
:105100001B78172B7EF60EAC00232F4A1946082079
:10511000137008F079FD2D4B1B783B2B7EF607AC06
:1051200000232A4A19460920137008F06DFD284B08
:105130001B78172B7EF600AC0023254A19460A205F
:10514000137008F061FD234B1B783B2B7EF6F9AB07
:105150000023204A19460B20137008F055FDFEF776
:10516000F0BB3C23174C1C4A2360194600201360F7
:1051700008F04AFD6178012008F046FDA178022080
:1051800008F042FDE178032008F03EFDFEF7BFBBCA
:10519000D2F884345BB193F84534012098400BF089
:1051A000D3FD0146FEF758BB0646FEF739BB00218A
:1051B000FEF752BB00FAFF1F90FAFF1F88FAFF1F8D
:1051C0009CFAFF1FAC530020DC0A00208C55002005
:1051D00020540020984F002094FAFF1FD24AD34851
:1051E0001268D3492DE9F84FD24BDFF8B8831A6023
:1051F0000068D14A586000240A2511264FF4FA703D
:105200000D60166009F00EF8C8F80040642009F03F
:1052100009F84FF43053C8F80030642009F002F860
:10522000C64FDFF884A3DFF884934FF43453C8F8F3
:105230000030642008F0F6FF3968C148DFF8708359
:1052400023462A460AF046FCBD480AF01DFC4FF4EE
:105250007A7008F0E7FF3968B94823462A460AF011
:1052600039FCB7480AF010FC4FF47A7008F0DAFF06
:1052700023462A463968B248B24F0AF02BFCB048A0
:105280000AF002FCB04800F00DFF2146282008F08B
:105290008DFF204608F010FB0121022008F086FF58
:1052A0000121022008F050FF3046012108F07EFF66
:1052B0000121062008F07AFF2146304608F044FF1D
:1052C0000121062008F040FF0221042008F06EFFB3
:1052D0000221032008F06AFF0221082008F066FF7F
:1052E00001233C220221994807F08AFE8C2008F015
:1052F00099FF964807F052FD0121944806F074FF8B
:105300000221924806F06AFF224621468F4806F0A5
:1053100061FF2A468E498D480AF048FB8B480AF007
:10532000B3FB8A4807F076FF6E218A480AF058F8E6
:10533000DAF8005058F8256030460BF009FD1021CE
:10534000C9F800003046FCF75BFA7F4800F0AAFE7F
:105350002846FDF7E9FCFEF78FF9DAF8005058F817
:10536000256030460BF0F4FC1021C9F800003046EF
:10537000FCF746FA744800F095FE2846FDF7D4FC89
:10538000724807F00BFD0121704806F02DFF022145
:105390006E4806F023FF224621466C486E4C06F00C
:1053A00019FF3B683B2B06D9B3F5967F34BF3C23EE
:1053B0004FF4967323600120FCF7C6FEDFF8F481FA
:1053C00066492368664D674ED8F80020096890FB4F
:1053D000F3F4286003FB043363483360012913446A
:1053E000036000F0078110460BF0AEFCD9F8001006
:1053F0005E4CDFF8C4A1DFF8C4B10BF0FDFC4FF048
:105400006E510BF0F9FC4FF074510BF0F5FC0BF002
:1054100049F80AF0CDFD0022554B0BF097F80BF040
:1054200045FB544A39681368534AC3EB0109534B8F
:10543000126829EAE97983FB091302FB00F24B4465
:105440004FEAE9702260C0EBE3200BF019F80AF094
:1054500037FE0BF02BFB4A4C4A4BCAF8000004FB0A
:10546000009483FB04232344E017C0EB63100BF08C
:1054700007F80AF025FE0BF019FBDFF84491A0EBCA
:105480000012034604EB820410213F48CBF80030A1
:10549000C9F8004009F050FEDAF8001028480AF078
:1054A0009BFADBF8001026480AF096FAD9F80010AB
:1054B00023480AF091FA22480AF0E6FA0821334814
:1054C00009F03AFE00230A22D8F800101C480AF01E
:1054D00001FB1B480AF0D8FA08212D4809F02CFEE0
:1054E0000A220023396816480AF0F4FA14480AF030
:1054F000CBFA0E21274809F01FFE2868FCF75CF85C
:105500000C21254809F018FE3068FCF755F833687F
:105510002C682248224D1C1B152109F00DFE214646
:1055200007480AF059FA4DE0588004405C80044076
:10553000D8530020B4530020C453002000D00340AF
:10554000300000209CFAFF1F705600208854002075
:10555000D48B01000082FF1F8CFAFF1FC45400206F
:105560008C4F0020944F0020BC5300208C5300200F
:105570000000404004FAFF1F0CFAFF1FC5B3A291C0
:10558000F0F1FFFF89888888E08B0100F48B01002F
:10559000008C0100008A01000C8C01001C8C0100B1
:1055A000B00A002010D0034088FAFF1F28550020C1
:1055B0003CFAFF1F94FAFF1FC85400201C5400201F
:1055C0002C5500200E480AF05FFA0E4A0E4B116867
:1055D0000E4853F8211000264FF0FF342E6004606F
:1055E00039B1116853F82120224443F82120BDE845
:1055F000F88FFEE7FDF7A2FAD8F80020F3E600BF27
:1056000030000020905500203855002050550020D3
:105610000020704700207047F8B5C34C01260546AE
:105620000671204600F03EFD052008F0FBFD297ABA
:10563000204600F0E3FD2046002100F08DFC2046CE
:10564000302100F089FC2046402100F085FC6021DB
:10565000204600F081FC204600F0A0FF297A204679
:1056600000F0CCFD2046002100F076FC20462621EB
:1056700000F072FC2046002100F06EFC6C212046F8
:1056800000F06AFC204600F089FF297A204600F0ED
:10569000B5FD2046002100F05FFC2046282100F0E7
:1056A0005BFC3146204600F057FCF221204600F01A
:1056B00053FC204600F072FF297A204600F09EFD40
:1056C0002046002100F048FC20462C2100F044FC3C
:1056D00020460F2100F040FC2221204600F03CFC37
:1056E000204600F05BFF297A204600F087FD204627
:1056F000002100F031FC20463C2100F02DFC20462A
:10570000442100F029FC4621204600F025FC2046DB
:1057100000F044FF40F23713EB80297A204600F076
:105720006DFD2046002100F017FC2046242100F0EA
:1057300013FC3146204600F00FFC3721204600F0D4
:105740000BFC204600F02AFF297A204600F056FD87
:105750002046002100F000FC2046302100F0FCFB38
:105760002046402100F0F8FBFF21204600F0F4FB2A
:10577000204600F013FF297A204600F03FFD204626
:10578000002100F0E9FB2046022100F0E5FB204665
:10579000002100F0E1FB7321204600F0DDFB2046F4
:1057A00000F0FCFE4FF4C87008F03CFD297A20465A
:1057B00000F024FD2046002100F0CEFB20462E21E3
:1057C00000F0CAFB20461D2100F0C6FB1D2120462B
:1057D00000F0C2FB204600F0E1FE297A204600F0EE
:1057E0000DFD2046002100F0B7FB2046042100F00B
:1057F000B3FB2046002100F0AFFB0421204600F05F
:10580000ABFB204600F0CAFE297A204600F0F6FCE9
:105810002046002100F0A0FB2046062100F09CFB62
:105820003146204600F098FB3021204600F094FBE2
:10583000204600F0B3FE297A204600F0DFFC204627
:10584000002100F089FB20460A2100F085FB20465C
:10585000002100F081FB1021204600F07DFB204656
:1058600000F09CFE297A204600F0C8FC204600216A
:1058700000F072FB20460E2100F06EFB2046002156
:1058800000F06AFB0021204600F066FB204600F095
:1058900085FE297A204600F0B1FC2046002100F068
:1058A0005BFB2046102100F057FB20463C2100F016
:1058B00053FB3C21204600F04FFB204600F06EFEDB
:1058C000297A204600F09AFC2046002100F044FB93
:1058D0002046222100F040FB20467F2100F03CFBC7
:1058E0007F21204600F038FB3627204600F056FE88
:1058F000297AEF80204600F081FC2046002100F04C
:105900002BFB2046242100F027FB2046002100F03D
:1059100023FB3946204600F01FFB204600F03EFEE8
:105920006E723046F8BD00BF705600200B462DE960
:10593000F0414549054618460BF05EFA43490BF025
:1059400053F90BF045FC044600284CD080281FD9A1
:105950002B79002426462BBB297A3D4800F04EFCCB
:1059600000213B4800F0F8FA2221394800F0F4FA0F
:105970003146374800F0F0FA2146354800F0ECFA9D
:10598000334800F00BFEB0FA80F04009BDE8F0812A
:10599000C0F180042B7944EA0424C4F30726E4B25E
:1059A000002BD9D0EF88297A294827F010074FF02B
:1059B0000008EF8085F8048000F020FC4146244870
:1059C00000F0CAFA2421224800F0C6FA390A204819
:1059D00000F0C2FA07F0EF011D4800F0BDFA1C48C4
:1059E00000F0DCFDB8E701232B71297A184800F09C
:1059F00005FC2146164800F0AFFA2221144800F0B9
:105A0000ABFA7F21124800F0A7FA7F21104800F07E
:105A1000A3FA0F4800F0C2FDEE88297A0C4846F040
:105A20001006B6B2EE8000F0E9FB2146084800F00F
:105A300093FA2421064800F08FFA310A044800F056
:105A40008BFAF1B299E700BF00000143EE7CFF3E04
:105A50007056002070B505460C4619B101293BD09F
:105A6000002070BD017A424800F0C8FB2146404842
:105A700000F072FA20213E4800F06EFA21463C48C0
:105A800000F06AFA55213A4800F066FA384800F00A
:105A900085FD06460028E3D1EC88297A344844F095
:105AA0000404A4B2EC8000F0A9FB3146304800F0B9
:105AB00053FA24212E4800F04FFA210A2C4800F016
:105AC0004BFAE1B22A4800F047FA294800F066FD97
:105AD000B0FA80F0400970BD017A254800F08EFBD5
