:1000000000800020BD010000C5E600007DE6000084
:100010007DE600007DE600007DE600007DE6000054
:100020007DE600007DE600007DE60000C5E60000FC
:10003000C5E600007DE60000010301004503010064
:10004000C5E60000C5E60000C5E60000C5E6000004
:10005000C5E60000C5E60000C5E60000C5E60000F4
:10006000C5E60000C5E60000C5E60000C5E60000E4
:10007000C5E60000C5E60000C5E60000C5E60000D4
:10008000C5E60000C5E60000C5E60000C5E60000C4
:10009000C5E60000C5E60000C5E60000C5E60000B4
:1000A000E9610000C5E60000C5E60000C5E6000005
:1000B000C5E60000C5E60000C5E60000C5E6000094
:1000C000C5E60000C5E60000C5E60000C5E6000084
:1000D000C5E60000C5E60000C5E60000C5E6000074
:1000E000C5E60000C5E60000C5E60000C5E6000064
:1000F000C5E60000C5E60000C5E60000C5E6000054
:10010000C5E60000C5E60000C5E60000C5E6000043
:10011000C5E60000C5E60000C5E60000C5E6000033
:10012000C5E60000C5E60000C5E60000C5E6000023
:10013000C5E60000C5E60000C5E60000C5E6000013
:10014000C5E60000C5E60000C5E60000C5E6000003
:10015000C5E60000C5E60000C5E60000C5E60000F3
:10016000C5E600001DEE0000C5E60000C5E6000083
:10017000C5E60000C5E60000C5E60000C5E60000D3
:10018000C5E60000C5E60000C5E60000C5E60000C3
:10019000C5E60000C5E60000C5E60000C5E60000B3
:1001A000C5E60000C5E60000C5E60000C5E60000A3
:1001B000C5E60000C5E600008D000100564B4CF27C
:1001C000205210B51A804DF628121A8000BF00BFC9
:1001D00000F0E8FB514B4FF010621A60504A9A60F1
:1001E000504ADA60504A136813F4807304D14F49BF
:1001F0000B604FF4A85313604D4B1A78110703D5C9
:100200001A7842F008021A704A4B4B492A221A7097
:100210004A4A4B4B8B4204D252F8040F43F8040B6A
:10022000F8E7484B484900228B4202D243F8042B9E
:10023000FAE74649464A002352F8230041F82300D2
:1002400001336F2BF8D1434B434A802103F8011B44
:100250009342FBD1414B3D4A1A60414B8A221A70AE
:10026000A3F5805324225A70A0221A709A7992071B
:10027000FCD59A79D406FCD43A4A937903F00C035E
:10028000082B384BF9D103221A7140225A719A79FE
:100290009006FCD5334A9179324B4906FBD5324A58
:1002A000324911600221516020221A709A7902F0BD
:1002B0000C020C2AFAD12E4B2E4A1A602E4B2F4AD2
:1002C0001A6000225A60072243F8042C2C4AC3F813
:1002D0000C2D62B60EF018FB144B1B68DA0705D51F
:1002E00028480EF0FFFA284B284A1A60284B1B7842
:1002F0005B0609D5244C254B22689A4204D121483B
:100300000EF0F0FA0023236011F028FE0EF0DEF963
:1003100010F0F8F9FEE700BF0E20054030800440E1
:10032000823F04000100002B10D0034014D0034092
:1003300002D0074000E00740700A0020E0A401005E
:1003400020F9FF1F700A00208058002000F4FF1FD2
:100350000000000000E400E05FE400E008ED00E0E1
:100360000050064000400640448004400000030165
:1003700004800440C010050014E000E0FF76010096
:100380000000202042844B601CE00340A5C3945A27
:1003900000F00740FFFFFFFFFFFFFFFFFFFFFFFF32
:1003A000FFFFFFFFFFFFFFFFFFFFFFFFFFFFFFFF5D
:1003B000FFFFFFFFFFFFFFFFFFFFFFFFFFFFFFFF4D
:1003C000FFFFFFFFFFFFFFFFFFFFFFFFFFFFFFFF3D
:1003D000FFFFFFFFFFFFFFFFFFFFFFFFFFFFFFFF2D
:1003E000FFFFFFFFFFFFFFFFFFFFFFFFFFFFFFFF1D
:1003F000FFFFFFFFFFFFFFFFFFFFFFFFFFFFFFFF0D
:10040000FFFFFFFFFFFFFFFFFFFFFFFFDEF9FFFF23
:1004100010B5054C237833B9044B13B10448AFF33E
:1004200000800123237010BD700A0020000000002E
:10043000DCA40100084B10B51BB108490848AFF314
:1004400000800848036803B910BD074B002BFBD0A0
:10045000BDE81040184700BF00000000740A0020EB
:10046000DCA40100700A002000000000002070479A
:10047000704700BFF8B55548554D564C297803785C
:100480002278DFF868E1544F544E120442EA032305
:10049000FF222A700270802022708EF800003870CF
:1004A000B2794F480B4312F00C0FC36002D1B379FD
:1004B000DC063DD4494A9379C3F38103032B40D032
:1004C000464B9A79C2F38102022A42D0434A937979
:1004D000C3F38103022B53D0404A9379C3F38103C2
:1004E000022B61D03D4A9379C3F38103012B51D094
:1004F0003A4A9379C3F38103012B5CD0374B9A7945
:1005000012F00C0F03D19A79D20600D49B79354DA5
:10051000354B2A7853F82240D4B1236820469B6893
:1005200098472B7804EB83046468002CF5D1F8BD60
:10053000B3799806EBD5294A9379C3F38103032B4A
:10054000BED19379D906BBD493799B06DFD4B7E7A4
:10055000F8BD9A79D706B9D49A799606B6D559785E
:1005600001F0020101F0FF020029AFD120211A7031
:100570001A461970937903F00C030C2BFAD1C6E7D5
:100580009379DD06A8D493799C06A5D4537898076F
:10059000BDD5A1E79379DF06AAD593799E06A7D4A6
:1005A00053789D07B3D4A3E79379D9069AD45378A7
:1005B0009B07ACD496E79379DC069FD59379980690
:1005C0009CD453789907A2D598E700BF06C007408E
:1005D00005C0074007C0074009C00740004006406B
:1005E00058580020B85600207856002008C0074010
:1005F00090F92410104B03604B1C06D0F0B40F4E42
:1006000056F82130984201D0F0BC70470C4F57F893
:10061000213033B18D0000245A1953685460002BE7
:10062000FAD1084C23780022013B237047F821209F
:1006300046F82120E8E700BF2492010098560020E8
:1006400078560020B956002038B590F924506B1C1C
:100650001BD00E4B0E4953F825400E4BEDB24FF018
:10066000FF320D701A6084B1AD0002E02C44646862
:100670005CB194F82530002BF8D0236820462C4438
:100680001B6898476468002CF3D138BD7856002069
:10069000B8560020B8F3FF1F704700BF027C02F07D
:1006A000080202F0FF0332B1C36A406A181A48BF59
:1006B0006FF0004070471846704700BF90F9241053
:1006C000104B03604B1C06D0F0B40F4E56F821308F
:1006D000984201D0F0BC70470C4F57F8213033B12D
:1006E0008D0000245A1953685460002BFAD1084C2D
:1006F00023780022013B237047F8212046F821206F
:10070000E8E700BF249201009856002078560020A8
:10071000B956002090F92410104B03604B1C06D0F2
:10072000F0B40F4E56F82130984201D0F0BC70471B
:100730000C4F57F8213033B18D0000245A195368FB
:100740005460002BFAD1084C23780022013B23701F
:1007500047F8212046F82120E8E700BF2492010055
:100760009856002078560020B9560020704700BFE8
:1007700010B5002104460FF0CFFBB0B1B4F8B4318E
:100780009BB2C3B1B4F8B031B4F8B2219BB201331B
:10079000632BC8BF002392B2934207D09A1D04EB8B
:1007A00082029BB25060A4F8B03110BDD4F8B831C9
:1007B0000133C4F8B831BDE810400FF069BB00BF89
:1007C000103008F0DDBD00BF00B583B002AB0122E0
:1007D00003F8011D1030194608F0D2FD03B05DF892
:1007E00004FB00BF10B5044B044640F8103B0AF070
:1007F00069F8204610BD00BFDC910100103008F000
:100800007BBC00BF103008F05FBD00BF00B583B0F7
:1008100001220DF10701103008F0A4FB01280CBFE4
:100820009DF807004FF0FF3003B05DF804FB00BFF8
:1008300010B504460FF0B0FB204610BD836C13B119
:10084000184608F041BDC06C08B106F075BF70478E
:1008500000B5836C83B063B1184601220DF1070126
:1008600008F080FB01280CD19DF8070003B05DF86B
:1008700004FBC06C28B101220DF1070106F07AFAE1
:10088000F0E74FF0FF30F1E7836C13B1184608F042
:1008900033BCC06C08B106F03DBB4FF0FF30704771
:1008A000826C62B1137803F0080303F0FF0003B316
:1008B000D3695069181A48BF6FF000407047C16C87
:1008C000C1B191F8313003F0080303F0FF0083B1A8
:1008D000D1E90423D1E90001101A30B463EB01011E
:1008E00000256FF000448D4208BF844200D22046AC
:1008F00030BC70470846704710B5044612F000FA45
:1009000001462046BDE810400FF0EAB8836C13B1F1
:10091000184608F035BDC06C08B107F031B9704712
:1009200000B5836C83B08DF8071043B118460122DF
:100930000DF1070108F024FD03B05DF804FBC06C65
:100940000028F9D001220DF1070107F019F903B0D1
:100950005DF804FB002310B4104C41720261046086
:100960000372C36041B1194600E0026942F82310E6
:10097000427A01339A42F8DC094B1A680AB90BE053
:100980001A465369002BFBD15061002343618380D9
:10099000C380837210BC70471860F6E7AC91010009
:1009A000CC570020464A474B102010801B781B076D
:1009B00034D5F0B5444E454D454C31782B782278EE
:1009C000DFF82CE1434F824042EA03230B43FF222E
:1009D000802132702A7022708EF800103970D90789
:1009E0003D4A14D51A2393603C4F3D4E3D4D3E4C3D
:1009F0003E49107900233B7053709370D370D360DD
:100A0000337013712B70237013700870F0BD1F07C3
:100A100005D4DE0606D504239360E5E7704721235D
:100A20009360E1E79D0604D45C0604D51623936029
:100A3000DAE79060D8E7180602D509239360D3E778
:100A4000D90502D50A239360CEE79F0502D50D2371
:100A50009360C9E75E0502D50B239360C4E71D05CB
:100A600002D51E239360BFE7DC0402D50223936006
:100A7000BAE7980402D507239360B5E7590402D575
:100A800006239360B0E71F0402D515239360ABE7FC
:100A9000DE0302D524239360A6E79D0302D522231B
:100AA0009360A1E7DC0202D5252393609CE718033D
:100AB000F5D45903F3D49B0244BF2323936093E7F7
:100AC0000020054002D0074005C0074006C007408F
:100AD00007C0074009C007405858002000C0074021
:100AE00001C0074002C0074003C0074004C00740E0
:100AF00008C00740002976D02DE9F04F0C46910040
:100B0000631883B05D68002D57D06B185E68002EA7
:100B100050D073185F68002F49D07B18D3F8048039
:100B2000B8F1000F3CD008EB0103D3F80490B9F101
:100B3000000F32D009EB0103D3F804A0BAF1000F83
:100B400027D00AEB0103D3F804B0BBF1000F18D093
:100B50000BEB01035B6863B1194401934968FFF72C
:100B6000C9FF019B93F825201AB11A6818465368EB
:100B700098479BF8253023B1DBF8003058465B6876
:100B800098479AF8253023B1DAF8003050465B6870
:100B9000984799F82530002B35D198F8253063BB5C
:100BA00097F825301BB13B6838465B68984796F844
:100BB0002530CBB995F8253063B994F8253013B9B1
:100BC00003B0BDE8F08F23685B68204603B0BDE842
:100BD000F04F18472B6828465B68984794F82530F3
:100BE000002BEDD0EFE77047336830465B689847DD
:100BF00095F82530002BE0D0ECE7D8F800304046DF
:100C00005B689847CCE7D9F8003048465B6898475E
:100C1000C3E700BF90F92420531C26D01B4B2DE9BD
:100C2000F04153F82240D2B2ECB19300E1184D6884
:100C3000B5B1E9184E6866B1F1184F6837B13B4459
:100C40005968FFF757FF97F82530A3B996F8253074
:100C500063B995F825301BB12B6828465B68984727
:100C600094F8253063B9BDE8F081704733683046A9
:100C70005B689847EDE73B6838465B689847E5E76F
:100C8000236820465B68BDE8F0411847785600208D
:100C900008B50C4B0C491A680C48022A08BF0C4ACC
:100CA0004FF00003A1F8B43108BFA2F8B431094AEB
:100CB000094B12881A8009F005FE6420BDE808403F
:100CC0000DF084BF0CFAFF1F844F0020CC5400208D
:100CD00040510020F8570020D0570020264B1B68B9
:100CE0000F2B0CD8DFE803F00C1014181C2024285C
:100CF0002C3034383C404408204B214A1A6070475D
:100D00001E4B204A1A6070471C4B1F4A1A607047DE
:100D10001A4B1E4A1A607047184B1D4A1A607047DA
:100D2000164B1C4A1A607047144B1B4A1A607047D6
:100D3000124B1A4A1A607047104B194A1A607047D2
:100D40000E4B184A1A6070470C4B174A1A607047CE
:100D50000A4B164A1A607047084B154A1A607047CA
:100D6000064B144A1A607047044B134A1A607047C6
:100D7000024B124A1A60704700FAFF1FA454002069
:100D8000BD549341103377C0993918C0BE0D68BF68
:100D9000CE71153F8D090340CCC9624009A7A3401D
:100DA0007DDBD140C416014154FC1741D0E83041ED
:100DB000195546419FAB5F41A04176415E2E864169
:100DC000F8B5012114200DF0F3FB1C481C4C1D4DFF
:100DD00009F078FD002107200DF08AFE00210C208B
:100DE0000DF086FE00210E200DF082FE0521072069
:100DF0000DF0B0FE05210C200DF0ACFE05210E20FB
:100E00000DF0A8FE04F1100755F8040B0021C0B244
:100E10000DF06EFE264654F8040B0021C0B20DF012
:100E200067FE307805210DF095FEBC42ECD10A201A
:100E30000DF0CCFE044B054A1A60F8BDCC540020DE
:100E4000BC530020A85300200CED00E00400FA057C
:100E50002DE9F047DFF8A892D9F80030012B00F017
:100E60008E80022B01D0BDE8F0879F4CB4F8B031E2
:100E7000B4F8B22199B293B2994238BF6431CB1A17
:100E80001F2BF0DD994DDFF87C92D5F8AC01DFF82F
:100E9000588209F580470026D4F8ACA10021BAF1A8
:100EA000000F51D00022B0B302F5807C4B4631F9DF
:100EB00002EB23F804EC32F902EB23F802EC624572
:100EC00003F10403F3D1BAF1000F06D050460EF03F
:100ED000DFFFD5F8AC01C4F8AC6118B10EF0D8FF53
:100EE000C5F8AC6109F500794F454FF00000D3D14A
:100EF0007F4B986C002800F0DD804FF480427D49E4
:100F000008F03EFA013000F0DF807B4A136820339E
:100F10001360BDE8F087B5F8B231B5F8B0219BB2E7
:100F200092B2934200F0DE800133632B86BF02460B
:100F300013469AB2063305EB83035868C5F8AC0133
:100F4000A5F8B221021DAFE7B8F8B231B8F8B02168
:100F50009BB292B2934200F0C3800133632B86BFF1
:100F6000524613469AB2063304EB8303D3F804A027
:100F7000C4F8ACA1A4F8B2210AF1040192E75A4CDA
:100F8000B4F8B031B4F8B22199B293B2994238BFF3
:100F90006431CB1A3F2B7FF766AF584DD4F8ACA124
:100FA000DFF8448105F58047002637E04FF4807272
:100FB00000210CF0A9FF50460EF06AFFC4F8AC61A6
:100FC000B4F8B231B4F8B0219BB292B293424CD093
:100FD0000133632B86BF4FF0000E73461FFA83FE6A
:100FE000063304EB83034FF48072D3F804A0C4F8F3
:100FF000ACA10AF104012846A4F8B2E10CF084FF88
:10100000BAF1000F04D050460EF042FFC8F8AC61B0
:1010100005F50075BD424FF0000A32D0A5F580708D
:10102000BAF1000FC2D1B4F8B231B4F8B0219BB21A
:1010300092B293424ED00133632B86BFD64673469D
:101040001FFA83FE063304EB83034FF48072D3F858
:1010500004A0C4F8ACA10AF10401A4F8B2E10CF0B8
:1010600053FFBAF1000FABD0A5E728464FF48072CA
:10107000002105F500750CF047FFBD424FF0000A56
:10108000CCD11B4B986C28B14FF48042194908F021
:1010900077F906E0D86C30B14FF48042154906F07C
:1010A0006FFD013013D01449D9F800300A6820329E
:1010B0000A60D6E6D86C00283FF427AF4FF4804290
:1010C0000C4906F05DFD1DE7FFF77AFE1DE7FFF70F
:1010D00077FEE8E751464FF480720CF015FF6FE79A
:1010E0005146DFE60246DFE6844F002040510020F3
:1010F000BC540020C40A0020804F0020C40B0020F4
:101100000CFAFF1FC80A00202DE9F04F384FDFF816
:10111000F4A03B685AF823608DB016B1013E4AF83E
:101120002360DFF8E4B0DFF8E490DFF8E480002E1D
:1011300055D106AC09AD19F8230000210DF0D8FCFB
:101140003B682C4901221344042B3B600A7049D0B0
:1011500019F8230001210DF0CBFC32200DF036FDF3
:101160003B68254A8DF80D6012F823308DF80C305D
:10117000CDF81080059603AA07CA84E807008DF809
:1011800018308DF81960CDF81C80089694E8070097
:1011900085E8070019490B9B009395E80C00A1F125
:1011A000140009F0A9FC9BF89534154ACBF8842467
:1011B00043B13B6800224AF8232001333B605AF8D0
:1011C0002360B4E70E49A1F5916009F0E1FB002826
:1011D000EFD0074B1B685AF82320002AABD00DB084
:1011E000BDE8F08FFFF7ECFD014B1B68B0E700BFD7
:1011F00070550020B0540020BC530020644F0020E4
:10120000504F002018550020C84A0020A853002045
:1012100080F0FA0210B582B0044611F071FD00B200
:10122000012816DDB4F9003044F25242934233D023
:1012300012DD44F2537293421DD044F6521293428F
:1012400007D101AAE01C1C4911F012FD1B4B019AA9
:101250001A60012002B010BD44F24E429342F8D110
:1012600001AAE01C144911F003FD154B019A1A6004
:10127000012002B010BDE01C01AA0F4911F0F8FCDA
:10128000019B0F2B13D90F4B042119600F200DF078
:101290008FF9012002B010BD01AAE01C064911F02F
:1012A000E7FC094B019A1A60012002B010BD054A03
:1012B000D9B21360EAE700BF3C92010078FAFF1F41
:1012C000C00A002000FAFF1F70FAFF1F2DE9F0434B
:1012D0006D4F6E4BD7F8785497B04FF47A720993EC
:1012E00000238DF828308DF830308DF834308DF8AB
:1012F00035308DF836300B92002D5AD005F23C4631
:10130000304607F07BFB2946304607F00BFE0DA860
:1013100000225F4907F0F6FD9DF83450002D56D0AD
:1013200000252E468DF804604FF000094FF0FF08AD
:1013300001220DF103010DA807F014FE09F10103CC
:1013400016AA01284A441BB224D01D2B02F8548C43
:1013500005DC9946ECE71D2B01DC0A2AF9D1013B9B
:101360009BB216AA1A4402F8546C9DF804202F2A46
:1013700004D0012B02D901A8FFF74CFF9DF83430AF
:101380001B0711D40DA807F039FB9DBB012017B036
:10139000BDE8F0839DF803200D2A08BF4B4664D1B9
:1013A0001D2BDCDC9946C3E7149A129B9A42B9D1F3
:1013B000E8E7D7F87C54002DA9D005F588663046BB
:1013C00005F05CFC2946304605F062FC9FE71421DD
:1013D00030480EF085FB30480FF02AF80D222F49D7
:1013E0002F480EF0B7FF2E480FF022F8284617B00E
:1013F000BDE8F0830B212B480EF072FB00230A227C
:10140000214625480FF03AF823480FF011F8D7F895
:1014100078541D4BDDB105F23C46304607F0EEFA3C
:101420002946304607F07EFD44F2022218490DA8F5
:1014300007F068FD21460DA807F094FE02221A4924
:101440000DA807F09DFF0DA807F0D8FA9EE7D3F886
:101450007C54002DE8D005F58866304605F00EFC7A
:101460002946304605F014FCDEE716AB03EB090114
:10147000542A09F1010301F8542C1BB27FF46BAF1D
:10148000129C0546013C8BE7C84A0020B891010038
:10149000409201005C9201000C0000207492010057
:1014A0006C5400204C920100589201002DE9F0414B
:1014B000044604200D4616460DF03EFB80460320F0
:1014C0000DF03AFB0746B8F1000F2AD1DFF89C80F7
:1014D000244AD8F800300121132B117039DD013373
:1014E000642BC8F800303ADDC82BD4BF05343C3437
:1014F00067B91D4F1B4A3B680121132B117022DD78
:101500003C2C16DC01233B60013C02E0164B002220
:101510001A60AC4209DBB442C8BF2C462046BDE885
:10152000F081124B00221A60E2E734462046BDE803
:10153000F0813B680133642B3B60E5DDC82BD4BFF1
:10154000053C3C3CE5E7C8200DF040FB3C2CD9DDD8
:10155000EFE7C8200DF03AFBD8F80030BFE70134C0
:10156000C6E700BF744F002028550020B854002063
:1015700010B5094C20460CF0E5F8204601210BF08F
:1015800007FB204602210BF0FDFA002220461146FF
:10159000BDE810400BF0F2BA6C54002038B5054697
:1015A0000AF066FB1E4C014620460EF0E9FE2D2097
:1015B0000EF06AFB28460AF037FB014620460EF083
:1015C000DFFE2D200EF060FB28460AF01BFB0146D3
:1015D00020460EF0D5FE012112480EF081FA284671
:1015E0000AF034FB014620460EF0CAFE3A200EF007
:1015F0004BFB28460AF0E2FA014620460EF0C0FEF8
:101600003A200EF041FB28460AF0EAFA014620464D
:101610000EF0B6FE2046BDE838400EF009BF00BF10
:101620000C0000206C94010010B500200CF06AFF43
:10163000284C207001200CF065FF607002200CF037
:1016400061FFA07003200CF05DFF234BE070226867
:101650001A6004200CF056FF207005200CF052FF99
:10166000607006200CF04EFFA07007200CF04AFFBF
:101670001A4BE07022681A6008200CF043FF184BE8
:10168000187009200CF03EFF164B18700A200CF061
:1016900039FF154B18700B200CF034FF134B1870EA
:1016A0000C200CF02FFF124B18600D200CF02AFFBD
:1016B000104B18600E200CF025FF0F4B18700F20F8
:1016C0000CF020FF0D4B186010200CF01BFF0C4B92
:1016D000186010BD9053002070FAFF1F78FAFF1FAA
:1016E000BC0A00206C550020045400207C4F0020D0
:1016F000A854002064FAFF1F6CFAFF1F00FAFF1FB6
:101700000CFAFF1F38B50A4C0B460546C9B22360D8
:101710000CF04EFF6178681C0CF04AFFA178A81C01
:101720000CF046FFE178E81CBDE838400CF040BF03
:10173000905300202B4B10B519682B4C00202160D2
:10174000C9B20CF035FF617801200CF031FFA178AF
:1017500002200CF02DFFE17803200CF029FF234B31
:10176000196821600420C9B20CF022FF61780520BD
:101770000CF01EFFA17806200CF01AFFE17807207C
:101780000CF016FF1A4B082019780CF011FF194BBA
:10179000092019780CF00CFF174B0A2019780CF06F
:1017A00007FF164B0B2019780CF002FF144B0C208E
:1017B00019780CF0FDFE134B0D2019780CF0F8FE93
:1017C000114B0E2019780CF0F3FE104B0F201978F6
:1017D0000CF0EEFE0E4B10201978BDE810400CF016
:1017E000E7BE00BF70FAFF1F9053002078FAFF1F7A
:1017F000BC0A00206C550020045400207C4F0020BF
:10180000A854002064FAFF1F6CFAFF1F00FAFF1FA4
:101810000CFAFF1F2DE9F04F8DB0102907910690AB
:1018200000F0BF80202900F0B0800024631C18461F
:101830001D4608930FF05CFFE4B244F0E0630990AA
:10184000002128460A9344F08E430B930FF06AFF61
:1018500001465A4810F058F8054607980FF048FF1F
:1018600001460FF095FE044606980FF041FF014631
:1018700020460FF095FF0146284610F045F84FF03E
:1018800001084FF07E550746C1464FF0010A4FF060
:10189000000B50460FF030FF39460FF081FF044631
:1018A00010F044F90FF028FF014620460FF06EFEBD
:1018B0002946064610F012F94FF0874148B12046FC
:1018C00010F00CF928B1204610F08EF9354680460C
:1018D000D1461AF1010A4BF1000BBBF1000F08BF12
:1018E000BAF1400FD5D109F1FF34089B079E05934B
:1018F00020460296CDF81080CDF80C900FF0F8FE3F
:101900004FF07E510FF044FE2D490FF049FF054680
:1019100040460FF0EDFE014628460FF0F5FF4FF070
:101920007C510FF03DFF09990FF0EEFF0546700066
:101930000FF0E2FE014628460FF0E6FF10F0F6F841
:10194000204B069A019000921F492048204E214DBD
:101950001A460EF085FD204920480F68220308F141
:10196000FF3302F47F22C3F30B03134327F010422B
:101970000A6033600A9B2B600B9B03600B6843F08B
:1019800010430B600DB0BDE8F08F154B0B9303F1C6
:1019900040430A934FF0804309930223114D08936B
:1019A0005BE7114B0B9303F140430A934FF08143E4
:1019B000099304230D4D08934FE700BF001B374CDC
:1019C000001BB74C00D8B805989201000C0000200D
:1019D00004F1024008F0024080F0024088F002402A
:1019E00001000047001BB74B03000047001B374BAB
:1019F0002DE9F04F0546DFF87C82974E974F98F817
:101A000000E02E60FF2085F82400DFF86C92387823
:101A100059F820C00023BEF1060F8DB00C4685F8A2
:101A2000253085F826309CBF88F800309E46BCF1F2
:101A3000000F00F0A8808C455BD06346810001E078
:101A40009C4256D00B445B68002BF9D1634603EBF4
:101A5000010ADAF80430002BF9D105EB010BCAF8C2
:101A60000440BEF1060F4FF0FF044FFA80FACBF8A6
:101A700004308DF82C4002968DF82D308DF82E30E4
:101A800085F824A0644605D8002388F80030002C8F
:101A900000F0A980A24226D0234601E0934222D042
:101AA0000B445B68002BF9D104EB010CDCF804401B
:101AB000002CF9D1CCF804200CAB19440024431CB1
:101AC000BAF1FF3F41F8244C3B708DF82CA00296F0
:101AD00005D0634951F82A3002AA934272D02846B1
:101AE0000DB0BDE8F08F0130387028460DB0BDE86C
:101AF000F08F0023FF21BEF1060F02968DF82C1007
:101B00008DF82D308DF82E3001D888F800309445AE
:101B1000E9D06346810001E09A42E4D00B445B685F
:101B2000002BF9D18C44DCF804402CB1A4468C4441
:101B3000DCF80440002CF9D10CAB19444FFA80FEBC
:101B4000431CBEF1FF3FCCF804203B7041F8244C0D
:101B500002968DF82CE0C2D0414951F82E3002AAED
:101B60009342BCD159F82E304FEA8E0623B19A1910
:101B700053685460002BFAD10023387049F82E3096
:101B800041F82E30ABE7B0B38100DFF8D4A049F8BC
:101B9000204005EB010C00234AF82050BEF1060F4F
:101BA000CCF804304FFA80FA4FF0FF0C02968DF813
:101BB0002D308DF82E3085F824A08DF82CC07FF6BE
:101BC00063AF64E759F82A304FEA8A0623B19A19BD
:101BD00053685460002BFAD10023387049F82A303A
:101BE00041F82A307BE7F0B11D4B49F8202002AACA
:101BF00043F8202060E71B491B480B68019243F023
:101C000080630B600368194923F08043036015204B
:101C10000CF096FD164B98F800E0019A4FF4001175
:101C200019603878B0E70F4C0F482368019243F0F1
:101C30008063236003680D4923F08043036015200F
:101C40000CF07EFD0A4B019A4FF4001119603878B0
:101C50004FFA80FA8100C7E724920100B9560020AC
:101C60009856002004700440007004407504000081
:101C700000E100E0BCF3FF1F785600202DE9F0479B
:101C80000CF0F8FB4FF0FF316748684D0BF046FD54
:101C90006749684B0A682B6000236B722B612B72BB
:101CA000EB600AB9BDE01A465369002BFBD15561C0
:101CB0000024614E614F624B6C61AC80EC80AC7271
:101CC0005A482B60DFF8C891DFF8C8A1DFF8C88157
:101CD00004F078F806F1180230460121FEF73AFECA
:101CE00007F1180201213846A6F8B041C6F8AC4108
:101CF000A6F8B241C6F8B841A6F8B441C6F800A0AB
:101D0000FEF728FE4846A7F8B04189E86000A7F82A
:101D1000B241C7F800A0C7F8AC41C7F8B841A7F86E
:101D2000B44189F8084089F80940C9F80C4089F89D
:101D300010400EF0FDF8434A4349444EDFF85CA1E1
:101D400048460EF019FF4FF00109404688E8A00010
:101D500088F80940C8F80C4088F8104088F80890C6
:101D60000EF0E6F83849374A394D40460EF004FF88
:101D7000384A394B106A394A1A600FF0BDFCFF2708
:101D8000CAF80000364B86F8254086F824702D4AA4
:101D9000344974633046B46386F83C4086F8269034
:101DA00033600EF0E9FE304B85F8247085F825404D
:101DB000244A2E492B60284685F8269085F827402E
:101DC00085F828400EF0D8FE324629462848294D8D
:101DD000FFF70EFE1B4A284925480EF0CDFE274B83
:101DE000184AC3F878442826C3F87C4483F89844FA
:101DF00083F89564C3F8A0542149224D18460EF08B
:101E0000BBFE214B0F4A1C714FF47A761C739C6405
:101E1000DC649E601D601D491846BDE8F0470EF069
:101E2000ABBE0D6044E700BF6C540020D4530020CB
:101E3000CC570020AC910100844F0020405100207D
:101E4000D4970100FCF9FF1F31080000285300203F
:101E50003855002018FAFF1F84530020B89701005E
:101E600010990100BD06000024990100150700002B
:101E7000940A002001100138F1050000C84A002032
:101E80006D07000000920100BC540020E50700002F
:101E9000FC52002038920100105300200C55002005
:101EA0002DE9F84F424C434FDFF80C810A9E0B9D01
:101EB00081468A462046396893461F4604F0D8FB7F
:101EC0002046002104F0C4F888FB0B314FEAEB7385
:101ED000C3EBA10101EB8102ABEB420B0BF00F0B4B
:101EE0004BEA0111C9B2204604F0B2F888FB0A316E
:101EF0004FEAEA73C3EBA10101EB8103AAEB430AAA
:101F00000AF00F0A4AEA0111C9B2204604F0A0F80B
:101F100088FB09314FEAE973C3EBA10303EB8301AB
:101F2000A9EB41011B0103F0300301F00F0119433C
:101F3000204604F08DF82046012104F089F888FB42
:101F40000731FB17C3EBA10101EB8103A7EB4307AB
:101F500007F00F0747EA0111C9B2204604F078F8EC
:101F600088FB0631F317C3EBA10101EB8103A6EB5C
:101F7000430606F00F0646EA0111C9B2204604F0F6
:101F800067F888FB0538E917C1EBA80808EB88015A
:101F9000A5EB410505F00F0545EA08112046C9B239
:101FA00004F056F82046BDE8F84F04F073BB00BFBC
:101FB00050560020CCFAFF1F6766666670B5104C5D
:101FC00006460D4620460A2104F052FBC6F30721BF
:101FD000204604F03DF8F1B2204604F039F8C5F38C
:101FE0000721204604F034F8E9B2204604F030F826
:101FF000204604F04FFBB0FA80F0400970BD00BFEE
:1020000050560020F0B54B4C4B48216885B004F089
:102010002FFB0021484804F01BF80021464804F03B
:102020007BF9216844480023072204F01BFB424847
:1020300004F02EF80DF1FF36002504E004F032F82C
:1020400006F8010F01353C4804F022F804463A48EE
:10205000002CF3D104F01EFB072D02D0204605B062
:10206000F0BD9DF800509DF801409DF804009DF8DA
:1020700005109DF802209DF80630304FDFF8D4C0DF
:102080002E1106EB860605F00F0505EB4606251119
:1020900005EB850504F00F0404EB4505041104EB82
:1020A000840400F00F0000EB4404081100EB8000F2
:1020B00001F00F0101EB400EF6B2C2F301113E70C8
:1020C000181101EB81011E4E02F00F0202EB4102DA
:1020D00000EB8000EDB203F00F038CF8005003EB2F
:1020E00040033270174D184A18485FFA8EF1E4B277
:1020F000DBB22C700170137097F800E09CF8007050
:1021000036782C78017813788DF80C401E3302A8AD
:102110008DF80E308DF808E08DF809708DF80A60A2
:102120008DF80D1009F0B8FD094B01241860204608
:1021300005B0F0BDCCFAFF1F5056002024530020FC
:1021400014550020A455002025530020754F002071
:10215000704F0020945300202DE9F04383B00446D3
:10216000FFF750FF00283BD024B9224B186803B07A
:10217000BDE8F0831F4C206809F068FD80462068A8
:1021800009F01CFD0546206809F02AFD81462068FB
:1021900009F038FD0646206809F046FD074620682C
:1021A00009F066FD02AB00F14E0203F8089D1846E7
:1021B0008DF806208DF802808DF805708DF804608A
:1021C0008DF8015009F068FD0CF08CFBFFF71AFF49
:1021D00058B120680246084B1A6003B0BDE8F0838E
:1021E0000CF07AFB03B0BDE8F0830CF075FB0246FF
:1021F0002068F0E7704F0020C44A00202DE9F04F1E
:1022000001209BB0FFF7A8FFAF4FB04C386009F03A
:102210000BFD2368984200F055813868AC4E09F0F8
:1022200003FD2060386809F023FD2368A9490246B0
:10223000A94810F0F7FCA94809F012F9D6F878443B
:10224000002C00F0BD8004F23C4101230024A24A8E
:102250008DF830400CA88DF831408DF8324006F0F2
:1022600021FD002128200CF075FC002508242820E1
:102270000CF082F80FF040FA4FF06A510FF090FA2C
:10228000014628460FF084F9013C0546EFD19449F8
:102290000FF086FA4FF078510FF082FA0446D6F824
:1022A00078048B4B002800F0F3808B4908F0E4FAA7
:1022B000386809F0DDFC8046386809F0B5FC8146D5
:1022C000386809F09FFC0546386809F0BFFC824673
:1022D000386809F073FC8346386809F081FC814B4B
:1022E0000A93074620460EF0B1FDCDE908017E4B6A
:1022F0007E4C18680EF0AAFD009530CC4B46CDE917
:1023000006010397CDF808B0CDF804A04246059524
:1023100004947749774810F085FCD6F878046C4B24
:10232000002800F0BE806C4908F0A6FA7148724D92
:1023300010F0E6FC01466F480DF0D2FB6F480EF03E
:1023400077F81CE0644908F097FA296829B140F64B
:102350000123684A6A4808F0C9FA664810F0D0FCC0
:10236000014664480DF0BCFB64480EF061F80A2099
:102370000CF02CFC2368B3F57A7F00F38680296883
:1023800041B1604C5B4A04F1100040F6012308F0B3
:10239000ADFA40BB5C4C5D492368564801331A4690
:1023A000236010F03FFCD6F87804494B0028C9D1CF
:1023B000D3F87C040028C8D0474906F0F7F9C4E7F1
:1023C000D6F87C1400293FF44CAF01F58861012355
:1023D000414A8DF861400CA88DF862408DF8634049
:1023E00005F0ACFA3DE74A484A49D0F800A04A4D0A
:1023F0004A4A4B4B4B4EDFF83881D6F8009003C960
:10240000286092E80300A86093E8030010270123E6
:102410001FFA89F6AB82E860EE8250462F610FF01A
:10242000ABFB5146A86150460FF0B2F882464846D1
:102430000FF062F9014650460FF0B2F90FF09CFB25
:10244000394AD8F80030E86192E803005B02A26CD8
:102450006F84760003F124012E846862AB626960A8
:1024600042B3104629462C2206F08AFF09212F4844
:102470000DF036FBD8F8001020480DF081FF1F4802
:102480000DF0D6FF1BB0BDE8F08FFEF799FC76E7A4
:10249000D3F87C0400283FF40BAF0F4906F086F90F
:1024A00006E7D3F87C0400283FF440AF0A4906F061
:1024B0007DF93BE7E06C0028D8D029462C2205F0B6
:1024C0005FFBD3E7024ECCE6704F00203055002072
:1024D000C84A0020B4920100EC530020F52500000A
:1024E000D7A3E84010FAFF1FA454002098530020FF
:1024F000C0920100085400206C5600200C000020FF
:10250000CC540020BC5400207455002028930100B6
:102510000C5500200893010078550020109301000D
:10252000189301000CFAFF1F20930100FC92010098
:102530007053002038B52B4DFFF760FE2A4BD5F8BD
:10254000AC0100241C6018B10DF0A2FCC5F8AC4130
:10255000B5F8B241B5F8B031A4B29BB29C420ED0EE
:102560000134642C28BF0024A31D05EB83035868A5
:102570000DF08EFCB5F8B0319BB2A342F0D11B4BED
:102580001B68A4B20122022BA5F8B241A5F8B42120
:1025900000D038BD164DD5F8AC0120B10DF078FC57
:1025A0000023C5F8AC31B5F8B241B5F8B031A4B2EA
:1025B0009BB2A3420ED00134642C28BF0024A31D7B
:1025C00005EB830358680DF063FCB5F8B0319BB29E
:1025D000A342F0D1A4B20123A5F8B241A5F8B431C9
:1025E00038BD00BF844F0020804F00200CFAFF1F31
:1025F000405100202DE9F041804601200E46FFF7B2
:10260000ABFD244C206009F033FB0546206809F03F
:102610000BFB0746206809F0F5FAA5F2BC739BB2E4
:102620007F2B02D8FAB20C2A28D90023A8F8003050
:10263000206809F00BFB0746206809F0BFFA054641
:10264000206809F0CDFAFBB2172B13D8EBB23B2B65
:1026500010D8C3B23B2B0DD8FB026D0103F4FF234E
:1026600005F4FF552B43C0F3460003439BB2338070
:10267000BDE8F08100233380BDE8F081C0B21F289F
:10268000D3D87F0107F4FF57384340EA43239BB276
:10269000CCE700BF704F00202DE9F04F83B0FFF76B
:1026A000B1FC002800F0D081BB4B1A68BB481A600F
:1026B00001210AF067FA0121B848B94DDFF84083DB
:1026C000B84FB94CB94E0AF063FA26220021B3483C
:1026D0000AF054FA0322B649B0480DF03BFE262218
:1026E0001921AE480AF04AFA0322B249AB480DF06C
:1026F00031FE26223221A9480AF040FA0322AE49CF
:10270000A6480DF027FE26224B21A4480AF036FAEF
:102710000222AA49A1480DF01DFE2E2200219F4849
:102720000AF02CFA29689D480DF02AFE2E22192164
:102730009A480AF023FAD8F8001098480DF020FEC5
:102740002E22322195480AF019FA3B6854F82300EA
:102750000EF0D2FF9A490FF0D7F80EF077FB0B4638
:10276000024698498D480DF07BFE2E224B218B4866
:102770000AF004FA944B18680EF068FB02460B4608
:10278000864890490DF06CFE904B3A681B682D68A6
:1027900054F822008E4C8F4954F822700F605B0071
:1027A00005FB03F300FB03F000F500402C300EF0B6
:1027B0009FFF83490FF0A8F881490FF0A5F833680F
:1027C000012B824600F045814FF07E5B28460EF0DB
:1027D00093FF59460EF0E4FF8346D8F80000DFF877
:1027E00024927D4C28440EF087FF014658460FF096
:1027F0008BF87A4B804618780EF07EFF784B19687C
:102800000EF0CEFF414683464FF07E500EF0BEFEE6
:10281000744B19680EF0C4FF4146019038460EF023
:10282000BFFF019B014618460EF0B2FE0146584616
:102830000FF06AF86C490EF0B3FF0FF09DF90746F0
:10284000D9F80000002323606360A360E3600028E0
:1028500000F09F800EF04CFF51460FF055F80EF03F
:10286000F5FA0EF001F90EF01DFE0346236000FBA1
:1028700005F00EF03DFF00210EF08AFE8346D9F8E8
:102880000400002800F0DE800EF032FF51460FF009
:102890003BF80EF0DBFA0EF0E7F80EF003FE03460D
:1028A000636000FB05F00EF023FF59460EF070FE4A
:1028B0008346D9F80800002800F0C2800EF018FF07
:1028C00051460FF021F80EF0C1FA0EF0CDF80EF0DF
:1028D000E9FD0346A36005FB00F00EF009FF594631
:1028E0000EF056FE8346D9F80C00002800F0A680B2
:1028F0000EF0FEFE51460FF007F80EF0A7FA0EF0AC
:10290000B3F80EF0CFFD0346E36005FB00F00EF0D8
:10291000EFFE014658460EF03BFE41460EF0F4FF36
:10292000044638460EF0E4FE014620460FF0F4F867
:1029300026225C21002867D018480AF01FF90522DA
:102940002A4916480DF006FD5C2114482E220AF093
:1029500015F92749114881FB07313944FF17C7EBA7
:1029600021410DF00DFD012222490C480DF0F2FC31
:102970007321372209480AF001F932680748012A11
:102980000EBF1D491D49012203B0BDE8F04F0DF0F7
:10299000E1BC00206FE700BF704F00206C540020A6
:1029A00070FAFF1F64FAFF1F18FAFF1FA8540020D7
:1029B00034930100389301003C93010040930100DF
:1029C00000007A4444930100A45400200CFAFF1F35
:1029D0007CFAFF1FD0FAFF1F185500206CFAFF1F6A
:1029E00074FAFF1F08FAFF1F000061454C930100B5
:1029F00007452EC2549301006093010064930100C7
:102A000078FAFF1F7453002025480AF0B7F8052212
:102A1000244923480DF09EFC2E225C2120480AF018
:102A2000ADF820460FF082F81F49034681FB0321D1
:102A30001944DB171A48C3EB214192E7002169E7EB
:102A400000204CE7002030E70BF046FF174B024612
:102A50002CE6174A174B10781B78834286BFC3F1C8
:102A60001803C018C01A0EF047FE134A134B8146D4
:102A70001B781078834286BFC3F13C03C018C01A8C
:102A80000EF03AFE0E49044648460EF089FE2146F5
:102A90000EF07EFD0B490EF037FF834696E600BF31
:102AA0006C5400205893010007452EC2704F00203F
:102AB00004540020BC0A00207C4F00206C550020EC
:102AC000000070420000B4442DE9F043554A564BD3
:102AD000DFF87091DFF87081544F117898F800405A
:102AE0001A7899F80060386883B03C2313FB0646D7
:102AF00013FB012409F0AAF80546386809F05EF8CE
:102B0000C5EB051500EB8505386809F0B1F800F153
:102B10004E0338688DF8063009F086F88DF8050008
:102B2000386809F06FF8A6428DF804000AD2AE4268
:102B30004DD8AC424BD3A41BC4EB04143C4D3D48D0
:102B4000A40010E0AE4201D9AC421AD3C4EB041485
:102B5000A300A6EB061403EB840404F5A834344D5B
:102B6000344804F5C07410212C600CF0B9FF2968BA
:102B700031480DF005FC30480DF05AFC03B0BDE8BB
:102B8000F08302A8002300F8083D99F8002098F887
:102B900000308DF802208DF8013009F07DF83860A2
:102BA000FFF730FA00283AD0244B18683B681F4AD8
:102BB000834204DA03F5A83303F5C07313600F21D1
:102BC0001F480CF08DFF3868FEF7E8FCBEE702A84E
:102BD000002300F8083D99F8002098F800308DF89F
:102BE00002208DF8013009F057F83860FFF70AFA33
:102BF00090B1124B18683B680C4A834204DA03F523
:102C0000A83303F5C07313600F210D480CF068FF63
:102C10003868FEF7C3FC8EE70BF05EFEEBE70BF0C7
:102C20005BFEC3E7045400207C4F0020784F002057
:102C30006C530020789301000C000020704F00209E
:102C400068930100BC0A00206C55002010B5184C98
:102C50000A21204603F00CFD2046002103F0F8F97C
:102C60002046302103F0F4F92046002103F0F0F96A
:102C70000021204603F0ECF9204603F00BFD20462E
:102C80000A2103F0F5FC2046002103F0E1F920467B
:102C9000022103F0DDF92046002103F0D9F9204696
:102CA000002103F0D5F92046BDE8104003F0F2BC46
:102CB000505600200238032838B504DC002880F282
:102CC000AE81002400E00C240A21C848C84D03F05E
:102CD000CFFC0021C54803F0BBF93021C34803F005
:102CE000B7F94021C14803F0B3F96021BF4803F0B0
:102CF000AFF9BE4803F0CEFC0A21BC4803F0B8FC93
:102D00000021BA4803F0A4F92621B84803F0A0F93D
:102D10000021B64803F09CF96C21B44803F098F9FF
:102D2000B24803F0B7FC0A21B04803F0A1FC00212F
:102D3000AE4803F08DF92821AC4803F089F9012150
:102D4000AA4803F085F9F021A84803F081F9A748C3
:102D500003F0A0FC0A21A54803F08AFC0021A34847
:102D600003F076F92C21A14803F072F90F219F4856
:102D700003F06EF922219D4803F06AF99B4803F0A5
:102D800089FC0A21994803F073FC0021974803F05D
:102D90005FF93C21954803F05BF90021934803F06B
:102DA00057F90021914803F053F9904803F072FC61
:102DB0000A218E4803F05CFC00218C4803F048F99E
:102DC00030218A4803F044F90021884803F040F993
:102DD000E221864803F03CF9844803F05BFC0A21B9
:102DE000824803F045FC0021804803F031F90221BC
:102DF0007E4803F02DF900217C4803F029F9432196
:102E00007A4803F025F9794803F044FC0A21774811
:102E100003F02EFC0021754803F01AF904217348D1
:102E200003F016F90021714803F012F921466F48AA
:102E300003F00EF96D4803F02DFC0A216B4803F0F6
:102E400017FC0021694803F003F90621674803F0E5
:102E5000FFF80121654803F0FBF83021634803F0D7
:102E6000F7F8624803F016FC0A21604803F000FC02
:102E700000215E4803F0ECF80A215C4803F0E8F812
:102E800000215A4803F0E4F80021584803F0E0F824
:102E9000564803F0FFFB0A21544803F0E9FB0021E8
:102EA000524803F0D5F80E21504803F0D1F8002124
:102EB0004E4803F0CDF808214C4803F0C9F84B48C0
:102EC00003F0E8FB0A21494803F0D2FB0021474800
:102ED00003F0BEF81021454803F0BAF8FF2143483B
:102EE00003F0B6F8FF21414803F0B2F83F4803F081
:102EF000D1FB0A213D4803F0BBFB00213B4803F016
:102F0000A7F82221394803F0A3F87F21374803F0BE
:102F10009FF87F21354803F09BF8344803F0BAFB53
:102F20000A21324803F0A4FB0121304803F090F855
:102F300024212E4803F08CF800212C4803F088F857
:102F400000212A4803F084F8284803F0A3FB0A2153
:102F5000264803F08DFB0021244803F079F8242152
:102F6000224803F075F80121204803F071F814217C
:102F70001E4803F06DF81D4803F08CFB0A211B4826
:102F800003F076FB0021194803F062F82A21174864
:102F900003F05EF80021154803F05AF800211348A9
:102FA00003F056F8114803F075FB092111480CF0A5
:102FB00097FD296810480DF0E3F90F480DF038FA35
:102FC0002C680A480A2103F053FB0021074803F04C
:102FD0003FF844EA04142021044803F039F8C4F30C
:102FE0000721024803F034F8E1B207E05056002010
:102FF00000FAFF1F8C9301000C000020094803F029
:1030000027F8084803F046FBB0FA80F14909064862
:103010000DF0B6F904480DF00BFA012038BD800020
:10302000C4B251E6505600200C00002010B5074BEA
:103030000446102153F82000FEF7ECFB044803F08F
:10304000ADF82046BDE81040FFF734BE18FAFF1F68
:103050005056002038B504460D463148012109F08C
:1030600091FD2AB200212E4809F088FD204608F083
:10307000FFFD01462A480DF083F92D21284809F06B
:1030800043FD204608F0D0FD014625480DF078F9B3
:103090002D21234809F038FD204608F0B3FD0146F4
:1030A0001F480DF06DF902221E491D480DF052F91E
:1030B000204608F0CBFD092803DC3021184809F030
:1030C00023FD204608F0C2FD014615480DF058F9D1
:1030D000204608F073FD01220546134910480DF003
:1030E00039F9092D03DC30210D4809F00DFD294681
:1030F0000B480DF045F9204608F072FD0122044608
:10310000094907480DF026F9092C03DC3021044851
:1031100009F0FAFC21460248BDE838400DF030B90C
:103120006C54002098930100AC9301002DE9F04FFE
:10313000A84D2B688DB033B1012B00F0968030BFC5
:103140000DB0BDE8F08FFEF75DFFA34F002800F043
:103150003C813B68A1483B600AF0F4FA01219F489A
:103160009F4EA04C09F014FD02219C4809F00AFD75
:1031700000221146994809F001FD0A229A49974810
:103180000DF0E8F895480DF053F90121934809F046
:10319000F9FC12220021914809F0F0FC0522934924
:1031A0008E480DF0D7F831688C4801310DF0E8F801
:1031B00001228F4989480DF0CDF832688D4B874840
:1031C00053F8221000230A220DF058F92068282114
:1031D000FFF740FF37213868FFF73CFF7F480AF0D0
:1031E000EDFC23683A689A423BDBDFF85082D8F85E
:1031F0000060002E00F0CF80022E00F0A9810D218A
:103200007D480CF06DFC7D480DF012F97C4B1B687D
:10321000002B00F0B580012B00F06A81794E7A48CE
:103220000E210CF05DFCFEF7EDFE002800F05D8144
:103230003868FEF7B3F90B2174480CF051FC306884
:10324000FEF7ACF90B2172480CF04AFC2068FEF73F
:10325000A5F90123AE2161482B600AF07BFAFFF744
:1032600069F92B68012B7FF46AAFFDF7F1FD0420AB
:103270000BF062FC044603200BF05EFC14B900283E
:1032800000F0E280634E644B32681B689A42FFF69E
:1032900056AF624B5A4A1B681468B3FA83F35B0952
:1032A000002C14BF002703F00107012C14BF0024D9
:1032B00003F00104FEF7A6FE002800F00682464B4C
:1032C0001868504B1B688342D4BF002304F00103ED
:1032D000002B40F0F081002F40F0ED81FDF7D8FC8D
:1032E000FDF712FF3F4B1C68FEF78CFE002800F034
:1032F000DF81394B18684A4A4A4B12684A4EDFF858
:1033000040A1DFF840B1241AA41A24EAE47483FB34
:1033100004232344E017C0EBE3200DF085FD0DF0FE
:10332000A3FB0EF097F8414B414A306003FB004489
:1033300082FB043222440746E017C0EB62100DF016
:1033400073FD0DF091FB0EF085F80201131A821A3D
:1033500004EB82049B004FF4616202FB0733CAF85E
:1033600000401C44092CCBF8000000F3F680012338
:103370003C22022119480AF017FB00232B60DEE6ED
:103380002C4B264A21681B6812681E4E0B441A44B7
:103390002260336043E70A21274803F069F9314688
:1033A000254802F055FE0E21234802F051FE314619
:1033B000214802F04DFE0A211F4802F049FE1E4836
:1033C00003F068F9D8F8006016E70BF085FA0346B9
:1033D000C0E600BF900A0020704F00206C5400200F
:1033E00070550020784F00209C930100A8930100A5
:1033F0006C94010018550020B09301000C000020CF
:10340000A8540020A0530020D0930100E0930100B5
:10341000EC930100804F00207053002078FAFF1FCA
:1034200004FAFF1FC5B3A291AC540020F0F1FFFFD6
:103430008988888870FAFF1F50560020C00A002033
:103440001055002000540020A14BA24C1B68A24A3A
:10345000A24EA34DA06C5B02002103F12407A6F845
:10346000B41157609362A5F8B411002868D005F034
:1034700079FEA06C974B00284FD02C22964905F07E
:103480007FFF984807F01EFA01233C22022196484C
:103490000AF08AFA64200BF099FB93480AF052F97B
:1034A0000121914809F074FB02218F4809F06AFB61
:1034B000002211468C4809F061FB07228B498A489B
:1034C0000CF048FF88480CF0B3FF0121864809F052
:1034D00059FB1022864984480CF03CFF82480CF0CE
:1034E000A7FF81480AF06AFBFEE70BF0F5F9A0E6BA
:1034F000804B1A68CAB9804A236811687F4E804899
:1035000003F5A83202F5C0720B4422603360FDF768
:10351000F3F93068FEF742F881E6D86C0028B0D0A5
:103520002C226D4904F02CFBABE7764B21681B681D
:10353000724E0B441A4422603360FFF7C5FA6EE600
:10354000E06C00289DD00022002303F0FBFC90E7F4
:103550000B210E20FEF732FD51E66B4F6B4CDFF86E
:10356000D091DFF8D081002102200BF0C1FAFFF7E3
:103570006DFB3B68002114F823000BF0B9FA3B689F
:10358000002119F823000BF0B3FA002107200BF0FB
:10359000AFFA00210C200BF0ABFA00210E200BF04B
:1035A000A7FA052107200BF0D5FA05210C200BF016
:1035B000D1FA05210E200BF0CDFA3B68052119F850
:1035C00023000BF0C7FA524A136823F0104313602C
:1035D00064200BF0FBFA9AF800309BF80020317859
:1035E0004C48DFF854A108F081F94B4807F044FF3C
:1035F000207801210BF07CFA0721484803F066FA95
:103600000E21464803F0EEFA0C21444803F0A6FAD6
:1036100064200BF0DBFA06AC0DF10C0B09AE3B6835
:10362000CDF810A019F823E08DF80CE000238DF8F8
:103630000D3005939BE8070084E807008DF81930EA
:1036400008938DF818E0CDF81CA094E8070086E8F0
:10365000070033490B9B009396E80C00A1F114007E
:1036600007F04AFA98F895342E4AC8F884245BB1DA
:1036700009222D491C480CF06DFE1B480AF09EFAE9
:1036800064200BF0A3FACAE72649A1F5916007F080
:103690007FF90028ECD0012102200BF029FA4FF429
:1036A00096700BF093FA214B1868FFF7BFFC5EE6AB
:1036B0000BF012F91FE60B4807F004F9FDF724FDA3
:1036C000FEF79CFD0023336039E50BF005F9F8E5C2
:1036D000804F0020BC54002078550020844F0020EB
:1036E00040510020CC5400206C540020F89301007D
:1036F0000094010078FAFF1F6C530020A0530020B3
:10370000C093010070FAFF1F70550020A8530020DD
:1037100080F0024028530020940A0020D8FAFF1FAE
:10372000644F0020504F00201494010064FAFF1FE2
:10373000BC530020C84A002080F0FA022DE9F04F67
:1037400099B0FDF771FFFDF7C9FAFEF75BFCC14CBC
:10375000002800F0D2822368BF4FC0483B6009F0C8
:10376000F1FF0121BD48BE4DDFF84483DFF81CB3F3
:1037700009F00EFA0221B94809F004FA00221146B4
:10378000B64809F0FBF90722B649B4480CF0E2FD4F
:103790000121B24809F0F6F910220021AF4809F0E2
:1037A000EDF91222B049AD480CF0D4FDAB480CF055
:1037B0003FFE0721AD4803F089F90E21AB4803F025
:1037C00011FA0C21A94803F0C9F90026A84B02936D
:1037D000B1460394029BC8F800901878DFF880A2E5
:1037E00001210BF085F9A3480CF022FEA1480CF052
:1037F0001FFE01360521A0480CF072F931469D48A4
:103800000CF0BEFD9B480CF013FE314693480CF0C3
:10381000B7FD0422994991480CF09CFD8F480AF0AD
:10382000CDF964200BF0D2F99BF80030944A07924E
:103830008DF818308DF81990CDF8209006AA07CA97
:1038400009AC84E807008DF824308D4B0A938DF87D
:103850002590CDF82C9094E807000CAB83E8070086
:103860000E9B00930CAB0CCB0AF29C410AF59160C5
:1038700007F042F995F895340AF59162C5F8842469
:10388000002B61D01C217F480CF02AF979480CF0FC
:10389000CFFD06227C4971480CF05CFD6F480CF0AE
:1038A000C7FD6E480AF08AF9029B53F8040B029395
:1038B0000021C0B20BF01CF95BF8040B0121C0B26F
:1038C0000BF016F9042E08F1040883D1684B039C11
:1038D000187801210BF00CF96C4BDFF8A4E193F898
:1038E00000C08DF83CC000268DF83D601196CDF8E3
:1038F00040E00FAB93E8070012AB83E807008DF8B8
:10390000496014968DF848C0CDF84CE093E8070064
:1039100015AB83E807005E49179A00920CCBA1F122
:10392000140007F0E9F895F895645A4BC5F884340B
:10393000002E00F0CB800B22574948480CF00AFDBE
:1039400046480AF03BF9FEE70AF59161504607F058
:103950001FF8002896D0DAF87804002870D006F016
:103960003FFE824608214D480CF0BAF851464148C6
:103970000CF006FD3F480CF05BFD50460DF0BCFE20
:1039800047490DF00DFFD5F87834354A8246002BB3
:1039900000F0908018790DF0ABFE014650460DF016
:1039A000FFFE0EF0E9F88246D5F8840407F036FAF7
:1039B0000DF09EFE3A490DF0F3FE0EF0DDF80A21FF
:1039C000044638480CF08CF8002321460A22294886
:1039D0000CF054FD27480CF02BFDBAF1C70F8CBF3B
:1039E000AAF1C8030023C8F8003011212E480CF0BA
:1039F00077F8D8F800101F4800230A220CF03EFD8B
:103A00001C480CF015FD0023D8F8001013480A22BA
:103A10000CF034FD0122254910480CF09BFC214696
:103A200000230A220D480CF029FD0C480CF000FD83
:103A30000A480AF0C3F84FF47A700BF0C7F833E77E
:103A4000DAF87C04002801F0ED8304F0F5FD8246ED
:103A500088E700BF704F0020C44A00206C5400204B
:103A6000C84A00202094010028940100D8FAFF1FC2
:103A7000A85300200C000020A89301003C940100F2
:103A800080F0FA027494010094940100BC53002069
:103A9000644F0020504F00209C940100449401008A
:103AA000BD37063A509401005C9401007094010007
:103AB00074530020D2F87C34002B01F0B08393F8CB
:103AC0003D34012098400DF013FE66E7AC49A1F5A6
:103AD000916006F05DFF00283FF42DAFFDF7F6FB87
:103AE000FDF7FCF8FDF726FEA64B1A68A64B9A4296
:103AF00001F28C83A54AA44B12689A4201F27D839D
:103B0000A34B1B78172B01F26F83A24B1B783B2B27
:103B100001F26183A04B1B78172B01F253839F4B5B
:103B20001B783B2B01F245839D4E3368012B05D951
:103B3000002319460C2033600AF03AFD994B1B68AC
:103B4000072B01F22D83984B1B78082B01F21F8362
:103B5000964B1B680F2B01F21183954B1B68013BA1
:103B6000012B06D90123924A1946102013600AF04E
:103B70001FFD904DFEF746FA002801F0BE82206836
:103B80003B682060C31AB3F5167FD4BF002301231E
:103B9000042002930AF0D0FF3368874A012B0CBF40
:103BA0000A2309231360002800F0AE8003200AF0E6
:103BB000C3FF002800F0D38008200AF0BDFF0028D2
:103BC00000F0B5807D4809F0BDFD01217B4808F07B
:103BD000DFFF0221794808F0D5FF0022114677481F
:103BE00008F0CCFF0221754808F0CCFF2B68744A1E
:103BF00052F8238040460FF083F8414602466F4852
:103C00000CF0A8FB6D480CF013FC01216B4808F088
:103C1000B9FF2B686B4A52F8238040460FF070F8CA
:103C20004146024665480CF095FB64480CF000FCE8
:103C3000FEF732FD0121614808F0A4FF0022642153
:103C40005E4808F09BFF4FF000094FF0080828205D
:103C50000AF092FB0DF050FD4FF06A510DF0A0FDFF
:103C6000014648460DF094FCB8F101088146EED1BA
:103C700055490DF095FD4FF078510DF091FD0DF087
:103C8000E5F84FF001080B460246CDF800804B489E
:103C90000CF036FC42464D4948480CF05BFB41466F
:103CA000464808F06FFF08226421444808F066FF88
:103CB0003F4B1B68434501F0288208225A213F48A8
:103CC00008F05CFF062242493C480CF043FBFEF73B
:103CD00099F9002801F0158220683721FFF7BAF919
:103CE000364809F06BFF0A200AF070FF029B002B98
:103CF0003FF440AF19B0BDE8F08F0AF0EDFD034688
:103D00002AE50A200AF062FF04200AF015FF0028C5
:103D1000F7D0294A2B681168264A01338B422B6061
:103D2000A4BF0023136041E70A200AF04FFF0820D8
:103D30000AF002FF0028F7D02B68092B00F2C3809D
:103D4000DFE813F0F20965009104EE0328035A0539
:103D5000BC03F602F604F2000A200AF037FF032043
:103D60000AF0EAFE0028F7D02B68124A013B002B2C
:103D70002B60BFF621AF104B1B68013B13601BE7A4
:103D8000504F002070FAFF1FA086010078FAFF1F35
:103D9000BC0A00206C550020045400207C4F0020F9
:103DA000A854002064FAFF1F6CFAFF1F00FAFF1FDF
:103DB0000CFAFF1FA4530020A0FAFF1F6C54002030
:103DC0003CFAFF1FA4FAFF1FD7A3E840849201002A
:103DD000909201007B490DF0E3FC4FF078510DF01B
:103DE000DFFC0DF033F84FF001080B460246CDF82A
:103DF000008075480CF084FB4246744972480CF010
:103E0000A9FA714809F0DAFE02200AF0DFFE082064
:103E10000AF092FE012880464ED16D4B4FF461624C
:103E200001461868FDF742FB694B1860664809F0C7
:103E300089FC4146644808F0ABFE0221624808F064
:103E4000A1FE00221146604808F098FE0722614951
:103E50005D480CF07FFA5C480CF0EAFA5C4B5A487B
:103E600019680CF08DFA42465B4957480CF072FA1B
:103E700055480CF0DDFAFEF70FFC4146524808F0B9
:103E800081FE00226421504808F078FE4FF00009BE
:103E90004FF0080828200AF06FFA0DF02DFC4FF0C3
:103EA0006A510DF07DFC014648460DF071FBB8F1FA
:103EB00001088146EED18DE708200AF03DFE00287A
:103EC000FAD000232B60DFF81C8198F80030002B1B
:103ED0003FF478AEFDF72EFC002388F80030FEF7A3
:103EE00091F8002801F0A181206838606AE6354920
:103EF0000DF056FC4FF078510DF052FC0CF0A6FF7F
:103F00004FF001080B460246CDF800802E480CF019
:103F1000F7FA42462D492C480CF01CFA2A4809F0C1
:103F20004DFE02200AF052FE08200AF005FE01288C
:103F3000804659D1294B172200211878FDF7B6FA8F
:103F4000264B1870204809F0FDFB41461E4808F03A
:103F50001FFE02211C4808F015FE002211461A48D7
:103F600008F00CFE07221E4917480CF0F3F916481A
:103F70000CF05EFA19491448097800230A220CF063
:103F80007DFAFEF789FB41460F4808F0FBFD002251
:103F900064210D4808F0F2FD4FF000094FF00808C9
:103FA00028200AF0E9F90DF0A7FB4FF06A510DF057
:103FB000F7FB014648460DF0EBFAB8F101088146DF
:103FC000EED194E7D7A3E8406C540020849201001E
:103FD00070FAFF1FC8940100D0940100BC0A0020B1
:103FE00058950100744F002008200AF0A5FD002814
:103FF000FAD008200AF0A0FD0128804669D1B04B14
:104000003B2200211878FDF751FAAD4B1870AD48EE
:1040100009F098FB4146AB4808F0BAFD0221A948D7
:1040200008F0B0FD00221146A64808F0A7FD0822BE
:10403000A549A4480CF08EF9A2480CF0F9F9A04962
:10404000A048097800230A220CF018FAFEF724FB96
:1040500041469C4808F096FD00226421994808F0EA
:104060008DFD4FF000094FF0080828200AF084F970
:104070000DF042FB4FF06A510DF092FB01464846AD
:104080000DF086FAB8F101088146EED18F490DF0A6
:1040900087FB4FF078510DF083FB0CF0D7FE4FF00B
:1040A00001080B460246CDF8008086480CF028FA3D
:1040B0004246874983480CF04DF9824809F07EFD5D
:1040C00002200AF083FD08200AF036FD0128804610
:1040D00095D008200AF030FD0028FAD008200AF018
:1040E0002BFD0128804669D17A4B172200211878D0
:1040F000FDF7DCF9774B1870724809F023FB414655
:10410000704808F045FD02216E4808F03BFD002292
:1041100011466C4808F032FD06226F4969480CF0E0
:1041200019F968480CF084F96A496648097800234F
:104130000A220CF0A3F9FEF7AFFA4146614808F0F5
:1041400021FD002264215F4808F018FD4FF00009AE
:104150004FF0080828200AF00FF90DF0CDFA4FF0C3
:104160006A510DF01DFB014648460DF011FAB8F1F9
:1041700001088146EED155490DF012FB4FF0785100
:104180000DF00EFB0CF062FE4FF001080B460246EC
:10419000CDF800804B480CF0B3F942464C494948F1
:1041A0000CF0D8F8474809F009FD02200AF00EFD8E
:1041B00008200AF0C1FC0128804695D008200AF0AA
:1041C000BBFC0028FAD008200AF0B6FC0128804683
:1041D00069D1424B3B2200211878FDF767F93F4B2C
:1041E0001870384809F0AEFA4146364808F0D0FC5D
:1041F0000221344808F0C6FC00221146314808F07C
:10420000BDFC072236492F480CF0A4F82D480CF0CD
:104210000FF932492B48097800230A220CF02EF9B5
:10422000FEF73AFA4146274808F0ACFC0022642128
:10423000244808F0A3FC4FF000094FF0080828209C
:104240000AF09AF80DF058FA4FF06A510DF0A8FAFA
:10425000014648460DF09CF9B8F101088146EED1BF
:104260001A490DF09DFA4FF078510DF099FA0CF0C3
:10427000EDFD4FF001080B460246CDF800801148D5
:104280000CF03EF9424612490E480CF063F80D4816
:1042900009F094FC02200AF099FC08200AF04CFC7A
:1042A0000128804695D008200AF046FC00287FF4BB
:1042B00008AE08200AF040FC0028F4D001E600BF58
:1042C0006C5500206C54002060950100D7A3E84095
:1042D00084920100045400206C9501007C4F002062
:1042E00074950100C14B1868FDF7E0F8BF4B1860EA
:1042F000BF4809F027FA4146BD4808F049FC0221B1
:10430000BB4808F03FFC00221146B94808F036FCD3
:104310000922B849B6480CF01DF8B44BB4481968E6
:104320000CF02EF8B24809F049FC02200AF04EFCCD
:1043300008200AF001FC012880464FF002020146E5
:10434000D0D008200AF0F8FB00287FF4BAAD08208E
:104350000AF0F2FB0028F4D0B3E5A7490DF020FAEB
:104360004FF078510DF01CFA0CF070FD4FF0010881
:104370000B460246CDF800809D480CF0C1F842463D
:104380009E499B480BF0E6FF994809F017FC022074
:104390000AF01CFC08200AF0CFFB0128804659D106
:1043A000974B0F2200211868FDF780F8944B186096
:1043B000FCF794FC8E4809F0C5F941468C4808F09A
:1043C000E7FB02218A4808F0DDFB002211468848FD
:1043D00008F0D4FB05228B4985480BF0BBFF884BC6
:1043E000834819680BF0CCFF81480CF021F8864B0C
:1043F00018680CF02BFD4FF0020A0B460246CDF870
:1044000000A07B480CF07CF85246804978480BF0BD
:10441000A1FFFEF741F94146754808F0B3FB0022C1
:104420006421734808F0AAFB4FF000094FF0080818
:10443000282009F0A1FF0DF05FF94FF06A510DF04F
:10444000AFF9014648460DF0A3F8B8F101088146DE
:10445000EED182E708200AF06FFB00287FF431AD2F
:1044600008200AF069FB0028F4D02AE5684B187888
:10447000FDF71CF8664B18705D4809F063F941467A
:104480005B4808F085FB0221594808F07BFB0022BD
:104490001146574808F072FB09225E4954480BF058
:1044A00059FF5B495248097800230A220BF0E6FFC6
:1044B0004F4809F083FB02200AF088FB08200AF02D
:1044C0003BFB012880464FF008020146CED0082071
:1044D0000AF032FB00287FF4F4AC08200AF02CFB31
:1044E0000028F4D0EDE444490DF05AF94FF078512A
:1044F0000DF056F90CF0AAFC4FF001080B460246ED
:10450000CDF800803A480BF0FBFF42463B49384863
:104510000BF020FF364809F051FB02200AF056FB51
:1045200008200AF009FB0128804652D13A4B0822A4
:1045300000211868FCF7BAFF374B18602C4809F0C7
:1045400001F941462A4808F023FB0221284808F0D7
:1045500019FB00221146264808F010FB2F49244879
:1045600004220BF0F7FE22480BF062FF2A4A2C4B84
:10457000126853F822000DF0BFF82A490DF0C4F973
:104580000CF064FC02460B46194827490BF068FF03
:10459000FEF782F84146164808F0F4FA002264213A
:1045A000134808F0EBFA4FF000094FF008082820F4
:1045B00009F0E2FE0DF0A0F84FF06A510DF0F0F8AE
:1045C000014648460CF0E4FFB8F101088146EED1FF
:1045D00089E708200AF0B0FA00287FF472AC0820BE
:1045E0000AF0AAFA0028F4D06BE400BF0CFAFF1F0F
:1045F0006C54002034950100D7A3E8408492010058
:1046000000FAFF1FF0940100A45400204093010021
:104610006CFAFF1F2895010064FAFF1FDC9401006B
:1046200018FAFF1F00007A44E494010066490DF077
:10463000B7F84FF078510DF0B3F80CF007FC4FF0DD
:1046400001080B460246CDF8008060480BF058FF89
:1046500042465F495D480BF07DFE5C4809F0AEFACA
:1046600002200AF0B3FA08200AF066FA012852D1B3
:10467000584B594A18680021FCF718FF554B186031
:1046800018B9564A4FF416731360504809F05AF897
:1046900001214E4808F07CFA02214C4808F072FAD9
:1046A00000221146494808F069FA06224C49474859
:1046B0000BF050FE45480BF0BBFE464B43481968D3
:1046C0000BF05EFE0122474940480BF043FE3F4895
:1046D0000BF0AEFEFDF7E0FF01213C4808F052FA76
:1046E00000226421394808F049FA4FF000094FF0E0
:1046F0000808282009F040FE0CF0FEFF4FF06A5138
:104700000DF04EF8014648460CF042FFB8F10108A2
:104710008146EED18AE708200AF00EFA00287FF4DD
:10472000D0AB08200AF008FA0028F4D0FFF7C9BB84
:10473000DFF8C09007E0012B33D0244809F03EFA9F
:1047400002200AF043FA08200AF0F6F90128804610
:1047500002464FF000012AD13068FCF7A7FE306016
:104760001A4808F0EFFF4146184808F011FA0221F4
:10477000164808F007FA00221146144808F0FEF91E
:104780000522194911480BF0E5FD3368002BD2D101
:10479000042216490D480BF0DDFDD9F80030012B3D
:1047A000CBD10522124909480BF0D4FDC5E70820FA
:1047B0000AF0C2F900287FF484AB08200AF0BCF9A3
:1047C0000028F4D0FFF77DBBD7A3E8406C5400204D
:1047D0008492010078FAFF1F8051010070FAFF1FD8
:1047E000D4940100D0940100409501004895010047
:1047F00050950100A854002008200AF09DF90128D6
:10480000DFF8E883DFF8E89340F0A6802068DFF85F
:10481000E4A307F02DFA40F634024FF4FA61C9F828
:104820000000FCF743FED9F80030CAF800009842B7
:104830002BD0D8F8000007F009FA8346D8F800001A
:1048400007F0BCF90590D8F8000007F0C9F904900A
:10485000D8F8000007F0D6F90390D8F8000007F068
:10486000E3F9DAF800E00090AEF5FA600190039BFE
:10487000049A05995846FDF713FBFDF7C3FB002882
:1048800000F04E84D8F800003860D24808F05AFF93
:104890000121D04808F07CF90221CE4808F072F9D5
:1048A00000221146CB4808F069F90522CA49C948D7
:1048B0000BF050FDC7480BF0BBFDFDF7A3FB002834
:1048C00000F02A84206807F0D3F90146C1480BF0B4
:1048D00057FDFDF7E1FE0121BE4808F053F9002223
:1048E0006421BC4808F04AF94FF0000B4FF0080A69
:1048F000282009F041FD0CF0FFFE4FF06A510CF04A
:104900004FFF014658460CF043FEBAF1010A8346B8
:10491000EED1B2490CF044FF4FF078510CF040FF5B
:104920000CF094FA4FF0010A0B460246CDF800A0B5
:10493000A8480BF0E5FD5246A949A6480BF00AFD30
:10494000A44809F03BF902200AF040F908200AF0D7
:10495000F3F801283FF45AAF08200AF0EDF80028D8
:10496000FAD002200AF032F908200AF0E5F801280E
:10497000DFF87882DFF88092834640F0A6802068D6
:10498000DFF878A207F050F959460C22C9F8000068
:10499000FCF78CFDD9F80030CAF8000098422CD002
:1049A000D8F8000007F052F98346D8F8000007F065
:1049B00005F90590D8F8000007F012F90490D8F82E
:1049C000000007F01FF90390D8F80000DAF800A003
:1049D00007F04EF9A0F5FA600190039B049A05993F
:1049E000CDF800A05846FDF75BFAFDF70BFB002859
:1049F00000F02384D8F800003860764808F0A2FE62
:104A00000121744808F0C4F80221724808F0BAF88D
:104A1000002211466F4808F0B1F8062271496D482E
:104A20000BF098FC6B480BF003FDFDF7EBFA002848
:104A300000F0FF83206807F0F7F8014665480BF0A7
:104A40009FFCFDF729FE0121624808F09BF8002237
:104A50006421604808F092F84FF0000B4FF0080A0C
:104A6000282009F089FC0CF047FE4FF06A510CF049
:104A700097FE014658460CF08BFDBAF1010A8346B9
:104A8000EED156490CF08CFE4FF078510CF088FEB8
:104A90000CF0DCF94FF0010A0B460246CDF800A0FD
:104AA0004C480BF02DFD52464D494A480BF052FC44
:104AB000484809F083F802200AF088F808200AF034
:104AC0003BF8012883463FF45AAF08200AF034F837
:104AD0000028FAD002200AF079F808200AF02CF811
:104AE0000128DFF80881DFF81891834640F0C18083
:104AF0002068DFF810A107F085F859461F22C9F891
:104B00000000FCF7D3FCD9F80030CAF80000984246
:104B10002CD0D8F8000007F099F88346D8F80000A8
:104B200007F04CF80590D8F8000007F059F8049009
:104B3000D8F80000DAF800A007F076F80390D8F86B
:104B4000000007F095F8039B0093A0F5FA60019030
:104B50005346049A05995846FDF7A2F9FDF752FA13
:104B6000002800F07183D8F800003860194808F078
:104B7000E9FD0121174808F00BF80221154808F05B
:104B800001F800221146134807F0F8FF04221649E5
:104B900010480BF0DFFB0F480BF04AFCFDF732FA30
:104BA000002800F04E83206807F02CF801460948E1
:104BB0000BF0E6FBFDF770FD0121064807F0E2FF70
:104BC00000226421034807F0D9FF4FF0000B4FF09B
:104BD000080A19E06C540020F8940100D7A3E840BB
:104BE000849201000095010008950100704F00209B
:104BF0002C550020CC53002064550020685500201F
:104C0000B4540020B8530020282009F0B5FB0CF064
:104C100073FD4FF06A510CF0C3FD014658460CF08D
:104C2000B7FCBAF1010A8346EED1D7490CF0B8FDC2
:104C30004FF078510CF0B4FD0CF008F94FF0010A78
:104C40000B460246CDF800A0D0480BF059FC524666
:104C5000CF49CE480BF07EFBCC4808F0AFFF0220D6
:104C600009F0B4FF082009F067FF012883463FF4EC
:104C70003FAF082009F060FF0028FAD0022009F0B9
:104C8000A5FF082009F058FF0128DFF81083DFF89E
:104C9000109340F0A080206806F0D8FF1722002172
:104CA000C9F80000FCF702FCD9F8003098428246AF
:104CB0002AD0D8F8000006F081FF8346D8F800001B
:104CC00006F08EFF0590D8F8000006F09BFF0490D8
:104CD000D8F8000006F0A8FF0390D8F8000006F00E
:104CE000C7FF03990091A0F5FA600190049B059A13
:104CF00059465046FDF7D4F8FDF784F9002800F036
:104D0000A982D8F800003860A04808F01BFD0121F6
:104D10009E4807F03DFF02219C4807F033FF002228
:104D200011469A4807F02AFF05229A4997480BF046
:104D300011FB96480BF07CFBFDF764F9002800F0AE
:104D40008682206806F082FF014690480BF018FB2F
:104D5000FDF7A2FC01218D4807F014FF0022642119
:104D60008A4807F00BFF4FF0000B4FF0080A28208D
:104D700009F002FB0CF0C0FC4FF06A510CF010FD82
:104D8000014658460CF004FCBAF1010A8346EED104
:104D90007D490CF005FD4FF078510CF001FD0CF051
:104DA00055F84FF0010A0B460246CDF800A07748AF
:104DB0000BF0A6FB5246764974480BF0CBFA7348C9
:104DC00008F0FCFE022009F001FF082009F0B4FE03
:104DD00001283FF460AF082009F0AEFE0028FAD0A9
:104DE000022009F0F3FE082009F0A6FE0128DFF8F2
:104DF000AC81DFF8B09140F0A5802068DFF8A8A171
:104E000006F0DCFE3B220021C9F80000FCF74EFB57
:104E1000D9F80030CAF8000098422CD0D8F8000029
:104E200006F014FF8346D8F80000DAF800A006F078
:104E3000D7FE0590D8F8000006F0E4FE0490D8F8FC
:104E4000000006F0F1FE0390D8F8000006F010FF15
:104E500003990091A0F5FA600190049B059A5146D0
:104E60005846FDF71DF8FDF7CDF8002800F0F88151
:104E7000D8F800003860454808F064FC0121434838
:104E800007F086FE0221414807F07CFE0022114611
:104E90003E4807F073FE07223F493C480BF05AFAA0
:104EA0003A480BF0C5FAFDF7ADF8002800F0D581BF
:104EB000206806F083FE014634480BF061FAFDF7E6
:104EC000EBFB0121314807F05DFE002264212F48F1
:104ED00007F054FE4FF0000B4FF0080A282009F0AD
:104EE0004BFA0CF009FC4FF06A510CF059FC0146EA
:104EF00058460CF04DFBBAF1010A8346EED1224927
:104F00000CF04EFC4FF078510CF04AFC0BF09EFF79
:104F10004FF0010A0B460246CDF800A01B480BF0EB
:104F2000EFFA52461A4919480BF014FA174808F0DC
:104F300045FE022009F04AFE082009F0FDFD012887
:104F40003FF45BAF082009F0F7FD0028FAD00220FB
:104F500009F03CFE082009F0EFFD0128DFF83C8055
:104F6000DFF8489040F0BC802068DFF844A006F0ED
:104F700037FE3B220021C9F80000FCF797FAD9F868
:104F80000030CAF8000015E0D7A3E8406C540020B8
:104F9000849201001095010018950100704F0020C7
:104FA0008C0A0020D05300206C4F00203455002084
:104FB0006853002098422CD0D8F8000006F046FE36
:104FC0008346D8F8000006F0F9FD0590D8F80000F7
:104FD000DAF800A006F016FE0490D8F8000006F0FB
:104FE00023FE0390D8F8000006F042FE039A0092D8
:104FF000A0F5FA600190049B059952465846FCF7CB
:105000004FFFFCF7FFFF002800F03081D8F80000C8
:105010003860984808F096FB0121964807F0B8FDE3
:105020000221944807F0AEFD00221146914807F096
:10503000A5FD072290498F480BF08CF98D480BF0A5
:10504000F7F9FCF7DFFF002800F00D81206806F07B
:10505000C7FD014687480BF093F9FDF71DFB0121C1
:10506000844807F08FFD00226421824807F086FD06
:105070004FF0000B4FF0080A282009F07DF90CF0E2
:105080003BFB4FF06A510CF08BFB014658460CF08D
:105090007FFABAF1010A8346EED178490CF080FB21
:1050A0004FF078510CF07CFB0BF0D0FE4FF0010A72
:1050B0000B460246CDF800A06E480BF021FA52468E
:1050C0006F496C480BF046F96A4808F077FD0220FA
:1050D00009F07CFD082009F02FFD01283FF444AFC2
:1050E000082009F029FD00287EF4EBAE082009F025
:1050F00023FD0028F4D0FEF7E4BE09F0EDFBFEF737
:105100003FBD09F0E9FBFEF7E8BD04225D495948BF
:105110000BF020F9FEF7DBBD09F0DEFBFFF7D3BB98
:1051200009F0DAFBFFF7B0BBFCF722FAFCF702FB51
:105130000A2255494F48DFF87C810BF00BF94D48A6
:105140000BF076F901214B4807F01CFD13224F4963
:1051500048480BF0FFF8474808F030FD0120FCF705
:10516000FBFF4FF4FA6009F031FD0123029398F838
:105170000030002B3EF426ADFEF7ACBE0423444ABB
:1051800019460F20136009F013FAFEF7E6BC082356
:10519000404A19460E20137009F00AFAFEF7D8BCEF
:1051A00004233D4A19460D20136009F001FAFEF769
:1051B000CABC0023394A19460B20137009F0F8F9CC
:1051C000FEF7B2BC0023364A19460A20137009F0D4
:1051D000EFF9FEF7A4BC0023324A194609201370E8
:1051E00009F0E6F9FEF796BC00232F4A194608207D
:1051F000137009F0DDF9FEF788BC3C232B4A1946F1
:1052000004201360FCF77EFAFEF77ABC3C23284AA0
:10521000304619461360FCF775FAFEF76BBC0020A8
:10522000FEF7BBBB8246FEF79DBB09F055FBFEF7C0
:105230005CBE09F051FBFFF7FEBB09F04DFBFFF729
:10524000DBBB09F049FBAFE409F046FB8DE409F054
:1052500043FB77E509F040FB55E509F03DFB28E607
:1052600009F03AFB06E609F037FBF0E609F034FBFB
:10527000CEE600BF6C54002020950100D7A3E84083
:105280008492010088920100A8940100B494010066
:1052900000FAFF1F6CFAFF1F64FAFF1F7C4F00200B
:1052A000045400206C550020BC0A002078FAFF1F2F
:1052B00070FAFF1F744F00202DE9F84FD34BD449EB
:1052C0001B68D448D44A0B600068D44BDFF8B08325
:1052D00048600F2415210A265460102500244FF041
:1052E00006094FF0110B4FF0050A14274FF4FA701E
:1052F0009760D1601660C3F80C90C3F800B05D6091
:10530000C3F808A009F062FCC8F80040642009F066
:105310005DFC4FF43053C8F80030642009F056FCAF
:10532000BF4F4FF43453C8F80030642009F04EFCEE
:105330003968BC48DFF84C83234632460BF09EF8B0
:10534000B8480BF075F84FF47A7009F03FFC3968F3
:10535000B448234632460BF091F8B2480BF068F897
:105360004FF47A7009F032FC234632463968AD4872
:10537000AD4F0BF083F8AB480BF05AF8AB4800F098
:105380000DFF2146282009F0E5FB204608F068FFC4
:105390000121022009F0DEFB0121022009F0A8FB17
:1053A0005846012109F0D6FB2846012109F0D2FB1D
:1053B0005046012109F0CEFB4846012109F0CAFB05
:1053C0002146584609F094FB2146284609F090FBF7
:1053D0002146504609F08CFB2146484609F088FBDF
:1053E0000221042009F0B6FB0221032009F0B2FBE0
:1053F0000221082009F0AEFB01233C2202218C4847
:1054000008F0D2FA8C2009F0E1FB894808F09AF9FB
:105410000121874807F0BCFB0221854807F0B2FB59
:1054200022462146824807F0A9FB3246814980483E
:105430000AF090FF7E480AF0FBFF7D4808F0BEFBB3
:105440006E217D480AF0A0FC7C4B1E687C4B53F813
:10545000269048460CF050F92946C8F80000484606
:10546000FCF7D8F9714800F099FE3046FDF722FCB0
:10547000FEF764F9714B1E68714B53F8269048464D
:105480000CF03AF92946C8F800004846FCF7C2F982
:10549000664800F083FE3046FDF70CFC644808F0D7
:1054A00051F90121624807F073FB0221604807F0BF
:1054B00069FB224621465E48624C07F05FFB3B6871
:1054C0003B2B06DDB3F5967FB4BF3C234FF49673B8
:1054D00023600120FCF740FEDFF8AC915A492368B5
:1054E0005A4D5B4ED9F80020096890FBF3F4286010
:1054F00003FB04335748336001291344036000F071
:10550000F18010460CF0F8F8D8F80010524CDFF893
:105510007CA1DFF87CB10CF043F94FF06E510CF038
:105520003FF94FF074510CF03BF90BF08FFC0BF08E
:1055300013FA0022494B0BF0DDFC0BF08BFF484ABD
:105540003B681168474AC1EB0308474B126828EAD9
:10555000E87883FB081302FB00F243444FEAE8704B
:105560002260C0EBE3200BF05FFC0BF07DFA0BF048
:1055700071FF3E4C3E4BCAF8000004FB008483FBE5
:1055800004232344E017C0EB63100BF04DFC0BF039
:105590006BFA0BF05FFFDFF8FC800346A0EB001016
:1055A00004EB800410213348CBF80030C8F80040E9
:1055B0000AF096FADAF800101A480AF0E1FEDBF871
:1055C000001018480AF0DCFED8F8001015480AF060
:1055D000D7FE14480AF02CFF082127480AF080FA69
:1055E000D9F800100F480AF0CBFE0E480AF020FF51
:1055F000082122480AF074FA39680A480AF0C0FE05
:1056000008480AF015FF0E2146E000BF588004400C
:10561000985300205C800440BC530020A853002015
:1056200000D003400C00002078FAFF1F50560020E5
:105630006C5400207C9501000082FF1F64FAFF1F5C
:1056400018FAFF1F68FAFF1FA8540020704F0020AF
:10565000784F0020A05300207053002000004040ED
:1056600004FAFF1F0CFAFF1FC5B3A291F0F1FFFF70
:1056700089888888889501009C950100A89501007B
:1056800010D003400C55002070FAFF1FAC540020CE
:10569000005400201055002015480AF021FA28680F
:1056A000FBF77CFF0C2113480AF01AFA3068FBF76D
:1056B00075FF33682C6810481C1B15210AF010FA7E
:1056C00021460E480AF05CFE0C480AF0B1FE0C4B75
:1056D0000C494FF0FF3200201A60BDE8F84F086017
:1056E000FBF712BDFDF7F0F9D9F8002009E700BF7C
:1056F000D0930100B4950100C49501000C00002076
:1057000030550020900A002000207047002070478C
:10571000F8B5C34C012605460671204600F03EFD53
:10572000052009F053FA297A204600F0E3FD2046CF
:10573000002100F08DFC2046302100F089FC20463D
:10574000402100F085FC6021204600F081FC2046CD
:1057500000F0A0FF297A204600F0CCFD2046002171
:1057600000F076FC2046262100F072FC2046002145
:1057700000F06EFC6C21204600F06AFC204600F030
:1057800089FF297A204600F0B5FD2046002100F06F
:105790005FFC2046282100F05BFC3146204600F0EB
:1057A00057FCF221204600F053FC204600F072FF27
:1057B000297A204600F09EFD2046002100F048FC9A
:1057C00020462C2100F044FC20460F2100F040FC34
:1057D0002221204600F03CFC204600F05BFF297AA5
:1057E000204600F087FD2046002100F031FC2046D5
:1057F0003C2100F02DFC2046442100F029FC4621EC
:10580000204600F025FC204600F044FF40F237130C
:10581000EB80297A204600F06DFD2046002100F043
:1058200017FC2046242100F013FC3146204600F0EE
:105830000FFC3721204600F00BFC204600F02AFF29
:10584000297A204600F056FD2046002100F000FC99
:105850002046302100F0FCFB2046402100F0F8FB00
:10586000FF21204600F0F4FB204600F013FF297AC8
:10587000204600F03FFD2046002100F0E9FB2046D5
:10588000022100F0E5FB2046002100F0E1FB73213E
:10589000204600F0DDFB204600F0FCFE4FF4C8700F
:1058A00009F094F9297A204600F024FD20460021D1
:1058B00000F0CEFB20462E2100F0CAFB20461D2121
:1058C00000F0C6FB1D21204600F0C2FB204600F080
:1058D000E1FE297A204600F00DFD2046002100F06F
:1058E000B7FB2046042100F0B3FB2046002100F066
:1058F000AFFB0421204600F0ABFB204600F0CAFEBF
:10590000297A204600F0F6FC2046002100F0A0FB9A
:105910002046062100F09CFB3146204600F098FB13
:105920003021204600F094FB204600F0B3FE297A97
:10593000204600F0DFFC2046002100F089FB2046D5
:105940000A2100F085FB2046002100F081FB102198
:10595000204600F07DFB204600F09CFE297A204680
:1059600000F0C8FC2046002100F072FB20460E210A
:1059700000F06EFB2046002100F06AFB002120466B
:1059800000F066FB204600F085FE297A204600F0F4
:10599000B1FC2046002100F05BFB2046102100F006
:1059A00057FB20463C2100F053FB3C21204600F0F1
:1059B0004FFB204600F06EFE297A204600F09AFC4C
:1059C0002046002100F044FB2046222100F040FB4D
:1059D00020467F2100F03CFB7F21204600F038FB71
:1059E0003627204600F056FE297AEF80204600F048
:1059F00081FC2046002100F02BFB2046242100F0F2
:105A000027FB2046002100F023FB3946204600F00A
:105A10001FFB204600F03EFE6E723046F8BD00BF10
:105A2000505600200B462DE9F041454905461846E1
:105A30000BF0B6FE43490BF0ABFD0CF09DF80446AD
:105A400000284CD080281FD92B79002426462BBB58
:105A5000297A3D4800F04EFC00213B4800F0F8FA5E
:105A60002221394800F0F4FA3146374800F0F0FAC4
:105A70002146354800F0ECFA334800F00BFEB0FA4E
:105A800080F04009BDE8F081C0F180042B7944EA40
:105A90000424C4F30726E4B2002BD9D0EF88297A76
:105AA000294827F010074FF00008EF8085F80480A0
:105AB00000F020FC4146244800F0CAFA2421224884
:105AC00000F0C6FA390A204800F0C2FA07F0EF01E8
:105AD0001D4800F0BDFA1C4800F0DCFDB8E70123CA
