:1000000000800020BD01000075AA00002DAA00009C
:100010002DAA00002DAA00002DAA00002DAA000084
:100020002DAA00002DAA00002DAA000075AA00002C
:1000300075AA00002DAA00001DC2000021C2000008
:1000400075AA000075AA000075AA000075AA000034
:1000500075AA000075AA000075AA000075AA000024
:1000600075AA000075AA000075AA000075AA000014
:1000700075AA000075AA000075AA000075AA000004
:1000800075AA000075AA000075AA000075AA0000F4
:1000900075AA000075AA000075AA000075AA0000E4
:1000A0009D4E000075AA000075AA000075AA000008
:1000B00075AA000075AA000075AA000075AA0000C4
:1000C00075AA000075AA000075AA000075AA0000B4
:1000D00075AA000075AA000075AA000075AA0000A4
:1000E00075AA000075AA000075AA000075AA000094
:1000F00075AA000075AA000075AA000075AA000084
:1001000075AA000075AA000075AA000075AA000073
:1001100075AA000075AA000075AA000075AA000063
:1001200075AA000075AA000075AA000075AA000053
:1001300075AA000075AA000075AA000075AA000043
:1001400075AA000075AA000075AA000075AA000033
:1001500075AA000075AA000075AA000075AA000023
:1001600075AA000095B0000075AA000075AA0000ED
:1001700075AA000075AA000075AA000075AA000003
:1001800075AA000075AA000075AA000075AA0000F3
:1001900075AA000075AA000075AA000075AA0000E3
:1001A00075AA000075AA000075AA000075AA0000D3
:1001B00075AA000075AA0000D9BF0000564B4CF28A
:1001C000205210B51A804DF628121A8000BF00BFC9
:1001D00000F0F2FB514B4FF010621A60504A9A60E7
:1001E000504ADA60504A136813F4807304D14F49BF
:1001F0000B604FF4A85313604D4B1A78110703D5C9
:100200001A7842F008021A704A4B4B492A221A7097
:100210004A4A4B4B8B4204D252F8040F43F8040B6A
:10022000F8E7484B484900228B4202D243F8042B9E
:10023000FAE74649464A002352F8230041F82300D2
:1002400001336F2BF8D1434B434A802103F8011B44
:100250009342FBD1414B3D4A1A60414B8A221A70AE
:10026000A3F5805324225A70A0221A709A7992071B
:10027000FCD59A79D406FCD43A4A937903F00C035E
:10028000082B384BF9D103221A7140225A719A79FE
:100290009006FCD5334A9179324B4906FBD5324A58
:1002A000324911600221516020221A709A7902F0BD
:1002B0000C020C2AFAD12E4B2E4A1A602E4B2F4AD2
:1002C0001A6000225A60072243F8042C2C4AC3F813
:1002D0000C2D62B60AF0B4FD144B1B68DA0705D585
:1002E00028480AF031FD284B284A1A60284B1B7811
:1002F0005B0609D5244C254B22689A4204D121483B
:100300000AF022FD002323600AF0B8FB0DF0EEFC9A
:100310000CF0EEF8FEE700BF0E20054030800440F0
:10032000823F04000100002B10D0034014D0034092
:1003300002D0074000E00740900A002064620100FC
:1003400020F9FF1F900A00209C58002000F4FF1F96
:100350000000000000E400E05FE400E008ED00E0E1
:100360000050064000400640448004400000030165
:1003700004800440C010050014E000E0FF76010096
:100380000000202095F91A641CE00340A5C3945A8C
:1003900000F00740FFFFFFFFFFFFFFFFFFFFFFFF32
:1003A000FFFFFFFFFFFFFFFFFFFFFFFFFFFFFFFF5D
:1003B000FFFFFFFFFFFFFFFFFFFFFFFFFFFFFFFF4D
:1003C000FFFFFFFFFFFFFFFFFFFFFFFFFFFFFFFF3D
:1003D000FFFFFFFFFFFFFFFFFFFFFFFFFFFFFFFF2D
:1003E000FFFFFFFFFFFFFFFFFFFFFFFFFFFFFFFF1D
:1003F000FFFFFFFFFFFFFFFFFFFFFFFFFFFFFFFF0D
:10040000FFFFFFFFFFFFFFFFFFFFFFFFDEF9FFFF23
:1004100010B5054C237833B9044B13B10448AFF33E
:1004200000800123237010BD900A0020000000000E
:1004300060620100084B10B51BB108490848AFF3D2
:1004400000800848036803B910BD074B002BFBD0A0
:10045000BDE81040184700BF00000000940A0020CB
:1004600060620100900A0020000000000020704738
:10047000704700BFF8B55548554D564C297803785C
:100480002278DFF868E1544F544E120442EA032305
:10049000FF222A700270802022708EF800003870CF
:1004A000B2794F480B4312F00C0FC36002D1B379FD
:1004B000DC063DD4494A9379C3F38103032B40D032
:1004C000464B9A79C2F38102022A42D0434A937979
:1004D000C3F38103022B53D0404A9379C3F38103C2
:1004E000022B61D03D4A9379C3F38103012B51D094
:1004F0003A4A9379C3F38103012B5CD0374B9A7945
:1005000012F00C0F03D19A79D20600D49B79354DA5
:10051000354B2A7853F82240D4B1236820469B6893
:1005200098472B7804EB83046468002CF5D1F8BD60
:10053000B3799806EBD5294A9379C3F38103032B4A
:10054000BED19379D906BBD493799B06DFD4B7E7A4
:10055000F8BD9A79D706B9D49A799606B6D559785E
:1005600001F0020101F0FF020029AFD120211A7031
:100570001A461970937903F00C030C2BFAD1C6E7D5
:100580009379DD06A8D493799C06A5D4537898076F
:10059000BDD5A1E79379DF06AAD593799E06A7D4A6
:1005A00053789D07B3D4A3E79379D9069AD45378A7
:1005B0009B07ACD496E79379DC069FD59379980690
:1005C0009CD453789907A2D598E700BF06C007408E
:1005D00005C0074007C0074009C00740004006406B
:1005E00074580020D45600209456002008C00740BC
:1005F00090F92410104B03604B1C06D0F0B40F4E42
:1006000056F82130984201D0F0BC70470C4F57F893
:10061000213033B18D0000245A1953685460002BE7
:10062000FAD1084C23780022013B237047F821209F
:1006300046F82120E8E700BF804F0100B4560020B3
:1006400094560020D556002038B590F924506B1CE4
:100650001BD00E4B0E4953F825400E4BEDB24FF018
:10066000FF320D701A6084B1AD0002E02C44646862
:100670005CB194F82530002BF8D0236820462C4438
:100680001B6898476468002CF3D138BD945600204D
:10069000D4560020B8F3FF1F704700BF90F9241014
:1006A000104B03604B1C06D0F0B40F4E56F82130AF
:1006B000984201D0F0BC70470C4F57F8213033B14D
:1006C0008D0000245A1953685460002BFAD1084C4D
:1006D00023780022013B237047F8212046F821208F
:1006E000E8E700BF804F0100B45600209456002078
:1006F000D556002090F92410104B03604B1C06D0F7
:10070000F0B40F4E56F82130984201D0F0BC70473B
:100710000C4F57F8213033B18D0000245A1953681B
:100720005460002BFAD1084C23780022013B23703F
:1007300047F8212046F82120E8E700BF804F01005C
:10074000B456002094560020D5560020704700BFB4
:1007500010B5002104460BF0A9FBB0B1B4F8B431D8
:100760009BB2C3B1B4F8B031B4F8B2219BB201333B
:10077000632BC8BF002392B2934207D09A1D04EBAB
:1007800082029BB25060A4F8B03110BDD4F8B831E9
:100790000133C4F8B831BDE810400BF043BB00BFD3
:1007A00010B5044B044640F8103B07F063FE2046AA
:1007B00010BD00BF384F010010B504460BF0B6FB6A
:1007C000204610BDB0F8B231B0F8B0119BB289B27A
:1007D0008B4202460FD00133632B86BF00210B46AC
:1007E00099B2063300EB83035868C2F8AC01A2F853
:1007F000B211043070470020704700BF826C62B1B4
:10080000137803F0080303F0FF0003B3D3695069C2
:10081000181A48BF6FF000407047C16CC1B191F821
:10082000313003F0080303F0FF0083B1D1E9042362
:10083000D1E90001101A30B463EB010100256FF01B
:1008400000448D4208BF844200D2204630BC70472D
:1008500008467047836C13B1184606F085BFC06C1C
:1008600008B105F097BD704700B5836C83B063B1E4
:10087000184601220DF1070106F0C0FD01280CD138
:100880009DF8070003B05DF804FBC06C28B101229D
:100890000DF1070105F0BEF8F0E74FF0FF30F1E78A
:1008A000836C13B1184606F073BEC06C08B105F036
:1008B00081B94FF0FF307047836C13B1184606F0D2
:1008C00059BFC06C08B105F003BF704700B5836C19
:1008D00083B08DF8071043B1184601220DF10701CE
:1008E00006F048FF03B05DF804FBC06C0028F9D0A7
:1008F00001220DF1070105F0EBFE03B05DF804FBEA
:1009000070B5044608460D460EF0BAF82368024654
:10091000294620465B68BDE870401847002310B4A4
:10092000104C4172026104600372C36041B1194608
:1009300000E0026942F82310427A01339A42F8DC5F
:10094000094B1A680AB90BE01A465369002BFBD110
:100950005061002343618380C380837210BC704761
:100960001860F6E72C4F0100E857002038B505461F
:10097000D0F8AC0120B10BF055FA0023C5F8AC312A
:10098000B5F8B241B5F8B031A4B29BB29C420ED0DA
:100990000134642C28BF0024A31D05EB8303586891
:1009A0000BF040FAB5F8B0319BB29C42F0D19BB24B
:1009B000A5F8B23138BD00BF464A474B1020108021
:1009C0001B781B0734D5F0B5444E454D454C317866
:1009D0002B782278DFF82CE1434F824042EA032350
:1009E0000B43FF22802132702A7022708EF8001093
:1009F0003970D9073D4A14D51A2393603C4F3D4EB8
:100A00003D4D3E4C3E49107900233B70537093702E
:100A1000D370D360337013712B7023701370087010
:100A2000F0BD1F0705D4DE0606D504239360E5E775
:100A3000704721239360E1E79D0604D45C0604D54A
:100A400016239360DAE79060D8E7180602D50923E9
:100A50009360D3E7D90502D50A239360CEE79F05BB
:100A600002D50D239360C9E75E0502D50B23936081
:100A7000C4E71D0502D51E239360BFE7DC0402D541
:100A800002239360BAE7980402D507239360B5E781
:100A9000590402D506239360B0E71F0402D515233D
:100AA0009360ABE7DE0302D524239360A6E79D03A2
:100AB00002D522239360A1E7DC0202D525239360AF
:100AC0009CE71803F5D45903F3D49B0244BF2323B6
:100AD000936093E70020054002D0074005C007401F
:100AE00006C0074007C0074009C0074074580020EF
:100AF00000C0074001C0074002C0074003C00740D4
:100B000004C0074008C00740002976D02DE9F04F07
:100B10000C469100631883B05D68002D57D06B18A8
:100B20005E68002E50D073185F68002F49D07B1884
:100B3000D3F80480B8F1000F3CD008EB0103D3F8E0
:100B40000490B9F1000F32D009EB0103D3F804A0EF
:100B5000BAF1000F27D00AEB0103D3F804B0BBF1C0
:100B6000000F18D00BEB01035B6863B119440193CC
:100B70004968FFF7C9FF019B93F825201AB11A684D
:100B80001846536898479BF8253023B1DBF80030AE
:100B900058465B6898479AF8253023B1DAF8003058
:100BA00050465B68984799F82530002B35D198F866
:100BB000253063BB97F825301BB13B6838465B682E
:100BC000984796F82530CBB995F8253063B994F855
:100BD000253013B903B0BDE8F08F23685B68204669
:100BE00003B0BDE8F04F18472B6828465B6898476C
:100BF00094F82530002BEDD0EFE77047336830468E
:100C00005B68984795F82530002BE0D0ECE7D8F8E2
:100C1000003040465B689847CCE7D9F8003048463A
:100C20005B689847C3E700BF90F92420531C26D087
:100C30001B4B2DE9F04153F82240D2B2ECB19300A6
:100C4000E1184D68B5B1E9184E6866B1F1184F6802
:100C500037B13B445968FFF757FF97F82530A3B9E0
:100C600096F8253063B995F825301BB12B682846D6
:100C70005B68984794F8253063B9BDE8F081704708
:100C8000336830465B689847EDE73B6838465B68F9
:100C90009847E5E7236820465B68BDE8F0411847C0
:100CA0009456002008B50C4B0C491A680C48022ACF
:100CB00008BF0C4A4FF00003A1F8B43108BFA2F8F6
:100CC000B431094A094B12881A8007F0D3FB64201B
:100CD000BDE808400AF066B80CFAFF1FA04F0020DC
:100CE000E85400205C51002014580020EC570020EC
:100CF000264B1B680F2B0CD8DFE803F00C101418E0
:100D00001C2024282C3034383C404408204B214AF5
:100D10001A6070471E4B204A1A6070471C4B1F4ACE
:100D20001A6070471A4B1E4A1A607047184B1D4ACA
:100D30001A607047164B1C4A1A607047144B1B4AC6
:100D40001A607047124B1A4A1A607047104B194AC2
:100D50001A6070470E4B184A1A6070470C4B174ABE
:100D60001A6070470A4B164A1A607047084B154ABA
:100D70001A607047064B144A1A607047044B134AB6
:100D80001A607047024B124A1A60704700FAFF1F40
:100D9000C0540020BD549341103377C0993918C016
:100DA000BE0D68BFCE71153F8D090340CCC96240AE
:100DB00009A7A3407DDBD140C416014154FC174173
:100DC000D0E83041195546419FAB5F41A041764183
:100DD0005E2E864138B50121142009F0FFFD234B1A
:100DE0001B68012B3DD00021072009F0C1FF002125
:100DF0000C2009F0BDFF00210E2009F0B9FF0521EC
:100E0000072009F0C9FF1A4C1A4D05210C2009F0E2
:100E1000C3FF05210E2009F0BFFF2078002109F053
:100E2000A7FF2878002109F0A3FF0521287809F001
:100E3000B3FF4FF4FA6009F0B5FF0121207809F003
:100E400097FF4FF4FA6009F0ADFF2078002109F018
:100E50008FFF4FF4FA6009F0A5FF074B074A1A60AD
:100E600038BD074807F006FBBDE700BFB00A002009
:100E7000C4530020D85300200CED00E00400FA0514
:100E8000E85400202DE9F84FDFF8E891D9F8003058
:100E9000012B61D0022B01D0BDE8F88F6F4DB5F862
:100EA000B031B5F8B22199B293B2994238BF6431EA
:100EB000CB1A1F2BF0DD01211020DFF8BCA1DFF8D9
:100EC000B0B1DFF8989109F053FF0AF58047D84692
:100ED0000026D5F8AC310024002B00F08C80DBF824
:100EE000AC310020002B00F0828000F58071534669
:100EF00034F9022B23F8042C30F9022B23F8022CAE
:100F0000884203F10403F3D1D5F8AC0118B10AF01B
:100F100089FFC9F8AC61DBF8AC0118B10AF082FFB7
:100F2000C8F8AC610AF5007A5745D2D110200021EB
:100F300009F01EFF4A4B986C002876D04FF480428F
:100F4000484906F017FC013000F08180464A1368DA
:100F500020331360BDE8F88F404DB5F8B031B5F8D7
:100F6000B22199B293B2994238BF6431CB1A3F2B68
:100F700092DD3E4CDFF8E4A00121102009F0F8FEDC
:100F800004F5804800271AE009F03EFA30460AF0DE
:100F900049FFC5F8AC713148FFF714FC4FF480727B
:100FA0000146204609F030FAD5F8AC0118B10AF034
:100FB00039FFCAF8AC7104F50074444520D0D5F867
:100FC000AC61A4F5807B4FF4807200215846002E5E
:100FD000DAD12248FFF7F6FBDAF8AC6101464FF4AC
:100FE0008072584609F010FA002ED4D0CEE720487F
:100FF000FFF7E8FB79E71948FFF7E4FB04466EE7E3
:101000001020002109F0B4FE154B986CB0B14FF4DC
:101010008042144906F0AEFB01301BD01249D9F8CA
:1010200000300A6820320A6034E7D86C00288DD07E
:101030004FF480420B4905F04BFB84E7D86C002845
:10104000ECD04FF48042074905F042FBE4E7FFF79C
:10105000C1FE7BE7FFF7BEFEE0E700BFA04F002028
:10106000D8540020E40A00209C4F0020E40B00200C
:101070005C5100200CFAFF1FE80A002038B500255B
:101080000824282009F0CCFB0CF0FEF94FF06A513F
:101090000CF04EFA014628460CF042F9013C054698
:1010A000EFD104490CF044FA4FF078510CF040FABB
:1010B00038BD00BFD7A3E840064A074B116853F874
:1010C000211031B1116853F82120013A43F8212051
:1010D0007047FEE7905500203855002010B582B0CB
:1010E00004460DF0CDFC00B2012816DDB4F9003045
:1010F00044F25242934233D012DD44F2537293428F
:101100001DD044F65212934207D101AAE01C1C499B
:101110000DF076FC1B4B019A1A60012002B010BD45
:1011200044F24E429342F8D101AAE01C14490DF05A
:1011300067FC154B019A1A60012002B010BDE01C3B
:1011400001AA0F490DF05CFC019B0F2B13D90F4B2B
:10115000042119600F2009F041FC012002B010BDEC
:1011600001AAE01C06490DF04BFC094B019A1A60DC
:10117000012002B010BD054AD9B21360EAE700BFF2
:10118000984F01009CFAFF1FE00A002000FAFF1FA1
:1011900094FAFF1F2DE9F04FDFF89882A04BD8F8A2
:1011A00078549FB04FF47A720A9300238DF82C3054
:1011B0008DF834301C931D930C92002D00F0CF80DD
:1011C00005F23C46304605F0AFFF2946304606F0B2
:1011D0000FF9DFF87492D9F800100EAF21B138463C
:1011E0000023904A07F05AF91C98002800F0D48098
:1011F00000252E468DF808604FF0000B4FF0FF0AD7
:1012000098B101220DF1070106F0F8F8012817D076
:101210000BF101031EAA93441BB21D2B0BF870ACFB
:1012200017DC1C989B460028EBD11D9B002B55D04A
:10123000184601220DF1070104F0ECFB0128E7D16B
:101240009DF807200D2A08BF5B4640F0C9801D2B82
:10125000E7DD013B9BB21EAA1A4402F8706C9DF8B0
:1012600008202F2A04D0012B02D902A8FFF736FF4D
:101270001C98C0B1037819070ED4384607F0FAF865
:10128000002D36D10124684B0A93384607F0F2F856
:1012900020461FB0BDE8F08FC36942699A1AA9D4ED
:1012A000002AA7D1E9E71D9B002BE6D093F8312057
:1012B0001207E2D5D3E904ABD3E90023BAEB02026B
:1012C0006BEB03034FF0000B6FF0004A9B4508BF28
:1012D000924538BF5246002A8CD1CEE70BF101036C
:1012E0001EAA93441BB21D2B0BF870ACB1DC9B46BD
:1012F00099E70B214D480AF00DFC00230A222146F4
:101300004B480AF0D5FF4A480AF0A8FFD8F87854AD
:10131000484B9DB305F23C46304605F005FF294693
:10132000304606F065F8D9F8001029B144F20223DE
:101330003C4A384607F0B2F81C9B002B49D02146A6
:10134000184606F05BF91C9800283AD002223A4968
:1013500006F010FA384607F08DF8012493E7D8F824
:101360007C54002D3FF435AF05F58866304604F017
:10137000D1FA2946304604F0D7FA2AE7D3F87C544C
:10138000002DD0D005F58866304604F0C3FA294612
:10139000304604F0C9FAC6E71D9D002D7FF428AF42
:1013A000142126480AF0B6FB21480AF057FF0D2207
:1013B000234924480AF03CFF22482C460AF04EFFFD
:1013C00061E71D980028C5D002221B4905F080F96D
:1013D000C0E71D980028BDD0224604F003FCB2E708
:1013E0001EAB03EB0B01542A0BF1010301F8702C27
:1013F0001BB20DD11C9818B14469013C012526E7A8
:101400001D9A12B11468013CF8E74FF0FF34F5E77C
:101410001D2B3FF71EAF0A2A3FF41BAF01E700BFA9
:101420005C4F01009C4F0100384F0100A84F0100A4
:1014300030000020E84A0020B44F0100B84F0100FE
:10144000D04F010088540020885600202DE9F0413B
:10145000044604200D46164609F090FC8046032001
:1014600009F08CFC0746B8F1000F2AD1DFF89C8008
:10147000244AD8F800300121132B117039DD0133D3
:10148000642BC8F800303ADDC82BD4BF05343C3497
:1014900067B91D4F1B4A3B680121132B117022DDD8
:1014A0003C2C16DC01233B60013C02E0164B002281
:1014B0001A60AC4209DBB442C8BF2C462046BDE8E6
:1014C000F081124B00221A60E2E734462046BDE864
:1014D000F0813B680133642B3B60E5DDC82BD4BF52
:1014E000053C3C3CE5E7C82009F05CFC3C2CD9DD20
:1014F000EFE7C82009F056FCD8F80030BFE7013408
:10150000C6E700BF904F002048550020D05400206F
:1015100010B5094C204608F033FD2046012108F0A3
:1015200085FA2046022108F07BFA00222046114667
:10153000BDE8104008F070BA8854002038B5054660
:1015400007F0F0FF1E4C014620460AF0F1FE2D2068
:101550000AF064FB284607F0D7FF014620460AF050
:10156000E7FE2D200AF05AFB284607F0BFFF014690
:1015700020460AF0DDFE012112480AF0CBFA284687
:1015800007F08AFF014620460AF0D2FE3A200AF010
:1015900045FB284607F08EFF014620460AF0C8FEAC
:1015A0003A200AF03BFB284607F092FF014620460E
:1015B0000AF0BEFE2046BDE838400AF04FBE00BF2C
:1015C00030000020BC51010038B5054609F0ECF9A7
:1015D000074C2070681C09F0E7F96070A81C09F03E
:1015E000E3F9A070E81C09F0DFF9E070206838BD6D
:1015F000AC53002008B50020FFF7E6FF1A4B186037
:101600000420FFF7E1FF194B1860082009F0CCF91E
:10161000174B1870092009F0C7F9164B18700A20EB
:1016200009F0C2F9144B18700B2009F0BDF9134BE7
:1016300018700C2009F0B8F9114B18600D2009F052
:10164000B3F9104B18600E2009F0AEF90E4B18706C
:101650000F2009F0A9F90D4B1860102009F0A4F92A
:101660000B4B186008BD00BF94FAFF1F9CFAFF1FC8
:10167000DC0A00208C55002020540020984F0020C8
:10168000C454002088FAFF1F90FAFF1F00FAFF1FC2
:101690000CFAFF1F38B50A4C0B460546C9B2236049
:1016A00009F09CF96178681C09F098F9A178A81CE8
:1016B00009F094F9E178E81CBDE8384009F08EB9EA
:1016C000AC53002008B51C4B00201968FFF7E2FF5F
:1016D0001A4B04201968FFF7DDFF194B0820197811
:1016E00009F07CF9174B0920197809F077F9164BA6
:1016F0000A20197809F072F9144B0B20197809F0B7
:101700006DF9134B0C20197809F068F9114B0D2075
:10171000197809F063F9104B0E20197809F05EF979
:101720000E4B0F20197809F059F90D4B102019783C
:10173000BDE8084009F052B994FAFF1F9CFAFF1F58
:10174000DC0A00208C55002020540020984F0020F7
:10175000C454002088FAFF1F90FAFF1F00FAFF1FF1
:101760000CFAFF1F70B5154C154D2046022108F0EC
:1017700057F9144B2A6853F8226030460DF080F96F
:101780003146024620460AF053FD20460AF066FD27
:101790002046012108F044F92A680B4B53F82250E7
:1017A00028460DF06DF92946024620460AF040FD14
:1017B0002046BDE870400AF051BD00BF88540020AB
:1017C000C053002060FAFF1FC8FAFF1F30B50F4C4E
:1017D00083B02046012108F023F90022204664212D
:1017E00008F01AF9FFF74AFC0BF0F8F90125024658
:1017F0000B46009520460AF0A3FD05492A462046DF
:1018000003B0BDE830400AF013BD00BF885400208B
:10181000E04F010008B501210F4808F001F9082246
:1018200064210D4808F0F8F80C4B1B68012B0BD015
:1018300008225A21084808F0EFF80622084906480D
:10184000BDE808400AF0F4BC042206490248BDE89D
:1018500008400AF0EDBC00BF885400200CFAFF1FBE
:10186000EC4F0100E44F01002DE9F04F83B00F462B
:10187000019080680021013016460BF01BFE0146E6
:1018800029480BF009FF044630460BF0F9FD0146EC
:101890000BF046FD064638460BF0F2FD0146304699
:1018A0000BF046FE014620460BF0F6FE4FF0010815
:1018B0004FF07E550746C1464FF0010A4FF0000B2E
:1018C00050460BF0E1FD39460BF032FE04460BF0BA
:1018D000F5FF0BF0D9FD014620460BF01FFD294610
:1018E00006460BF0C3FF4FF0874148B120460BF08E
:1018F000BDFF28B120460CF03FF835468046D14662
:101900001AF1010A4BF1000BBBF1000F08BFBAF14D
:10191000400FD5D1019809F1FF3208F1FF3380E87B
:101920000C0003B0BDE8F08F001B374C2DE9F041EF
:1019300010298AB00C46074663D0202904BF012332
:1019400009932246394607A8FFF78EFF0798089E9D
:10195000099D0294431C01360135039304960595B5
:101960000BF08EFD4FF07E510BF0DAFC26490BF0A8
:10197000DFFD804630460BF083FD014640460BF00C
:101980008BFE4FF07C510BF0D3FD064628460BF042
:1019900077FD014630460BF07FFE054660000BF0F8
:1019A00073FD014628460BF077FE0BF087FF174BBF
:1019B00001901A46009716491648174D174C0AF021
:1019C00069FC174917480B6823F010430B60079A0E
:1019D000089B120302F47F22C3F30B0313432B6013
:1019E0009DF8243043F0E06323609DF8243043F0F9
:1019F0008E4303600B6843F010430B600AB0BDE8F0
:101A0000F081032309939CE7001BB74C00D8B8056D
:101A1000F44F01003000002004F1024008F00240C1
:101A200080F0024088F002402DE9F04F05469D4EBF
:101A30009D4FDFF88C8296F800E02F60FF2085F83C
:101A40002400DFF8809298F80000BEF1060F59F8E4
:101A500020E04FF000038DB00C4685F8253085F866
:101A6000263098BF3370BEF1000F00F0AD808E4578
:101A70005ED07346810001E09C4259D00B445B6804
:101A8000002BF9D1734600E053460B44D3F804A071
:101A9000BAF1000FF8D15C603478029705EB010BC6
:101AA0004FFA80FCFF23062CCBF804A08DF82DA064
:101AB0008DF82EA085F824C08DF82C30744604D8FB
:101AC00000233370002C00F0B480A24229D02346BA
:101AD00001E0934225D00B445B68002BF9D104EB65
:101AE000010EDEF80440002CF9D1CEF804200CAB36
:101AF0001944BCF1FF3F00F101034FF0000041F831
:101B0000240C88F800308DF82CC0029705D0674966
:101B100051F82C2002AB9A4276D028460DB0BDE891
:101B2000F08F013088F8000028460DB0BDE8F08F36
:101B300031780297FF24002306298DF82C408DF878
:101B40002D308DF82E30574C00D823709645E8D0B4
:101B50007346810001E09A42E3D00B445B68002B9E
:101B6000F9D18E44DEF804402CB1A6468E44DEF84E
:101B70000440002CF9D10CAB46B219440130731C5F
:101B8000CEF8042088F8000041F8244C02978DF824
:101B90002C60C2D0454951F8262002AB9A42BCD1F4
:101BA00059F82630B00023B11A1853685460002B3E
:101BB000FAD198F800300022013B88F8003049F84B
:101BC000262041F82620A8E700283AD0374B96F87F
:101BD00000E043F82050810005EB010C002349F898
:101BE00020408DF82D30CCF804308DF82E304FFA8F
:101BF00080FCFF23BEF1060F029785F824C08DF804
:101C00002C307FF65DAF5DE759F82C304FEA8C043D
:101C100023B11A1953685060002BFAD198F800309C
:101C20000022013B88F8003049F82C2041F82C2094
:101C300073E7E8B11D4B49F8202002AA43F82020A1
:101C400055E71B491B480B68019243F080630B600A
:101C50000368194923F080430360152008F0A6FFAC
:101C6000164B019A4FF40011196098F80000ADE787
:101C70000F4C10482368019243F08063236003688F
:101C80000D4923F080430360152008F08FFF0B4BB4
:101C9000019A4FF40011196098F800004FFA80FC87
:101CA0008100C7E7BCF3FF1F804F0100B45600203E
:101CB00004700440007004407504000000E100E07E
:101CC000D5560020945600202DE9F04708F026FE56
:101CD0004FF0FF316748684D08F03EF96749684B9F
:101CE0000A682B6000236B722B612B72EB600AB9C0
:101CF000BDE01A465369002BFBD155610024614EAB
:101D0000614F624B6C61AC80EC80AC725A482B60C6
:101D1000DFF8C891DFF8C8A1DFF8C88102F0ACFE97
:101D200006F1180230460121FEF7F8FD07F118020E
:101D300001213846A6F8B041C6F8AC41A6F8B24138
:101D4000C6F8B841A6F8B441C6F800A0FEF7E6FD13
:101D50004846A7F8B04189E86000A7F8B241C7F843
:101D600000A0C7F8AC41C7F8B841A7F8B44189F85A
:101D7000084089F80940C9F80C4089F810400AF079
:101D8000A1F8434A4349444EDFF85CA148460AF0B3
:101D9000BBFD4FF00109404688E8A00088F80940E3
:101DA000C8F80C4088F8104088F808900AF08AF8C3
:101DB0003849374A394D40460AF0A6FD384A394B72
:101DC000106A394A1A600BF05FFBFF27CAF800005F
:101DD000364B86F8254086F824702D4A34497463C2
:101DE0003046B46386F83C4086F8269033600AF0AB
:101DF0008BFD304B85F8247085F82540244A2E4908
:101E00002B60284685F8269085F8274085F82840DD
:101E10000AF07AFD324629462848294DFFF704FE8C
:101E20001B4A284925480AF06FFD274B184AC3F87A
:101E300078442826C3F87C4483F8984483F8956452
:101E4000C3F8A0542149224D18460AF05DFD214BEC
:101E50000F4A1C714FF47A761C739C64DC649E609C
:101E60001D601D491846BDE8F0470AF04DBD0D60E4
:101E700044E700BF88540020F0530020E8570020BA
:101E80002C4F0100A04F00205C510020585501004C
:101E9000FCF9FF1FB90700004453002058550020EB
:101EA0003CFAFF1FA05300203C550100945601004E
:101EB0009D060000A8560100F5060000B40A0020A7
:101EC00001100138F1050000E84A00204D0700002C
:101ED0005C4F0100D8540020A107000018530020D7
:101EE000944F01002C530020285500202DE9F84F75
:101EF000424C434FDFF80C810A9E0B9D81468A4677
:101F00002046396893461F4603F0FEF9204600211B
:101F100002F0F8FE88FB0B314FEAEB73C3EBA10133
:101F200001EB8102ABEB420B0BF00F0B4BEA011103
:101F3000C9B2204602F0E6FE88FB0A314FEAEA7396
:101F4000C3EBA10101EB8103AAEB430A0AF00F0ADC
:101F50004AEA0111C9B2204602F0D4FE88FB0931D9
:101F60004FEAE973C3EBA10303EB8301A9EB410142
:101F70001B0103F0300301F00F011943204602F06A
:101F8000C1FE2046012102F0BDFE88FB0731FB1790
:101F9000C3EBA10101EB8103A7EB430707F00F0798
:101FA00047EA0111C9B2204602F0ACFE88FB0631B7
:101FB000F317C3EBA10101EB8103A6EB430606F087
:101FC0000F0646EA0111C9B2204602F09BFE88FBCB
:101FD0000538E917C1EBA80808EB8801A5EB410516
:101FE00005F00F0545EA08112046C9B202F08AFE45
:101FF0002046BDE8F84F03F099B900BF70560020A5
:10200000F0FAFF1F6766666670B5104C06460D460F
:1020100020460A2103F078F9C6F30721204602F092
:1020200071FEF1B2204602F06DFEC5F30721204695
:1020300002F068FEE9B2204602F064FE204603F09A
:1020400075F9B0FA80F0400970BD00BF70560020ED
:1020500008B500213020FFF7D7FF00210220BDE89E
:102060000840FFF7D1BF00BF08B5E2213020FFF7DD
:10207000CBFF43210220BDE80840FFF7C5BF00BFEA
:102080000238032810B503DC00285FDA002400E0E2
:102090000C2444F260013020FFF7B6FF6C212620AB
:1020A000FFF7B2FF4FF4F8712820FFF7ADFF40F6BD
:1020B00022712C20FFF7A8FF00213C20FFF7A4FF8E
:1020C000FFF7D2FF21460420FFF79EFF4FF49871DF
:1020D0000620FFF799FF00210A20FFF795FF08214E
:1020E0000E20FFF791FF4FF6FF711020FFF78CFFD6
:1020F00047F67F712220FFF787FF00214FF492708F
:10210000FFF782FF4FF48A712420FFF77DFF104C08
:1021100000212A20FFF778FF09210E4809F0FAFC78
:1021200021680D480AF004F90B480AF097F8216875
:10213000202041EA0111FFF767FF014606480AF037
:10214000F7F805480AF08AF8012010BD8400A0E7DE
:1021500000FAFF1F105001003000002010B5074B9F
:102160000446102153F82000FFF7E0FB044802F07A
:102170006FFE2046BDE81040FFF782BF3CFAFF1F0C
:1021800070560020F0B54B4C4B48216885B003F0E9
:10219000BBF80021484802F0B5FD0021464802F096
:1021A00015FF216844480023072203F0A7F842489E
:1021B00002F0C8FD0DF1FF36002504E002F0CCFD71
:1021C00006F8010F01353C4802F0BCFD04463A48D0
:1021D000002CF3D103F0AAF8072D02D0204605B059
:1021E000F0BD9DF800509DF801409DF804009DF859
:1021F00005109DF802209DF80630304FDFF8D4C05E
:102200002E1106EB860605F00F0505EB4606251197
:1022100005EB850504F00F0404EB4505041104EB00
:10222000840400F00F0000EB4404081100EB800070
:1022300001F00F0101EB400EF6B2C2F301113E7046
:10224000181101EB81011E4E02F00F0202EB410258
:1022500000EB8000EDB203F00F038CF8005003EBAD
:1022600040033270174D184A18485FFA8EF1E4B2F5
:10227000DBB22C700170137097F800E09CF80070CE
:1022800036782C78017813788DF80C401E3302A82C
:102290008DF80E308DF808E08DF809708DF80A6021
:1022A0008DF80D1007F04EF9094B012418602046F7
:1022B00005B0F0BDF0FAFF1F70560020405300201B
:1022C00034550020C455002041530020914F002078
:1022D0008C4F0020B05300202DE9F04383B004461A
:1022E000FFF750FF50B324B9174C206803B0BDE886
:1022F000F083154C206807F0CFF80546206807F0FA
:10230000D9F80646206807F0E3F80746206807F08A
:10231000EDF88046206807F0F7F88146206807F05E
:1023200001F9CDF800900190434628463A463146DF
:1023300000F0B4FA206803B0BDE8F08303B0BDE854
:10234000F04308F0FBBC00BF8C4F00202DE9F04F9C
:1023500001209DB0FFF7C0FFA14CA24D206007F007
:10236000D3F82B6883422CD09F4B1B684BB320685B
:102370009E4E07F0C9F82860206807F0D3F82B6854
:102380009B4902469B480CF015FBD6F87854002D6B
:1023900000F0FD8005F23C4101230025954A8DF8AF
:1023A00038500EA88DF839508DF83A5004F056FF89
:1023B000D6F878048D4B002800F001818D4906F095
:1023C00033F80021282008F0E7FCFEF757FE80468E
:1023D00089488A4D06F016FD206807F0A3F80646E6
:1023E000206807F091F80746206807F07FF88346D9
:1023F000206807F051F80D90206807F05BF88146DF
:1024000020687F4C07F064F87E4A0A928246404674
:102410000AF0E4FBCDE908017B4B18680AF0DEFB0B
:10242000CDE90601CDF800B0606821680D9B0193ED
:1024300032463B4605900491CDF80CA07349CDF887
:10244000089073480CF0B6FA71480CF019FB01467D
:102450006F4809F05FFB6F4809F000FF1AE065491B
:1024600005F0E2FF296829B140F60123684A6A486D
:1024700006F014F866480CF003FB0146644809F0C6
:1024800049FB644809F0EAFE0A2008F08BFC236847
:10249000142B75D8296841B1604C5D4A04F11000D5
:1024A00040F6012305F0FAFFA8B95D4C5D492368A9
:1024B000574801331A4623600CF07CFA4B4BD3F893
:1024C00078040028CBD1D3F87C040028CAD049492D
:1024D00004F0E6FCC6E754485449D0F800A0544D37
:1024E000544A554B554EDFF86081D6F8009003C929
:1024F000286092E80300A86093E8030010270123F6
:102500001FFA89F6AB82E860EE8250462F610BF02D
:10251000FBF95146A86150460AF002FF8246484640
:102520000AF0B2FF014650460BF002F80BF0ECF94E
:10253000434AD8F80030E86192E803005B02A26CDD
:102540006F84760003F124012E846862AB626960B7
:10255000002A3DD0104629462C2205F00BF909210E
:10256000384809F0D7FAD8F800102A4800230A2280
:1025700009F09EFE274809F071FE1DB0BDE8F08FFE
:10258000FEF728FC4FF47A7008F00CFC82E7D6F8CE
:102590007C1400293FF415AF012301F58861154A29
:1025A0008DF869500EA88DF86A508DF86B5003F0C5
:1025B000C3FFD6F878040D4B00287FF4FFAED3F8A4
:1025C0007C0400283FF4FDAE0A4904F069FCF8E6FB
:1025D000E06C0028C3D029462C2204F079F8BEE72D
:1025E0008C4F0020505500209CFAFF1FE84A002025
:1025F0001C5001000854002091260000885600203D
:10260000B453002034FAFF1FC054002028500100AA
:102610002454002030000020E8540020D85400202A
:102620009455002090500100285500207050010062
:102630009855002078500100805001000CFAFF1FCF
:1026400088500100645001008C53002038B50C4CB8
:10265000FFF77CFE0B4B002220461A60FEF786F93E
:10266000094B1B680125022BA4F8B45100D038BDDA
:10267000064C2046FEF77AF9A4F8B45138BD00BFE5
:10268000A04F00209C4F00200CFAFF1F5C5100203F
:102690002DE9F041804601200E46FFF71DFE244C37
:1026A000206006F03FFF0546206806F02DFF074634
:1026B000206806F01BFFA5F2BC739BB27F2B02D8EB
:1026C000FAB20C2A28D90023A8F80030206806F0B6
:1026D000E3FE0746206806F0EDFE0546206806F09A
:1026E000F7FEFBB2172B13D8EBB23B2B10D8C3B2BB
:1026F0003B2B0DD8FB026D0103F4FF2305F4FF55BE
:102700002B43C0F3460003439BB23380BDE8F08106
:1027100000233380BDE8F081C0B21F28D3D87F01E9
:1027200007F4FF57384340EA43239BB2CCE700BF8E
:102730008C4F00202DE9F0434F4A504BDFF8549165
:10274000DFF854814E4F117898F800401A7899F8C4
:102750000060386883B03C2313FB064613FB01245A
:1027600006F09AFE0546386806F0A4FEC5EB05158E
:1027700000EB8505386806F0D5FE00F14E03386899
:102780008DF8063006F0C0FE8DF80500386806F0BA
:10279000ADFEA6428DF804000AD2AE4249D8AC4242
:1027A00047D3A41BC4EB0414364D3748A40010E0F3
:1027B000AE4201D9AC421AD3C4EB0414A300A6EB79
:1027C000061403EB840404F5A8342E4D2E4804F5BA
:1027D000C07410212C6009F09DF929682B4809F07C
:1027E000A7FD2A4809F03AFD03B0BDE8F08302A82E
:1027F000002598F8003099F8002000F8085D8DF861
:1028000001308DF8022006F09DFE38602846FFF763
:1028100063FD3B68984204DD03F5A83303F5C073FC
:102820003B600F211A4809F075F93868FEF786FEFB
:10283000C2E702A8002599F8002098F8003000F8B7
:10284000085D8DF802208DF8013006F07BFE3860BF
:102850002846FFF741FD3B68094A984204DD03F52D
:10286000A83303F5C07313600F21094809F052F92A
:102870003868FEF763FE94E720540020984F00204C
:10288000944F002088530020AC50010030000020FD
:102890009C500100DC0A00208C55002030B583B02C
:1028A00002AD079C05F8082D8DF80200069A8DF8F8
:1028B00004304E3428468DF801108DF805208DF82F
:1028C000064006F03FFE08F03FFA0020FFF704FD47
:1028D000014B186003B030BDE44A00202DE9F04FF1
:1028E000002083B0FFF7F8FCB84BB94E1860012107
:1028F000B848DFF85083B84FB84D07F091F8012180
:10290000B44807F093F826220021B24807F084F873
:102910000322B349AF4809F08BFC26221921AD48A8
:1029200007F07AF80322AF49AA4809F081FC262271
:102930003221A84807F070F80322AB49A54809F0F6
:1029400077FC26224B21A34807F066F80222A7490C
:10295000A04809F06DFC2E2200219E4807F05CF88B
:10296000002331689B480A2209F0A2FC2E2219217B
:10297000984807F051F80023D8F8001095480A222B
:1029800009F096FC2E223221924807F045F83B6868
:1029900055F823000AF078FD95490AF07DFE0AF00B
:1029A0001DF90B46024693498A4809F073FC2E2212
:1029B0004B21884807F030F88F4B18680AF00EF961
:1029C0000B4602468B49834809F064FC8B4B1C681C
:1029D000012C00F05E81022C00F0D380884B3F6810
:1029E000D3F80090D6F800A050460AF049FD83467F
:1029F00020460AF049FD01460AF092FC59460AF0C9
:102A000097FD044655F827000AF03EFD0146204692
:102A10000AF08EFD7B490AF083FC4FF08E410AF0EC
:102A20007FFC73490AF038FE71490AF035FE764B97
:102A3000764A1B681060012B054600F005814FF0B7
:102A40007E5059460AF074FD8346D8F80000704C59
:102A5000704F50440AF014FD014658460AF01CFE1F
:102A60006D4B0090834618780AF00EFD6B4B196889
:102A70000AF05EFD594680464FF07E500AF04EFC4B
:102A8000674B19680AF054FD4946019058460AF010
:102A90004FFD019B014618460AF042FC01464046A4
:102AA0000AF0FAFD5F490AF043FD0AF02DFF002607
:102AB000019004F110094FF0000857F8040B44F896
:102AC000048B0AF0DDFC0146834628460AF0E2FE4C
:102AD000294600285DD158460AF0DEFD0AF07EF84E
:102AE00009F08AFE0AF0A6FB034644F8043C00FB0A
:102AF0000AF00AF0C5FC014630460AF011FCA14577
:102B00000646DAD100990AF0C7FD019D0446284621
:102B10000AF0B6FC014620460AF0C6FE26225C21D9
:102B2000002838D02B4806F077FF05223E49294877
:102B300009F07EFB2E225C21264806F06DFF3B4B00
:102B400024482A4683FB02232B44E917C1EB234187
:102B500009F0EEFB012236491E4809F069FB73219A
:102B600037221C4806F058FF274B1A481A68012ADA
:102B70000EBF30493049012203B0BDE8F04F09F0E3
:102B800057BB3F682D4A1E4B52F82790C3F8009060
:102B900028E70021B0E70F4806F03EFF052228494C
:102BA0000C4809F045FB2E225C210A4806F034FF50
:102BB00020460AF083FE1D49034681FB0321194488
:102BC000DB170448C3EB2141C2E700BF8C4F002054
:102BD00094FAFF1F8854002088FAFF1F3CFAFF1F59
:102BE000C0500100C4500100C8500100CC50010089
:102BF00000007A44D0500100C05400200CFAFF1F9E
:102C0000F4FAFF1F00003042C45400203055002069
:102C1000385500209053002090FAFF1F98FAFF1FAC
:102C200008FAFF1F00006145D850010007452EC279
:102C3000E0500100EC500100F0500100A0FAFF1F2D
:102C4000E45001009CFAFF1F164A174B10781B78BE
:102C5000834286BFC3F11803C018C01A0AF014FCDF
:102C6000124A134B06461B781078834286BFC3F185
:102C70003C03C018C01A0AF007FC0E49044630464F
:102C80000AF056FC21460AF04BFB0B490AF004FD02
:102C9000D7E63F68094A0A4B52F82790C3F80090DC
:102CA000A0E600BF20540020DC0A0020984F00203E
:102CB0008C550020000070420000B44410FAFF1F41
:102CC000F4FAFF1F10B5012204460849084809F02C
:102CD000AFFA092C03DC3021054806F063FE2146DB
:102CE0000348BDE8104009F023BB00BF08510100B4
:102CF0008854002038B504460D462348012106F0CB
:102D00008FFE2AB20021204806F086FE204606F0FB
:102D100009FC01461C4809F00BFB2D211A4806F05E
:102D200041FE204606F0F0FB0146174809F000FB83
:102D30002D21154806F036FE204606F0D7FB014649
:102D4000114809F0F5FA022210490F4809F070FA0B
:102D5000204606F0A1FB092803DC30210A4806F0D2
:102D600021FE204606F098FB0146074809F0E0FAEC
:102D7000204606F09FFBFFF7A5FF204606F0A8FBC4
:102D8000BDE83840FFF79EBF88540020F450010092
:102D90002DE9F047AB4D2C682CB1012C00F082805E
:102DA00030BFBDE8F0872046FFF796FAA64FDFF860
:102DB00010833860FEF7ACFB0A22A449A448A54E54
:102DC00009F036FAA24809F049FA0121A04806F0B4
:102DD00027FE122221469E4806F01EFE05229E492D
:102DE0009B4809F025FAD8F800109948013109F0FC
:102DF0009FFA01229949964809F01AFAD8F800205A
:102E0000974B934853F8221023460A2209F050FAB0
:102E100030682821FFF76EFF38683721FFF76AFF17
:102E20008B4807F027FA3A6833689A4236DB8D4CB4
:102E30002368002B00F0E880022B00F099810D211F
:102E4000894808F067FE894809F008FA884B1B6832
:102E5000002B00F0CE80012B00F0DC80854C8648F2
:102E60000E2108F057FE0020FFF736FAFEF766FB4A
:102E70000B21824808F04EFE2068FEF75FFB0B2115
:102E80007F4808F047FE3068FEF758FB0123AE216B
:102E90006F482B6007F07CF8FFF7D8FB2C68012CFB
:102EA0007FF47EAFFDF7EEFF042007F067FF0446D6
:102EB000032007F063FF14B9002800F00781714F69
:102EC000714B3A681B689A42FFF46AAF6F4B684ACD
:102ED0001B681468B3FA83F35B090020844214BFB3
:102EE000002603F00106012C14BF002403F00104A6
:102EF000FFF7F2F95F4B1B689842ACBF002004F06B
:102F00000100002840F03981002E40F03681FDF7A5
:102F1000C9FEFEF7D1F84F4B5D4F1C68DFF8A48166
:102F2000DFF8A4A13046FFF7D7F95A4A5A4B126886
:102F3000201A841A24EAE47483FB04232344E01750
:102F4000C0EBE32009F038FE09F056FC0AF04AF91C
:102F5000524A534B386002FB004483FB0423234452
:102F60008146E017C0EB631009F026FE09F044FC2F
:102F70000AF038F903011A1AC31A04EB8304920009
:102F80004FF4616303FB0929C8F800404C44092C45
:102F9000CAF8000024DD3146022007F0E9FEFFF701
:102FA00057F8404A136823F010431360642007F079
:102FB000F9FE98F800309AF8002039783A4806F07F
:102FC00057F93A4805F02AFF0121022007F0D0FE08
:102FD0004FF4967007F0E6FE354B1868FFF7BEF821
:102FE00001233C2202211A4807F03AF800232B6003
:102FF000D6E6304B254A31681B6812681D4C0B44DD
:103000001A44326023602AE70A210E20FEF7FCFFF3
:10301000236811E71D4B1A68002A40F0B880264A41
:1030200033681768134C2549104803F5A83202F598
:10303000C0723B4432602360FDF762FC2068FEF7FB
:103040007DFA0CE7B00A00208C4F0020F8500100F8
:1030500088540020944F002004510100BC5101000D
:1030600038550020E00A00200C51010030000020FB
:10307000C4540020BC5300202C5101003C510100DD
:10308000485101009C4F00208C5300209CFAFF1FE8
:10309000C854002004FAFF1FC5B3A291F0F1FFFF4E
:1030A0008988888880F0024044530020B40A0020B8
:1030B00088FAFF1F94FAFF1F885300201C5101005B
:1030C000905500202C5500201C540020354B364CC8
:1030D0001B68364A364E374DA06C5B02002103F167
:1030E0002407A6F8B41157609362A5F8B41100281C
:1030F00036D004F083FAA06C2B4B48B32C222B491A
:1031000004F038FB2C4805F0B5F901233C220221DC
:103110002A4806F0A5FF642007F044FEFEF7F8F900
:1031200007222749254809F083F8244809F096F832
:103130000121224806F074FC102222491F4809F0A0
:1031400077F81E4809F08AF81C4807F093F8FEE764
:10315000D86C0028D6D02C22144903F0B9FAD1E754
:10316000E06C0028CED00022002302F03BFDC2E735
:103170000B210E20FEF748FF61E60F4805F07AF9B3
:10318000FDF79AFFFFF7E2F800233B6008E60E4BDD
:1031900031681B680D4C0B441A4432602360FFF702
:1031A000C9FA5CE69C4F0020D854002098550020B6
:1031B000A04F00205C510020E854002088540020DB
:1031C000545101005C51010094FAFF1FBC530020D0
:1031D0002DE9F04F91B0FEF70DFAFDF789FD0020C3
:1031E000FFF77AF8DFF850B1454ECBF80000FEF754
:1031F0008FF9072243494448444C09F019F801214A
:10320000414806F00DFC102200213F4806F004FC66
:1032100012223F493C4809F00BF83B4809F01EF8E0
:103220003C4B0121187807F0A3FD4FF47A7007F0AA
:10323000B9FD0721384802F095FA0E21364802F010
:103240001DFB0C21344802F0D5FA344B34480025DC
:103250001D6009F003F8324809F000F805213148F3
:1032600008F058FC01212E4809F062F82C4808F0BB
:10327000F5FF0121244809F05BF804222A4922487D
:1032800008F0D6FF204806F0F5FF642007F08AFD1D
:10329000264B8DF81D501F7809958DF81C700896E7
:1032A00007AB93E807000AAB83E807008DF82950C5
:1032B0000C958DF828700B9693E807000DAB83E80A
:1032C00007000F9A009204F591650CCB284604F292
:1032D0009C4105F041FA94F89534C4F884546BB3DA
:1032E0001C21134808F016FC0D4808F0B7FF09220E
:1032F0001049054808F09CFF034806F0BBFFFEE7B5
:1033000080F0FA027051010088540020E84A002041
:1033100078510100C4530020FCFAFF1F9053002095
:1033200030000020045101008C510100D8530020CE
:10333000C4510100E4510100E44A0020294620461E
:1033400005F0EEF80028CBD0D4F87804002800F07F
:103350000A8704F087FF05460821B74808F0DAFB22
:103360002946B64808F0E4FFB44808F077FF28463D
:103370000AF08AF8B2490AF0DBF8D4F87834B14A96
:103380000546002B00F0558718790AF079F80146B8
:1033900028460AF0CDF80AF0B7FA0546D4F88404B6
:1033A00005F0B4FB0AF06CF8A5490AF0C1F80AF080
:1033B000ABFA0A210446A44808F0ACFB21460023DE
:1033C0000A229E4808F074FF9C4808F047FFC72D6A
:1033D00000F2C4869D4A0023136011219C4808F026
:1033E00099FB9A499548096800230A2208F060FF72
:1033F000924808F033FF95499648096800230A224D
:1034000008F056FF01229449924808F011FF00236A
:103410000A2221468F4808F04BFF8E4808F01EFF15
:103420008C4806F027FF4FF47A7007F0BBFCFDF7DD
:10343000B1FEFDF75DFCFEF745F9884B1A68884B35
:103440009A4200F2ED86874A854B12689A4200F252
:10345000AE86854B1B78172B00F2B586834B1B7805
:103460003B2B00F2BC86824B1B78172B00F2C386E5
:10347000804B1B783B2B00F2CA867F4E3368012BB2
:1034800005D9002319460C20336007F0A7FA7B4BBF
:103490001B68082B00F28286794B1B78082B00F200
:1034A0007486784B1B680F2B00F26686764B1B6880
:1034B000013B012B06D90123734A194610201360E2
:1034C00007F08CFA714D0020FEF706FFDBF80030A4
:1034D0002860C31AB3F5167FD4BF0023012304204C
:1034E000029307F04BFC3368012B00F03286684AE8
:1034F0000923136040B3032007F040FC00284FD09D
:10350000082007F03BFC002831D0FEF701F8FEF759
:1035100029F9FFF7E3F9FEF759F9FEF77BF90020E7
:10352000FEF7DAFE3721FFF7E5FB4A4806F0A2FE78
:103530000A2007F037FC029B002BC4D011B0BDE875
:10354000F08F0A2007F02EFC042007F017FC00285B
:10355000F7D0504A4E4B1968136801338B42136001
:10356000A4BF00231360C6E70A2007F01BFC082055
:1035700007F004FC0028F7D0464B1B68092B00F22B
:10358000D785DFE813F0760546005E01EF001405ED
:10359000A702BA011C018101AE000A2007F002FC5B
:1035A000032007F0EBFB0028F7D03A4A1368013BF1
:1035B000002B1360A4DA364B1B68013B13609FE7B6
:1035C000264B1868FDF742FF244B1860FDF7A0FF5B
:1035D000072231491F4808F02BFE1E4808F03EFE26
:1035E0001E491C48096800230A2208F061FE224691
:1035F0002A49184808F01CFE164808F02FFEFFF76D
:103600006DF9FEF7E3F8134806F034FE022007F0E8
:10361000C9FB082007F0B2FB0128044601464FF41D
:103620006162CDD0082007F0A9FB0028FAD0194B21
:1036300000221A6000F07CBD94510100300000208F
:10364000BD37063AE84A0020A051010090530020FF
:10365000AC51010088540020C051010094FAFF1FB2
:10366000A08601009CFAFF1FDC0A00208C55002078
:1036700020540020984F0020C454002088FAFF1FD7
:1036800090FAFF1F00FAFF1F0CFAFF1F8C4F00205B
:10369000C4FAFF1FC05300204C52010054520100D5
:1036A000BA4B1878FDF7D2FEB84B1870FDF730FF13
:1036B0000722B749B74808F0BBFDB64808F0CEFD71
:1036C000B249B448097800230A2208F0F1FDFFF757
:1036D00005F9FEF77BF8AF4806F0CCFD022007F0B5
:1036E00061FB082007F04AFB01284FF017024FF05A
:1036F0000001D5D0082007F041FB002840F03281BE
:10370000082007F03BFB0028F4D02BE1A24B1868FF
:10371000FDF79CFEA04B1860FDF7FAFE9F499D48FF
:10372000042208F085FD9B4808F098FD9A4A9C4BBE
:10373000126853F8220009F0A7FE9A4909F0ACFF7D
:1037400009F04CFA02460B469248974908F0A2FD50
:10375000FFF7C4F8FEF73AF88E4806F08BFD02201A
:1037600007F020FB082007F009FB01284FF00802B2
:103770004FF00001CAD0082007F000FB00287FF4BA
:1037800056AF082007F0FAFA0028F4D04FE7874B2D
:103790001868FDF75BFE854B1860FDF7B9FE09223E
:1037A00083497C4808F044FD804B7A48196808F04A
:1037B000BFFD784806F05EFD022007F0F3FA08200E
:1037C00007F0DCFA012801464FF00202DFD00820A2
:1037D00007F0D4FA00287FF42AAF082007F0CEFAC9
:1037E0000028F4D023E7734B1868FDF72FFE714BC8
:1037F000186018B9704A4FF416731360FDF788FE0D
:1038000006226E49634808F013FD624808F026FD61
:1038100068496048096800230A2208F049FD01222E
:1038200067495C4808F004FD5A4808F017FDFFF7A7
:1038300055F8FDF7CBFF574806F01CFD022007F0B6
:10384000B1FA082007F09AFA01285E4A4FF0000109
:10385000C9D0082007F092FA00287FF4E8AE0820CB
:1038600007F08CFA0028F4D0E1E6042256494948D2
:1038700008F0DEFC554B1B68012B1ED0454806F0B6
:10388000F9FC022007F08EFA082007F077FA0128E9
:1038900002464FF0000140F0A7803068FDF7D6FDEA
:1038A0003060FDF735FE052249493A4808F0C0FC72
:1038B0003368002BD9D0012BE0D10522454935488A
:1038C00008F0B6FCDAE7444B1878FDF7BFFD424B31
:1038D0001870FDF71DFE092240492E4808F0A8FC8B
:1038E0003D492C48097800230A2208F0E1FC2948C8
:1038F00006F0C0FC022007F055FA082007F03EFA57
:10390000012801464FF00802DDD0082007F036FA02
:1039100000287FF48CAE082007F030FA0028F4D09D
:1039200085E62F4B1878FDF791FD2D4B1870FDF7AC
:10393000EFFD08222B49174808F07AFC154808F0DB
:103940008DFC27491348097800230A2208F0B0FCAF
:10395000FEF7C4FFFDF73AFF0E4806F08BFC02208D
:1039600007F020FA082007F009FA01284FF03B027F
:103970004FF00001D5D0082007F000FA002860D1F0
:10398000082007F0FBF90028F5D05AE0DC0A0020F7
:10399000DC5201008854002088FAFF1F60520100A9
:1039A0003CFAFF1F00007A44685201000CFAFF1F26
:1039B000B85201009CFAFF1F94FAFF1F58520100F1
:1039C0005452010080510100CC520100C454002027
:1039D000C4520100D452010090FAFF1FAC52010002
:1039E0008C550020E4520100082007F0C7F9002898
:1039F0007FF41DAE082007F0C1F90028F4D016E6C8
:103A00009A4B1878FDF722FD984B1870FDF780FD52
:103A100006229749974808F00BFC964808F01EFCD0
:103A200092499448097800230A2208F041FCFEF7E5
:103A300055FFFDF7CBFE8F4806F01CFC022007F077
:103A4000B1F9082007F09AF901284FF017024FF05A
:103A50000001D5D0082007F091F930BB082007F00D
:103A60008DF90028F6D020E0834B1878FDF7EEFCA6
:103A7000814B1870FDF74CFD072280497D4808F006
:103A8000D7FB7C4808F0EAFB7B497A480978002399
:103A90000A2208F00DFCFEF721FFFDF797FE75489E
:103AA00006F0E8FB022007F07DF9082007F066F930
:103AB00001284FF03B024FF00001D5D0082007F05D
:103AC0005DF900287FF4B3AD082007F057F900280E
:103AD000F4D0ACE56A4C6B4FDFF8BC8150E028684D
:103AE00005F020FD40F634024FF4FA613860FDF72E
:103AF000ADFC3B68C8F80000984224D0206805F06F
:103B0000CBFC8146206805F0D5FC8246206805F094
:103B1000DFFC0490206805F0E9FC0390206805F0C4
:103B2000F3FC0090D8F80030049AA3F5FA6E5146E1
:103B3000039BCDF804E04846FEF7D8F90020FEF7D5
:103B4000CBFBCBF80000FDF7E3FC05224E494948CA
:103B500008F06EFB474808F081FB0020FEF7BCFB35
:103B600005F0E0FC0146434808F0E2FBFEF7B6FE34
:103B7000FDF72CFE3F4806F07DFB022007F012F90E
:103B8000082007F0FBF80128A9D0082007F0F6F874
:103B90000028FAD0022007F005F9394C3B4FDFF836
:103BA000FC804FE0286805F0AFFC49460C223860E5
:103BB000FDF74CFC3B68C8F80000984225D020680F
:103BC00005F06AFC8146206805F074FC8246206896
:103BD00005F07EFC0590206805F088FCD8F8001000
:103BE00004902068039105F09DFC03990091A0F5D5
:103BF000FA600190049B059A51464846FEF776F913
:103C00000020FEF769FBCBF80000FDF781FC0622DF
:103C10001F49184808F00CFB164808F01FFB00204D
:103C2000FEF75AFB05F070FC0146124808F080FBD5
:103C3000FEF754FEFDF7CAFD0E4806F01BFB0220FE
:103C400007F0B0F8082007F099F801288146A9D0BC
:103C5000082007F093F80028FAD0022007F0A2F815
:103C6000074C0C4FDFF838806CE000BF2054002078
:103C7000F052010088540020984F0020F8520100B3
:103C80008C4F00204C5500207C52010084550020B0
:103C900084520100CC540020E853002088550020B5
:103CA000D4530020286805F021FC49461F223860C3
:103CB000FDF7CCFB3B68C8F80000984225D020688F
:103CC00005F0EAFB8146206805F0F4FB8246206897
:103CD00005F0FEFBD8F8003005902068049305F04D
:103CE00013FC0390206805F01DFC03990091A0F5DA
:103CF000FA600190049B059A51464846FEF7F6F893
:103D00000020FEF7E9FACBF80000FDF701FC0422E1
:103D1000A849A94808F08CFAA74808F09FFA0020A3
:103D2000FEF7DAFA05F0E2FB0146A34808F000FBD3
:103D3000FEF7D4FDFDF74AFD9F4806F09BFA0220EE
:103D400007F030F8082007F019F801288146A9D0BB
:103D5000082007F013F80028FAD0022007F022F814
:103D6000964CDFF874824DE0286805F095FB172229
:103D70000021C8F80000FDF769FBD8F80030984230
:103D8000074622D0206805F095FB8146206805F0A3
:103D90009FFB8246206805F0A9FB0490206805F08F
:103DA000B3FB0390206805F0BDFB039A0092A0F5D9
:103DB000FA600190049B524649463846FEF796F851
:103DC0000020FEF789FACBF80000FDF7A1FB0522E1
:103DD0007B49794808F02CFA774808F03FFA002030
:103DE000FEF77AFA05F058FB0146734808F0A0FA8E
:103DF000FEF774FDFDF7EAFC6F4806F03BFA02207F
:103E000006F0D0FF082006F0B9FF0128ACD008204A
:103E100006F0B4FF0028FAD0022006F0C3FF674C7A
:103E2000684FDFF8B8814EE0286805F043FB3B227D
:103E300000213860FDF70AFB3B68C8F80000984293
:103E400024D0206805F028FB81462068D8F800A01F
:103E500005F03EFB0590206805F048FB04902068C3
:103E600005F052FB0390206805F05CFB039900917C
:103E7000A0F5FA600190049B059A51464846FEF76A
:103E800035F80020FEF728FACBF80000FDF740FBDC
:103E900007224D49484808F0CBF9474808F0DEF9B9
:103EA0000020FEF719FA05F005FB0146424808F02C
:103EB0003FFAFEF713FDFDF789FC3F4806F0DAF9FB
:103EC000022006F06FFF082006F058FF0128ABD053
:103ED000082006F053FF0028FAD0022006F062FF07
:103EE000364C3A4FDFF8F8804FE0286805F0F0FADA
:103EF0003B2200213860FDF7A9FA3B68C8F80000B2
:103F0000984225D0206805F0C7FA8146206805F060
:103F1000D1FAD8F8002005928246206805F0E6FA2A
:103F20000490206805F0F0FA0390206805F0FAFA92
:103F300003990091A0F5FA600190049B059A5146FF
:103F40004846FDF7D3FF0020FEF7C6F9CBF8000086
:103F5000FDF7DEFA07221E49174808F069F91648EE
:103F600008F07CF90020FEF7B7F905F0B1FA014638
:103F7000114808F0DDF9FEF7B1FCFDF727FC0E480B
:103F800006F078F9022006F00DFF082006F0F6FE94
:103F90000128AAD0082006F0F1FE00287FF447ABE4
:103FA000082006F0EBFE0028F4D0FFF740BB094FD5
:103FB00047E000BF8C520100885400208C4F002045
:103FC00094520100EC5300209C52010054550020F3
:103FD000A4520100C0540020AC0A0020D454002098
:103FE000845300209C4B1868FDF730FA9A4B1860F8
:103FF000FCF77EFEFDF78CFA05229849984808F0F8
:1040000017F9954B9648196808F092F9944808F00A
:1040100025F9386808F0E2FD00940B460246904806
:1040200008F08EF922468F498D4808F001F9FEF715
:1040300055FCFDF7CBFB8A4806F01CF9204606F03C
:10404000B1FE082006F09AFE01284FF002044FF05E
:104050000F024FF00001C5D0082006F08FFE0028A7
:104060007FF4E5AA082006F089FE0028F4D0FFF7C7
:10407000DEBA7D4CFDF74CFAFDF724FB0D217B48A1
:1040800007F048FD21687A4808F052F9784808F0AE
:10409000E5F80821774807F03DFD774B186808F0F0
:1040A0009DFD022702460B460097714808F048F92B
:1040B0006F4808F0D3F80821704807F02BFD2368FB
:1040C0006F4A6B4852F8231000230A2208F0F0F8D8
:1040D000674808F0C3F813216A4807F01BFD2268FF
:1040E000694B634853F8221000230A2208F0E0F8D5
:1040F0005F4808F0B3F80A226449594808F098F874
:10410000574808F0ABF80121554805F089FC132207
:104110005F49534808F08CF8514806F0ABF801208D
:10412000FEF7DAF84FF4FA6006F03CFE0123029342
:10413000584C2378002B3FF4E8A9FDF7C3FA4FF061
:10414000000300202370FEF7C7F8CBF80000FFF74C
:10415000DCB9514B0A221A60FFF7CCB9484BC83D75
:104160001D60FFF73AB9D4F87C0400286DD002F046
:1041700051FE0546FFF7F0B80423374A19460F20D1
:10418000136006F02BFCFFF791B90823434A194648
:104190000E20137006F022FCFFF783B90423404A77
:1041A00019460D20136006F019FCFFF775B93C2382
:1041B0003C4A194604201360FDF76CFA3A4B1B7811
:1041C000172B7FF64BA90023374A19460820137096
:1041D00006F004FC354B1B783B2B7FF644A90023EB
:1041E000324A19460920137006F0F8FB304B1B7851
:1041F000172B7FF63DA900232D4A19460A2013707C
:1042000006F0ECFB2B4B1B783B2B7FF636A90023EB
:10421000284A19460B20137006F0E0FBFFF72DB972
:104220003C23254A194600201360FDF733FAFFF7B7
:104230000AB9D2F87C345BB193F83D340120984040
:1042400009F01EF90146FFF7A3B80546FFF784B849
:104250000021FFF79DB800BF00FAFF1F7452010054
:1042600088540020CC50010090550020F0510100EE
:104270003000002000520100305500200C52010097
:104280009053002018520100385500202C52010094
:1042900038520100904F0020C4FAFF1F90FAFF1F10
:1042A00088FAFF1F9CFAFF1FDC0A00208C550020B3
:1042B00020540020984F002094FAFF1FCD4ACE4B87
:1042C0001168CE482DE9F04F19605768CC4E5F60F9
:1042D000CC490468CC4ACD4D0A2737601123CC4F16
:1042E0000B6083B040F2EE2613783BB12B78DB07EE
:1042F00004D5036839685B1A0E2B08D80368117857
:104300001B1B002900F0E081B3F5FA6FECD9C14C1A
:10431000C14DDFF86483DFF8649300264FF4FA7030
:1043200006F040FD2660642006F03CFD4FF430535B
:104330002360642006F036FD4FF43453236064207C
:1043400006F030FD0121102006F026FD012110208D
:1043500006F00EFD2968B148B14C33460A2207F039
:10436000A7FFAE4807F07AFF4FF47A7006F01AFD07
:104370002968AA4833460A2207F09AFFA74807F09F
:104380006DFF4FF47A7006F00DFD33460A2229685E
:10439000A248A44D07F08CFFA04807F05FFFA24899
:1043A00000F056FD3146282006F0F6FC304606F0B7
:1043B00011FA0121022006F0EFFC0121022006F093
:1043C000D7FC0121112006F0E7FC0121062006F0B0
:1043D000E3FC3146112006F0CBFC0121062006F05B
:1043E000C7FC0221042006F0D7FC0221032006F0BE
:1043F000D3FC0221082006F0CFFC01233C2202213D
:104400008A4805F02DFE8C2006F0CCFCFDF780F8E4
:104410000A228749854807F00BFF844807F01EFFF2
:10442000824805F027FF6E21824807F077FCD8F814
:10443000003059F8230009F027F820600120FDF72B
:104440004BFF7D4B2860984240F342810120FDF7ED
:1044500043FF2860D8F80000784FFDF77FFEFEF795
:10446000B7FED8F8006059F82600DFF8149209F07A
:104470000BF820603046FDF771FEFDF749F83B6808
:104480003B2B07D9B3F5967F34BF3C234FF496738B
:10449000C9F800300120FDF71FFFDFF8E881684907
:1044A000D9F80030674ED8F80020096890FBF3FE79
:1044B000286003FB0E336448336001291344036012
:1044C00000F01181104608F0DBFF2168DFF8B8B179
:1044D000DFF8B89109F02CF84FF06E5109F028F888
:1044E0004FF0745109F024F808F078FB08F0FCF85C
:1044F0000022564B08F0C6FB08F074FE544A3B6895
:104500001468544A1C1B544B126824EAE47A83FB57
:104510000A1302FB00F253444FEAEA70CBF8002082
:10452000C0EBE32008F048FB08F066F908F05AFEFB
:104530004A4C4B4BC9F8000004FB00A483FB042346
:104540002344E017C0EB631008F036FB08F054F981
:1045500008F048FEDFF838A1DFF838B1A0EB001210
:10456000034604EB820410213E48CBF80030CAF821
:10457000004007F0CFFAD9F80010284807F0D8FE1D
:10458000DBF80010254807F0D3FEDAF800102348C6
:1045900007F0CEFE214807F061FE0821324807F0FF
:1045A000B9FAD8F800101D4800230A2207F080FE4F
:1045B0001A4807F053FE08212C4807F0ABFA0A22EC
:1045C00000233968154807F073FE144807F046FECB
:1045D0000E21274807F09EFA2868FCF7AFFF0C2150
:1045E000244807F097FA3068FCF7A8FF33682C6876
:1045F00052E000BF58800440B4530020E856002029
:10460000D8530020C4530020CC570020E45700208A
:104610009458002010D0034000D003403000002008
:10462000285500208C4F0020705600208854002010
:10463000005301000082FF1FCB7E0F649CFAFF1F16
:10464000C4540020944F0020BC5300200000404080
:1046500004FAFF1F0CFAFF1FC5B3A291F0F1FFFF90
:10466000898888880C530100205301002C530100D5
:104670002C5101003853010088FAFF1F3CFAFF1F3C
:104680008CFAFF1F94FAFF1F8C530020C85400209F
:104690002C5500201C54002015481C1B152107F028
:1046A00039FA2146134807F043FE124807F0D6FDB9
:1046B0001149124B00204FF0FF3208601A6003B01E
:1046C000BDE8F04FFCF7F8BCB3427FF60DAE1EE636
:1046D000032217238DE80C003146012332461020B7
:1046E000FDF704FCB2E6FEF725F8D8F80020E9E66D
:1046F0004853010030000020B00A0020505500202F
:10470000002070470020704738B5242908BFC280B8
:104710000C46017A0E48154600F046FCC4F307210A
:104720000B4800F0EFFAE1B2094800F0EBFAC5F3EC
:104730000721074800F0E6FAE9B2054800F0E2FA7E
:10474000034800F0F3FDB0FA80F0400938BD00BF27
:104750007056002038B5012504460571334800F035
:1047600077FB052006F01EFB204644F26002302154
:10477000FFF7CAFF20466C222621FFF7C5FF20461F
:104780004FF4F9722821FFF7BFFF204640F622724E
:104790002C21FFF7B9FF204644F246423C21FFF7A7
:1047A000B3FF204640F237122421FFF7ADFF204629
:1047B00044F2FF023021FFF7A7FF732202212046B7
:1047C000FFF7A2FF4FF4C87006F0ECFA204641F65E
:1047D0001D522E21FFF798FF042211462046FFF7B5
:1047E00093FF20464FF498720621FFF78DFF204675
:1047F00010220A21FFF788FF204600220E21FFF732
:1048000083FF204643F63C421021FFF77DFF204600
:1048100047F67F722221FFF777FF204636222421B8
:10482000FFF772FF6572284638BD00BF7056002042
:1048300038B50546F1B1802903799ABFC1F18004EA
:1048400044EA0424002433B9224628462221BDE844
:104850003840FFF759BFC288002322F010020371CD
:104860002421FFF751FF224628462221BDE8384087
:10487000FFF74ABF0123037147F67F722221FFF73A
:1048800043FFEA8842F01002284692B22421BDE894
:104890003840FFF739BF00BF0B4610B50749044643
:1048A000184608F045FE064908F03AFD09F02CF8D4
:1048B00001462046BDE81040FFF7BABF00000143A3
:1048C000EE7CFF3E10B5044619B1012911D000203D
:1048D00010BD55222021FFF717FF0028F7D0E288EE
:1048E00042F00402204692B22421BDE81040FFF7B6
:1048F0000BBF40F273122A21FFF706FF0028E6D013
:10490000882220212046FFF7FFFE0028DFD0E28822
:10491000204622F004022421BDE81040FFF7F4BE37
:1049200010B5044607F0FEFB204610BD024A0349BD
:10493000034807F0E9BF00BFFCF9FF1F2149000051
:10494000C85500201B4A1C4B11681C48096970B4EB
:1049500099421279027009D2194A127832B3194A6F
:104960004FF08041116003F5807402E01C46A3F50E
:104970008073154A154912680D68AAB1A5B1144E85
:104980003088402810D841000A444030294402327F
:104990000231308033F9040B22F8020F9C4233F9C4
:1049A000020C21F8020FF5D870BC704703F5807433
:1049B000DFE700BFD8550020B8F2FF1F1F8000407E
:1049C000D255002008E200E0E0550020D455002038
:1049D000D0550020F8B5064607F0D0F90446E8B1F6
:1049E00007F0CCF9054600283AD072B61F4B1A885A
:1049F0007F2A19D8002C31D01D490A6842B162B60D
:104A0000204607F00FFA2846BDE8F84007F00ABA3A
:104A100018480C601A80056062B6F8BD054672B68B
:104A2000124B1A887F2AE5D9114A12491768146077
:104A300000220C681A800D6062B63946304607F0D5
:104A40001BFA384607F0EEF930462146012207F0FE
:104A500013FA2046BDE8F84007F0E4B962B6F8BDA5
:104A6000204607F0DFF92C46BFE700BFD0550020F5
:104A7000E0550020D4550020F8B5284C284E20469B
:104A8000012107F0EBFA00F083F8264B264A27486D
:104A90004FF480611960236800211A60998022799F
:104AA000186102F1804202F5043240F20110D88010
:104AB0009E614FF48075022006278E26DD82D96024
:104AC000DD8398609F8398821170167007F06CFAEE
:104AD0001749184B2279184F08701A7039682279D3
:104AE000164C174D174E41F0124141F00101531180
:104AF00039609B00206803F1604302F1100703F561
:104B0000614302F01F02012140F0104001FA02F25D
:104B1000206045F827601A60F8BD00BFD855002016
:104B200000FEFFFF14B00440A0F00240B8F1FF1FE8
:104B3000D25500201B80004080F0024000F002406F
:104B400000F4FF1F45490000024A0349034807F0EB
:104B5000DBBE00BFFCF9FF1F21490000D855002033
:104B6000024A0349034807F0CFBE00BFFCF9FF1F0C
:104B700021490000E4550020024A0349034807F098
:104B8000C3BE00BFFCF9FF1F21490000EC55002007
:104B9000284B29491A68294842F400421A600A68D9
:104BA00042F002020A601A6842F002021A600368C8
:104BB000002B3DDB224B1B68002B39DB214A4FF0D9
:104BC000864313601368002BFCDBF0B51E4C1F48B6
:104BD000DFF8ACE01E491F4B1F4A204F204E214DED
:104BE00041F2100CC4F800C0002404600120CEF88B
:104BF0000000DFF890E0C1F800E04FF48031196068
:104C0000194B1360DFF880E0184A3A60346028607E
:104C10001748CEF80000174CB9671748174946F8EF
:104C2000503C4FF4C0632A61236003600B60F0BD09
:104C3000704700BF3C8004404080044000F00240C8
:104C400080F0024000F1024004F1024060F00240B6
:104C500008F002400CF0024010F0024014F0024054
:104C6000E0F0024084F002401B0F0100000F0F0F24
:104C70000300004708B004400CB0044018B00440E2
:104C800004F002400300000788F00240024A034992
:104C9000034807F039BE00BFFCF9FF1F214900009F
:104CA000F4550020024A0349034807F02DBE00BF17
:104CB000FCF9FF1F21490000FC550020024A03496E
:104CC000034807F021BE00BFFCF9FF1F2149000087
:104CD00004560020024A0349034807F015BE00BFEE
:104CE000FCF9FF1F214900000C560020024A03492D
:104CF000034807F009BE00BFFCF9FF1F214900006F
:104D0000145600200A4B1B7813B90A4B1B786BB161
:104D1000094A1378202B07D810B4581C074C107080
:104D2000E154012010BC704701230371002070473B
:104D3000825600204556002083560020245600202D
:104D4000704700BF024A034B10781B78C01A7047A7
:104D50008156002080560020064A074913780978BA
:104D6000994204D90548591CC05C117070474FF036
:104D7000FF307047805600208156002048560020A2
:104D8000054B064A1B7812789A4286BF044AD05CCB
:104D90004FF0FF30704700BF805600208156002042
:104DA0004856002070B50D4B1B78144613B90C4BB8
:104DB0001B788BB10B4E3578C5F12103A34202D28B
:104DC00001221C460271084822462844254405F069
:104DD0001BFB3570204670BD184670BD8256002002
:104DE000455600208356002024560020124BDB78C5
:104DF00003F020034BB1114A13780133DBB2012BCE
:104E0000137012D9122005F055BF10B5122003F00F
:104E1000FF0405F04FFF0A4B1B685BB109490A4AC2
:104E20000C701078BDE810401847084B1B78002B19
:104E3000E8D0704710BD00BF006006406C560020EF
:104E40002056002080560020815600204556002024
:104E50000D4A0E4BF0B500200D4C10702268DFF8A3
:104E600038E00C4F42F0400222604FF419712726BF
:104E70000425202480229870CEF8001039605E70DE
:104E80009D715C719A70F0BD45560020006006402F
:104E90003480044008A004400CA0044010B5384CF5
:104EA000E378DBB2D80623D510225906E2701ED56E
:104EB00003F0040303F0FF02002B33D0314B3249DF
:104EC0001A68324C00230B702370002A3BD09047A5
:104ED0002378002B37D02E4B1B78294A2D49D0241C
:104EE00094701371264B012002220870DA7010BDF5
:104EF0005A06DDD4A27802F0100202F0FF0042B39D
:104F000013F001031BD1234920480A78007890420E
:104F100081BF1F4B501C9B5C08702371184BD02223
:104F20009A7008E01C48164B174902700120C022F5
:104F300008709A701B79124B0222DA7010BDC023E0
:104F4000A3702379F7E71249002301220B70227026
:104F5000C3E7124B124918700322122005F02EFEEF
:104F60000D4923790A781F2ADBB2E4D80648007875
:104F70000028E0D00B4C501CA3540870DBE700BFA6
:104F800000600640685600201C5600208356002012
:104F90002456002084560020815600206C560020A4
:104FA000ED4D0000485600200548064A10B4012384
:104FB000054C037049001370217010BC704700BF8E
:104FC0008256002083560020245600202DE9F04709
:104FD000584C1223E370A37803F0200382B0002B17
:104FE00054D0B423DFF860A1A370DAF80020514C4C
:104FF0000020E378DBB2934218BF01209F061A46D7
:10500000F7D5002840F08D804B4B1B78002B34D017
:1050100003F1FF3C5FFA8CFC0027DAF80020DFF890
:105020002CE1444D0CF1010C3C464FF002081EF8F7
:10503000013F2B715FFA87F9104601E09E0608D503
:10504000EB78DBB293421CBF184601249E071A4638
:10505000F4D585F80380EE78F6B2B3420EBF02466F
:1050600032460124F30633D4B30631D5F30744D4D2
:1050700001376745DBD1002C4AD1002000292ED111
:105080002E4B00221A7002B0BDE8F0872C4DDFF8DD
:10509000B8A003F0FF022B680093009EDAF800002E
:1050A00005E02B680193019B9B1B0F2B1BD8E3781A
:1050B000DBB2834218BF012213F0200F1846F0D153
:1050C00092BB20481B4B0024B02204709A708CE7DE
:1050D0000CBB184B80229A7004200029D0D0154BAD
:1050E00080229A70CCE7CAB9124B0021802204209A
:1050F00099709A7002B0BDE8F087C4B90D4BB9F150
:10510000000F4FF080020CBF022003209A70B7E717
:10511000CAF80020B1E7CAF80020DAE7CAF80000B0
:10512000E2E7CAF800306FE7CAF80030C9E7CAF80A
:105130000020E3E7006006408356002082560020EE
:10514000E856002045560020F8FAFF1F235600209D
:105150002DE9F04F624E634DDFF898910020122444
:10516000287089F80000F470B07800F02000002862
:1051700055D0B420DFF880A1B070490041F00101A2
:10518000574EC9B23171DAF8000000240546F178B3
:10519000C9B281421CBF0D4601248F070846F6D5CF
:1051A000002C40F091804E480224C470C078C0B2F8
:1051B000884218BFCAF8000010F0110076D1002A0A
:1051C00044D0012A78D0464D474FA021A97002F162
:1051D000FF3BA2F1020E2979DAF8004006465FFA99
:1051E0008BFC5FFA8EFE4FF00208E978C9B2A1424B
:1051F00018BF01200C46A107F7D5711CB64585F8EC
:105200000380CEB22AD0297907F8011F6645ECD178
:1052100008B1CAF80040354EE34610462AE0DFF8F0
:10522000D8A0DAF8004000F0FF05F078C0B2A04244
:1052300018BF01250446A006F7D4002D47D12C4CF9
:10524000274800252570B024847096E7002B244B56
:105250000CBFA02280229A70BDE8F08F002839D1BF
:105260001F49224EA8208870097906F80E105FFAAF
:105270008BFB1046DAF80040194F0025F978C9B2C7
:105280008C4218BF01250C46A107F7D52DBB144948
:10529000B0240225CD708C700C7906F80B400BB150
:1052A00080238B7089F80020BDE8F08F0C4B8022A2
:1052B0009A700020BDE8F08F09490C4EA8248C702C
:1052C000834609791046D5E7CAF800506BE7CAF85B
:1052D0000040B4E7CAF80040C2E7CAF80040D6E789
:1052E00000600640805600204756002048560020A7
:1052F0004556002081560020F8FAFF1FDBB2D2B2DB
:10530000C9B2FFF725BF00BF0548064A10B4012304
:10531000054C037049001370217010BC704700BF2A
:105320008256002083560020245600200121FFF7DA
:105330004DBE00BF044B054A1A604FF47A7100223B
:1053400099601A711A7370477056002064550100F5
:1053500010B4047F4160022CC26002D010BC06F081
:10536000FBBE836810BC18472DE9F0410468E5686E
:1053700015F0807F794D256052D1DF0740F1B38071
:10538000002900F0E3800D78012B18BF45F000459F
:105390006563013190F8248003F1FF3C48EA082856
:1053A000BCF1000F00F0A88021B14D7811F8028BFC
:1053B00045EA082845682E7ABCF1020F06F1FF364F
:1053C0004FEA06360CBF48F0805548F01045B6B29B
:1053D0006563ACF1020C08E00AB114700132013BC4
:1053E00005F47045B54216D90468E56A15F0F00F6A
:1053F000F6D0A46B13F0010F17464FEA242EEBD121
:105400001AB107F802EB54703A4605F47045B542FC
:10541000A3F10203E8D8BCF1000F6DD00468C3E724
:10542000DD074CD5002900F089800D78012B18BFCD
:1054300045F000456563013103F1FF3E90F824C05B
:10544000BEF1000F41D029B191F801C00D780231B1
:1054500045EA0C2C45682E7ABEF1020F06F1FF36A4
:105460004FEA06360CBF4CF080554CF01045B6B2F2
:105470006563AEF1020E08E00AB114700132013B1F
:1054800005F47045B54215D90468E56A15F0F00FCA
:10549000F6D013F0010F1746A46BEDD122B107F837
:1054A000024B241254703A4605F47045B542A3F1FC
:1054B0000203E9D8BEF1000F07D00468C3E79E4697
:1054C00090F824C0BEF1000FBDD11BB30468E16A9F
:1054D00011F0F00FFBD0A16BDC071DD50AB11170E4
:1054E0000132013BF1E790F824809C4648EA082805
:1054F000BCF1000F7FF458AF63B10468E16A11F0AA
:10550000F00FFBD0DE07A16B0FD50AB1117001328D
:10551000013BF1E7BDE8F0812AB114460D1204F811
:10552000021B55702246023BCFE72AB114460D12EA
:1055300004F8025B51702246023BDDE790F82450EC
:10554000012B18BF45F00045656375E790F82450BE
:10555000012B18BF45F0004565631BE700041F8061
:10556000F0B4464B464A186BDC6A01791170454924
:1055700022790A709A6A00790870002A46D0596820
:10558000C9688A423ED82168CC8B240402F1FF30DE
:1055900065D4C0F30E00C883C88B80B2C882196B73
:1055A0000968C88B000452D4C2F30E00C883C88BAC
:1055B000002480B212F1FF32C88218BF01229C621F
:1055C000D96A2E4809680D6800F12404A54236D036
:1055D0000068C46814F0804F0C680D6815BF2488FB
:1055E00024780235013544F000440D604463196BA2
:1055F000254B09791970214912B1CA6A12791A70BA
:10560000F0BC7047521A9A620122D9E7586B1968A8
:1056100005681E4C0A63CC62CC682D681C4E24F0D1
:1056200080440327B542CC6083F825701FD1037FE7
:105630004260022BC2601ED0F0BC06F08DBD016836
:1056400090F82400CC6840F000404863CFE7CC8B52
:10565000C2F3080004F47E442043C883A7E7CC8B40
:10566000C0F3080004F47E442043C88394E72B462B
:105670001146F0BC18478368F0BC1847FCFAFF1FBE
:105680001F8000401C8000401B80004000000FFF76
:105690005153000090E80C00F0B41C68596825686C
:1056A000164F174E29432160164D17491760D660D3
:1056B00015611160417A154A5C180A3194F824404A
:1056C00053F8215002EBC40149680D60017A5C185F
:1056D00003EB8101247ECD6902EBC40149680D60B2
:1056E000817A581803EB810390F83000596B02EB74
:1056F000C002F0BC53681960704700BF01401F0032
:10570000011000380110007800001F806C5C01005F
:105710004268036805CA10B4046822430260D8686E
:10572000840100F0E06205D5080900F4706021F4FE
:1057300070410143D8681143814209D01A6850046E
:1057400008D40748186041F08040D96018611A6099
:1057500010BC704741F08042D96010BC1A6170479C
:1057600001401F00204A43689A42F0B40FD0427AA9
:105770001A4492F82420914207D093F824408C4296
:1057800015D093F825408C422AD0F0BC70470B29E5
:1057900007D00729EBD1154C227842F00102227084
:1057A000E5E7124C227822F001022270DFE70024A4
:1057B00021461E685D6836682E420FD00C4D05EB01
:1057C000C202002756685A18376092F8242005EB69
:1057D000C2050A316A6853F8213013604472D4E775
:1057E00001242146E5E700BF0C5601002D5800209A
:1057F0006C5C01001E4A43689A42F0B40CD0027AF5
:105800001A44127E914205D01C7E8C4214D05C7EDC
:105810008C422AD0F0BC70470C2907D00829EED161
:10582000144C227842F002022270E8E7114C2278F0
:1058300022F002022270E2E7002421461E685D6821
:1058400036682E420FD00C4D05EBC2020027566879
:105850005A183760127E063105EBC20503EB81034F
:105860006A685B6813600472D4E701242146E5E7A7
:105870000C5601002D5800206C5C0100204A436842
:105880009A42F0B40FD0827A1A4492F830209142B2
:1058900007D093F830408C4215D093F831408C42B9
:1058A0002BD0F0BC70470D2907D00E29EBD1154C39
:1058B000227842F004022270E5E7124C227822F0AE
:1058C00004022270DFE7002421461E685D68366806
:1058D0002E4210D00C4D05EBC202002756685A1814
:1058E000376092F830200C3105EBC20503EB8103E1
:1058F0006A685B6813608472D3E701242146E4E799
:105900000C5601002D5800206C5C01000BB1FFF714
:105910002BBD704710B5044600F03CFD002384F811
:10592000313084F8333010BD90F831200AB10020B6
:10593000704738B504460D461146382208F0E6FD9A
:105940004023012084F8313084F83300256238BDCB
:10595000F0B50878202803D111F8010F2028FBD0DA
:1059600051600878002851D02F282BD05C2820D0F7
:10597000A0F12204E4B21D2C1DD9DFF894E04E1CE6
:1059800000247C28A0F12005374612D05E2D10D8C7
:1059900016F8010BA0F12205EDB2013478B32F28DF
:1059A00011D05C282EFA05F703D01D2DE9D8FD078C
:1059B000E7D50020F0BD164D25FA04F4E607DCD546
:1059C0000020F0BD00240F193E4625462F2002E09E
:1059D00016F8010F01352028FAD02F28F8D02944D5
:1059E000196044B1394611F8013D2E2B01D0202B0E
:1059F00008D1013CF7D1204610600120F0BD1F60A6
:105A00000F19EFE7FF2CF6DD0020F0BD1960F3E77A
:105A1000010100352DE9F04790F83330DD0782B001
:105A2000044640F1AD8058060D46164640F1B3805D
:105A3000D4E90001D4E9042310EB060841F1000980
:105A40004B4508BF4245C0F0AC80002E00F0AB8053
:105A5000A146F9E80623B04650E013436CD194F810
:105A600031305A064CBFD0F82C14E169A16190F88E
:105A70003DC4D0F8242402397F0A01FA0CFEB9187B
:105A80007144BAF1000F43D1B8F5007F40D3D0F88C
:105A9000142291423CD0B8F5806F54D34FF0010AE4
:105AA0000AFA0CFCC7EB0C074FEA582ABA4528BF84
:105AB000BA4691424FEA4A270CD80AEB01039342B7
:105AC00008D900F50370019100F0B2FF002857D00B
:105AD000206A0199D0F8380453462A4603F058F852
